:020000040800F2
:100000007006002079020008CF0E0008450E000897
:10001000CD0E00087F030008550F00080000000007
:10002000000000000000000000000000D30E0008E7
:100030008103000800000000D10E0008D50E000862
:10004000930200089302000893020008930200083C
:10005000930200089302000893020008930200082C
:10006000930200089302000893020008930200081C
:10007000930200089302000893020008930200080C
:1000800093020008930200089302000893020008FC
:1000900093020008930200089302000893020008EC
:1000A00093020008930200089302000893020008DC
:1000B00093020008930200089302000893020008CC
:1000C00093020008930200089302000893020008BC
:1000D00093020008930200089302000893020008AC
:1000E000930200089302000893020008930200089C
:1000F000930200089302000893020008930200088C
:10010000930200089302000893020008930200087B
:10011000930200089302000893020008930200086B
:10012000930200089302000893020008930200085B
:10013000930200089302000893020008930200084B
:10014000930200089302000893020008930200083B
:10015000930200089302000893020008930200082B
:10016000930200089302000893020008930200081B
:10017000930200089302000893020008930200080B
:1001800093020008930200089302000893020008FB
:100190009302000800000000930200089302000888
:1001A00093020008930200089302000893020008DB
:1001B00093020008930200089302000893020008CB
:1001C00093020008930200089302000893020008BB
:1001D000930200089302000800F002F800F03CF8D7
:1001E0000AA090E8000C82448344AAF10107DA4592
:1001F00001D100F031F8AFF2090EBAE80F0013F0A8
:10020000010F18BFFB1A43F001031847CC0D000083
:10021000EC0D0000103A24BF78C878C1FAD8520714
:1002200024BF30C830C144BF04680C607047000070
:100230000023002400250026103A28BF78C1FBD8EF
:10024000520728BF30C148BF0B6070471FB500F090
:10025000B5FE1FBD10B510BD00F058F81146FFF7F0
:10026000F5FF00F089FE00F076F803B4FFF7F2FF27
:1002700003BC00F07DF800000948804709480047AA
:10028000FEE7FEE7FEE7FEE7FEE7FEE7FEE7FEE746
:10029000FEE7FEE704480549054A064B70470000A3
:1002A000450F0008D90100087000002070060020EA
:1002B00070020020700200204FF0000200B51346CB
:1002C00094469646203922BFA0E80C50A0E80C5076
:1002D000B1F12001BFF4F7AF090728BFA0E80C5027
:1002E00048BF0CC05DF804EB890028BF40F8042B20
:1002F00008BF704748BF20F8022B11F0804F18BF8D
:1003000000F8012B7047704770477047754600F042
:100310002BF8AE4605006946534620F00700854697
:1003200018B020B5FFF7B6FFBDE820404FF000063B
:100330004FF000074FF000084FF0000B21F00701CD
:10034000AC46ACE8C009ACE8C009ACE8C009ACE810
:10035000C0098D46704710B50446AFF300802046B3
:10036000BDE81040FFF781BF004870471000002033
:1003700001491820ABBEFEE7260002007047FEE7E9
:100380007047000070B5044600F032F90546601C65
:1003900002D004484068044400F02AF9401BA042FF
:1003A000FAD370BD000000202DE9F04FDFF80C9269
:1003B000002301260325A9F1040B85B00F2709F1BD
:1003C000040AABF1040EF1E006FA03FC12EA0C0297
:1003D0007ED00C7904F00304012C01D0022C20D132
:1003E000846800945C0005FA04F80494009C24EAF4
:1003F00008040094D1F80C80049C08FA04F8009CCE
:1004000048EA0408C0F80880446824EA0C0491F81B
:1004100004C0CCF3001C0CFA03FC4CEA040CC0F83A
:1004200004C00C79E443A40702D18C68012C0ED0DF
:10043000C4684FEA430805FA08FC24EA0C04D1F822
:1004400008C00CFA08FC4CEA040CC0F80CC00C798B
:1004500004F00304022C16D1DC0800EB840CCDF868
:1004600008C0DCF820C05C074FEAD46807FA08F43B
:100470002CEA040C0C6904FA08F444EA0C04DDF8D4
:1004800008C0CCF8204004684FEA430805FA08FC8D
:1004900024EA0C0491F804C00CF0030C0CFA08FCDC
:1004A0004CEA040CC0F800C04C6814F4403F7CD007
:1004B000434CD4F860C04CF0010CC4F860C0246E0A
:1004C00023F0030C04F0010400943E4C644400E06B
:1004D0006BE00294A4684FEA837C4FEA1C7807FA29
:1004E00008FC24EA0C04B0F1904F06D0DFF8D8C025
:1004F000604505D14FF0010C20E04FF0000C1DE0ED
:10050000DFF8C8C0604502D14FF0020C16E0DFF8FA
:10051000C0C0604502D14FF0030C0FE0DFF8B4C05B
:10052000604502D14FF0040C08E0DFF8ACC0604534
:1005300002D14FF0050C01E04FF0060C0CFA08FC5C
:100540004CEA040C029CC4F808C0D9F80040CC4620
:10055000D1F8048094435FEAC82800D51443CCF84E
:100560000040DAF80040D446D1F8048094435FEAB2
:10057000882800D51443CCF80040DBF80040DC4666
:10058000D1F8048094435FEA883800D51443CCF84E
:100590000040DEF80040F446D1F8048094435FEA5E
:1005A000C83800D51443CCF800405B1C0C682246C8
:1005B000DC407FF409AF05B0BDE8F08F08040140CE
:1005C00000100240000001400004004800080048FC
:1005D000000C004800100048001400480069084062
:1005E00000D0012070470AB1816170478162704775
:1005F00001488068704700000000002002488168C0
:1006000042681144816070470000002010B500244A
:10061000032000F065F80F2000F008F808B101246D
:1006200001E000F025F8204610BD000070B50E4E28
:1006300005460024706898B14FF47A71B1FBF0F070
:100640000A490968B1FBF0F000F0E8FB40B9102D51
:1006500006D200222946501E00F022F8356000E044
:100660000124204670BD0000000000200C00002086
:100670000A4882B0016E41F001010166016E01F08D
:1006800001010091816D41F080518165806D00F024
:100690008050009002B000F093B8000000100240BB
:1006A000F0B40E4B1B680C46C3F30223C3F10705DD
:1006B000042D00D90425191D072901D2002300E0CB
:1006C000DB1E012606FA05F1491E214099409E4095
:1006D000761E16403143F0BC00F03DBC0CED00E04E
:1006E000064900F0070208684FF6FF03184040EA89
:1006F0000220034A10430860704700000CED00E040
:100700000000FA052B492C4B0A6832214A432B4939
:1007100040B1B0F5007F086829D020F4C06040F4F3
:1007200080602CE00868C0F34120022804D051F812
:10073000800F20F4807022E0D1F8800020F48070D7
:10074000C1F88000086820F4C06040F400700860C0
:10075000B2FBF3F0401C00E0401E4A69520501D58F
:100760000028F9D1486940050AD503207047C0F335
:100770004120022806D051F8800F40F480700860B4
:1007800000207047D1F8800040F48070C1F88000EC
:10079000086820F4C06040F400700860B2FBF3F019
:1007A000401C00E0401E4A695205DBD50028F9D103
:1007B000D8E700000C00002040420F00007000400D
:1007C0000248816841F480418160704700700040B8
:1007D0002DE9F0470E4605004FF0000725D0DFF861
:1007E000AC81D8F8000000F00F00B0420CD2D8F86D
:1007F000001021F00F013143C8F80010D8F80000B4
:1008000000F00F00B04210D12968614CC80741F2D6
:10081000883A5AD06868DFF87C91032808D002280B
:1008200020682DD0400500282CDB0120BDE8F08792
:1008300020688001F9D5E06800F00302E068C0F3A9
:100840000310401C032A19D0534A00BFB2FBF0F03A
:10085000E268C2F306225043E268C2F34162521CCE
:100860005200B0FBF2F0484517D9A06810F0F00F25
:100870000CD0880711D5A86840B10EE0474AE5E7DB
:100880008003D0E700F092F8484506D9A06820F030
:10089000F00040F08000A0608027A068696820F028
:1008A00003000843A060FFF7A3FE814606E000BFF7
:1008B000FFF79EFEA0EB090151453AD8A068696890
:1008C00000F00C00B0EB810FF2D12868810714D53D
:1008D000400703D5A06840F4E060A06028780007D6
:1008E00005D5A06820F4605040F4E060A060A068E6
:1008F000A96820F0F000084304E0802F03D1A0682D
:1009000020F0F000A060D8F80010404601F00F0180
:10091000B14216D9016821F00F0131430160FFF7A0
:1009200067FE074607E000BFFFF762FEC11B5145A7
:1009300001D903207AE7D8F8000000F00F00B04298
:10094000F2D12878400705D5A068E96820F4E06076
:100950000843A0602878000706D5A068296920F41C
:10096000605040EAC100A06000F020F8A1680C4A85
:10097000C1F30311515C01F01F01C840094908602F
:1009800009480068BDE8F047FFF750BE002002406C
:100990000010024000B4C4040024F40000127A00E5
:1009A000C60F00080C00002000000020184910B5F8
:1009B0008868C0F381021748012A0BD08A68431067
:1009C000C2F38102022A06D08A68C2F38102032A96
:1009D00003D0002010BD184610BDCA6802F0030401
:1009E000CA68C2F30312521C032C02D0B0FBF2F00F
:1009F00001E0B3FBF2F0CA68C968C2F306225043B3
:100A0000C1F34161491C4900B0FBF1F010BD000089
:100A1000001002400024F4002DE9F84304007AD0CD
:100A20002078F84DC00747D0A868E96800F00C00AE
:100A300001F003010C2802D0082817D001E0032997
:100A400014D06068B0F5803F17D0B0F5A02F2868AB
:100A500017D020F480302860286820F48020286097
:100A60006068E0B1FFF7C4FD064614E02868800323
:100A700022D560680028D2D01EE0286840F480307B
:100A8000EDE740F480202860F7E700BFFFF7B0FDF6
:100A9000801B642870D828688003F7D50CE0FFF726
:100AA000A7FD064605E000BFFFF7A2FD801B6428F6
:100AB000F0D828688003F7D4207880074CD5A86840
:100AC000E96800F00C0001F003010C2802D00428B2
:100AD0000DD001E002290AD0E068002828682BD058
:100AE00040F480702860FFF783FD064619E028680F
:100AF000400502D5E068002891D06868217C20F08C
:100B0000FE4040EA01606860BF480068FFF78EFD64
:100B1000002800D120E072E1FFF76AFD801B022867
:100B2000B8D828684005F7D56868217C20F0FE40D9
:100B300040EA016068600FE020F480702860FFF7F1
:100B400057FD064605E000BFFFF752FD801B022857
:100B5000A0D828684005F7D42078000729D5606917
:100B60000028D5F8940013D040F00100C5F8940097
:100B7000FFF73EFD064606E090E000BFFFF738FDB8
:100B8000801B022886D8D5F894008007F6D510E09F
:100B900020F00100C5F89400FFF72AFD064604E0A6
:100BA000FFF726FD801B022878D8D5F8940080072F
:100BB000F6D42078400761D5A86D0026C00008D47F
:100BC000A86D40F08050A865A86D012600F0805007
:100BD00000908E480168C90511D40168804641F42F
:100BE00080710160FFF704FD074604E0FFF700FD98
:100BF000C01B022852D8D8F80000C005F6D5A0685E
:100C0000012815D00528D5F8900016D020F0010055
:100C1000C5F89000D5F8900020F00400C5F89000C9
:100C2000A06841F28838B8B1FFF7E2FC07460EE051
:100C3000D5F8900040F00100F0E740F00400C5F85E
:100C40009000F5E7FFF7D4FCC11B414526D8D5F845
:100C500090008007F6D50CE0FFF7CAFC074604E0D9
:100C6000FFF7C6FCC11B414518D8D5F89000800796
:100C7000F6D41EB1A86D20F08050A86520788006BB
:100C800029D5A0690028D5F8980013D040F00100BC
:100C9000C5F89800FFF7ACFC064606E075E000BF1B
:100CA000FFF7A6FC801B02286FD8D5F898008007B4
:100CB000F6D510E020F00100C5F89800FFF798FC89
:100CC000064604E0FFF794FC801B02285DD8D5F8A7
:100CD00098008007F6D4E069F0B3A968C1F38101F8
:100CE00003295DD00228286820F08070286003D096
:100CF000FFF77EFC04464BE0FFF77AFC064604E073
:100D0000FFF776FC801B02283FD828688001F7D4C3
:100D1000F4E908016FF00F0202EB01110843218A88
:100D20005204490802EB4151A26841EA02210843FA
:100D3000217D4FF07E42490802EB41610843217B4F
:100D400040EAC160E968324A11400843E860286817
:100D500040F08070286000E05EE0E86840F080705D
:100D6000E860FFF745FC044605E000BFFFF740FCE4
:100D7000001B022809D828688001F7D54CE000BF85
:100D8000FFF736FC001B022802D90320BDE8F883D8
:100D900028688001F4D4E8681E490840E8603BE018
:100DA0000128F3D0E868226A00F00301914226D1BD
:100DB000616A00F0F0020901103991421FD1A26A64
:100DC00000F4FE41B1EB022F19D194F82C2000F071
:100DD0007841B1EBC26F12D1218E00F4C0024908F4
:100DE0004905A1F50011914209D194F8341000F0A1
:100DF000C06049084906A1F1007181420CD0012070
:100E0000C4E7000000100240000000200070004015
:100E10000C809F01FCFFEEFE0020B7E710B5401EDE
:100E2000B0F1807F01D3012010BD4FF0E02460615C
:100E30000F21601700F08FF80020A06107202061CB
:100E4000002010BDFEE7000070B586B01421684692
:100E5000FFF732FA1B48C16C41F00401C164C16C58
:100E600001F004010591C16C41F02001C164C16C25
:100E700001F020010591C16C41F00101C164C06C19
:100E8000114E00F001004FF400540590002221465D
:100E90003046FFF7A8FB00250220CDE90250009460
:100EA0000124694601943046FFF77EFA8020CDE99F
:100EB0000005694602944FF09040FFF775FA06B0BE
:100EC00070BD00000010024000080048FEE7FEE789
:100ED00070477047FFF792BB00B593B03821684662
:100EE000FFF7EAF914210EA8FFF7E6F94FF40070B6
:100EF000FFF708FC0220C101039140210491042165
:100F0000CDE9080100904B21CDE90A1007900C9023
:100F10000D906846FFF780FD08B172B6FEE70F201E
:100F20000E9003200F900020109011901290042139
:100F30000EA8FFF74DFC002801D072B6FEE713B0F3
:100F400000BD00000248016841F470010160704773
:100F500088ED00E0FEE70907090E002804DB00F138
:100F6000E02080F80014704700F00F0000F1E0204E
:100F700080F8141D70470000FFF748FBFFF7ACFF37
:100F8000FFF762FF0C4E4FF090444FF40055802164
:100F90002046FFF723FB38B91420FFF7F3F980212F
:100FA0002046FFF71BFB28B1012229463046FFF7F8
:100FB0001AFBECE70022F8E7000800484FF0407009
:100FC000E1EE100A7047000000000000000001027E
:100FD0000304060708090000F80F000800000020BD
:100FE0001000000014020008081000081000002083
:100FF0006006000030020008100000000100000040
:08100000000000000024F400D0
:04000005080001D915
:00000001FF
