:020000040800F2
:10000000F00B0020A5230008CD030008CF03000853
:10001000D1030008D3030008D50300080000000046
:10002000000000000000000000000000D7030008EE
:10003000D903000800000000DB030008DD0300080E
:10004000BF230008BF230008BF230008BF23000808
:10005000BF230008BF230008BF230008BF230008F8
:10006000BF230008BF230008BF230008BF230008E8
:10007000BF230008BF230008BF230008BF230008D8
:10008000BF230008BF230008BF230008BF230008C8
:10009000BF230008BF230008BF230008BF230008B8
:1000A000BF2300088D150008BF230008BF230008E8
:1000B000BF230008BF230008BF230008BF23000898
:1000C000BF230008BF230008BF230008BF23000888
:1000D000BF2300083D230008BF230008BF230008FA
:1000E000BF230008BF230008BF230008BF23000868
:1000F000BF230008BF230008BF230008BF23000858
:10010000BF230008BF230008BF230008BF23000847
:10011000BF230008BF230008BF230008BF23000837
:10012000BF230008BF230008BF230008BF23000827
:10013000BF230008BF230008BF230008BF23000817
:10014000BF230008BF230008BF230008BF23000807
:10015000BF230008BF230008BF230008BF230008F7
:10016000BF230008BF230008BF230008BF230008E7
:10017000BF230008BF230008BF230008BF230008D7
:10018000BF230008BF23000800F002F800F0B2F817
:100190000AA090E8000C82448344AAF10107DA45E2
:1001A00001D100F0A7F8AFF2090EBAE80F0013F082
:1001B000010F18BFFB1A43F001031847D476000063
:1001C000F47600000A444FF0000C10F8013B13F0E5
:1001D000070408BF10F8014B1D1108BF10F8015BA0
:1001E000641E05D010F8016B641E01F8016BF9D193
:1001F00013F0080F1EBF10F8014BAD1C0C1B09D1EA
:100200006D1E58BF01F801CBFAD505E014F8016B5B
:1002100001F8016B6D1EF9D59142D6D370470000ED
:100220000023002400250026103A28BF78C1FBD8FF
:10023000520728BF30C148BF0B6070476E2904F0D9
:10024000C281702904F01B85662906F0CC826529DD
:1002500006F0C982672906F0C682612906F0C582C8
:1002600003681B0A28BF41F08001692904F0088057
:10027000642904F00580752904F002806F2904F0D8
:10028000A884782904F0E784E92904F04384E42968
:1002900004F04084F52904F03D84EF2904F0A5849E
:1002A000F82904F0E6840368DB0928BF41F08001E7
:1002B000632904F00587732904F00A87E32904F011
:1002C0001587F32904F01A87002070471FB506F040
:1002D00080FA04F0DFFC04000020002105F0F0FCAF
:1002E000401C60600020002105F0D4FCE0601FBDD0
:1002F00010B510BD04F09CFF1146FFF7E7FF00F0BA
:1003000009F804F0C3FF03B4FFF7F2FF03BC01F0E8
:10031000BBFF00004FF4A06002F064F8A82001F0D9
:1003200057FF244801F0B8FF00F0FAF900F018FA7E
:1003300000F033FD01F07CFD01F0EAFE00F0A7FDC6
:10034000DFED1D0A9FED1D0A1D4800F01DFF1C4832
:10035000403801F049FB1A48203801F05AFB0021CF
:1003600042F2CF0001F02AF815480021903000F049
:10037000F5F8144C0020C4F8A8020120C4F8AC021F
:100380000021114803F070F901F02DFE01F057FD36
:10039000D4F8A80248B10020C4F8A802D4F8AC02EE
:1003A00028B10020C4F8AC02EEE70120F4E70120F8
:1003B000F8E70000C0C62D0017B7513863149D43FD
:1003C000A802002000004142000001407047FEE703
:1003D000FEE7FEE7FEE77047704770477047000092
:1003E0000CB50022544900920192086840F4803014
:1003F00008604FF4A043086800F4003001900098B2
:10040000401C0090019810B900989842F3D10868F8
:10041000800334D50120019047484030026842F003
:10042000805202604548026842F4404202604248FD
:10043000083002680260026842F40042026002680A
:1004400042F4A0520260031F3D4A1A600A6842F05B
:1004500080720A600A689201FCD53A4940F205723E
:100460000A60016821F003010160016841F00201A6
:1004700001600168C1F381010229FAD10CBD01922A
:100480000CBD314810B5016841F4700101602A4883
:10049000016841F001010160274A00210832116022
:1004A00002682A4B1A400260031D294A1A6002683A
:1004B00022F48022026020480C300160FFF790FF98
:1004C00021494FF000608039086010BD70B51A4DA9
:1004D000083528681F4B204910F00C0004D05E102E
:1004E000042803D0082803D00B601BE00E6019E03D
:1004F000114A121D1068C0F38054106800F03F00CC
:1005000014B1B6FBF0F001E0B3FBF0F01368126831
:10051000C3F388135843C2F30142521C5200B0FB8C
:10052000F2F0086028680C4AC0F30310121D105C3A
:100530000A68C2400A6070BD003802400070004086
:1005400008544007003C024088ED00E0FFFFF6FE43
:10055000103000240024F4001000002000F1640298
:1005600040F8C82F4260017370472DE9F0411546ED
:100570000E460024684F0BE0315D384602F0ACFBBC
:100580008021384602F039FC0028F9D0641CA4B25E
:10059000AC42F1D3BDE8F081E7E710B504464FF671
:1005A000FF7000EA82022046FFF7DFFF2046BDE829
:1005B000104004225949D8E70FB4642110B504460D
:1005C00004AB039A03F004FE82B221460846FFF70B
:1005D000CCFF10BC5DF814FB10B54F4802F080FB57
:1005E000C0B210BD10B50446FFF7F6FF94F8D01066
:1005F00019B194F8D410012916D0D4F8CC10087091
:10060000D4F8CC0004F1C801401CC4F8CC008842E6
:1006100003D104F16400C4F8CC00D4F8C8108842B7
:1006200002D1012084F8D00010BD30B5D0E93235B8
:1006300090F8D0200024AB4202D112B9002030BD86
:100640000AB180F8D0401A780A70D0F8C81000F1CA
:10065000C8020C70D0F8C810491CC0F8C8109142EC
:1006600003D100F16401C0F8C810012030BD2DE9AC
:10067000F0470026DFF8A49090460F4682463546A4
:100680003446A9F102090CE0795D19F804008142B1
:1006900002D1641CA4B200E00024761C6D1CB6B22A
:1006A000ADB2454506D279195046FFF7BEFF08B1F5
:1006B000022CE9D33046BDE8F0872DE9F041002552
:1006C00017460E4680462C4603E06D1C641CADB2F6
:1006D000A4B2BC4207D231194046FFF7A6FF10B1C1
:1006E000305D0A28F1D1284654E72DE9F041002574
:1006F00016460F4680462C4603E06D1C641CADB2C6
:10070000A4B2B44205D239194046FFF78EFF002843
:10071000F3D128463EE7000000100140F0670008D2
:100720007CB50121042002F024F901208DF8040099
:1007300000228DF8062003218DF80510074D4FF497
:1007400040648DF8070000946946284601F00EFFCA
:100750002146284601F06FFF7CBD000000080240E2
:100760001CB50121142002F004F97E200090002025
:100770008DF8040003208DF8050001208DF8070096
:100780006946414801F0F2FE1CBD70B53F4C3E4D3C
:10079000012608B1267001E02078E8B14021284602
:1007A00001F035FFF8B12021284601F030FFD0B12B
:1007B0001021284601F02BFFA8B10821284601F09E
:1007C00026FF80B10421284601F021FF58B1022103
:1007D000284601F01CFF30B14021284601F017FFE8
:1007E000012830D04EE00A2001F033FD00202070B7
:1007F0004021284601F00BFFC8B12021284601F016
:1008000006FFB0B11021284601F001FF98B1082180
:10081000284601F0FCFE80B10421284601F0F7FED5
:1008200068B10221284601F0F2FE50B12AE0012011
:1008300070BD022070BD032070BD042070BD052076
:1008400070BD062070BD2021284601F0E0FE012881
:1008500018D11021284601F0DAFE012812D1082112
:10086000284601F0D4FE01280CD10421284601F0CD
:10087000CEFE012806D10221284601F0C8FE01283B
:1008800000D12670002070BD00100240240000201E
:100890001CB50121022002F06CF801208DF8040043
:1008A00000218DF806108DF8070002208DF8050054
:1008B0000820FF4C00906946204601F057FE202199
:1008C00000916946204601F051FE01220821204690
:1008D00001F0B5FE01222021204601F0B0FE0120EA
:1008E00001F089FC1CBD10B5F14C012220212046ED
:1008F00001F0A5FE01220821204601F0A0FE012002
:1009000001F079FC00222021204601F098FE00220F
:100910000821204601F093FEBDE81040012001F0BF
:100920006ABC10B5E24C00222021204601F087FE6F
:10093000012001F060FC01220821204601F07FFE29
:10094000012001F058FC01222021204601F077FE11
:10095000BDE81040012001F04EBC2DE9F04100241B
:10096000D34D0646802727FA04F23240202128463C
:1009700001F065FE012001F03EFC0122082128461D
:1009800001F05DFE012001F036FC0022082128461E
:1009900001F055FE012001F02EFC641CE4B2082C8D
:1009A000E1D301220821284601F049FE0022082156
:1009B000284601F044FEBDE8F041012001F01BBCD7
:1009C00010B50446FFF78FFF7820FFF7C6FF002021
:1009D000FFF7C3FF2046FFF7C0FFBDE81040A0E7C8
:1009E00010B50446FFF77FFF7820FFF7B6FF4020E1
:1009F000FFF7B3FF2046FFF7B0FFBDE8104090E7D8
:100A000010B50C4640F0B000FFF7DAFF102040EAC6
:100A10001410FFF7D5FF04F00F00BDE81040CFE73A
:100A200070B5002500212846FFF7EAFF00240020CA
:100A3000FFF7D6FF641CE4B2802CF8D36D1CEDB236
:100A4000082DEFD370BD2DE9F0410E46C7007006AA
:100A50001546F9B2000EFFF7D3FF9648002400EBCD
:100A600005152819A0F5805090F8000EFFF7B8FF83
:100A7000641CE4B2082CF4D3012000EB4600F9B268
:100A8000C0B2FFF7BDFF00242819A0F5805090F8F0
:100A9000080EFFF7A5FF641CE4B2082CF4D3BDE8F0
:100AA000F0812DE9F04115460F460646002406E088
:100AB0003019C0B23946FFF7C6FF641CE4B22A5DA4
:100AC000002AF5D1EBE70346012000E05843491E18
:100AD000FCD270472DE9F0471D4616460F46814669
:100AE00000244FF00A0812E0291B0A20491EFFF7D4
:100AF000EAFFB6FBF0F1B1FBF8F208FB121238196D
:100B0000C1B248463032FFF79EFF641CE4B2AC42EB
:100B1000EAD3BDE8F0872DE9F0471E4615000F46E1
:100B2000814603D42B22FFF78EFF03E02D22FFF72F
:100B30008AFF6D4200244FF00A0813E0311B0A209F
:100B4000491EFFF7C0FFB5FBF0F1B1FBF8F208FB5F
:100B500012123819401CC1B248463032FFF773FFF9
:100B6000641CE4B2B442E9D3D3E72DE9F0411D4659
:100B700017460E468046002415E0291B1020491E0A
:100B8000FFF7A1FFB7FBF0F000F00F0206EB040047
:100B9000C1B20A2A404601D2303200E03732FFF7B4
:100BA00052FF641CE4B2AC42E7D378E72DE9F74F7B
:100BB00000202DED020B924601242DED048B84B014
:100BC000B0EE408A9FED3C9BF0EE608A804600903C
:100BD0000190029003904FF00A0B264653EC192B1C
:100BE00051EC180B05F054FB51EC180B17D205F023
:100BF0007DF8894649EC100B074651EC100B05F0C7
:100C0000BFFA054605F019FB41EC110B49EC107BCE
:100C100053EC112B51EC100B05F080FC08E005F0B3
:100C2000AFFA054605F009FB53EC182B05F06AFCFA
:100C300041EC100B5F4604E006EB86004600641CA6
:100C4000E4B295FBF7F090FBF6F00028F4D151ECFC
:100C5000100B9FED1B1B53EC112B05F055FB05F002
:100C60008FFA42F2107195FBF1F191FBF7F207FB5D
:100C700012118DF800104FF47A7195FBF1F292FB8E
:100C8000F7F307FB13228DF80120642295FBF2F3A2
:100C900093FBF7F607FB16338DF8023095FBF7F35D
:100CA00093FBF7F607FB16338DF803300CE00000DA
:100CB00000040240F467000800000000000000008B
:100CC000000000000088C34095FBF7F3B0FBF1F192
:100CD00007FB13538DF80430B1FBF7F307FB131137
:100CE0008DF80610B0FBF2F1B1FBF7F207FB121121
:100CF0008DF80710B0FBF7F1B1FBF7F207FB12110B
:100D00008DF80810B0FBF7F107FB11008DF8090012
:100D100000206D46295C30312954401C0A28F9DB3B
:100D200053EC192B51EC180B05F0B2FA05D2641CE8
:100D3000E4B2C4F105012D2068542E208DF8050081
:100D400005EB0A01C4F1050081F806804219DDE9CE
:100D50000A01FFF7A6FE04B0BDEC048B05B0BDE8A8
:100D6000F08F2DE9F0411D4616460F4680460024BF
:100D700010E0291B0220491EFFF7A5FEB6FBF0F08C
:100D800000F001023819C1B240463032FFF75BFE75
:100D9000641CE4B2AC42ECD381E610B54FF47A7037
:100DA00001F057FAFFF774FDAE20FFF709FED520DA
:100DB000FFF706FE8020FFF703FEA820FFF700FEE6
:100DC0003F20FFF7FDFDD320FFF7FAFD0020FFF7DE
:100DD000F7FD4020FFF7F4FDA120FFF7F1FDC8204B
:100DE000FFF7EEFDDA20FFF7EBFD1220FFF7E8FD3D
:100DF0008120FFF7E5FDCF20FFF7E2FDD920FFF7C7
:100E0000DFFDF120FFF7DCFDDB20FFF7D9FD30200F
:100E1000FFF7D6FDA420FFF7D3FDA620FFF7D0FDF6
:100E20008D20FFF7CDFD1420FFF7CAFDAF20FFF79F
:100E3000C7FDBDE81040F3E510B5012190B088056D
:100E400001F097FDC8480190C84802900020462153
:100E5000CDE903014FF48061CDE905014900079117
:100E600089000891491109914902CDE90A1001212F
:100E7000CDE90C10BE4C0E9000906946204602F061
:100E80001BFF0121204602F050FF10B010BD70B5CD
:100E90008CB00121052001F06CFD01214FF4E060D0
:100EA00001F08FFD2F20032506908DF81C500024A3
:100EB0008DF81F4006A9AF4801F058FB09200690A5
:100EC0008DF81C508DF81F4006A9AB4801F04EFB71
:100ED000089409940A9408A80B9402F0F2FC0120EB
:100EE000009402940494A04C8DF804008DF8050041
:100EF0008DF814004C3C6946204602F0B7FC9A4D30
:100F00006946B435284602F0B1FC9C4E694630462D
:100F100002F0ACFC002301221946204602F01BFD22
:100F2000012200231146284602F015FD002301226C
:100F30000D21304602F00FFD0121204602F0D8FCC1
:100F40000121284602F0D4FC0121304602F0D0FCF9
:100F5000204602F03AFD284602F037FD304602F006
:100F600034FD0CB070BD10B57F4C01464C3C0723DE
:100F70000122204602F0EFFC204602F026FD02216D
:100F8000204602F0EAFD0028F9D02046BDE81040D6
:100F900002F04DBD2DE9F04100250E4607462C46D6
:100FA00008E03846FFF7DFFF0544052001F051F95E
:100FB000641CE4B2B442F4D3B5FBF6F080B2BDE8F1
:100FC000F08130B501218DB0084601F0D2FC01213D
:100FD000042001F0CEFC01210D02284601F0F1FCB5
:100FE00003200F218DF82C000A9100248DF82F404A
:100FF0000AA9604801F0BAFA0121284601F013FD60
:101000000021284601F00FFD069428020994CDE93D
:10101000070406A802F055FC012000948DF8040096
:10102000029404948DF805004F4C07208DF81400AD
:101030004C3C6946204602F019FC0121204602F092
:1010400057FC01231A460021204602F084FC0123AC
:1010500002221946204602F07EFC012303220221CF
:10106000204602F078FC012304220321204602F0EE
:1010700072FC0121204602F0EBFC0121204602F027
:10108000DDFC204602F0A1FC0DB030BD30B50023E0
:101090001A46364C09E0C2EBC20504EB450535F8AB
:1010A0001050521C2B449BB292B28A42F3D300EEF2
:1010B000103ADFED330AB8EE400A20EE200A30BDC8
:1010C00070B501210E0296B0304601F07AFC012184
:1010D000880501F04EFC24480024CDE90040294851
:1010E00002A9012581E83100A802CDE905404000B0
:1010F00007908000CDE908060AA9000181E83100C7
:101100001B4E0D94694630460E9402F0D5FD0F94A7
:1011100011941394144C02208DF840508DF8500017
:101120004C3C8DF841500FA9204602F09FFB002354
:1011300001221946204602F00EFC0222002311462D
:10114000204602F008FC0121204602F077FC012134
:10115000304602F0EAFD0121204602F0C9FB20469C
:1011600002F033FC16B070BD4C200140100400208A
:1011700010640240000002400008024000220140CA
:10118000CDCCCC3D2600002080ED080AC0ED0A0A37
:10119000B7EE000A80ED0B0A9FED770A80ED0C0A8E
:1011A0009FED760A80ED0D0A9FED750A80ED0E0A1F
:1011B0009FED740A80ED0F0ADFED730AC0ED100A8F
:1011C0009FED721A80ED151A9FED711A80ED161AB7
:1011D000DFED701AC0ED171A80ED181A80ED190AAC
:1011E000C0ED1A0A9FED6C0A80ED1F0A9FED6B0A95
:1011F00080ED200A9FED6A0A80ED230A9FED690ABF
:1012000080ED220A704790ED041AD1ED020AD0ED6C
:10121000051A01EE600A91ED031A01EEC10A81ED93
:10122000010AD0ED011A90ED022A61EE801A42EE19
:10123000201A90ED032A42EE011A90ED001A21EED9
:10124000811A81ED001AC1ED030A81ED020AB0EEA8
:10125000410A704710B5044600F144012DED048B9E
:10126000F0EE402A2C30FFF7CEFF84ED000A04F1A7
:101270006C0104F15400B0EE620AFFF7C4FF84ED84
:10128000010A94ED001AD4ED061AD4ED070A21EEF6
:10129000212A00EE202A20EE210A01EE600A84EDC8
:1012A000032A84ED020A94ED219AD4ED200AB1EECE
:1012B000400A00EE209A84ED219AD4ED1F0A00EE38
:1012C000209A84ED099AA06A05F012FAB6EE000A97
:1012D000F0EE000A39EE000A41EC180B20EE200A6D
:1012E00010EE100A05F004FA9FED2F1B53EC112BA2
:1012F00005F00AF853EC182B05F006F841EC180B32
:10130000206905F0F5F953EC182B05F007F904F006
:10131000F9FC00EE100A264910EE100A9FED258B0D
:1013200084ED040A884208DD10EE100A05F0E0F9A9
:1013300053EC182B05F0F2F80CE0B5EEC00AF1EE14
:1013400010FA0AD210EE100A05F0D2F953EC182B5D
:1013500004F00AFD04F0D6FC206194ED040A02F0CA
:101360005DFE84ED060A94ED040A02F0C3FE84EDEE
:10137000070ABDEC048B10BD8CF1333C000000006B
:101380008CF133BC3B28FDBF74607A3F6F12833A07
:10139000BEA8B03DBEA8303E60E5803FA69BC43BE2
:1013A00000007C4200002C424AD8124DFB2109402B
:1013B000DA0FC9404AD8124DFB211940F0B50D464D
:1013C000074601218FB0084601F0FBFA01211020E9
:1013D00001F0CFFAFF4E01220821304601F03AF920
:1013E00001220921304601F035F901220A21304657
:1013F00001F030F901220B21304601F02BF94FF4B6
:1014000070600C9002208DF8340003208DF83500B8
:1014100000248DF836408DF837400CA9304601F095
:10142000A5F8ED4EADF82450ADF82C400A97ADF874
:1014300026408DF82E4009A9304601F0ABFD602012
:10144000ADF8000004200125ADF80400ADF80C4013
:10145000ADF81040ADF80250ADF80E40ADF81240B6
:1014600069463046029401F017FE0821304601F02B
:1014700054FF7020ADF800006946304601F038FE98
:101480000821304601F04FFF0121304602F0ECF810
:10149000E802ADF814004010ADF816008010ADF869
:1014A00018005020ADF81A00ADF81C406803ADF8E4
:1014B0001E00ADF8204005A9304602F0BBF8192007
:1014C0008DF838008DF839508DF83A508DF83B5032
:1014D0000EA800F08CFF01221146304602F0E3F81E
:1014E0000121304601F0CEFD0FB0F0BDBB4820EE2B
:1014F000000AB7EE002AD0ED0A0A30EE801A80ED1D
:101500000A1A90ED090A30EE020A80ED090AD0EDC0
:10151000081AB4EEE10AF1EE10FA0BDBC1EE000A94
:1015200031EEC20AC0ED0B0A80ED090A20EE800AF6
:1015300080ED0A0A90ED0B0A04F05EBBA74820EE8E
:10154000000AB7EE002AD0ED0E0A30EE801A80EDC8
:101550000E1A90ED0D0A30EE020A80ED0D0AD0ED64
:101560000C1AB4EEE10AF1EE10FA0BDBC1EE000A40
:1015700031EEC20AC0ED0F0A80ED0D0A20EE800A9E
:1015800080ED0E0A90ED0F0A04F036BB2DE9F0470E
:10159000914D01212DED048B284602F098F800288A
:1015A0007DD08F4802F043FA8C4F8E4802F03FFA0C
:1015B00000EE100A8C48B8EE409A02F038FA00EEBD
:1015C000100A97ED078AF8EE408A29EE080A10EE15
:1015D000100A05F08DF89FED851B53EC112B04F0DC
:1015E00093FE9FED841B53EC112B04F097FF04F046
:1015F00089FB28EE880A09EE100A87ED029A10EEA0
:10160000100A05F075F89FED7D0B53EC102B04F0DC
:101610007BFE9FED7C0B53EC102B04F07FFF04F05E
:1016200071FBF8607948DFF8E8814FF00009008825
:101630009FED788A784E4FF4C77AB0EE490A78B3B6
:10164000FFF754FF754887ED040A002180ED040A76
:1016500000F00BFA724AD2ED000A30EE200A10EECA
:10166000100A82ED000A404501DD82ED008A6D49D5
:101670001068884203DAB1EE080A82ED000A386881
:10168000C8287CDA36F81010D2ED000A00EE101AE5
:10169000F8EE401A97ED010AB0EE401A01E098E02A
:1016A0000DE000EEA11ABCEEC11A11EE102AAA63D9
:1016B00001EE101AB8EE411A00EE810A80E0FFF741
:1016C00015FF87ED040A97ED030AFFF737FFF5EEE4
:1016D000000A87ED050A30EE600A5348002180EDCC
:1016E000040A00F0C2F9514CD4ED000A30EE200A91
:1016F00010EE100A84ED000A404501DD84ED008AF9
:1017000094ED000AB5EEC00AF1EE10FA03D29FED97
:10171000480A84ED000A47493869884206DA464992
:10172000884203D89FED450A84ED000A97ED030A2D
:101730004348FFF78FFD424890ED040A02F06EFC2B
:1017400087ED060A3868C8280ADA36F81010D4ED92
:10175000000A00EE101AF8EE401A97ED010A9BE716
:1017600006EB4001A1F58051D4ED000AB1F8701EDE
:1017700000EE101AF8EE401A97ED010A11E002E0AF
:10178000C7F8009025E006EB4001A1F58051D2EDAD
:10179000000AB1F8701E00EE101AF8EE401A97ED2C
:1017A000010AB0EE401A00EEE11ABCEEC11A11EEC9
:1017B000102AAA6301EE101AB8EE411A00EEC10A0F
:1017C000BCEEC00A10EE101A6963401C3860504528
:1017D000D6DC37E000100240000001402800002065
:1017E000002201400020014000210140D7A3703DAC
:1017F0000AD713406DE7FBA9F1D21F40000000009B
:101800000090404014AE47E17AD44A409600002050
:101810000000284200002842E46D000888020020F1
:101820000C0000200000C0406802002008000020DA
:1018300000000000CDCC4C3ECDCC4CBECDCCE24126
:10184000A8020020BDEC048B28460121BDE8F0472A
:1018500001F049BF30EE600A80ED050AD0ED060ABE
:1018600070EE202AC0ED062AD0ED010A20EE200AF3
:1018700080ED070A90ED032A72EE401AC0ED081AB7
:1018800090ED041A71EE400AC0ED090AF4EEE02A68
:10189000F1EE10FA02D3F0EE620A01E0C0ED060AA2
:1018A000F4EEE10AF1EE10FA01DDC0ED061AD0ED1A
:1018B000060AD0ED021A00EEA10A80ED000AB4EE8D
:1018C000C10AF1EE10FA01D280ED001A90ED000A83
:1018D000B4EEC20AF1EE10FA01DD80ED002A90EDBF
:1018E000000A704710B504462DED028BD0ED000ABA
:1018F00090ED010A7748FFF7ADFFD4ED050AB1EE90
:10190000041A20EE800AC0EE010AB7EE080A30EE93
:10191000808A18EE100A04F0EBFE9FED6F1B53EC6B
:10192000112B04F0D5FA9FED6E1B53EC112B04F034
:10193000EBFC04F055FC81B2002002F015FB94EDA5
:10194000020AD4ED031A78EE400A94ED000A81EE03
:10195000801ADFED651ABDEC028B20EE210AC0EE85
:10196000801A31EE610A10BD7FB50D460446012193
:10197000022001F01CF801940020ADF800505B4CEF
:10198000ADF80800ADF802006946204601F002FB00
:1019900001221146204601F086FE1D208DF80C0024
:1019A00001218DF80D108DF80E108DF80F1003A881
:1019B00000F01DFD0121204601F064FB7FBD10B544
:1019C00000224B4B114633F82140491C224492B26D
:1019D0000A29F8DB6421B2FBF1F100EE101AB8EE2F
:1019E000400A80ED030A10BDB7EE000A80ED000A40
:1019F0009FED400AF3EE080A80ED010A9FED3E0AD2
:101A000080ED020AC0ED030A80ED060A80ED070AA8
:101A100070479FED3A0AF0EE000A80ED000A9FED54
:101A2000380A80ED010A9FED340A80ED020AC0ED0C
:101A3000030A80ED060A80ED070A704730B50023DF
:101A40002B4C1A4604EB8205521C35F811500A2A19
:101A50002B449BB2F6DB6421B3FBF1F100EE101ACC
:101A6000B8EE400A80ED040A30BD90ED030AD0EDD7
:101A7000040AB0EE002A70EE600AC0ED050A90ED8F
:101A8000061AD0ED001A30EEC10A20EE210AD0ED80
:101A9000011A00EEA10AF0EE601A41EE421A90ED32
:101AA000072A71EE821A90ED022A80ED071AC0ED26
:101AB000060A02EE210A704700B50146D0ED000A81
:101AC00090ED020A0348FFF7C5FED1ED010A30EEA2
:101AD000800A00BD680000206666666666660A4089
:101AE0000000000000FEAF40CDCCCC3D0004004023
:101AF0009C0400206F12833A00000000F6281C3F6F
:101B00003108AC3C1FB54FF40060ADF80000401048
:101B1000ADF802008010ADF804005020ADF80600CA
:101B20000020ADF808004FF40050ADF80A00400066
:101B3000FD4CADF80C006946204601F07BFD01210B
:101B4000204601F091FDF949012088801FBD7FB535
:101B50004FF40060ADF800004010ADF802008010B6
:101B6000ADF8040050200024ADF80600ADF80840A0
:101B70004FF40050EC4DADF80A00ADF80C4069464A
:101B8000284601F057FD0021284601F06DFDE74889
:101B900084807FBD10B50021E34801F065FDE34975
:101BA0000020888010BD10B50121DF4801F05CFDE8
:101BB000DE490120888010BD10B5DD4C206804F09E
:101BC00097FD9FEDDC1B53EC112B04F0CDF804F0D6
:101BD00099F82060B0F17E5F02DA00EE100A03E0AF
:101BE000B7EE000A84ED000A03F07AFFD34880EDD7
:101BF000000A10BD10B5CE4C206804F079FD9FEDB1
:101C0000CD1B53EC112B04F089FC04F07BF8206011
:101C1000B0F17C5F02DD00EE100A03E0B6EE000AD0
:101C200084ED000A03F05CFFC44880ED000A10BD9B
:101C300010B5C34CE06804F05BFD9FEDBE1B53EC98
:101C4000112B04F091F804F05DF8E06010BD10B5C0
:101C5000BB4CE06804F04CFD9FEDB61B53EC112B20
:101C600004F05CFC04F04EF8E06010BD10B5B44C1C
:101C7000606804F03DFD9FEDB31B53EC112B04F0A5
:101C80004DFC04F03FF8606010BD10B5AC4C6068CE
:101C900004F02EFD9FEDAB1B53EC112B04F064F808
:101CA00004F030F8606010BD10B5A54C206804F059
:101CB0001FFD9FEDA01B53EC112B04F02FFC04F033
:101CC00021F8206010BD10B59D4C206804F010FD77
:101CD0009FED981B53EC112B04F046F804F012F81A
:101CE000206010BD91490120C88070478F490020B5
:101CF000C880704710B5954C206804F0F9FC9FED42
:101D00008D1B53EC112B04F009FC03F0FBFF20604A
:101D100010BD10B58D4C206804F0EAFC9FED851BCA
:101D200053EC112B04F020F803F0ECFF206010BD01
:101D300010B5864C606804F0DBFC9FED821B53EC11
:101D4000112B04F0EBFB03F0DDFF606010BD10B55C
:101D50007E4C606804F0CCFC9FED7A1B53EC112B99
:101D600004F002F803F0CEFF606010BD10B5774CB0
:101D7000E06804F0BDFC9FED761B53EC112B04F0E2
:101D8000CDFB03F0BFFFE06010BD10B56F4CE06805
:101D900004F0AEFC9FED6E1B53EC112B03F0E4FF3F
:101DA00003F0B0FFE06010BD2DE9F04105465F484B
:101DB00000240C3016468846854201D1FEF730FEDD
:101DC0005A4F20220020B978FEF73DFE3E224146C0
:101DD0000020FEF738FE0AE0A01900EBC00005EB7A
:101DE0008002E1B20220121DFEF75BFE641C28682F
:101DF00001784078081AA042EEDC87F80280BDE83E
:101E0000F08170B51646054600240AE0A01900EBE3
:101E1000C00005EB8002E1B20220121DFEF741FE78
:101E2000641C296808784978401AA042EEDC70BD2D
:101E30003E483E490C3088604A780978B4E770B56E
:101E40003A4C424D04F10C00A1683D4E814221D133
:101E5000E28841A1001D02F0D5F9A28842A104F157
:101E6000340002F0CFF9E86804F042FC41EC100BBA
:101E700041A153EC102B04F1580002F0C3F9F068B3
:101E800004F036FC41EC100B3FA153EC102B04F195
:101E90000C009EE025489C30814222D1286804F045
:101EA00027FC41EC100B214853EC102B3AA1C43015
:101EB00002F0A8F9686804F01BFC41EC100B1B4809
:101EC00053EC102B38A1E83002F09CF9E86804F0DC
:101ED0000FFC41EC100B154853EC102B36A19C3035
:101EE00077E0394881427DD1306804F001FC41EC53
:101EF000100B354853EC102B27A1283002F082F943
:101F0000706804F0F5FB41EC100B2F4853EC102BDC
:101F100025A14C3002F076F9F06804F0E9FB41ECC1
:101F2000100B53EC102B52E00000014090000020F9
:101F3000000000209A9999999999A93F04000020DE
:101F4000680200207B14AE47E17A843F88020020BB
:101F50009A9999999999C93F6D6F646520202025B8
:101F6000316420200000000050574D202020202503
:101F70003164202000000000697365742020202552
:101F80002E32662000000000767365742020202524
:101F90002E326620000000004B50202020252E33DA
:101FA00066202020200000004B49202020252E33D1
:101FB00066202020200000004973657420252E3201
:101FC0006620202020000000BC0100200AE04E48CE
:101FD00049A1703002F016F962782178A068BDE856
:101FE00070400EE770BD70B50020FEF7CEFB0025F7
:101FF000464C01280CD0022820D004283FD00328CA
:102000004BD0052872D0002875D0BDE8704016E787
:102010002078401E40B22070002867DA94F9010051
:1020200010B12570401E07E0A06800680178427872
:10203000891A491E21704078607057E02078401C52
:1020400041B22170A068026816785378F21A521EC5
:102050008A4207DA94F90160B34203D02270761CF9
:10206000667007E08A4205DA94F901108B4201D1CB
:102070002570657062782178FFF796FEC5E794F9C0
:10208000000094F901100844A16800EBC00001EBC6
:102090008000406950B3804728E094F9000094F92B
:1020A000011050EA010208D1A36800EBC00203EB63
:1020B0008202D2690AB1A26018E00844A16800EB6C
:1020C000C00001EB8000016A80690029E2D000B104
:1020D000804794F9000094F901100844A16800EBCE
:1020E000C00001EB8000006AA06025706278217852
:1020F000A068C1E7FFE770BD766F6C7420252E32B3
:102100006620202020000000BC010020900000205C
:1021100010B5012186B0084600F02BFC01214807CC
:1021200000F045FC3020049003208DF814000224B8
:102130008DF8174004A91F4800F018FA0020CDE9D7
:10214000020400906946019001F0CAFE6946102021
:1021500001F0C6FE0121002001F0DAFE012110206D
:1021600001F0D6FE0021084601F0FEFE00210846DF
:1021700001F001FF06B010BD10B504F075F89FED39
:102180000E1B53EC112B03F0A3FE9FED0D1B53EC24
:10219000112B04F0B9F89FED0C1B53EC112B03F03D
:1021A00097FE04F01DF881B2BDE81040002001F058
:1021B000DBBE0000000002400000000000408F4035
:1021C000000000000000B0406666666666660A4071
:1021D00010B504466FF0040000F04AF92949E00800
:1021E00000EB40020870C2EBC0104FF6FF7202EA2B
:1021F000C000488010BD2349097848434FF0E021D2
:10220000486100238B61086940F00100086108699A
:10221000C20701D0C003FAD5086920F001000861A7
:102220008B6170471749498848434FF0E021486166
:1022300000238B61086940F0010008610869C2074A
:1022400001D0C003FAD5086920F0010008618B6154
:10225000704770B54FF40776B0FBF6F1CCB2B0FB27
:10226000F6F106FB110504E03046FFF7DBFF641EC4
:10227000E4B2002CF8D1002D03D02846BDE8704010
:10228000D0E770BD50020020704742490A885206CC
:10229000FCD5C2B28A807047F0B50646012187B0EE
:1022A000084600F066FB0121102000F08AFB3A4D41
:1022B00007220921284600F0CDF907220A212846E5
:1022C00000F0C8F902218DF814108DF815104FF4A4
:1022D000C060002404908DF8164001278DF8177017
:1022E00004A9284600F042F9ADF80440ADF80640D4
:1022F000ADF80840ADF80C400C20264CADF80A00B3
:1023000000966946204600F050FC0121204600F06E
:10231000BDFC012240F22551204600F056FD25204B
:102320008DF8180003208DF819008DF81A008DF82B
:102330001B7006A800F05BF807B0F0BD70B5154C37
:1023400040F22551204600F062FD00280ED02046C4
:1023500000F0C6FC114AC1B21088030406D444043C
:102360004FF0000306D50A2901D0138070BD40F458
:1023700000400DE00D2909D0C0F30D04084D401CAC
:1023800080B229551080C728EFD870BD40F4804036
:10239000108070BD00100140000002405402002077
:1023A000C40400200948804709480047FEE7FEE7CB
:1023B000FEE7FEE7FEE7FEE7FEE7FEE7FEE7FEE7F5
:1023C00004480549054A064B70470000830400088D
:1023D00089010008F0050020F00B0020F007002024
:1023E000F00700202849084328490860704730B5A5
:1023F0000F23C27801780125FAB1244A126801F14D
:10240000E02102F4E062C2F5E062C2F30722C2F109
:102410000404D3404278A24084781C401443220133
:1024200081F80024007800F01F018D4040098000F1
:1024300000F1E020C0F8005130BD01F01F008540E0
:102440004809800000F1E020C0F8805130BD104AFA
:10245000114001430D48001F016070470B4A121DD7
:102460000029116801D0014300E0814311607047E9
:102470004FF0E0210428086903D020F0040008612F
:10248000704740F00400FAE70000FA050CED00E0A8
:1024900080FFFF1F774910B5884206D10121084609
:1024A00000F099FA002101205BE07349884206D1CF
:1024B0000121022000F08FFA0021022051E06F4933
:1024C000884206D10121042000F085FA0021042071
:1024D00047E06B49884206D10121082000F07BFAD1
:1024E000002108203DE06749884206D101211020E3
:1024F00000F071FA0021102033E06349884206D1D0
:102500000121202000F067FA0021202029E05F4906
:10251000884206D10121402000F05DFA00214020D0
:102520001FE05B49884206D10121802000F053FA68
:102530000021802015E05749884202D101218415ED
:102540000AE05549884202D10121441504E053496B
:1025500088420AD101210415204600F03CFA0021EE
:102560002046BDE8104000F036BA10BDF0B500229C
:1025700001274FF0030C0B6807FA02F52B40AB4222
:102580002CD1066853000CFA03F4A64306600E79BA
:10259000D0F800E09E4046EA0E0606600E79012E55
:1025A00001D0022E12D18668A64386604E79D0F8FB
:1025B00008E09E4046EA0E0686604668AE434660E6
:1025C00045688E799640B6B235434560C568A543E7
:1025D000C560CC799C40C3681C43C460521C102A5F
:1025E000C9D3F0BD4FF6FF71016000210171417147
:1025F0008171C171704708B541F480320092C261A7
:10260000C1610099C161C169C069009008BD0246FD
:10261000002012690A4200D001207047006980B290
:1026200070470246002052690A4200D001207047DC
:10263000406980B2704701837047418370470AB197
:1026400001837047418370474161704742694A4046
:10265000426170474B07DB0E9A40C90810B500EB8A
:102660008100016A0F249C40A1430162016A114369
:10267000016210BD00000240000402400008024058
:10268000000C0240001002400014024000180240FA
:10269000001C0240002002400024024000280240AA
:1026A000F848016841F001010160F64A0021083252
:1026B00011600268F44B1A400260031DF34A1A606D
:1026C000F04BF34A84331A60F04A103A1B1D1A602B
:1026D000026822F480220260EA480C300160181D72
:1026E00001607047E7490022891C0A700870704732
:1026F00002460020510901290CD002290CD0E149E1
:102700007431096802F01F02012393400B4200D08C
:1027100001207047DB49F4E7DA497031F1E718B579
:1027200000204FF4A04400903120FFF7E1FF009912
:10273000491C0091A14201D00028F5D03120FFF7BB
:10274000D7FF002800D0012018BDCE4A116821F023
:10275000F80141EAC00010607047CE490860704738
:10276000C849002270310A700A70012802D004287A
:1027700001D1052008707047C7490860704741EAD9
:1027800082115A0810B5C54B029C03EB024211435B
:10279000014341EA0460BB49091D086010BDBD4901
:1027A00008667047800140EA0170B64984310860CC
:1027B0007047B84988667047800140EA0160B149B6
:1027C00040EA0270883108607047B2490867704774
:1027D000B049C8647047AB4B08331A68084322F00D
:1027E000EC62104318607047A64B08331A68084320
:1027F00022F07842104318607047A24A08321168EC
:1028000021F003010143116070479E4808300068C1
:1028100000F00C0070479B4A0832116821F0F0016B
:10282000014311607047974A0832116821F4E05162
:10283000014311607047934A0832116821F46041E6
:1028400041EAC0001060704770B58E4B08331968BC
:10285000934C11F00C0104D06610042903D0082910
:1028600003D004601BE0066019E0864A121D11685F
:10287000C1F38055116801F03F0115B1B6FBF1F1CC
:1028800001E0B4FBF1F114681268C4F388146143E9
:10289000C2F30142521C5200B1FBF2F1016019680F
:1028A0000F2202EA11117F4A545C0168E140416045
:1028B0001C68072505EA9424145D21FA04F4846059
:1028C0001B6805EA5333D25CD140C16070BDC0F3D0
:1028D0000121032908D16B4B08331968724A21F48E
:1028E000F81102400A431A60664970310A68C0F361
:1028F0000B0002430A60704767494439086070471B
:1029000065494039086070476249C1F85C01704709
:102910005C4A8C321168401E21F01F010143116096
:102920007047584A8C3211686FF0FF0321F4F85158
:1029300003EB0020084310607047524A8C32116844
:1029400021F440110143116070474E4A8C321168E6
:1029500021F440010143116070474A4A8C321168EA
:1029600021F440310143116070475049C1F8E00142
:102970007047444A30320029116801D0014300E019
:102980008143116070473F4A34320029116801D0F9
:10299000014300E08143116070473A4A3832002910
:1029A000116801D0014300E0814311607047354A4E
:1029B00040320029116801D0014300E081431160D9
:1029C0007047304A44320029116801D0014300E0C9
:1029D0008143116070472B4A10320029116801D0E1
:1029E000014300E0814311607047264A14320029F8
:1029F000116801D0014300E0814311607047214A12
:102A000018320029116801D0014300E081431160B0
:102A100070471C4A20320029116801D0014300E0B0
:102A2000814311607047174A24320029116801D090
:102A3000014300E0814311607047124A503200297F
:102A4000116801D0014300E08143116070470D4AD5
:102A500054320029116801D0014300E08143116024
:102A60007047084A58320029116801D0014300E03C
:102A7000814311607047034A60320029116817D002
:102A8000014316E000380240FFFFF6EA1030002450
:102A90000030002000004742800E47420000FFFF48
:102AA0000024F40056020020FFFCFF0F00104742F4
:102AB000814311607047194A0029116801D0014310
:102AC00000E081431160704714490C310128086807
:102AD00003D020F008000860704740F00800FAE7D3
:102AE0000E4A573A0029117801D0014300E0814392
:102AF0001170704709481030016841F08071016021
:102B000070470146054A0020583A12680A4200D030
:102B100001207047014956390870704764380240F7
:102B2000CD4910B5884206D101211020FFF77BFF67
:102B30000021102020E0C949884202D101214C0423
:102B400029E0C749884202D101218C0423E0C5490C
:102B5000884202D10121CC041DE0C349884202D140
:102B600001210C0517E0C149884209D1012120202B
:102B7000FFF759FF00212020BDE81040FFF753BFA9
:102B8000BB49884202D101218C0704E0B94988423F
:102B90000AD1012144052046FFF73BFF2046BDE84E
:102BA00010400021FFF735BF10BD7FB50446008AF5
:102BB0000D46C98820F4405001432182A08941F28A
:102BC0000C618843A9882A8911436A890243114309
:102BD000A181A08A20F44071A8890843A082684698
:102BE000FFF732FE9C48844202D0A048844201D1C3
:102BF000039800E00298A189090400EBC00101EBF1
:102C00000010296801D5490000E08900B0FBF1F00F
:102C10006422B0FBF2F109010B096FF018056B4358
:102C200000EB8300A3891D044FF0320306D503EBAC
:102C3000C000B0FBF2F000F0070005E003EB00106D
:102C4000B0FBF2F000F00F00084320817FBD4FF48D
:102C50001651016000218180C18001810C224281D6
:102C60008181704710B5028A4C8822F470630A880B
:102C700022438C88C9880C4322431A43028210BD28
:102C80000021018041808180C180704700298189B5
:102C900002D041F4005101E021F4005181817047DC
:102CA000028B02F47F420283028B0A430283704745
:102CB0000029818902D041F4004101E0C1F30E01F5
:102CC000818170470029818A02D041F4006101E0CE
:102CD00021F4006181827047C1F30801818070474F
:102CE0008088C0F308007047028A22F00F02028237
:102CF000028A0A43028270470029818902D041F08A
:102D0000020101E021F0020181817047828922F4F1
:102D10000062828182890A4382817047028A22F09E
:102D200020020282028A0A43028270470029018A35
:102D300002D041F4804101E021F4804101827047DA
:102D4000818941F00101818170470029818A02D087
:102D500041F0080101E021F0080181827047028BF7
:102D6000D2B20283028B42EA01210183704700291B
:102D7000818A02D041F0200101E021F0200181820E
:102D800070470029818A02D041F0100101E021F052
:102D9000100181827047828A22F004028282828A34
:102DA0000A43828270470029818A02D041F00201E1
:102DB00001E021F0020181827047002A828A01D05D
:102DC0000A4300E08A438282704710B5C1F3421380
:102DD00001F01F040121A140012B07D0022B07D0D5
:102DE0001430002A026805D00A4304E00C30F8E7EA
:102DF0001030F6E78A43026010BD024600201288B8
:102E00000A4200D001207047C9430180704770B565
:102E100001F01F0501260024C1F3421306FA05F252
:102E2000012B0FD0022B0FD0838A4FEA112100888B
:102E3000134206FA01F600EA060001D000B10124AF
:102E4000204670BD8389F0E7038AEEE70A0A012174
:102E50009140C94301807047001001400044004088
:102E600000480040004C0040005000400014014069
:102E700000780040007C0040FE4910B5884206D131
:102E800001210846FFF7CFFD002101205BE0B0F1F2
:102E9000804F09D0F84988420DD101210220FFF767
:102EA000B8FD0021022070E001210846FFF7B1FDC6
:102EB0000021012069E0F149884206D10121042066
:102EC000FFF7A7FD002104205FE0ED49884206D10D
:102ED00001210820FFF79DFD0021082055E0E94968
:102EE000884206D101211020FFF793FD0021102018
:102EF0004BE0E549884206D101212020FFF789FDFA
:102F00000021202041E0E149884206D10121022030
:102F1000FFF789FD0021022015E0DD49884202D13A
:102F200001210C040AE0DB49884202D101214C0452
:102F300004E0D94988420AD101218C042046FFF7D8
:102F400072FD00212046BDE81040FFF76CBDD3495B
:102F5000884206D101214020FFF75BFD002140207F
:102F600013E0CF49884206D101218020FFF751FDAF
:102F70000021802009E0CB4988420AD18415012133
:102F80002046FFF746FD00212046BDE81040FFF730
:102F900040BD10BD30B50288B64CBC4DA0420DD02E
:102FA000A8420BD0B0F1804F08D0B34B984205D067
:102FB000B24B984202D0B24B984203D122F0700338
:102FC0004A881A43AF4B984206D0AF4B984203D081
:102FD00022F440730A891A4302804A68C2620A884E
:102FE0000285A04201D0A84201D1897A018601213F
:102FF000818230BD4FF0FF314160002101800181AD
:10300000418081727047018582827047028822F078
:1030100070020A430280704741627047C162704784
:10302000406A7047008D70470029018802D041F046
:10303000020101E021F002010180704700290188AE
:1030400002D041F0040101E021F004010180704749
:103050000029018802D041F0800101E021F08001C7
:1030600001807047028822F00802028002880A4329
:1030700002807047028822F44072028002880A436C
:10308000028070470029018802D041F0010101E06F
:1030900021F001010180704730B5028C22F001025D
:1030A0000284028C8388048B22F0020224F07305D0
:1030B0000C882C438D8915434A882A436D4DA842BC
:1030C00002D0724DA8420DD122F00805CA8923F41E
:1030D00040732A4322F004058A882A430D8A1D433F
:1030E0004B8A2B438380048389684163028430BD0B
:1030F00070B5028C22F010020284028C8388048B4B
:103100000D8824F4E6464FF6FF7404EA052535439E
:103110008E8922F0200204EA061616434A8804EA41
:1031200002123243534EB04202D0584EB04215D133
:1031300022F08006CA8923F4406304EA0212324373
:1031400022F040068A8804EA021232430E8A04EA18
:1031500086061E434B8A04EA830333438380058338
:1031600089688163028470BD70B5028C22F480721C
:103170000284028C8388848B0D8824F07304254399
:103180008E894FF6FF7422F4007204EA0626164375
:103190004A8804EA02223243364EB04202D03B4E05
:1031A000B04215D122F40066CA8923F4405304EAE0
:1031B0000222324322F480668A8804EA02223243E1
:1031C0000E8A04EA06161E434B8A04EA03133343AD
:1031D000838085838968C163028470BD70B5028C69
:1031E00022F480520284058C8288838B0C8823F41D
:1031F000E6464FF6FF7303EA0424344325F40056F1
:103200008D8903EA053535434E8803EA06362E4399
:10321000184DA84202D01D4DA84205D122F4804588
:103220000A8A03EA82122A438280848389680164BD
:10323000068470BD00210180418081808160818190
:10324000C18101824182704730B50124058C00F1B3
:1032500018038C40A543058431B308292CD0091FDD
:10326000C1F34E001844016848F6FF73194001602D
:1032700001681AE00000014000040040000800401E
:10328000000C004000100040001400400004014009
:103290000040014000440140004801400018004047
:1032A000001C00400020004006E04FF6FF7303EAD8
:1032B00002221143016030BD03EB510001684FF65B
:1032C0008F73194001600168F3E7416370478163C0
:1032D0007047C163704701647047028B22F070022F
:1032E0000A4302837047028B4FF6FF7322F4E042D9
:1032F00003EA0121114301837047828B22F070029F
:103300000A4382837047828B4FF6FF7322F4E042B8
:1033100003EA0121114381837047028B22F00802E6
:103320000A4302837047028B4FF6FF7322F4006258
:1033300003EA0121114301837047828B22F00802C6
:103340000A4382837047828B4FF6FF7322F4006238
:1033500003EA0121114381837047028B22F00402AA
:103360000A4302837047028B4FF6FF7322F4806298
:1033700003EA0121114301837047828B22F004028A
:103380000A4382837047828B4FF6FF7322F4806278
:1033900003EA0121114381837047028B22F08002EE
:1033A0000A4302837047028B4FF6FF73C2F30E028B
:1033B00003EA0121114301837047828B22F08002CE
:1033C0000A4382837047828B4FF6FF73C2F30E026B
:1033D00003EA0121114381837047028C22F002022B
:1033E0000A4302847047028C22F008020A430284D6
:1033F0007047028C4FF6FF7322F0200203EA01119E
:10340000114301847047028C4FF6FF7322F0800253
:1034100003EA0111114301847047028C4FF6FF73D8
:1034200022F4007203EA0121114301847047028CE7
:103430004FF6FF7322F4006203EA01211143018475
:103440007047028C4FF6FF7322F4005203EA0131F9
:1034500011430184704710B50123048C8B409C43B9
:103460000484038C8A401343038410BD10B50423E5
:10347000048C8B409C430484038C8A401343038454
:1034800010BD828B22F440628283828B4FF6FF73E1
:1034900003EA01210A4382837047828B22F00C02E7
:1034A0008283828B0A4382837047028B22F44062BC
:1034B0000283028B4FF6FF7303EA01210A43028362
:1034C0007047F0B5048C24F010040484078B068C3C
:1034D0004FF6FF7404EA011527F4734704EA033139
:1034E000394304EA02220A4326F0A001294341F0AD
:1034F000100102830184F0BD028B22F00C020283D2
:10350000028B0A43028370472DE9F0410C460E8876
:103510004988A288238905460EB3042E26D0082E9A
:103520002E8C4FF6FF7028D026F480562E84AF8B59
:103530002E8C00EA022200EA013127F473473A4355
:1035400000EA0330104326F420420A4342F480513B
:10355000A8832984E1882846BDE8F04191E700F07E
:1035600062F9E1882846BDE8F041C5E7FFF7A9FF09
:10357000E1882846BDE8F04197E726F480762E845E
:10358000AF8B2E8C00EA012100EA0310104327F0D4
:10359000F307384326F420620A4342F48071A8837B
:1035A0002984E1882846BDE8F04176E700210180C2
:1035B000418001228280C180018170472DE9F04164
:1035C0000C46002649880746012501B90226A28833
:1035D000012A00D10225208823890028384610D0EE
:1035E000FFF76FFFE1883846FFF75FFF23892A4620
:1035F0003146384600F017F9E1883846BDE8F04119
:103600007AE700F010F9E1883846FFF775FF238963
:103610002A4631463846FFF754FFE1883846BDE870
:10362000F04142E7406B7047806B7047C06B70475A
:10363000006C704710B50A884B88CC881A438B8879
:1036400023431A430B891A434B8989891A430A4336
:10365000A0F8442010BD0021018041808180C180FC
:103660000181418181817047002930F8441F02D0D7
:1036700041F4004101E0C1F30E01018070470029CF
:10368000818802D041F0040101E021F00401818031
:1036900070470029818802D041F0010101E021F04A
:1036A000010181807047002A828901D00A4300E02D
:1036B0008A43828170478182704702460020128AC5
:1036C0000A4200D001207047C94301827047024678
:1036D0000020138A92890B4202EA010202D0002ADA
:1036E00000D001207047C943018270471143A0F800
:1036F00048107047002A828901D00A4300E08A43BB
:10370000828170470029818802D041F0080101E0E0
:1037100021F0080181807047018921F007010181B2
:103720007047028922F070020A430281704700B597
:103730000346FFF7F6FF188940F00700188100BD27
:1037400070B516460D46602904464FF00102314619
:103750000AD000F068F829462046FFF7E2FF2089EA
:1037600040F00700208170BDFFF7ABFEF3E730B5F6
:1037700004894FF6FF7505EA03231343E4B20B43B4
:103780002343038130BD10B50446FFF7F0FF2089C5
:1037900040F07700208110BD10B50446FFF7E7FF29
:1037A000208940F48040208110BD828822F0700280
:1037B000828082880A4382807047028922F0070251
:1037C000028102890A4302817047028922F0800245
:1037D000028102890A430281704770B50589048B12
:1037E000068C25F007050D434FF6FC410C4040F2D6
:1037F00001110C434FF6FF7101EA031126F0220676
:103800001143314305810483018470BD00298188FF
:1038100002D041F0800101E021F0800181807047F9
:10382000A0F85010704770B5048C24F00104048493
:10383000058B048C4FF6FF7606EA0313134325F03D
:10384000F3052B4324F00A020A4342F001010383EB
:10385000018470BD10B501210C022046FFF7E3F88A
:103860002046BDE810400021FFF7DDB830B54268C2
:10387000C84B0C791A400B6842EA04221343436098
:103880008268C54B4D791A40D1E9034323438C68C4
:1038900044EA4504234313438360C26A097D22F44A
:1038A0007002491EC9B242EA0151C16230BD002115
:1038B0000160017141718160C16001610121017587
:1038C0007047B64B10B5D3F80423B5490A40D0E988
:1038D00000142143D0E90240044321431143C3F8BB
:1038E000041310BD0021016041608160C160704718
:1038F0000029816802D041F0010101E021F00101BD
:10390000816070474268A74B1A400A434260704783
:10391000416282627047426822F01F020A4342609D
:1039200070479E490028D1F8040302D040F40000FB
:1039300001E020F40000C1F8040370479749002813
:10394000D1F8040302D040F4800001E020F48000AC
:10395000C1F80403704770B5072609290AD9C5685C
:10396000A1F10A0404EB4404A640B543A3401D435F
:10397000C56007E0056901EB4104A640B543A340DB
:103980001D4305611F23072A09D2446B521E02EB17
:10399000820293409C4391400C43446370BD0D2AC6
:1039A00009D2046BD21F02EB820293409C439140E8
:1039B0000C43046370BDC46A0D3A02EB820293406B
:1039C0009C4391400C43C46270BD816841F08041CA
:1039D00081607047014600208968490000D50120B8
:1039E00070470029816802D041F4806101E021F430
:1039F0008061816070470029816802D041F0020136
:103A000001E021F00201816070474268491E22F402
:103A1000604242EA4131416070470029416802D06A
:103A200041F4006101E021F4006141607047C06C25
:103A300080B270475948D0F8080370470029816860
:103A400002D041F4807101E021F4807181607047FF
:103A50000029816802D041F4007101E021F4007175
:103A6000816070474D490028D1F8040302D040F42A
:103A7000005001E020F40050C1F80403704770B515
:103A8000072609290AD9C568A1F10A0404EB4404F0
:103A9000A640B543A3401D43C56007E0056901EB9F
:103AA0004104A640B543A3401D430561836BC3F3A6
:103AB0000154121B921C02EB82021F249440A34368
:103AC00091400B43836370BD826B491E22F4401208
:103AD00042EA01518163704708B5084400900260D2
:103AE00008BD826822F470220A43826070478268AF
:103AF00022F440120A4382607047816841F48001D9
:103B000081607047014600208968490200D5012084
:103B100070470029416802D041F4806101E021F43E
:103B20008061416070470029416802D041F48051B2
:103B300001E021F480514160704708B50844283005
:103B40000090006880B208BD01238B4041680AB133
:103B5000194300E099434160704702460020126813
:103B60000A4200D001207047C9430160704730B558
:103B70000246002053680C0A01258D4011682B4035
:103B8000214202D0002B00D0012030BD6FEA11216C
:103B900001607047FFFEFFFCFDF7FFC00020014001
:103BA000E030FCFFFFFD3FFF2DE9F043016821F00D
:103BB000010101600021016041608160C16001611B
:103BC00021214161B849B84A3D251039904202D1BE
:103BD0008D60BDE8F083B44A4FF4746618329042A9
:103BE00001D18E60F5E7B04A4FF47417303290423D
:103BF00001D18F60EDE7AC4A4FF0746C48329042CF
:103C000002D1C1F808C0E4E7A74BA84A6033984244
:103C100001D1CA60DDE7A44CA54B7834A04201D1A4
:103C2000CB60D6E7DFF88082A24C08F190084045CF
:103C300001D1CC60CDE7DFF870824FF03D5908F13B
:103C4000A808404502D1C1F80C90C2E79A49DFF8B4
:103C500068820839404501D10D60BAE7964D1835A4
:103C6000A84201D10E60B4E7934D3035A84201D18E
:103C70000F60AEE7904D4835A84202D1C1F800C0B0
:103C8000A7E78D4D8C496035091FA84201D10A6014
:103C90009FE7894A7832904201D10B6099E7864AC2
:103CA0009032904201D10C6093E7834AA83290424F
:103CB0008FD1C1F800908CE730B503687F4ACC689B
:103CC00013400A682243D1E905452C432243CC69BD
:103CD00022430C6A22434C6A22438C6A22434C6B77
:103CE00022438C6B22431A430260426922F007038D
:103CF000D1E90B2422431A4342610A6942604A68AF
:103D000082608968C16030BD0021016041608160CE
:103D1000C160016141618161C16101624162816291
:103D2000C16201634163816370470029016802D069
:103D300041F0010101E021F001010160704700291B
:103D4000016802D041F4004101E021F4004101602A
:103D500070470029016802D041F0200101E021F004
:103D600020010160704741607047406880B2704731
:103D7000002A026802D042F4002201E022F400226C
:103D80000260016170470029016802D041F480217E
:103D900001E021F48021016070470AB101617047A0
:103DA000C1607047014600200968090300D5012061
:103DB0007047014600200968C90700D001207047FC
:103DC000406900F03800704702463B4B00209A42A1
:103DD00002D2354A103A01E0374A103A8B0001D539
:103DE000526800E01268364B1A400A4200D00120A7
:103DF0007047314A904202D22B48103801E02E48D9
:103E000010382F4A8B0001EA020101D5C1607047CA
:103E1000816070470B0607D5436912B143F08003F8
:103E200001E023F080034361802908D0002A026862
:103E300001F01E0101D00A4300E08A43026070478E
:103E400030B51D4A0024904202D2174A103A01E0D0
:103E5000194A103A1B4B194205D01E2303EAD125FB
:103E600003682B4002E0406900F08003880001D520
:103E7000506800E01068124A1040084201D003B1B7
:103E80000124204630BD0C4A904202D20648103828
:103E900001E0094810380A4A8B0001EA020101D505
:103EA000C160704781607047106002403D00002093
:103EB000400F002000003D20106402403F801CF0B5
:103EC0007D0F7D0F3C0F3C0F10B501214C072046A4
:103ED000FEF79FFD2046BDE810400021FEF799BD8A
:103EE00030B54D4C236840F6FE7282409343D1E9D1
:103EF00000252A43D1E902510D432A4382401A4347
:103F0000226030BD0021016041608160C160704766
:103F1000414B01228240186809B1104300E09043F0
:103F2000186070473C4B1B1D02090120904000297E
:103F3000196801D0014300E0814319607047364998
:103F4000091D0028086802D040F0030001E020F0BD
:103F5000030008607047304B814018680AB108437D
:103F600000E08843186070472B4A08B510440830B9
:103F70000090016008BD284A08B510441430009034
:103F8000016008BD082805D042EA0141224A1044D8
:103F90000162704742EA0121F8E71F4908B501EBC9
:103FA00090002C300090006880B208BD1A4B9A1423
:103FB0008240186809B1104300E0904318607047D0
:103FC000154B814018680AB1084300E08843186027
:103FD00070470246104B002034331B6891400B425F
:103FE00000D00120704781400B4834300160704799
:103FF000094A0346002012689940074B0A403433AF
:104000001B680B4202D0002A00D00120704781407B
:10401000014834300160704700740040DFED300A21
:10402000B5EEC00A60EE200ABDEEE01A11EE100AED
:10403000F1EE10FA38BF401E00EE100A9FED291A6B
:10404000B8EEC00A70EEC00A20EE810ABCEEC00ACB
:1040500010EE100A00EE100A0028B8EEC00A10EEAA
:10406000810AB8BF002004DBB0F5807FC8BF4FF4E1
:1040700080701D4960EE000AB6EE001ADFED1C2AC2
:104080009FED1A2A60EE011A60EE225A20EE813A64
:1040900020EE022A21EEA01A01EB800073EE655A91
:1040A00062EE202AB7EE006A33EE003AD0EC043A12
:1040B00076EE611A71EE600A35EEE20A33EE413AAD
:1040C00032EEC21A70EEA10A20EE230A64EE831AC1
:1040D00004EE200A45EE011A31EE800A7047000016
:1040E00083F9223E00008043746F0008ABAA2A3E89
:1040F000ABAAAA3EDFED300AB5EEC00A60EE200A98
:10410000BDEEE01A11EE100AF1EE10FA38BF401EB3
:1041100000EE100A9FED291AB8EEC00A70EEC00A30
:1041200020EE810ABCEEC00A10EE100A00EE100A62
:104130000028B8EEC00A10EE810AB8BF002004DBE8
:10414000B0F5807FC8BF4FF480701D4960EE000A53
:10415000B6EE001ADFED1C2A9FED1A2A60EE011A56
:1041600060EE225A20EE813A20EE022A21EEA01AB9
:1041700001EB800073EE655A62EE202AB7EE006A0A
:1041800033EE003AD0EC043A76EE611A71EE600A32
:1041900035EEE20A33EE413A32EEC21A70EEA10A6F
:1041A00020EE230A64EE831A04EE200A45EE011A7B
:1041B00031EE800A7047000083F9223E0000804300
:1041C00084730008ABAA2A3EABAAAA3E704700003F
:1041D0007CB51D4616460C00009001D02044401EC0
:1041E000074B7B442A4669460190304600F013FC99
:1041F00005461CB10020694600F020FC28467CBD25
:10420000610800000FB41CB5084B06AA7B44694640
:104210000090059800F0FFFB04460020694600F07E
:104220000DFC20461CBC5DF814FB00002D080000AE
:1042300070B5044685690068C10601D5302600E0E6
:104240002026C00707D070BDD4E901213046904731
:10425000206A401C20626D1EF6D570BD70B5044604
:1042600085690078C00707D170BDD4E901212020FD
:104270009047206A401C20626D1EF6D570BD00007C
:104280002DE9F0410646002410687529314616A52F
:1042900010D000F004F9002802DA404213A507E02C
:1042A00031688A0701D512A502E0490704D511A596
:1042B000012401E000F0FCF800210A2206F12407A5
:1042C00009E0B0FBF2FCB0FBF2F302FB1C00303063
:1042D00078541846491C0028F3D123462A46304614
:1042E000BDE8F04100F016B9000000002D0000000C
:1042F0002B000000200000002DE9F05F89460446F5
:104300004FF0000ADFF874B1FB44C0F820A020464B
:10431000E1688847002874D0252806D0D4E9012117
:104320009047206A401C2062F1E700265F46204645
:10433000E16888472028054607DB312D05D278192A
:1043400010F8200C08B10643F1E7B00701D526F0BC
:104350000406C4F81CA00027C4F818A02A2D09D010
:10436000284601F071FC38B304EB8708303DC8F8EB
:10437000185019E059F8041B204604EB870291619C
:10438000E1688847012F054618D1E069002820DA46
:1043900026F020061DE0D8F8180000EB800005EBA1
:1043A00040003038C8F818002046E16888470546C4
:1043B00001F04AFC0028EED1012F0AD02E2D08D1A1
:1043C0002046E16888477F1C0546022F46F02006FC
:1043D000C4DBA069002803DA404246F00106A06170
:1043E000F00701D026F010066C2D0BD0682D09D0F7
:1043F0004C2D39D06A2D35D0742D35D07A2D33D04F
:1044000016E038E0E1682F4620468847B842054666
:1044100009D16C2F26D04FF48060E1680643204616
:104420008847054604E06C2F1AD04FF4807006438D
:104430000DB3A5F14100192802D8203546F40066D5
:104440004A462946204626604E46FBF7F7FE80B1D5
:1044500001280BD0F61D26F0070000F1080956E7E9
:104460004020E4E78020D8E70020D6E706F10409E1
:104470004DE7284652E7206ABDE8F09F84340000EB
:10448000704770477047704710B500F007FC006830
:1044900010BD10B5044600F001FC046010BD0968B1
:1044A0004A0501D540B27047C905FCD500B2704736
:1044B00009684A0501D5C0B27047C905FCD580B26C
:1044C000704770B50C460546012A05D0287880064D
:1044D00000D5EA69002302E0012305E05B1C93425A
:1044E00002D2E05C0028F9D1A869E618C01AA861D8
:1044F000286A184428622846FFF79AFE04E0D5E9A6
:10450000012114F8010B9047B442F8D32846FFF775
:10451000A5FE70BD2DE9F0470D469946924604462A
:1045200000F124080168880604D5E06921F0100133
:10453000216000E00120A84201DD471B00E00027C8
:10454000A1697A1902EB0900081AA0612078C00657
:1045500002D42046FFF76CFE002608E0D4E90121D2
:104560001AF806009047206A401C761C20624E45CF
:10457000F4DB2078C0060AD52046FFF759FE06E096
:10458000D4E9012130209047206A401C2062381E67
:10459000A7F10107F4DC07E0D4E9012118F80500D0
:1045A0009047206A401C2062281EA5F10105F3DC1B
:1045B0002046FFF753FE2078000602D50220BDE812
:1045C000F0870120FBE711680268006A530501D5F6
:1045D00008700AE0D30501D5088006E0130603D56C
:1045E000C217C1E9000200E008600120704770476F
:1045F0002DE9FF4F0C461E464FF0FF378BB0D2E936
:104600000001DDF860800A908A46C1F30A5505B9B9
:104610003D46002108464FF00000BAF1000F00F4BB
:10462000400005DA00EB80004FF4400101EA500041
:104630004FEA9059B9F1010F00DDB9460A9850EAE6
:104640004A000ED044F61050A5F2FF3545432F1412
:10465000B8F1000F1ED07542291E1EDDC9F10002FF
:104660001CE0B8F1010F4FF0000001D0302103E051
:10467000F24305E02154401CB042FBDB30460022EF
:10468000002121540B99C1F80880C1E900200FB026
:10469000BDE8F08FBD1B6D1CDEE74A4600DA6942BB
:1046A00006A800F02FFD06AB93E8070003AB83E8F4
:1046B000070050460A9900F033FE8DE80700A0F588
:1046C00000501F3800900398002D0ADD42F21F01B0
:1046D0004A460844002303A90390684601F09CF869
:1046E00009E0A0F500504A461F38002303A90390B3
:1046F000684601F0A6F88DE807000004000C03D01E
:104700004FF0FF30410800E01046B8F1000F03D031
:104710000022009215461EE0751E05D400F0C2FA74
:10472000303262556D1EF9D5B3460122084302D0DE
:1047300000227F1C04E02078302801D100227F1E57
:10474000002A099784D01DE0112D07DA00F0AAFA9B
:10475000303262556D1C50EA0102F5D1084302D097
:104760000098C8B10EE00021681E05E0235C625C81
:1047700063542254401E491C8142F7DBAB46A81B00
:10478000401E0990002004F80B000B98099AC0F80D
:104790000880C0E9002B7AE711264FF0000857E7A0
:1047A0002DE9F04F88460446D21D22F0070191B052
:1047B000D1E90001CDE90A0101F07AF902460B982E
:1047C000C00F01D02D2007E02068810701D52B20E4
:1047D00002E0202101EAC000032A099001D0072A43
:1047E00005DB03464146204600F020FC0BE1207823
:1047F000800601D5E06900E00620B8F1650F81462A
:1048000006D0B8F1660F18D0B8F1670F70D131E05B
:104810000020B9F1110F009001DB112301E009F133
:1048200001030AAA01A90CA8FFF7E2FEDDE90C705A
:10483000002609F10105834647E001204B46009020
:104840004FF000470AAA01A90CA8FFF7D1FEDDE945
:104850000DB00C995D46002610B909F101000D1844
:10486000B9EB050003D4C0F1FF3609F10105A5EB52
:1048700009002BE0B9F1010F01DA4FF00109002026
:10488000B9F1110F0090484601DD112300E0034605
:104890000AAA01A90CA8FFF7ABFEDDE90C704D4692
:1048A00000268346207800070AD4AB4500DA5D462F
:1048B00001A8012D04DD411911F8011C302907D090
:1048C0004F4502DA17F1040F04DA012082460FE0A7
:1048D0006D1EEEE7002F02DCED1B3E4403E0781C6A
:1048E000A84200DD7D1CB81B00F1010A4FF0004713
:1048F0002078000703D4AA4501DB4FF0FF3A0021DE
:10490000B7F1004F0DF143088DF8431024D0022079
:104910002B23002F01DA7F422D230A21021EA0F152
:10492000010000DC5FB197FBF1FC97FBF1F201FBAA
:104930001C7C17460CF1300C08F801CDEEE7A8F10D
:10494000010003702188090501D5452100E065219A
:10495000A0F1010800F8011C09980FA9A1EB0807B4
:10496000FF1D00B10120411901EBEA70A169384433
:10497000081A401EA0612078C00602D42046FFF726
:1049800057FC099828B1D4E901219047206A401CBE
:1049900020622078C00622D52046FFF749FC1EE0A1
:1049A000002E04DBB34502DD01A8805D00E030206D
:1049B000D4E901219047206A401C2062761CAAF1AC
:1049C00001005FEA000A0AD100F064F9C0680168DA
:1049D000405CD4E901219047206A401C2062281ED7
:1049E000A5F10105DCDC07E0D4E9012118F8010B91
:1049F0009047206A401C2062381EA7F10107F3DCB3
:104A00002046FFF72BFC032011B041E601694A1C48
:104A100002610878704700B58FB0CDE901310021FF
:104A2000059105497944CDE9031011466846FFF721
:104A300063FC0FB000BD0000E5FFFFFF0A6802F84D
:104A4000010B0A607047D1E900239A4202D2531C3D
:104A50000B601070704700002DE9FF5F15468A4615
:104A60000446DFF8AC80F8440027D8E900103E4641
:104A7000CDE9001010E03AF816106A4602A800F0DE
:104A8000B3FB411C07D02178890603D5E2693918A8
:104A900091420DD80744761C2078800602D5E06943
:104AA000B84205DDAE42E6DB3AF816000028E2D156
:104AB000A069C01BA0612046FFF7BAFBD8E900102F
:104AC000CDE90010002017E03AF818106A4602A855
:104AD00000F08AFBB0F1FF3F81460BD000250DF1BD
:104AE000080B05E0D4E901211BF8050090476D1C77
:104AF0004D45F7D308F10100B0428046E4DB206A5F
:104B0000384420622046FFF7A9FBBDE8FF9F000064
:104B10003A2D00002DE9F0418046D21D22F0070217
:104B20000025D2E90002F52915A614D0011E72F164
:104B3000000106DA0023D0EB030063EB020211A6AA
:104B400008E0D8F800108B0701D50FA602E049074E
:104B500001D50EA601251146002408F1240704E022
:104B600000F0A0F830323A55641C50EA0102F7D147
:104B70002B46324621464046BDE8F041FFF7CABC0D
:104B8000000000002D0000002B00000020000000AD
:104B900030B4002100F1240408E002F00705D20837
:104BA000303542EA4372DB086554491C52EA03057A
:104BB000F3D10468002310A2250707D5A40600D46A
:104BC00021B1C46901230DA2641EC46130BCFFF78A
:104BD000A1BC10B5044621461068FFF769FC0246E7
:104BE0002046BDE810400023D2E7D21D22F0070185
:104BF000D1E90023CCE700000000000030000000F5
:104C0000F0B40D460188090502D5214C7C4402E030
:104C10001F4C7C440E34002100F1240608E002F011
:104C20000F071209E75D42EA03721B097754491C1A
:104C300052EA0307F3D102780023120704D5702D3E
:104C400006D009B1022311342246F0BCFFF762BC42
:104C500001231034F8E770B504460D46214610686C
:104C6000FFF726FC024629462046BDE87040002397
:104C7000C6E7D21D22F00703D3E90023C0E703688B
:104C8000126843F0200303600823C3610023B7E7E1
:104C90009C2B000000487047AC050020004870477E
:104CA0008C05002030B5B0F10A024FEA900E71F188
:104CB00000034EEA817EB0EB0E0061EB91014FEAFA
:104CC000101E4EEA017E10EB0E0041EB11114FEA6F
:104CD000102E4EEA016E10EB0E0041EB11214FEA4F
:104CE000104E4EEA014E10EB0E0041EB1141401800
:104CF00041F100014FEAD00040EA41704FEAD10192
:104D000010EB80054FEA810444EA907444EB0104FF
:104D10006D1944EB0404521BA3414FF0000348BF3C
:104D20000A3200D530BD401C41F1000130BD000009
:104D30002DE9F04F04460D46D21D22F0070089B040
:104D4000D0E900974846394600F0B2FE0246F80F17
:104D500001D02D2307E02068810701D52B2302E035
:104D6000202101EAC0038DF820300BB1012000E0C2
:104D70000020032A824601D0072A04DB2946204668
:104D800000F054F93FE12078800601D40D2500E0C1
:104D9000E569C7F30A560D2D49DA00214FEA175B82
:104DA00008464FF00000002F00F4400007DA00EB47
:104DB00080004FF4400100EBD07001EA60008115E3
:104DC000012901DD4FF0FF3100224FEA850CBCF1D3
:104DD000180F06D31346ACF118004FF08052C240B2
:104DE00003E04FF4801323FA0CF30CF10C0CBCF12C
:104DF000200F04D3ACF1200C09FA0CF001E007FA03
:104E00000CF000294FF0004801DD18B90FE00ED179
:104E100040450CD319EB02095F4121B9404502D14D
:104E20009F4329EA0209BBEB175F00D0761C20885C
:104E3000000502D57B48784402E07A487844193866
:104E400008AA302302F80A30037C0AF10101002E7F
:104E50000AF1020A53546A4602DC4FF0300101E0C5
:104E60004FF031014FF001088DF8001002D0A6F28A
:104E7000FF3603E059EA470100D06B4E002D02DCFB
:104E80002178090704D54FF002082E218DF8011072
:104E9000C44600210BE0C7F303433F01C35C491C38
:104EA0006D1E02F80830052908F1010801DA002D0D
:104EB000F1DC00210CE000EB1973491C1B786D1E1E
:104EC000082902F808304FEA091908F1010801DA47
:104ED000002DF0DC21688B0602D516E0A8F1010850
:104EE000E04505DD02EB080313F8013C302BF5D05B
:104EF000B8F1000F09DD02EB080313F8013C2E2B7B
:104F000003D1090701D4A8F10108002D05DD3E21D8
:104F100002F808106D1E08F10108407C002E02F80E
:104F2000080008F1010804DA2D20764202F8080092
:104F300002E02B2002F808000A214FF47A70864222
:104F400008F101080BDB96FBF0F3303302F8083070
:104F500096FBF0F308F1010800FB136601E0642EF4
:104F60000CDB642096FBF0F3303302F8083096FB3C
:104F7000F0F308F1010800FB136601E00A2E06DBDE
:104F800096FBF1F0303002F8080008F1010896FBBA
:104F9000F1F001FB1060303002F80800A16908F15F
:104FA000010808EB050202EB0A00081AA06120784C
:104FB000C00602D42046FFF73BF9216A08AE01EB98
:104FC0000A00206204E0D4E9012116F8010B9047A1
:104FD000BAF1010AF7D22078C00602D52046FFF7C1
:104FE00027F96E4609E016F8010B3E280FD0D4E9E8
:104FF00001219047206A401C2062B8F10108F2D2DA
:105000002046FFF72BF909B00320BDE8F08F206A96
:105010002844206203E0D4E90121302090476D1E2E
:10502000EBD3F8E7AD29000002FCFFFF2DE9F041CA
:105030001F46044603260168072A01F4006004DBCA
:1050400008B116A505E016A503E008B115A500E016
:1050500015A521F010002060A069C01EA0610FB14D
:10506000401EA0612046FFF7E3F84FB1D4E90121CB
:1050700038469047206A401C2062C01C206206E02F
:10508000206AFAE7D4E9012115F8010B9047761E52
:10509000F8D22046FFF7E2F8BDE8F0814E414E001D
:1050A0006E616E00494E4600696E660010B5436938
:1050B00013B1AFF3008001E0FFF703FA012010BD48
:1050C000127800F124010A7000224A700122EDE7F3
:1050D00011684FF0FF32E9E710B5436913B1AFF340
:1050E000008001E0FFF7B8FC012010BD128800F13C
:1050F000240182840022C2840122EDE711684FF06E
:10510000FF32E9E72DE9F047814616468AB0354877
:1051100078440DC88DE80D0032487844801C03ACFB
:105120000DC884E80D0041F69B300844372190FB00
:10513000F1F290FBF1F5A5F1800501FB12041B3C97
:1051400002D56442012000E00020DFF898A08046EC
:105150000027FA44AAF1BE0A0EE0E0070AD0324660
:10516000684607EB470101230AEB810100F069FB68
:105170008DE8070064107F1C002CEED1194F7F448E
:10518000AE3F19E0E80715D007EB04100DF1180A3F
:1051900090E80E008AE80E00C068F04201D198192C
:1051A00008903246012306A903A800F04AFB03AB8E
:1051B00083E807006D10641C002DE3D14FF001035C
:1051C00032466946B8F1000F03A802D000F024FB74
:1051D00001E000F036FBC9E90001C9F808200AB077
:1051E000BDE8F0876427000070B516460C460546FA
:1051F00000F044F8036893F80101012806D0FF2C61
:105200000FD8185D68B101202C7070BDD3F807016C
:105210003246214603F2071303442846BDE8704096
:1052200018474FF0FF3070BD004870478C050020D4
:105230007546FFF7F9FFAE4605006946534620F074
:105240000700854618B020B5FDF7BAF8BDE8204044
:105250004FF000064FF000074FF000084FF0000B32
:1052600021F00701AC46ACE8C009ACE8C009ACE8E5
:10527000C009ACE8C0098D467047000010B5FFF7C3
:1052800009FD001D10BD00BF390A000010B504461D
:10529000AFF300802046BDE81040FBF734B80000B3
:1052A0004FF0013C50F8042B51F8043B9A4221D1B5
:1052B000A2EB0C03934313EACC1317D150F8042B41
:1052C00051F8043B9A4215D1A2EB0C03934313EA25
:1052D000CC130BD150F8042B51F8043B9A4209D15E
:1052E000A2EB0C03934313EACC13DBD04FF0000086
:1052F000704700BFD01A01BAB1FA81F101F018016C
:1053000022FA01F0CB40C1F12001DBB2C0B2C01AD9
:105310002CFA01F3D11A914311EAC311E6D1704777
:105320005FEA400C08BF91F0000F4FEA8C234FEA70
:10533000C12243EA51514FEA1C5018BF00F5F0401A
:105340004FEA300018BF41F000415FEA6C5C00F0AA
:105350002980BCF1FF3F08BF40F080407047130C2C
:1053600006BF12044FF0100C4FF0000C130E04BFD8
:1053700012020CF1080C130F04BF12010CF1040C03
:10538000930F04BF92000CF1020CD30F04BF520024
:105390000CF1010C11464FF00002A0F11F00A0EB30
:1053A0000C00704711F0004F08BF704731F000410A
:1053B0003FF4D5AF0B0C06BF09044FF0100C4FF0B3
:1053C000000C0B0E04BF09020CF1080C0B0F04BFFC
:1053D00009010CF1040C8B0F04BF89000CF1020CC5
:1053E000CB0F04BF49000CF1010CCCF12003A0EB62
:1053F0000C0022FA03F302FA0CF241EA030100F175
:105400000100704720F07F4C80EA030023F07F47C3
:10541000ACEB070303F57C5300F0004003F1FF03FE
:105420002DE980494FEA154B09B44FEA144325EAA8
:105430000B4E24EA03480FF2042606EB1327490813
:105440003E785FEA320203FB0667C7F5000707FBF9
:1054500006F64FEA54374FEAD64606F1020607FB36
:10546000066CCCF1005C4FEA1C472CEA074C07FBAA
:1054700006F40CFB06F504EB15464FEA961634BF0E
:1054800000204FF000404FEAD13706FB07FC4FEAFF
:105490001C4C0CFB0BF7D21B03FB0CF761EB070159
:1054A0000CFB0EF7B0EB074072EB17420CFB08F752
:1054B00034BFA2EB0742B2EB074261EB17414FEA60
:1054C0000C444FEA910706FB07FC4FEA1C4C0CFB0F
:1054D0000BF7B0EBC74072EB573203FB0CF734BF4E
:1054E000A2EBC742B2EBC74261EB57310CFB0EF7A0
:1054F000B0EBC70072EB57720CFB08F734BFA2EB9E
:10550000C702B2EBC70261EB5771039F4FEA81619B
:1055100041EA921104EBCC044FEAD1374FEA8262A0
:1055200006FB07FC42EA90124FEA80604FEA1C4CEF
:105530000CFB0BF7D21B03FB0CF761EB07010CFB19
:105540000EF7B0EB074072EB17420CFB08F734BFC5
:10555000A2EB0742B2EB074261EB17414FEA8C55D1
:105560004FEA910704EB9C2406FB07FC4FEA1C4C16
:105570000CFB0BF7B0EBC74072EB573203FB0CF799
:1055800034BFA2EBC742B2EBC74261EB57310CFB11
:105590000EF7B0EBC70072EB57720CFB08F734BF85
:1055A000A2EBC702B2EBC70261EB577115EB4C25BA
:1055B0004FEA816141EA92114FEA82624FEAD137A4
:1055C00042EA901206FB07FC44F100044FEA8060B7
:1055D0004FEA1C4C0CFB0BF7D21B03FB0CF761EBE7
:1055E00007010CFB0EF7B0EB074072EB17420CFB08
:1055F00008F734BFA2EB0742B2EB074261EB174159
:1056000015EB1C154FEA813141EA92414FEA823293
:1056100042EA90424FEA80304FEA0C7644F10004AF
:1056200048EA03434EEA0B484FF0000EB2EB080C79
:1056300071EB030724BF624639464EEB0E0E4FF066
:10564000000B0018524149414BEB0B0BB2EB080C1D
:1056500071EB03077BF1000B24BF624639464EEB2A
:105660000E0E4FF0000B0018524149414BEB0B0B53
:10567000B2EB080C71EB03077BF1000B24BF624611
:1056800039464EEB0E0E51EA020718BF46F00106EE
:1056900016EB0E7655F1000254F1000103D5BDE87A
:1056A0008901BDE80088BDE88901BDE80048B61958
:1056B000524141EB0101A3F10103704780807F7EDD
:1056C0007D7C7B7A79787776767574737271717078
:1056D0006F6E6E6D6C6C6B6A6A696868676666652A
:1056E0006464636362616160605F5F5E5E5D5D5CB8
:1056F0005C5B5B5A5A595958585757565655555529
:105700005454535352525251515050504F4F4F4E88
:105710004E4D4D4D4C4C4C4B4B4B4A4A4A494949D6
:105720004848484747474746464645454544444418
:10573000444343434342424242414141002B9C4641
:1057400030D477002BD01CB54FEA370703B44FF0A5
:1057500010004FF01001BAF1000F06D0BCF1000F9D
:10576000DCBF40F0080040F008014FF000000FBC23
:10577000BDE810400BF1010BBBF1010F08BF5FEA60
:10578000170722BF12F1010211F101014FF0004190
:1057900043F1000300F0004043EA00007047F9D3F2
:1057A0005708D0E746EA064613F1400F4FEA16467F
:1057B0001FDD13F1200FDFBF16430A4600212033FF
:1057C0005B42BED0C3F1200746EA064602FA07F75D
:1057D0004FEA164646EA0706C3F1200722FA03F20B
:1057E00001FA07F721FA03F14FF0000342EA07023A
:1057F000A7E746EA020646EA06464FEA164646EAA2
:105800000106BCBF46EA0646360C4FF000034FF0D7
:1058100000024FF0000194E72DE9804C9A46934630
:1058200070B491E8380007C831EA400C48BF34EA48
:10583000430C03D5FFF7E6FDFFF780FFF0BCBDE8A2
:10584000008C2DE9804C9A46934670B491E838005C
:1058500007C810F0804F08BF13F0804F03D100F04D
:1058600005F8FFF76BFFF0BCBDE8008C20F07F4728
:1058700080EA030023F07F4C07EB0C03A3F57C5375
:1058800000F00040A3F1FE0392F0000F00F0B3809F
:1058900095F0000F00F077802DE901494FEA1140A3
:1058A0004FEA144621EA004800FB06FC24EA0647BA
:1058B00008FB06F607FB08F800FB07F718EB06489D
:1058C0004CEB164C4FEA124B18EB07484FEA1546C3
:1058D0004CEB174022EA0B4E0BFB06FC25EA064771
:1058E0000EFB06F607FB0EFE0BFB07F71EEB064E44
:1058F0004CEB164C4FF000061EEB074E4CEB174BD3
:1059000018EB0B0840F1000018EB0E0B58EB0008E9
:1059100040F100008F1A4FF000013CBFC943661BE5
:1059200014BFB5EB040C00213CBFC943F61B4FEA82
:1059300017444EEA8E0E27EA04454FEA1C4704FB43
:1059400007622CEA074C05FB07F70CFB05F604FB86
:105950000CFC16EB074642EB174216EB0C4642EBEB
:105960001C421BEB060658EB0202414146EA9E062A
:1059700001D5BDE80189B619524141EB0101A3F1FE
:105980000103BDE801894FEA14454FEA114724EAB3
:10599000054621EA074C05FB07F406FB07F70CFB5D
:1059A00006F105FB0CFC11EB074144EB17444FEAF1
:1059B000124711EB0C4144EB1C4422EA074C05FB57
:1059C00007F206FB07F70CFB06F605FB0CFC16EBD3
:1059D000074642EB174216EB0C4642EB1C456A1891
:1059E00054F1000148BF7047B619524141EB010123
:1059F000A3F10103704795F0000F37D04FEA114231
:105A00004FEA144721EA024624EA074C02FB07F159
:105A100006FB07F70CFB06F402FB0CFC14EB074437
:105A200041EB17414FEA154714EB0C4441EB1C4185
:105A300025EA074C02FB07F506FB07F70CFB06F609
:105A400002FB0CFC16EB074645EB174516EB0C4624
:105A500045EB1C42121951F1000148BF7047B619BD
:105A6000524141EB0101A3F1010370474FEA144594
:105A70004FEA114724EA054621EA074C05FB07F1E6
:105A800006FB07F70CFB06F24FF0000605FB0CFCCB
:105A900012EB074241EB174112EB0C4251EB1C4158
:105AA00048BF7047921841EB0101A3F10103704711
:105AB00003B401984100009850EAC12018BF0420A7
:105AC0004A0D18BF40F0010040F2FF72B2EB515F87
:105AD00008BF40F00200012808BF052002B070474F
