:020000040800F2
:1000000010190020D902000873400008053C0008C0
:10001000714000083D170008254F0008000000004F
:10002000000000000000000000000000ED43000898
:10003000131800080000000041430008EF430008C7
:10004000F3020008F3020008F3020008F3020008BC
:10005000F3020008F3020008F3020008F3020008AC
:10006000F3020008F3020008F3020008F30200089C
:10007000F3020008F3020008F3020008F30200088C
:10008000F3020008F3020008F3020008F30200087C
:10009000F3020008F3020008F3020008F30200086C
:1000A000F3020008F3020008F3020008F30200085C
:1000B000F3020008F30200086D440008F302000890
:1000C000F3020008F3020008F3020008F30200083C
:1000D000F3020008F3020008F3020008F30200082C
:1000E000F3020008F3020008F3020008F30200081C
:1000F000F3020008F3020008F3020008F30200080C
:10010000F3020008F3020008F3020008F3020008FB
:10011000F3020008F3020008F3020008F3020008EB
:10012000F3020008F3020008F3020008F3020008DB
:10013000F3020008F3020008F3020008F3020008CB
:10014000F3020008F3020008F3020008F3020008BB
:10015000F3020008F3020008F3020008F3020008AB
:10016000F3020008F3020008F3020008F30200089B
:10017000F3020008F3020008F3020008F30200088B
:10018000F3020008F3020008F3020008F30200087B
:10019000F302000800000000F3020008F302000868
:1001A000F3020008F3020008F3020008F30200085B
:1001B000F3020008F3020008F3020008F30200084B
:1001C000F3020008F3020008F3020008F30200083B
:1001D000F3020008F302000800F002F800F06DF8E6
:1001E0000AA090E8000C82448344AAF10107DA4592
:1001F00001D100F062F8AFF2090EBAE80F0013F077
:10020000010F18BFFB1A43F001031847FC5B000005
:100210001C5C000010F8013B0A4413F0030408BF03
:1002200010F8014B1D1108BF10F8015B641E05D0CA
:1002300010F8016B641E01F8016BF9D1002D15D087
:1002400010F8014B03F00C030C2BA1EB04040ABFC4
:1002500010F8013BA4EB8314A4EB032405F1010384
:1002600014F8016B5B1E01F8016BF9D5914238BFA0
:1002700010F8013BD1D3704700230024002500264D
:10028000103A28BF78C1FBD8520728BF30C148BFF9
:100290000B607047662905F04382002070471FB548
:1002A00005F039FA00F0AEFB04000020002105F053
:1002B000A5F9E0601FBD10B510BD00F0A7FC114608
:1002C000FFF7EDFF05F0EEF800F0C5FC03B4FFF713
:1002D000F2FF03BC00F008FD0948804709480047C9
:1002E000FEE7FEE7FEE7FEE7FEE7FEE7FEE7FEE7E6
:1002F000FEE7FEE704480549054A064B7047000043
:100300005D440008D90100081013002010190020D6
:10031000101500201015002053EA020C00F069802F
:100320002DE9F04B4FF00006002B1FBFB3FA83F509
:1003300003FA05F424FA05F65E4012BF1643B2FA3A
:1003400082F502FA05F4C5F120051EBF22FA05FC6C
:1003500044EA0C04203556EA044C4FEA144418BF12
:10036000641C4FF000084FF00009904271EB030C41
:1003700039D3002919BFB1FA81F701FA07F6B0FAAB
:1003800080F700FA07F6C7F120071EBF20FA07FC26
:1003900046EA0C062037B6FBF4FCA7EB0507103F36
:1003A00007F01F0BCBF120060CFA0BFB2CFA06F61C
:1003B00044BFB3460026202FA4BF5E464FF0000B7B
:1003C0005BEA060C08BF4FF0010B19EB0B09ABFB06
:1003D000027C48EB0608C01B06FB02CC0BFB03CCDF
:1003E00071EB0C01C1E70B46024641464846BDE8A9
:1003F000F08B13B54FF000004FF00001AFF3008019
:10040000BDE81C40704700000FB41CB5074B06AA9E
:100410007B4469460090059800F0DBFA00206946AD
:1004200000F0EAFA1CBC5DF814FB0000E5050000D2
:100430002DE9F0474FF0000A89460446C0F820A095
:100440002046E1688847002876D0252806D0D4E9E0
:1004500001219047206A401C2062F1E7E1682046B4
:1004600000258847C4F81CA006460027C4F818A039
:100470002A2E09D0304604F047FF38B304EB870832
:10048000303EC8F8186019E059F8041B204604EB08
:1004900087029161E1688847012F064618D1E0691B
:1004A000002820DA25F020051DE0D8F8180000EB20
:1004B000800006EB40003038C8F818002046E1689C
:1004C0008847064604F020FF0028EED1012F0AD00D
:1004D0002E2E08D12046E16888477F1C0646022F51
:1004E00045F02005C4DBA069002803DA404245F04E
:1004F0000105A061E80701D025F01005B6B1A6F10D
:100500004100192802D8203645F400654A46314694
:10051000204625604D46FFF7BDFE58B1012806D0A4
:10052000ED1D25F0070000F1080989E704E005F159
:10053000040985E730468AE7206ABDE8F0874FF076
:10054000000200B5134694469646203922BFA0E823
:100550000C50A0E80C50B1F12001BFF4F7AF09072F
:1005600028BFA0E80C5048BF0CC05DF804EB890020
:1005700028BF40F8042B08BF704748BF20F8022B63
:1005800011F0804F18BF00F8012B7047704770477B
:10059000704710B500F03AFA006810BD10B5044677
:1005A00000F034FA046010BD70472DE9FF4F0C468F
:1005B0001E464FF0FF378BB0D2E90001DDF86080B6
:1005C0000A908A46C1F30A5505B93D4600210846FE
:1005D0004FF00000BAF1000F00F4400005DA00EB24
:1005E00080004FF4400101EA50004FEA9059B9F100
:1005F000010F00DDB9460A9850EA4A000ED044F6D1
:100600001050A5F2FF3545432F14B8F1000F1ED04E
:100610007542291E1EDDC9F100021CE0B8F1010F70
:100620004FF0000001D0302103E0F24305E02154F7
:10063000401CB042FBDB30460022002121540B99C4
:10064000C1F80880C1E900200FB0BDE8F08FBD1BE4
:100650006D1CDEE74A4600DA694206A800F060FA3F
:1006600006AB93E8070003AB83E8070050460A99FE
:1006700000F0A0FB8DE80700A0F500501F380090A7
:100680000398002D0ADD42F21F014A460844002368
:1006900003A90390684600F009FE09E0A0F50050A8
:1006A0004A461F38002303A90390684600F013FE52
:1006B0008DE807000004000C03D04FF0FF30410824
:1006C00000E01046B8F1000F03D00022009215465A
:1006D0001EE0751E05D400F09DF9303262556D1E86
:1006E000F9D5B3460122084302D000227F1C04E062
:1006F0002078302801D100227F1E002A099784D05B
:100700001DE0112D07DA00F085F9303262556D1CBD
:1007100050EA0102F5D1084302D00098C8B10EE0BA
:100720000021681E05E0235C625C63542254401E75
:10073000491C8142F7DBAB46A81B401E09900020F4
:1007400004F80B000B98099AC0F80880C0E9002B48
:100750007AE711264FF0000857E72DE9F04F884659
:100760000446D21D22F0070191B0D1E90001CDE984
:100770000A0104F0EBFB02460B98C00F01D02D20BC
:1007800007E02068810701D52B2002E0202101EA43
:10079000C000032A099001D0072A05DB0346414621
:1007A000204600F07DF90BE12078800601D5E06954
:1007B00000E00620B8F1650F814606D0B8F1660F5B
:1007C00018D0B8F1670F70D131E00020B9F1110FE6
:1007D000009001DB112301E009F101030AAA01A93C
:1007E0000CA8FFF7E2FEDDE90C70002609F1010517
:1007F000834647E001204B4600904FF000470AAA8D
:1008000001A90CA8FFF7D1FEDDE90DB00C995D46FA
:10081000002610B909F101000D18B9EB050003D449
:10082000C0F1FF3609F10105A5EB09002BE0B9F194
:10083000010F01DA4FF001090020B9F1110F00900A
:10084000484601DD112300E003460AAA01A90CA8CD
:10085000FFF7ABFEDDE90C704D460026834620789D
:1008600000070AD4AB4500DA5D4601A8012D04DD7E
:10087000411911F8011C302907D04F4502DA17F150
:10088000040F04DA012082460FE06D1EEEE7002F10
:1008900002DCED1B3E4403E0781CA84200DD7D1C19
:1008A000B81B00F1010A4FF000472078000703D47D
:1008B000AA4501DB4FF0FF3A0021B7F1004F0DF1DF
:1008C00043088DF8431024D002202B23002F01DA97
:1008D0007F422D230A21021EA0F1010000DC5FB13E
:1008E00097FBF1FC97FBF1F201FB1C7C17460CF126
:1008F000300C08F801CDEEE7A8F101000370218863
:10090000090501D5452100E06521A0F1010800F8A5
:10091000011C09980FA9A1EB0807FF1D00B10120D8
:10092000411901EBEA70A1693844081A401EA06120
:100930002078C00602D42046AFF30080099828B181
:10094000D4E901219047206A401C20622078C0062B
:1009500022D52046AFF300801EE0002E04DBB34515
:1009600002DD01A8805D00E03020D4E9012190473C
:10097000206A401C2062761CAAF101005FEA000A8E
:100980000AD100F03FF8C0680168405CD4E9012159
:100990009047206A401C2062281EA5F10105DCDC7E
:1009A00007E0D4E9012118F8010B9047206A401CA8
:1009B0002062381EA7F10107F3DC2046AFF3008068
:1009C000032011B041E6000001694A1C0261087869
:1009D000704700B58FB0CDE901310021059105497F
:1009E0007944CDE9031011466846FFF721FD0FB0A9
:1009F00000BD0000E5FFFFFF0A6802F8010B0A6076
:100A00007047000000487047D0120020004870472F
:100A1000B012002030B5B0F10A024FEA900E71F129
:100A200000034EEA817EB0EB0E0061EB91014FEACC
:100A3000101E4EEA017E10EB0E0041EB11114FEA41
:100A4000102E4EEA016E10EB0E0041EB11214FEA21
:100A5000104E4EEA014E10EB0E0041EB11414018D2
:100A600041F100014FEAD00040EA41704FEAD10164
:100A700010EB80054FEA810444EA907444EB0104D2
:100A80006D1944EB0404521BA3414FF0000348BF0F
:100A90000A3200D530BD401C41F1000130BD0000DC
:100AA0002DE9F0411F46044603260168072A01F498
:100AB000006004DB08B116A505E016A503E008B147
:100AC00015A500E015A521F010002060A069C01E4A
:100AD000A0610FB1401EA0612046AFF300804FB16E
:100AE000D4E9012138469047206A401C2062C01C8E
:100AF000206206E0206AFAE7D4E9012115F8010B2B
:100B00009047761EF8D22046AFF30080BDE8F08112
:100B10004E414E006E616E00494E4600696E6600A1
:100B20002DE9F047814616468AB0354878440DC80D
:100B30008DE80D0032487844801C03AC0DC884E871
:100B40000D0041F69B300844372190FBF1F290FBF9
:100B5000F1F5A5F1800501FB12041B3C02D56442AE
:100B6000012000E00020DFF898A080460027FA442A
:100B7000AAF1BE0A0EE0E0070AD03246684607EB4B
:100B8000470101230AEB810100F0A5FB8DE8070076
:100B900064107F1C002CEED1194F7F44AE3F19E04A
:100BA000E80715D007EB04100DF1180A90E80E00C5
:100BB0008AE80E00C068F04201D1981908903246C8
:100BC000012306A903A800F086FB03AB83E8070016
:100BD0006D10641C002DE3D14FF0010332466946CD
:100BE000B8F1000F03A802D000F060FB01E000F0B4
:100BF00072FBC9E90001C9F808200AB0BDE8F08716
:100C0000C052000000487047B01200207546FFF740
:100C1000F9FFAE4605006946534620F007008546B9
:100C200018B020B5FFF766FBBDE820404FF0000686
:100C30004FF000074FF000084FF0000B21F00701C4
:100C4000AC46ACE8C009ACE8C009ACE8C009ACE807
:100C5000C0098D46704710B50446AFF300802046AA
:100C6000BDE81040FFF732BB4FF0013C50F8042BB9
:100C700051F8043B9A4221D1A2EB0C03934313EAAF
:100C8000CC1317D150F8042B51F8043B9A4215D1DC
:100C9000A2EB0C03934313EACC130BD150F8042BB3
:100CA00051F8043B9A4209D1A2EB0C03934313EA97
:100CB000CC13DBD04FF00000704700BFD01A01BA50
:100CC000B1FA81F101F0180122FA01F0CB40C1F133
:100CD0002001DBB2C0B2C01A2CFA01F3D11A914341
:100CE00011EAC311E6D1704701491820ABBEFEE7F7
:100CF0002600020070470000B0B52DED028B1546AE
:100D00000022B2EB910F24D09FED290A8A0821F02E
:100D10000303044694ED001A94ED012A94ED023A7F
:100D200021EE011A94ED034A30EE010A22EE021A76
:100D300030EE010A23EE031A30EE010A24EE041A03
:100D400030EE010A013A04F11004E3D100EB830014
:100D500001E09FED170A11F0030207D0B0EC011A71
:100D6000013A21EE011A30EE010AF7D101EE101A14
:100D7000B8EE411A80EE018AB5EE408AF1EE10FA23
:100D800002DA9FED0B0A08E0B0EE480A04F0E2F93F
:100D9000B4EE400AF1EE10FA04D685ED000ABDEC7F
:100DA000028BB0BDB0EE480A04F0D4F9F5E700BFFD
:100DB000000000005FEA400C08BF91F0000F4FEA0E
:100DC0008C234FEAC12243EA51514FEA1C5018BF0D
:100DD00000F5F0404FEA300018BF41F000415FEAF3
:100DE0006C5C00F02980BCF1FF3F08BF40F0804000
:100DF0007047130C06BF12044FF0100C4FF0000C9C
:100E0000130E04BF12020CF1080C130F04BF1201E1
:100E10000CF1040C930F04BF92000CF1020CD30FE1
:100E200004BF52000CF1010C11464FF00002A0F17A
:100E30001F00A0EB0C00704711F0004F08BF704777
:100E400031F000413FF4D5AF0B0C06BF09044FF061
:100E5000100C4FF0000C0B0E04BF09020CF1080C33
:100E60000B0F04BF09010CF1040C8B0F04BF8900A8
:100E70000CF1020CCB0F04BF49000CF1010CCCF1BA
:100E80002003A0EB0C0022FA03F302FA0CF241EA71
:100E9000030100F10100704720F07F4C80EA03005D
:100EA00023F07F47ACEB070303F57C5300F00040D1
:100EB00003F1FF032DE980494FEA154B09B44FEACE
:100EC000144325EA0B4E24EA03480FF2042606EBEE
:100ED000132749083E785FEA320203FB0667C7F52D
:100EE000000707FB06F64FEA54374FEAD64606F1ED
:100EF000020607FB066CCCF1005C4FEA1C472CEAAB
:100F0000074C07FB06F40CFB06F504EB15464FEA0D
:100F1000961634BF00204FF000404FEAD13706FB51
:100F200007FC4FEA1C4C0CFB0BF7D21B03FB0CF726
:100F300061EB07010CFB0EF7B0EB074072EB1742B9
:100F40000CFB08F734BFA2EB0742B2EB074261EBA0
:100F500017414FEA0C444FEA910706FB07FC4FEAA2
:100F60001C4C0CFB0BF7B0EBC74072EB573203FB8A
:100F70000CF734BFA2EBC742B2EBC74261EB57316B
:100F80000CFB0EF7B0EBC70072EB57720CFB08F7C7
:100F900034BFA2EBC702B2EBC70261EB5771039FEC
:100FA0004FEA816141EA921104EBCC044FEAD13758
:100FB0004FEA826206FB07FC42EA90124FEA806029
:100FC0004FEA1C4C0CFB0BF7D21B03FB0CF761EB3D
:100FD00007010CFB0EF7B0EB074072EB17420CFB5E
:100FE00008F734BFA2EB0742B2EB074261EB1741AF
:100FF0004FEA8C554FEA910704EB9C2406FB07FC53
:101000004FEA1C4C0CFB0BF7B0EBC74072EB5732AE
:1010100003FB0CF734BFA2EBC742B2EBC74261EB54
:1010200057310CFB0EF7B0EBC70072EB57720CFB9D
:1010300008F734BFA2EBC702B2EBC70261EB5771EE
:1010400015EB4C254FEA816141EA92114FEA826229
:101050004FEAD13742EA901206FB07FC44F1000444
:101060004FEA80604FEA1C4C0CFB0BF7D21B03FBD2
:101070000CF761EB07010CFB0EF7B0EB074072EBCE
:1010800017420CFB08F734BFA2EB0742B2EB074252
:1010900061EB174115EB1C154FEA813141EA924192
:1010A0004FEA823242EA90424FEA80304FEA0C76B1
:1010B00044F1000448EA03434EEA0B484FF0000EA7
:1010C000B2EB080C71EB030724BF624639464EEBC6
:1010D0000E0E4FF0000B0018524149414BEB0B0B29
:1010E000B2EB080C71EB03077BF1000B24BF6246E7
:1010F00039464EEB0E0E4FF0000B0018524149419D
:101100004BEB0B0BB2EB080C71EB03077BF1000B05
:1011100024BF624639464EEB0E0E51EA020718BF55
:1011200046F0010616EB0E7655F1000254F100016F
:1011300003D5BDE88901BDE80088BDE88901BDE8A7
:101140000048B619524141EB0101A3F10103704778
:1011500080807F7E7D7C7B7A7978777676757473F4
:10116000727171706F6E6E6D6C6C6B6A6A696868B3
:10117000676666656464636362616160605F5F5E49
:101180005E5D5D5C5C5B5B5A5A59595858575756BF
:101190005655555554545353525252515150505024
:1011A0004F4F4F4E4E4D4D4D4C4C4C4B4B4B4A4A76
:1011B0004A494949484848474747474646464545BA
:1011C00045444444444343434342424242414141F3
:1011D000002B9C4630D477002BD01CB54FEA370744
:1011E00003B44FF010004FF01001BAF1000F06D019
:1011F000BCF1000FDCBF40F0080040F008014FF0E8
:1012000000000FBCBDE810400BF1010BBBF1010F5A
:1012100008BF5FEA170722BF12F1010211F10101B5
:101220004FF0004143F1000300F0004043EA0000AA
:101230007047F9D35708D0E746EA064613F1400F46
:101240004FEA16461FDD13F1200FDFBF16430A4693
:10125000002120335B42BED0C3F1200746EA064698
:1012600002FA07F74FEA164646EA0706C3F12007D7
:1012700022FA03F201FA07F721FA03F14FF0000313
:1012800042EA0702A7E746EA020646EA06464FEAAE
:10129000164646EA0106BCBF46EA0646360C4FF043
:1012A00000034FF000024FF0000194E72DE9804C5D
:1012B0009A46934670B491E8380007C831EA400C6A
:1012C00048BF34EA430C03D5FFF7E6FDFFF780FF84
:1012D000F0BCBDE8008C2DE9804C9A46934670B472
:1012E00091E8380007C810F0804F08BF13F0804F16
:1012F00003D100F005F8FFF76BFFF0BCBDE8008CF0
:1013000020F07F4780EA030023F07F4C07EB0C03BB
:10131000A3F57C5300F00040A3F1FE0392F0000F10
:1013200000F0B38095F0000F00F077802DE90149BF
:101330004FEA11404FEA144621EA004800FB06FC40
:1013400024EA064708FB06F607FB08F800FB07F748
:1013500018EB06484CEB164C4FEA124B18EB0748BB
:101360004FEA15464CEB174022EA0B4E0BFB06FCEE
:1013700025EA06470EFB06F607FB0EFE0BFB07F7FA
:101380001EEB064E4CEB164C4FF000061EEB074EC4
:101390004CEB174B18EB0B0840F1000018EB0E0B51
:1013A00058EB000840F100008F1A4FF000013CBFDD
:1013B000C943661B14BFB5EB040C00213CBFC943F5
:1013C000F61B4FEA17444EEA8E0E27EA04454FEA11
:1013D0001C4704FB07622CEA074C05FB07F70CFBD4
:1013E00005F604FB0CFC16EB074642EB174216EB26
:1013F0000C4642EB1C421BEB060658EB0202414135
:1014000046EA9E0601D5BDE80189B619524141EB75
:101410000101A3F10103BDE801894FEA14454FEA38
:10142000114724EA054621EA074C05FB07F406FBB1
:1014300007F70CFB06F105FB0CFC11EB074144EB35
:1014400017444FEA124711EB0C4144EB1C4422EACB
:10145000074C05FB07F206FB07F70CFB06F605FB3E
:101460000CFC16EB074642EB174216EB0C4642EB20
:101470001C456A1854F1000148BF7047B619524123
:1014800041EB0101A3F10103704795F0000F37D044
:101490004FEA11424FEA144721EA024624EA074C78
:1014A00002FB07F106FB07F70CFB06F402FB0CFC42
:1014B00014EB074441EB17414FEA154714EB0C447A
:1014C00041EB1C4125EA074C02FB07F506FB07F739
:1014D0000CFB06F602FB0CFC16EB074645EB17452A
:1014E00016EB0C4645EB1C42121951F1000148BFA6
:1014F0007047B619524141EB0101A3F10103704756
:101500004FEA14454FEA114724EA054621EA074C01
:1015100005FB07F106FB07F70CFB06F24FF0000690
:1015200005FB0CFC12EB074241EB174112EB0C429E
:1015300051EB1C4148BF7047921841EB0101A3F1E8
:101540000103704710B5846AE16D11F0500F06D0A9
:10155000E16DC90625D5204600F002FC10BDE06D06
:1015600040F40070E06520680168090716D502F0B4
:1015700058FB78B12068C068800400280ADBE06D61
:1015800020F48070E065E06DC00403D4E06D40F0AD
:101590000100E065204600F0E1FB10BDC068800757
:1015A000EBE7616D496BBDE81040084710B5806AF4
:1015B000C16D41F04001C165016E41F00401016659
:1015C00000F0CEFB10BD10B5806A00F0C8FB10BD66
:1015D0000A4A10B513880B49094C886824F8103062
:1015E000528804F5487323F81020401C8860B0F539
:1015F000C87F01D30020886010BD00006C06002069
:10160000880600200000002070B50446006881684C
:101610008268C1F3400112F0010F28D039BB816804
:1016200001F00D01012914D18168124A1140891C71
:10163000816021680320086000F072FF054612E017
:1016400000F06EFF401B02280DD920688068C0079B
:1016500009D0E06D40F01000E065206E40F0010020
:101660002066012070BD20688068C007E8D1002096
:1016700070BD0000C0FFFF7FF8B504460020009059
:101680002068816811F0010F4AD18168254A114212
:1016900037D18168D5432940491C81602068B0F169
:1016A000A04F02D02049884201D1204800E02048C4
:1016B000806800F0E07000020DD51E481E490068E9
:1016C000B0FBF1F0401C00EB4000800000E0401E49
:1016D00000900028FBD100F023FF06461BE0816844
:1016E00011F0010F03D181682940491C816000F08D
:1016F00017FF801B02280ED920680068C043C0076E
:1017000009D0E06D40F01000E065206E40F001006F
:1017100020660120F8BD20680168C943C907DED1F1
:101720000020F8BD3F000080000100500003005081
:101730000007005084060020400D0300FEE7000073
:1017400010B50021064B08464FF4C87233F810401C
:10175000401C21449042F9D3B1FBF2F010BD0000CF
:10176000A809002010B501680E4CCAB21423083A2B
:10177000A14203D2B2FBF3F20B4904E0B2FBF3F255
:10178000094920310832436C02F01F0223F00303A1
:101790001944816404498031C1640121914001658B
:1017A00010BD000008040240000802400179084A08
:1017B00001F07F0102EB81024265054A4432491E75
:1017C000826501F01F0201219140C1657047000050
:1017D000FC08024030B5D0E913456560446D14B192
:1017E000D0E91645656090F8444004F01F050124D7
:1017F000AC40056C6C60046863608368102B036800
:1018000003D099600068C26030BD9A600068C16012
:1018100030BD704772B6FEE710B50D4CDFED0D0A16
:101820000D4994ED010A30EE200A10EE100A84ED05
:10183000010A884205DBDFED090A30EE600A84ED1B
:10184000010A03F0BFFBD4ED020A20EE200A10BD0E
:1018500060060020FCAD803CDB0FC940DB0FC940B7
:10186000F8B500260446009690F858000D46012869
:101870000BD0012084F858002046FFF7C5FE010078
:10188000E06D04D040F010002AE00220F8BD20F402
:10189000885040F00200E06520688268134B1A40CF
:1018A00005F080431A4342F000428260104A2068EB
:1018B0000EE0009B5B1C0093934209D3E06D20F087
:1018C000020040F01000E06584F858600120F8BD87
:1018D0008368DB0FEDD1E06D20F0020040F00100E5
:1018E000E06584F858600846F8BD0000C0FFFF3F7F
:1018F00002DE04002DE9F84F00270446009790F817
:101900005800DFF818840D46B946012811D0012689
:1019100084F85860206802F080F960B1E06D40F012
:101920002000E0655FF0010784F858903846BDE874
:10193000F88F0220FBE7D5E900210C23206803EA99
:1019400091131844036B01F01F014FF01F0C0CFAA8
:1019500001FCC2F3846223EA0C038A40134303634D
:10196000206802F05AF98246206802F052F95AEAD9
:1019700000003CD1AA6829682068B2F1004F37D036
:1019800002F057F92068416921F000414161206867
:101990006969C268C2F3C102520091402A69042AEF
:1019A00031D000EB82002B68026EDFF874C303F0C5
:1019B000F84302EA0C020B431A4342F0004101666D
:1019C00020682A69A96900EB8200026E22F0807209
:1019D0000A430266297F20682A69012910D0002164
:1019E00000EB8200026E22F000720A4302667DE084
:1019F000002202F01EF92068416941F00041C5E76C
:101A00004FF00071ECE7002102F0FDF84003206880
:101A10004FF0000172D002F0F6F890FAA0F0B0FAA0
:101A200080F1286842036ED090FAA0F0B0FA80F0FE
:101A3000814204D100221146206802F009F90121F7
:101A4000206802F0E0F8400320684FF001015DD00B
:101A500002F0D9F890FAA0F0B0FA80F128684203B9
:101A600059D090FAA0F0B0FA80F0814204D100225F
:101A70000121206802F0ECF80221206802F0C3F88E
:101A8000400320684FF0020148D002F0BCF890FA01
:101A9000A0F0B0FA80F12868420344D090FAA0F098
:101AA000B0FA80F0814204D100220221206802F0C5
:101AB000CFF80321206802F0A6F8400320684FF019
:101AC000030133D002F09FF890FAA0F0B0FA80F151
:101AD000286842032FD090FAA0F0B0FA80F081423B
:101AE00004D100220321206802F0B2F82068816846
:101AF00011F0010F22D0ACE000E004E002F083F826
:101B0000C0F384618DE7C0F3846091E702F07BF855
:101B1000C0F38461A2E7C0F38460A6E702F073F823
:101B2000C0F38461B7E7C0F38460BBE702F06BF8F1
:101B3000C0F38461CCE7C0F38460D0E72A7B2968D6
:101B400050F8B03FC1F3120C23EA0C0302F0180C5A
:101B5000744A22FA0CF20A4013430360E9684145D3
:101B600077D1286841031CD090FAA0F1B1FA81F135
:101B7000491C01F01F0109294FEA403132D80029E0
:101B800012D000BF90FAA0F1B1FA81F101F1010188
:101B900001F01F0106FA01F609D100BFC0F384610C
:101BA00009E0C0F38461E3E7C0F38461EEE790FAF3
:101BB000A0F1B1FA81F101F1010101F01F0146EA42
:101BC000816102D1C0F3846003E090FAA0F0B0FA22
:101BD00080F000F1010000F01F0000EB400041EA3E
:101BE000005132E000290ED090FAA0F1B1FA81F153
:101BF00001F1010101F01F0106FA01F606D100BF53
:101C0000C0F3846106E0C0F38461F1E790FAA0F1CB
:101C1000B1FA81F101F1010101F01F0146EA816190
:101C200002D1C0F3846003E090FAA0F0B0FA80F033
:101C300000F1010000F01F003B4A00EB400002EB06
:101C4000005041EA000141F00071AA68206801F0EB
:101C5000F0FF36482B6803423FF466AE21684FF030
:101C6000A04C334D3348344E614501D0A94201D1D7
:101C7000024600E032469268DFF8C08002F0E0726F
:101C8000434503D0DFF8B880434521D15FEA0228FD
:101C90001ED4614506D02B4B99427FF445AEA94234
:101CA00000D0304642F40001826822F0E0720A431C
:101CB0008260254825490068B0FBF1F0401C00EB2C
:101CC0004000800000E0401E00900028FBD12BE681
:101CD000DFF87C8043450DD15FEAC2180AD4A942DF
:101CE000F5D01C4B9942F2D0614500D0304642F00D
:101CF00080710CE0DFF860804345E8D15302E6D400
:101D0000A942E4D0614500D0304642F480018268A7
:101D100022F0E0720A43826006E6000000007F4085
:101D200000F0FF03FFFF0700000020FE0000088016
:101D3000000100500003005000070050000021C3C4
:101D40001000C0900006005084060020400D0300E3
:101D5000000052C700050050000084CB7047704758
:101D600070470000F8B54FF0000504002E460095BE
:101D700002D0E06D10B107E00120F8BD204600F070
:101D800009F9266684F8586020688168C1F34071BB
:101D900019B18168734A1140816020688168C1F37C
:101DA000007189B98168704A114041F080518160A9
:101DB0006E486F490068B0FBF1F04000801C00E005
:101DC000401E00900028FBD120688168C1F300719B
:101DD00041B9E16D41F01001E165216E41F0010171
:101DE0002166012501F019FFE16DC90600D430B16B
:101DF000E06D40F01000E06501252846F8BDE06D7B
:101E000020F4807040F00200E0652068816811F0E5
:101E1000010F27D14FF0A043564A984201D090427B
:101E200004D19968966801F001010AE05249896875
:101E3000524E01F00101B66806F001063143504EE2
:101E4000B66806F0010631430CD1984201D09042A9
:101E500001D14C4800E04C486168826822F47C1251
:101E60000A438260E168E06B627F0843A16841EA4F
:101E70004231084394F8241040EA0140012904D17A
:101E8000218D424A02EB41410843E16A29B101F444
:101E90007871226B014342EA01002268D1683C4B11
:101EA00019400143D16020680169626B21F04061F3
:101EB00011430161206801F0ACFE70BB207F94F8F3
:101EC00038102268800340EA4100D16844F20203DE
:101ED00099430143D16020690028206801690AD034
:101EE00041F480310161206850F8C01F22696FF30E
:101EF0000D01114307E021F480310161206850F8A1
:101F0000C01F6FF30D01016094F8400001280CD050
:101F10002068016921F001010161606901282068E0
:101F2000016B21F00F0111D013E0D4E91101084336
:101F3000D4E913121143084321680A6940F2FC7383
:101F40009A43104340F001000861E6E7226A521EFE
:101F500011430163E06D20F0020040F00100E065F4
:101F60004BE70000C0FFFF5FC0FFFF7F840600203B
:101F7000400D030000010050000400500005005017
:101F80000006005000030050000700500000FEFF54
:101F90000740F0FF70B59CB00546142115A8FEF768
:101FA000CEFA54216846FEF7CAFA214928688842C9
:101FB0003CD1C001009080031190684600F0AEFB58
:101FC00008B1FFF727FC1B49C86C40F40050C864F7
:101FD000C86C00F400501A90C86C40F00100C8644E
:101FE000C86C002600F001001A900320CDE9160607
:101FF000159015A94FF0904000F072F90F4C0E4863
:1020000020602420C4E901068020C4E90360400068
:1020100060618000A0612020C4E90706204600F02E
:10202000A5F808B1FFF7F6FB6C65A5621CB070BDA2
:10203000000100500010024008000240D8100020AB
:102040002DE9F047044600684FF0A0483D4F914607
:102050008A46404501D0B84201D13B4900E03B49A6
:10206000896801F01F0501F0D8FD002868D194F8B7
:102070005800012864D0012084F8580034492068B1
:10208000884201D1012000E00020401E28424FF08C
:10209000000605D0052D03D0092D01D0012003E055
:1020A0002046FFF7E9FA18B184F85860BDE8F087D8
:1020B000E06D40F60161884340F48070E06520687F
:1020C000B84201D1414605E02249884201D1224966
:1020D00000E00146814200D01DB9E06D20F480107F
:1020E000E065E06DC00404D5206E20F00600206697
:1020F00000E02666616D1948C862616D1848086382
:10210000616D1848486321681C20086084F8586095
:102110002068416841F0100141602068C16841F0C9
:102120000101C16021684B4652464031606D00F0AC
:102130007FF821688A680C4B1A40121D8A60B5E747
:102140000220B3E7000100500003005000070050D8
:10215000000600500005005000040050451500081E
:10216000C7150008AD150008C0FFFF7F70B504005B
:102170000CD02C4A21681420914209D22A4A0A44E0
:10218000B2FBF0F08000606428480AE0012070BDD6
:10219000244A52420A44B2FBF0F0800060642148B5
:1021A00008382064022084F825000A6847F6F07099
:1021B0008243D4E902031843D4E904352B4318437E
:1021C000A3691843E3691843236A1843104308605E
:1021D0002046FFF7C7FAA0680025B0F5804F00D170
:1021E00065602079A16C00F07F000860D4E91301DC
:1021F00041606068401E032808D82046FFF7D6FAE1
:10220000606D0560D4E91601416002E06565A56571
:10221000E565E563012084F8250084F8245000205A
:1022200070BD000008040240F8FFFDBF000002403E
:1022300070B5044690F82400002501280CD0012038
:1022400084F8240094F825600020012E06D084F83C
:1022500024000225284670BD022070BD022684F8A5
:102260002560E0632068066826F0010606602046C7
:10227000FFF7B0FA206B00282068016802D041F017
:102280000E0106E021F0040101602068016841F0C0
:102290000A010160A06C0168C90303D5016841F41B
:1022A00080710160606D18B1016841F48071016056
:1022B0002068016841F001010160CBE770B5044678
:1022C00000F02EF90546601C02D004484068044422
:1022D00000F026F9401BA042FAD370BD780600201A
:1022E0002DE9F04FDFF80C92002301260325A9F118
:1022F000040B85B00F2709F1040AABF1040EF1E0DD
:1023000006FA03FC12EA0C027ED00C7904F00304F6
:10231000012C01D0022C20D1846800945C0005FAC5
:1023200004F80494009C24EA08040094D1F80C807A
:10233000049C08FA04F8009C48EA0408C0F80880E5
:10234000446824EA0C0491F804C0CCF3001C0CFA95
:1023500003FC4CEA040CC0F804C00C79E443A40765
:1023600002D18C68012C0ED0C4684FEA430805FAEC
:1023700008FC24EA0C04D1F808C00CFA08FC4CEA6A
:10238000040CC0F80CC00C7904F00304022C16D124
:10239000DC0800EB840CCDF808C0DCF820C05C073A
:1023A0004FEAD46807FA08F42CEA040C0C6904FA22
:1023B00008F444EA0C04DDF808C0CCF820400468B6
:1023C0004FEA430805FA08FC24EA0C0491F804C01B
:1023D0000CF0030C0CFA08FC4CEA040CC0F800C02A
:1023E0004C6814F4403F7CD0434CD4F860C04CF0AF
:1023F000010CC4F860C0246E23F0030C04F0010447
:1024000000943E4C644400E06BE00294A4684FEA00
:10241000837C4FEA1C7807FA08FC24EA0C04B0F12C
:10242000904F06D0DFF8D8C0604505D14FF0010CC1
:1024300020E04FF0000C1DE0DFF8C8C0604502D17D
:102440004FF0020C16E0DFF8C0C0604502D14FF03B
:10245000030C0FE0DFF8B4C0604502D14FF0040C6C
:1024600008E0DFF8ACC0604502D14FF0050C01E098
:102470004FF0060C0CFA08FC4CEA040C029CC4F861
:1024800008C0D9F80040CC46D1F8048094435FEAF4
:10249000C82800D51443CCF80040DAF80040D446F0
:1024A000D1F8048094435FEA882800D51443CCF81F
:1024B0000040DBF80040DC46D1F8048094435FEA3A
:1024C000883800D51443CCF80040DEF80040F446CC
:1024D000D1F8048094435FEAC83800D51443CCF89F
:1024E00000405B1C0C682246DC407FF409AF05B05D
:1024F000BDE8F08F080401400010024000000140D8
:102500000004004800080048000C00480010004883
:10251000001400480AB18161704781627047000071
:1025200001488068704700007806002002488168F2
:1025300042681144816070477806002010B500247D
:10254000032000F073F80F2000F008F808B1012410
:1025500001E000F025F8204610BD000070B50E4ED9
:1025600005460024706898B14FF47A71B1FBF0F021
:102570000A490968B1FBF0F000F09AFD40B9102D4E
:1025800006D200222946501E00F030F8356000E0E7
:102590000124204670BD000078060020840600203B
:1025A0000A4882B0016E41F001010166016E01F03E
:1025B00001010091816D41F080518165806D00F0D5
:1025C0008050009002B000F0A1B80000001002405E
:1025D000002809DB00F01F02012191404009800022
:1025E00000F1E020C0F8001170470000F0B40E4B7D
:1025F0001B680C46C3F30223C3F10705042D00D961
:102600000425191D072901D2002300E0DB1E012645
:1026100006FA05F1491E214099409E40761E16405B
:102620003143F0BC02F0BDBC0CED00E0064900F007
:10263000070208684FF6FF03184040EA0220034AE9
:1026400010430860704700000CED00E00000FA0540
:102650002B492C4B0A6832214A432B4940B1B0F533
:10266000007F086829D020F4C06040F480602CE02E
:102670000868C0F34120022804D051F8800F20F4EC
:10268000807022E0D1F8800020F48070C1F88000D2
:10269000086820F4C06040F400700860B2FBF3F0FA
:1026A000401C00E0401E4A69520501D50028F9D1BE
:1026B000486940050AD503207047C0F3412002282D
:1026C00006D051F8800F40F48070086000207047F9
:1026D000D1F8800040F48070C1F88000086820F4D0
:1026E000C06040F400700860B2FBF3F0401C00E0F2
:1026F000401E4A695205DBD50028F9D1D8E7000011
:102700008406002040420F000070004002488168AB
:1027100041F4804181607047007000402DE9F8432A
:10272000044600680026BB4D00035ED5A86D002757
:10273000C00008D4A86D40F08050A865A86D01279E
:1027400000F080500090DFF8D092D9F8001041F4EA
:102750008071C9F80010FFF7E3FE804606E000BF75
:10276000FFF7DEFEA0EB080002282BD8D9F8000006
:10277000C005F5D5D5F8900010F4407014D0216D47
:10278000814211D0D5F89000D5F8901020F4407017
:1027900041F48031C5F89010D5F8901021F48031C3
:1027A000C5F89010C5F89000C00711D0FFF7B8FE2B
:1027B000804641F2883907E0FFF7B2FEA0EB08013E
:1027C000494501D903260BE0D5F890008007F3D5E1
:1027D000D5F89000216D20F440700843C5F89000B2
:1027E0001FB1A86D20F08050A8652078C00707D0E1
:1027F000D5F88800616820F003000843C5F8880018
:102800002078800707D5D5F88800A16820F00C0053
:102810000843C5F888002078400707D5D5F8880018
:10282000E16820F030000843C5F8880020780007F0
:1028300007D5D5F88800216920F0C0000843C5F805
:1028400088002078C00607D5D5F88800616920F493
:1028500040700843C5F888002078800607D5D5F871
:102860008800A16920F440600843C5F888002078FA
:10287000400607D5D5F88800E16920F440500843A8
:10288000C5F888002078000607D5D5F88800216AA9
:1028900020F440400843C5F888002088C00507D5CB
:1028A000D5F88800616A20F440300843C5F88800F4
:1028B0002068800307D5D5F89C00A16A20F00300AA
:1028C0000843C5F89C002088800507D5D5F8880006
:1028D000E16A20F440200843C5F8880020884005BC
:1028E0000FD5D5F88800216B20F440100843C5F8B7
:1028F0008800206BB0F5801F03D1E86840F4801099
:10290000E860208800050FD5D5F88800616B20F4B9
:1029100040000843C5F88800606BB0F5800F03D114
:10292000E86840F48010E8602088C0040FD5D5F82E
:102930008800A16B20F040700843C5F88800A06BA8
:10294000B0F1807F03D1E86840F48010E86020880F
:102950004FF0006180040ED5D5F88800E26B20F0BE
:1029600040601043C5F88800E06B884203D1E868F6
:1029700040F48010E860208840040ED5D5F8880027
:10298000226C20F040601043C5F88800206C88421B
:1029900003D1E86840F48010E860208800040FD577
:1029A000D5F88800616C20F040500843C5F88800D5
:1029B000606CB0F1805F03D1E86840F48030E8607B
:1029C0002068C0030FD5D5F88800A16C20F04040E6
:1029D0000843C5F88800A06CB0F1804F03D1E868C7
:1029E00040F48030E860206840030FD5D5F89C00A3
:1029F000E16C20F440100843C5F89C00E06CB0F591
:102A0000001F03D1E86840F48010E8603046BDE85C
:102A1000F883000000100240007000402DE9F047EC
:102A20000E4605004FF0000725D0DFF8AC81D8F83E
:102A3000000000F00F00B0420CD2D8F8001021F0D6
:102A40000F013143C8F80010D8F8000000F00F0063
:102A5000B04210D12968614CC80741F2883A5AD077
:102A60006868DFF87C91032808D0022820682DD000
:102A7000400500282CDB0120BDE8F087206880019C
:102A8000F9D5E06800F00302E068C0F30310401CD1
:102A9000032A19D0534A00BFB2FBF0F0E268C2F338
:102AA00006225043E268C2F34162521C5200B0FB5E
:102AB000F2F0484517D9A06810F0F00F0CD0880745
:102AC00011D5A86840B10EE0474AE5E78003D0E79A
:102AD00000F0B6F8484506D9A06820F0F00040F0B4
:102AE0008000A0608027A068696820F00300084388
:102AF000A060FFF715FD814606E000BFFFF710FD5F
:102B0000A0EB090151453AD8A068696800F00C00B3
:102B1000B0EB810FF2D12868810714D5400703D5A7
:102B2000A06840F4E060A0602878000705D5A068A0
:102B300020F4605040F4E060A060A068A96820F034
:102B4000F000084304E0802F03D1A06820F0F000DB
:102B5000A060D8F80010404601F00F01B14216D92C
:102B6000016821F00F0131430160FFF7D9FC0746EE
:102B700007E000BFFFF7D4FCC11B514501D903207A
:102B80007AE7D8F8000000F00F00B042F2D12878C0
:102B9000400705D5A068E96820F4E0600843A0601C
:102BA0002878000706D5A068296920F4605040EA1B
:102BB000C100A06000F044F8A1680C4AC1F3031101
:102BC000515C01F01F01C8400949086009480068CC
:102BD000BDE8F047FFF7C2BC0020024000100240F1
:102BE00000B4C4040024F40000127A003C5D000824
:102BF0008406002078060020054806490068896898
:102C0000054AC1F30221515C01F01F01C840704721
:102C100084060020001002404C5D0008054806496B
:102C200000688968054AC1F3C221515C01F01F01A7
:102C3000C840704784060020001002404C5D000828
:102C4000184910B58868C0F381021748012A0BD0D3
:102C50008A684310C2F38102022A06D08A68C2F34E
:102C60008102032A03D0002010BD184610BDCA6897
:102C700002F00304CA68C2F30312521C032C02D0F0
:102C8000B0FBF2F001E0B3FBF2F0CA68C968C2F32E
:102C900006225043C1F34161491C4900B0FBF1F0E9
:102CA00010BD0000001002400024F4002DE9F8439C
:102CB00004007AD02078F84DC00747D0A868E968AA
:102CC00000F00C0001F003010C2802D0082817D0F6
:102CD00001E0032914D06068B0F5803F17D0B0F54B
:102CE000A02F286817D020F480302860286820F4AE
:102CF000802028606068E0B1FFF712FC064614E00F
:102D00002868800322D560680028D2D01EE0286899
:102D100040F48030EDE740F480202860F7E700BF02
:102D2000FFF7FEFB801B642870D828688003F7D566
:102D30000CE0FFF7F5FB064605E000BFFFF7F0FBF0
:102D4000801B6428F0D828688003F7D42078800797
:102D50004CD5A868E96800F00C0001F003010C28CC
:102D600002D004280DD001E002290AD0E068002832
:102D700028682BD040F480702860FFF7D1FB06460E
:102D800019E02868400502D5E068002891D06868FD
:102D9000217C20F0FE4040EA01606860BF48006886
:102DA000FFF7DCFB002800D120E072E1FFF7B8FB61
:102DB000801B0228B8D828684005F7D56868217CB0
:102DC00020F0FE4040EA016068600FE020F480706F
:102DD0002860FFF7A5FB064605E000BFFFF7A0FB54
:102DE000801B0228A0D828684005F7D42078000767
:102DF00029D560690028D5F8940013D040F001006F
:102E0000C5F89400FFF78CFB064606E090E000BF93
:102E1000FFF786FB801B022886D8D5F89400800730
:102E2000F6D510E020F00100C5F89400FFF778FB1C
:102E3000064604E0FFF774FB801B022878D8D5F81B
:102E400094008007F6D42078400761D5A86D00264D
:102E5000C00008D4A86D40F08050A865A86D012678
:102E600000F0805000908E480168C90511D40168B7
:102E7000804641F480710160FFF752FB074604E091
:102E8000FFF74EFBC01B022852D8D8F80000C0053F
:102E9000F6D5A068012815D00528D5F8900016D0E1
:102EA00020F00100C5F89000D5F8900020F0040053
:102EB000C5F89000A06841F28838B8B1FFF730FB40
:102EC00007460EE0D5F8900040F00100F0E740F032
:102ED0000400C5F89000F5E7FFF722FBC11B414550
:102EE00026D8D5F890008007F6D50CE0FFF718FB40
:102EF000074604E0FFF714FBC11B414518D8D5F87D
:102F000090008007F6D41EB1A86D20F08050A8650F
:102F10002078800629D5A0690028D5F8980013D01C
:102F200040F00100C5F89800FFF7FAFA064606E0FF
:102F300075E000BFFFF7F4FA801B02286FD8D5F8C0
:102F400098008007F6D510E020F00100C5F8980041
:102F5000FFF7E6FA064604E0FFF7E2FA801B0228D4
:102F60005DD8D5F898008007F6D4E069F0B3A96879
:102F7000C1F3810103295DD00228286820F0807008
:102F8000286003D0FFF7CCFA04464BE0FFF7C8FAFD
:102F9000064604E0FFF7C4FA801B02283FD82868E1
:102FA0008001F7D4F4E908016FF00F0202EB011180
:102FB0000843218A5204490802EB4151A26841EAC0
:102FC00002210843217D4FF07E42490802EB416116
:102FD0000843217B40EAC160E968324A1140084356
:102FE000E860286840F08070286000E05EE0E868F3
:102FF00040F08070E860FFF793FA044605E000BFF8
:10300000FFF78EFA001B022809D828688001F7D53F
:103010004CE000BFFFF784FA001B022802D903200E
:10302000BDE8F88328688001F4D4E8681E490840A8
:10303000E8603BE00128F3D0E868226A00F0030171
:10304000914226D1616A00F0F002090110399142E3
:103050001FD1A26A00F4FE41B1EB022F19D194F8FE
:103060002C2000F07841B1EBC26F12D1218E00F418
:10307000C00249084905A1F50011914209D194F80F
:10308000341000F0C06049084906A1F10071814286
:103090000CD00120C4E70000001002407806002098
:1030A000007000400C809F01FCFFEEFE0020B7E79F
:1030B00010B5401EB0F1807F01D3012010BD4FF04C
:1030C000E02460610F21601701F06BFF0020A06118
:1030D00007202061002010BD704770477047000036
:1030E00030B590F83C20012A45D0012280F83C20E0
:1030F000CA688B6822F440721A434B6822F48062DB
:103100001A430B6822F400621A430B6922F48052BE
:103110001A434B6922F400521A430B6B22F480428B
:103120001A430B8B22F4702242EA0342CB6922F04D
:1031300080521A43114D03680024AB4205D0104D54
:10314000AB4202D00F4DAB4210D10D8D22F4700274
:1031500042EA05520D6A22F080722A434D6A22F03B
:1031600000722A43C96A22F000520A435A6480F866
:103170003C40002030BD022030BD0000002C01404A
:103180000034014000500140704770477047000014
:10319000F0B590F83C20012A43D0012580F83C503E
:1031A000022280F83D2003685A689C681E4E1F4F1B
:1031B000DFF87CC0B34203D0BB4201D0634504D1E9
:1031C00022F4700E4A6842EA0E02DFF868E002EA72
:1031D0000E02D1F800E04EEA020EC3F804E00268E5
:1031E000B24212D0B2F1804F0FD0134B9A420CD0A2
:1031F000124B9A4209D0124B9A4206D0BA4204D0DE
:10320000104B9A4201D0624504D1896824F08003B2
:103210001943916080F83D50002180F83C10084629
:10322000F0BD0220F0BD0000002C01400034014040
:10323000005001408FFFFFFD0004004000080040E7
:10324000000C004000400140704710B5040003D05E
:1032500094F83D0010B107E0012010BD002084F873
:103260003C00204600F022F8022084F83D00211D99
:10327000206801F001F9012084F8480084F83E003C
:1032800084F83F0084F8400084F8410084F842004C
:1032900084F8430084F8440084F8450084F846002C
:1032A00084F8470084F83D00002010BD08B5174A97
:1032B00001681748914207D1016E41F4006101662F
:1032C000006E00F400601EE0124A914211D1816D3F
:1032D00041F004018165806D002200F0040000903F
:1032E00011461E20FFF782F9BDE808401E20FFF7B7
:1032F0006FB9094A914207D1016E41F4005101664C
:10330000006E00F40050009008BD0000002C014049
:1033100000100240000800400034014090F83D10C9
:10332000012901D001207047022180F83D10016879
:10333000CA6842F00102CA6000681349884214D08A
:10334000B0F1804F11D0114988420ED01049884207
:103350000BD01049884208D00F49884205D00F4948
:10336000884202D00E49884207D181680D4A114037
:10337000062906D0B1F5803F03D0016841F0010174
:103380000160002070470000002C01400004004054
:1033900000080040000C00400034014000400140A3
:1033A000005001400700010070B5044690F83C0051
:1033B000002501281CD0012684F83C60022084F8F6
:1033C0003D0022689068334B184020F47F409060A5
:1033D0000868B0F5005F2ED016DC402849D009DC23
:1033E000D0B1102818D0202816D0302849D113E0A9
:1033F000022070BD50282AD0602830D070280FD00D
:10340000B0F5805F3DD13DE010F00F0F39D10111D3
:10341000A1F58031072934D822680146104625E0FD
:10342000CB68D1E90121206801F0A1F8206881680A
:1034300041F0770109E0CB68D1E90121206801F072
:1034400096F82068816841F4804181601AE0CA687A
:103450004968206801F070FA5021206806E0CA68C7
:103460004968206801F09CFA6021206801F08AF820
:1034700008E0CA684968206801F05EFA40212068C7
:10348000F4E7012584F83D60002084F83C002846DC
:1034900070BD000088FFCEFF70472DE9F041044663
:1034A0000068C66805694FF00007A90713D5B10782
:1034B00011D5F91E016101202077206880698007FD
:1034C000204602D0FFF7E8FF04E000F0F7F82046BE
:1034D00000F0B9F92777680716D5700714D5216869
:1034E0006FF004000861022020772068806910F4E2
:1034F000407F204602D0FFF7CFFF04E000F0DEF867
:10350000204600F0A0F92777280715D5300713D5F6
:1035100021686FF008000861042020772068C069E6
:103520008007204602D0FFF7B7FF04E000F0C6F89E
:10353000204600F088F92777E80616D5F00614D55E
:1035400021686FF010000861082020772068C069AA
:1035500010F4407F204602D0FFF79EFF04E000F009
:10356000ADF8204600F06FF92777E80708D0F0079C
:1035700006D021686FF001000861204600F0EEF9E6
:10358000280601D4A80408D5300606D521686FF4B2
:10359000025008612046FFF7A0FDE80508D5300677
:1035A00006D521686FF4807008612046FFF794FD0E
:1035B000680608D5700606D521686FF040000861DE
:1035C000204600F041FAA80608D5B00606D52168C5
:1035D0006FF0200008612046FFF780FDE80208D563
:1035E000F00206D521686FF4801008612046FFF7CD
:1035F000CCFDA80208D5B00206D521686FF40010F2
:1036000008612046FFF7C0FD680208D5700206D5A4
:1036100021686FF4800008612046FFF7B7FD28029B
:103620000AD5300208D521686FF4000008612046F1
:10363000BDE8F041FFF708BEBDE8F08110B586B0E7
:10364000044614216846FCF77AFF2368174C0022D1
:1036500017480221A34212D1C36C43F00103C36493
:10366000C06C00F0010005904FF4A0608DE80700E9
:103670000620CDE9031069464FF0904012E00D4C52
:10368000A34211D1C36C43F00403C364C06C00F0C7
:1036900004000590C0208DE807000420CDE9031048
:1036A00069460548FEF71CFE06B010BD002C01401F
:1036B000001002400034014000080048704770B517
:1036C000044690F83C0000260D4601280BD001204E
:1036D00084F83C000C2A4AD007DC82B1042A20D0AE
:1036E000082A06D131E0022070BD102A53D0142AD6
:1036F00063D00126002084F83C00304670BD20686D
:1037000000F04AFF2068816941F00801816120686A
:10371000816921F004018161206881692A6911436E
:1037200011E0206800F092FF2068816941F4006197
:1037300081612068816921F48061816120688169EB
:103740002A6941EA02218161D4E7206800F0D2FFB2
:103750002068C16941F00801C1612068C16921F098
:103760000401C1612068C1692A69114311E0206820
:1037700001F014F82068C16941F40061C16120685A
:10378000C16921F48061C1612068C1692A6941EA87
:103790000221C161AEE7206801F054F82068016D94
:1037A00041F0080101652068016D21F00401016507
:1037B0002068016D2A69114311E0206801F07EF84C
:1037C0002068016D41F4006101652068016D21F4FC
:1037D000806101652068016D2A6941EA0221016565
:1037E00088E710B5040003D094F83D0010B107E05D
:1037F000012010BD002084F83C00204600F022F893
:10380000022084F83D00211D206800F035FE0120D3
:1038100084F8480084F83E0084F83F0084F84000B3
:1038200084F8410084F8420084F8430084F844009E
:1038300084F8450084F8460084F8470084F83D0089
:10384000002010BD7047704770B50446022269B170
:10385000042912D0082917D00C291CD0102921D0F6
:1038600094F84300012824D0012070BD94F83E0054
:103870000128F9D184F83E201DE094F83F0001288A
:10388000F2D184F83F2016E094F840000128EBD1F3
:1038900084F840200FE094F841000128E4D184F836
:1038A000412008E094F842000128DDD184F842204C
:1038B00001E084F843200122206800F04BFE1D49FE
:1038C00020681D4A1D4B1E4D88420BD0904209D0E6
:1038D000984207D01B4EB04204D01B4EB04201D0DC
:1038E000A84203D1466C46F40046466420688842EC
:1038F00011D0B0F1804F0ED0144988420BD014493A
:10390000884208D01349884205D0904203D098429B
:1039100001D0A84207D181680F4A1140062906D07C
:10392000B1F5803F03D0016841F001010160002042
:1039300070BD0000002C01400034014000400140F7
:103940000050014000440140004801400004004094
:1039500000080040000C00400700010070B52F4C2B
:103960002F4D2DED028B2188491C2180A84251D179
:1039700001F038FD01F066FDFDF72AFE2088B0F564
:10398000C87F32D9FDF748FFB0EE408A01F0C4FC91
:1039900001F00CFD84ED040A01F0ECFCDFED218A5E
:1039A00084ED050AD4ED040AB0EE681AB0EE480AB8
:1039B0001D4800F0C7FC10EE100A1C4A1C4990423A
:1039C00002DDB1EE040A05E010EE100A884201D9CA
:1039D000B9EE040A1448B0EE681AD4ED050A28308E
:1039E00000F0B0FC4FF4CD7020801248124A0168FC
:1039F000914203DB9FED110A80ED000A104A016835
:103A0000914203DC9FED0F0A80ED000A29686FF0F8
:103A100001000861BDEC028B70BD00006006002053
:103A20008411002017B75138E80F00200000A04093
:103A30000000A0C01C000020000066440000664496
:103A40000000484300004843704790F88410012963
:103A500018D0012180F884102421C0F88810016852
:103A60000A680B6823F001030B6022F0005100226A
:103A70004266036819602021C0F8881080F884200D
:103A8000104670470220704770B5044690F88400D5
:103A900001281DD0012084F884002420C4F8880067
:103AA00020680568026822F00102026020688268CE
:103AB00022F060620A438260204600F097FF20688F
:103AC00005602020C4F88800002084F8840070BDC0
:103AD000022070BD70B5044690F8840001281DD006
:103AE000012084F884002420C4F888002068056838
:103AF000026822F0010202602068826822F06042BF
:103B00000A438260204600F071FF20680560202093
:103B1000C4F88800002084F8840070BD022070BDC5
:103B200010B5040003D0D4F8880010B107E00120DC
:103B300010BD002084F88400204600F027F82420DF
:103B4000C4F888002068016821F001010160A06AC2
:103B500010B1204600F06CFF204601F04DF801281E
:103B6000E6D02068416821F4904141602068816876
:103B700021F02A0181602068016841F001010160A3
:103B80002046BDE8104000F0B7BF000030B59BB044
:103B90000446142115A8FCF7D2FC54216846FCF712
:103BA000CEFC16492068884225D1022400256846AB
:103BB00002950094FEF7B2FD08B1FDF72BFE104808
:103BC000816D41F400318165816D01F400311A91FC
:103BD000C16C41F00101C164C06C15A900F0010085
:103BE0001A900C2081E831000720CDE918404FF0F1
:103BF0009040FEF775FB1BB030BD00000044004054
:103C000000100240FEE700EB8100006E00F0F8407B
:103C100070478068C0F3C00070478068C0F38000C0
:103C20007047C06810F4406F01D000207047012039
:103C30007047042303EAD15310B518444369C1F314
:103C4000045107248C40A3438A401343436110BDB1
:103C500000EB8100016E21F00041114301667047C5
:103C600030B589B020216846FCF769FC214820491D
:103C7000002401604FF44031C0E90114C460012107
:103C800008220461C0E90512047744770225056221
:103C900080F824404FF4B062C2628A02026380F866
:103CA0003810C46380F84040FEF75CF808B1FDF7B7
:103CB000B1FD114800900620CDE901057F20039059
:103CC0000420CDE9040469460A48FDF713FE08B153
:103CD000FDF7A0FD094800900C20019069460548B9
:103CE000FDF708FE002801D0FDF794FD09B030BDB6
:103CF000000100506C100020020030040400600835
:103D0000094808B5816C41F004018164816C01F0BF
:103D100004010091816C41F001018164806C00F02C
:103D20000100009008BD00000010024070B586B090
:103D300014216846FCF703FC1F48C16C41F02001C8
:103D4000C164C16C01F020010591C16C41F0010119
:103D5000C164C16C01F001010591C16C41F0040125
:103D6000C164C16C01F004010591C16C41F0020114
:103D7000C164C06C114E00F00200059000224FF4A7
:103D800020713046FEF7C6FB8020009001AA01207A
:103D90000024022582E8310069463046FEF7A0FA89
:103DA0002802009001AA112082E8310069463046BD
:103DB000FEF796FA06B070BD0010024000040048FD
:103DC00010B59CB0002419941A9417941894149464
:103DD00015941C210DA81694FCF7B1FB34216846FC
:103DE000FCF7ADFB31483049C0E900142021816067
:103DF00040F6A561C0E903148021C0E90541FFF741
:103E000024FA08B1FDF706FD4FF48050179017A96A
:103E10002648FFF7C9FA08B1FDF7FCFC2348FFF775
:103E2000E0FC08B1FDF7F6FC1494159414A91F48A2
:103E30001694FFF7ADF908B1FDF7ECFC60200D908A
:103E400040F25270CDE90E041094119412940022A5
:103E50000DA916481394FFF732FC08B1FDF7DAFC00
:103E600008220DA91148FFF72AFC08B1FDF7D2FC82
:103E700000944FF40050CDE9044003940003CDE9D1
:103E8000084001940294069407940A940B9469469E
:103E900006480C94FFF724F908B1FDF7BBFC034872
:103EA000FFF7CCFB1CB010BD002C014038110020E6
:103EB00010B588B00024174800940194029403942C
:103EC000049405941249069401604A21C0E9011442
:103ED0006321C0E9031480218161FFF7B6F908B1BD
:103EE000FDF798FC4FF48050009069460948FFF7B1
:103EF0005BFA08B1FDF78EFC049404A9054806940A
:103F0000FFF746F9002801D0FDF784FC08B010BD8A
:103F1000000800408411002010B59CB000241994C2
:103F20001A9417941894149415941C210DA816949F
:103F3000FCF705FB34216846FCF701FB31483049AA
:103F400001600E2141602021816040F2F311C0E93F
:103F500003148021C0E90541FFF777F908B1FDF7A7
:103F600059FC4FF48050179017A92648FFF71CFA08
:103F700008B1FDF74FFC2348FFF733FC08B1FDF70C
:103F800049FC1494159414A91E481694FFF700F9DF
:103F900008B1FDF73FFC60200D90FA20CDE90E043A
:103FA00010941194129400220DA916481394FFF74F
:103FB00086FB08B1FDF72EFC04220DA91148FFF77E
:103FC0007EFB08B1FDF726FC00944FF40050CDE9CC
:103FD000044003940003CDE9084001940294069440
:103FE00007940A940B94694606480C94FFF778F8F6
:103FF00008B1FDF70FFC0348FFF720FB1CB010BD14
:1040000000340140D0110020184810B51649016055
:104010004FF4E1214160002181600C22C160C0E9C0
:1040200004128161C161016241628162FFF778FD22
:1040300008B1FDF7EFFB00210C48FFF74BFD08B17D
:10404000FDF7E8FB00210948FFF71EFD08B1FDF769
:10405000E1FB0648FFF7F9FC002803D0BDE810405B
:10406000FDF7D8BB10BD0000004400401C1200202A
:10407000FEE7FEE770B500240021204600F0ABF813
:104080000025002000F04BF96D1CEDB2802DF8D317
:10409000641CE4B2082CEFD370BD10B5FFF746FEE8
:1040A000012000F011F9BDE81040012000F018B91E
:1040B00070B500240546802626FA04F0284000F05A
:1040C0000FF9012000F000F9002000F0FDF8641C59
:1040D000E4B2082CF0D3012000F0F6F8BDE87040FF
:1040E000002000F0F1B810B5012000F0F9F801202F
:1040F00000F0EAF8002000F0F3F8BDE810400020DE
:1041000000F0E2B810B5002000F0EAF8012000F05D
:10411000DBF8BDE81040012000F0E2B810B5002047
:104120004FF47A720021491C9142FCD3401C90420A
:10413000F8D3FFF7B2FFAE2000F0E0F8D52000F092
:10414000DDF8802000F0DAF8A82000F0D7F83F2052
:1041500000F0D4F8D32000F0D1F8002000F0CEF821
:10416000402000F0CBF8A12000F0C8F8C82000F0F3
:10417000C5F8DA2000F0C2F8122000F0BFF8812064
:1041800000F0BCF8CF2000F0B9F8D92000F0B6F864
:10419000F12000F0B3F8DB2000F0B0F8302000F0A0
:1041A000ADF8A42000F0AAF8A62000F0A7F88D2012
:1041B00000F0A4F8142000F0A1F8AF2000F09EF861
:1041C000BDE81040FFF756BF0246012000E0504313
:1041D000491EFCD2704710B50C4640F0B00000F00C
:1041E0008DF8102040EA141000F088F804F00F0059
:1041F000BDE8104000F082B82DE9F0410746CE003E
:104200004000083E801E15464FF0FF38F1B2C0B2A4
:10421000FFF7E1FF1148002400EB05152819A0F570
:10422000805090F8000E00F07AF8641CE4B2082C7C
:10423000F4D308EB4700F1B2C0B2FFF7CCFF002483
:104240002819A0F5805090F8080E00F068F8641C5A
:10425000E4B2082CF4D3BDE8F08100002457000834
:104260002DE9F04700241D461646884681460A2758
:1042700013E0291B0A20491EFFF7A6FFB6FBF0F04A
:10428000B0FBF7F107FB110208EB0400C1B248468E
:104290003032FFF7B1FF641CE4B2AC42E9D3BDE8B1
:1042A000F0872DE9F04115460E460746002406E04A
:1042B0003019C1B23846FFF79FFF641CE4B22A5D93
:1042C000002AF5D1BDE8F08110B5024680210348EF
:1042D000FEF720F900BF00BF00BF10BD000400487A
:1042E00010B502464FF400710348FEF713F900BF02
:1042F00000BF00BF10BD00000004004810B5044618
:10430000FFF7F1FE7820FFF7D3FE0020FFF7D0FE85
:104310002046FFF7CDFEBDE81040FFF7F3BE10B515
:104320000446FFF7E0FE7820FFF7C2FE4020FFF7CB
:10433000BFFE2046FFF7BCFEBDE81040FFF7E2BE1F
:1043400070470000D0ED053A30EE605AC0ED063AF5
:1043500090ED043AB8EE000A80ED053A80ED045A7B
:10436000D0ED084AF7EE000AC0ED094A90ED074A81
:1043700080ED084AD0ED022A22EE802AB0EE000A33
:10438000F0EE401A22EE806A52EE011AB0EE602A78
:1043900006EE012AF0EE615AD0ED031A61EEA11A81
:1043A00061EE811A01EE812AD0ED011A21EE800A18
:1043B00060EE222A90ED000AF0EE401A02EE810A29
:1043C000F1EE611ADFED082A25EE001A01EE831ADC
:1043D00002EEA31A05EEC41A02EE641A81EE200A58
:1043E00080ED070A70470000000000007047FEF7EC
:1043F0009DB800B593B038216846FCF7A0F81421A9
:104400000EA8FCF79CF84FF40070FEF721F902208B
:10441000C1010391402104910421CDE908010090DC
:104420004B21CDE90A1007900C900D906846FEF7DD
:104430003DFC08B172B6FEE70F200E9003200F90EE
:10444000002010901190129004210EA8FEF7E6FAB9
:10445000002801D072B6FEE713B000BD0248016823
:1044600041F470010160704788ED00E00148FFF7FA
:1044700014B80000841100202DE9F04F02682C4B85
:104480002C4E2D4FDFF8B4C02D4C2E4D4FF0804BED
:1044900098420BD0584509D0B04207D0B84205D059
:1044A000604503D0A04201D0A84204D122F0700898
:1044B0004A6842EA0802DFF89080DFF89090DFF85F
:1044C00090A0984211D058450FD0B0420DD0B842BC
:1044D0000BD0604509D0A04207D0404505D04845E3
:1044E00003D0504501D0A84203D122F44076CA68D7
:1044F00032434E6922F0800232438E68C6620E68F3
:104500008662984209D0A04207D0404505D0484570
:1045100003D0504501D0A84201D109690163016867
:1045200041F004010160012141610260BDE8F08FAA
:10453000002C01400004004000080040000C004036
:10454000003401400050014000400140004401405F
:104550000048014010B501F01F030121046A994091
:104560008C430462016A9A401143016210BD10B588
:10457000846842EA032224F47F440A43224382608F
:1045800010BD00008268034B1A400A4342F0070145
:10459000816070478FFFCFFF2DE9F047056A026AFF
:1045A00022F00102026243688269214C25F0020573
:1045B00022400C6822F0030214438A681E4E2A43EC
:1045C0001C4D1E4FDFF878C0DFF87890DFF878A038
:1045D000A84209D0B04207D0B84205D0604503D008
:1045E000484501D050450AD1D0F8208028F0040871
:1045F000C0F8208022F00808CA6842EA0802A842EF
:1046000009D0B04207D0B84205D0604503D0484534
:1046100001D0504505D14D6923F440731D438B698A
:104620002B4343608461496841630262BDE8F087BF
:104630008FFFFEFF002C014000340140004001408C
:10464000004401400048014000500140F0B5056AB7
:10465000026A22F010020262426883691E4C204EF8
:1046600023400C6823F4407343EA042425F020031C
:104670008D681C4F43EA0513184DA84203D0B04281
:1046800001D0B8420BD1D0F820C02CF0400CC0F8BB
:1046900020C0D1F80CC023F0800343EA0C13A842D9
:1046A0000CD0B0420AD0104DA84207D00F4DA842FE
:1046B00004D00F4DA84201D0B84207D14D6922F471
:1046C000406242EA85028D6942EA85024260846165
:1046D000496881630362F0BDFF8FFFFE002C01403B
:1046E00000340140005001400040014000440140BE
:1046F00000480140F0B5056A026A22F48072026245
:104700004268C3691E4C204E23400C6823F003030B
:104710001C4325F400738D681C4F43EA0523194D93
:10472000A84203D0B04201D0B8420BD1D0F820C08B
:104730002CF4806CC0F820C0D1F80CC023F40063C6
:1047400043EA0C23A8420CD0B0420AD0104DA84234
:1047500007D0104DA84204D00F4DA84201D0B84256
:1047600007D14D6922F4405242EA05128D6942EAAE
:1047700005124260C4614968C1630362F0BD000074
:104780008FFFFEFF002C014000340140005001402B
:10479000004001400044014000480140F0B5056A76
:1047A000026A22F4805202624268C3691E4C204EA3
:1047B00023400C6823F4407343EA042425F4005397
:1047C0008D681C4F43EA0533184DA84203D0B04210
:1047D00001D0B8420BD1D0F820C02CF4804CC0F8E6
:1047E00020C0D1F80CC023F4004343EA0C33A842A4
:1047F0000CD0B0420AD0104DA84207D00F4DA842AD
:1048000004D00F4DA84201D0B84207D14D6922F41F
:10481000404242EA85128D6942EA85124260C461D3
:10482000496801640362F0BDFF8FFFFE002C014068
:10483000003401400050014000400140004401406C
:104840000048014030B5056A026A22F480320262F3
:104850004268036D124C23400C681C4325F400335E
:104860000D8943EA05430F4DA8420ED00E4DA842D4
:104870000BD00E4DA84208D00D4DA84205D00D4DCD
:10488000A84202D00C4DA84204D14D6922F48032D6
:1048900042EA05224260046549688164036230BDD2
:1048A0008FFFFEFF002C014000340140004001401A
:1048B00000440140004801400050014030B5046A06
:1048C000026A22F4801202624268036D134D24F4DE
:1048D00000142B400D6843EA05230D8944EA055472
:1048E0000F4DA8420ED00F4DA8420BD00E4DA8423E
:1048F00008D00E4DA84205D00D4DA84202D00D4D56
:10490000A84204D14D6922F4802242EA8522426005
:1049100003654968C164046230BD0000FF8FFFFE7B
:10492000002C01400034014000400140004401409F
:10493000004801400050014010B5036A046A24F0A9
:1049400001040462104CA0420ED0104CA0420BD0C7
:104950000F4CA04208D00F4CA04205D00E4CA042F4
:1049600002D00E4CA04203D1046A24F00404046275
:10497000846924F0F00444EA021423F00A020A4392
:104980008461026210BD0000002C0140003401402F
:1049900000400140004401400048014000500140F7
:1049A00010B5036A046A24F0100404620C4CA0429F
:1049B00005D00C4CA04202D00B4CA04203D1046A9B
:1049C00024F040040462846923F0A00324F47044BA
:1049D00044EA023243EA01118261016210BD000023
:1049E000002C0140003401400050014030B5416EC0
:1049F000B9B1026891689268C1F342610B4B520FE2
:104A00009C5CE50003F10804A25CB5FBF2F2A0F89F
:104A10006A205A5C615CD200B2FBF1F1A0F8681028
:104A200030BD0121A0F86A10F8E700002C5D0008F5
:104A300090F82810090706D501684A68836B22F4AC
:104A400000421A434A6090F82810C90706D001684E
:104A50004A68C36A22F400321A434A6090F8281068
:104A6000890706D501684A68036B22F480321A432D
:104A70004A6090F82810490706D501684A68436BD8
:104A800022F480221A434A6090F82810C90606D5FD
:104A900001688A68C36B22F480521A438A6090F8D6
:104AA0002810890606D501688A68036C22F4005232
:104AB0001A438A6090F82810490611D501684A689F
:104AC000436C22F480121A434A60416CB1F5801F96
:104AD00006D101684A68836C22F4C0021A434A6016
:104AE00090F82810090606D501684A68C06C22F4BF
:104AF000002202434A6070472DE9F843002604462D
:104B0000C0F89060FDF70CFD8046206800684FF00B
:104B1000200500076FF07E4713D543460022290485
:104B20002046009700F0B4F958B1216851E8000F11
:104B300020F0800041E80002002AF6D1C4F8885035
:104B400021E020680068400722D5434600224FF448
:104B500080012046009700F09BF9C8B1216851E818
:104B6000000F20F4907041E80002002AF6D120687E
:104B7000083050E8001F21F0010140E80012002A2F
:104B8000F5D1C4F88C5084F884600320BDE8F88324
:104B9000C4F88850C4F88C5044F86C6F6660267670
:104BA0000020F3E710B5026852E8001F21F490716D
:104BB00042E80013002BF6D10E4B0268083252E88F
:104BC000001F194042E80014002CF6D1C16E0129E3
:104BD00008D1016851E8002F22F0100241E80023BB
:104BE000002BF6D12021C0F88C100021C16641674E
:104BF00010BD0000FEFFFFEF2DE9F0410446016803
:104C000080682269E3691043626900251A431043F2
:104C1000DFF84CC20A68934B1A4002430A602068CE
:104C20004168E26821F44051114341602168A06964
:104C3000614501D0226A10438A688B4B1A400243B7
:104C40008A602068C16A626A21F00F011143C16263
:104C50008649236886488B420DD1D0F8880010F031
:104C6000030006D0012867D0022854D0032851D170
:104C700064E001204FE07F498B420BD1D0F88800DF
:104C800010F00C0047D0042845D0082852D00C283A
:104C900040D153E078498B420BD1D0F8880010F016
:104CA000300038D0102847D0202843D0302831D1C8
:104CB00044E072498B420BD1D0F8880010F0C0005C
:104CC00029D0402838D0802834D0C02822D135E0DF
:104CD0006B498B420ED1D0F8880010F440701AD086
:104CE000B0F5807F28D0B0F5007F23D0B0F5407FAD
:104CF00010D123E063450DD1D0F8880010F4406056
:104D000009D0B0F5806F17D0B0F5006F12D0B0F5B4
:104D1000406F13D010205B4A5B4F00264FF40041D8
:104D2000634539D160B102280DD004280DD0082880
:104D300031D10EE00220EEE70420ECE70820EAE79C
:104D4000FDF75AFF03E0114603E0FDF779FF01008C
:104D50007BD0606A37F810206768B1FBF2F007EB90
:104D60004703834269D8B0EB073F66D80023084663
:104D70001946FBF7D1FA090241EA106102027808EC
:104D8000101871413A460023FBF7C6FA3F4AA0F5D6
:104D90004071914257D950E0E3694FF6EF788B426A
:104DA0002BD1092849D2DFE800F005080D48254835
:104DB00048480E00FDF720FF01E0FDF72FFF01003E
:104DC00001D142E01146606A37F81000B1FBF0F003
:104DD0004100606801EB5001B1FBF0F1A1F110005E
:104DE00040452AD84FF6F07201EA0200C1F34201B1
:104DF000084328E0FDF724FFE1E709281DD2DFE89A
:104E000000F005080D1C1E1C1C1C0E00FDF7F4FE16
:104E100001E0FDF703FF010001D116E01146606AD1
:104E200037F81000B1FBF0F1606801EB5001B1FB05
:104E3000F0F0A0F11001414504D9012505E0FDF78E
:104E4000FFFEE8E780B22168C8600120A4F86A008C
:104E500024F8680F2846E6602661BDE8F08100006E
:104E600000800040F369FFCFFFF4FF1100380140DC
:104E7000001002400044004000480040004C004048
:104E8000005000400024F400145D0008FFFC0F00F7
:104E90002DE9F047994617460D4604464FF00008A5
:104EA000089E33E0701C31D0FDF73AFBA0EB0900FF
:104EB000B04218D8BEB120680168490726D5802DB8
:104EC00024D0402D22D0C169C94309070DD408253B
:104ED00005622046FFF766FEC4F8905084F884808F
:104EE0000120BDE8F0870320FBE7C069C04300054F
:104EF0000CD421684FF4006008622046FFF752FE90
:104F00002020C4F8900084F88480ECE72068C06911
:104F100035EA000004D00020B842C3D00020E0E70A
:104F20000120F9E7FEE7000010B50021064B084616
:104F30004FF4C87233F81040401C21449042F9D31A
:104F4000B1FBF2F010BD00008806002003B4019808
:104F50004100009850EAC12018BF04204A0D18BF34
:104F600040F0010040F2FF72B2EB515F08BF40F029
:104F70000200012808BF052002B070474100080266
:104F800018BF04200A0E18BF40F001004FF07F4206
:104F900032EA010108BF40F00200012808BF0520E5
:104FA00070470907090E002804DB00F1E02080F8B3
:104FB0000014704700F00F0000F1E02080F8141D8D
:104FC0007047000000B510EE101A2DED028B81B075
:104FD000524A6846B2EB410F2ED94FF0E640B0EB93
:104FE000410F94BF00204FF0FF3000900098B0EECA
:104FF000408A00286ADB10F0010F4BD068EE080AE7
:105000009FED471A9FED470A00EE810A9FED461A71
:1050100010F0020F00EE801AB7EE000A00EE810ACF
:1050200002BF01B0BDEC028B00BD00BF01B0B1EE0C
:10503000400ABDEC028B00BD3C4B21F00042934284
:1050400041D911F0004FDFED3A0A20EE201ADFEDD2
:10505000390A19BF31EE601A71EE200A31EE201ABA
:1050600071EE600ABDEEE01A11EE100A9FED321AE1
:1050700000F0030000EEC10A9FED301A009000EE30
:10508000C10A9FED2F1A00EEC10A9FED2E1A00EE05
:10509000C10AABE728EE080A9FED2B1ADFED2B0AB9
:1050A00010F0020F40EE410A9FED291A00EE201A7F
:1050B00061EE000AB0EE480A08EE200AB6D101B04F
:1050C000BDEC028B00BD00F075F88FE718EE100AFA
:1050D0004000B0F17F4F0DD218EE100AFFF74EFFDF
:1050E000042808BF00F05EF8B0EE480A01B0BDEC3D
:1050F000028B00BD09D10120FBF750FA01B0BDECD5
:10510000028B5DF804EB00F045B801B0B0EE480A40
:10511000BDEC028B5DF804EB00F039B8B61F927E4F
:10512000B93AB2BACA9F2A3DDDFFFFBE490E4946D1
:1051300083F9223F0000004B0000C93F00A0FD3969
:105140000020A2331A61342C336D4C39DA82083CCA
:10515000A0AA2ABE10B52DED028BB1EEC08A18EEC2
:10516000100A20F00040C0F1FF40C00F0AD010EE3E
:10517000100A20F00040C0F1FF40C00F04BF012022
:10518000FBF70CFAB0EE480ABDEC028B10BD30EE16
:10519000000A7047DFED020A80EEA00A70470000A7
:1051A000000000009FED020A20EE000A7047000098
:1051B000000000102DE9F0014FF07F42B2EB410FEB
:1051C0009FBF4FF0FF310160BDE8F00170474FF025
:1051D000004242EA0123C1F3C752783A551112F056
:1051E0001F0C434CCCF120067C44C1F3C752A2F102
:1051F00078024FEA621204EB820254F8254008BF9D
:10520000D2E9015612D0556804FA0CF425FA06F7D3
:105210003C43976805FA0CF527FA06F8D26807FAB6
:105220000CFCF24045EA08054CEA0206A4FB034CDC
:10523000A5FB0352A6FB03631D449D4234BF012618
:1052400000261319334416B1934202D903E0934266
:1052500001D2012200E00022624402F1200C9206F9
:10526000DC0C42EA443200EE102A5B03DFED210A37
:10527000F8EEC01A00EE103A4FEA9C1C11F0004FF5
:10528000B8EE400AC0F800C020EE201A00EE105A16
:10529000DFED190AB8EE400A20EE200A71EE810A0D
:1052A00070EE800A10EE902A02F500626FF30B0296
:1052B00000EE902A70EEE11A31EEC11ADFED101AFD
:1052C00030EE411A9FED0D0A20EE800A01EE210A10
:1052D0009FED0C1A00EE810A04BFBDE8F001704793
:1052E000CCF180510160BDE8F001B1EE400A704799
:1052F000680B0000000000360000802C22AAFD2967
:10530000DB0FC92F0000C92F30380A2801D2012035
:10531000704700207047000070B500F047F8144C4B
:10532000124D208805EB800080ED000A00F022F885
:10533000208805EB8001401C80B281ED640A20804A
:10534000642802D30020208070BD6328FCD1642132
:10535000002000F043F9064C64210C34012084ED58
:10536000000A00F03BF984ED010A70BDC80C002072
:10537000000000200A4810B544889FED0A0AFCF797
:10538000DFF9094980B28442888001D9201A00E0FF
:10539000001B00EE900AF8EEE00A20EE800A10BD35
:1053A0006C060020CDCC4C3D000000200A4810B512
:1053B00004889FED0A0AFFF7B7FD094980B28442CD
:1053C000488001D9201A00E0001B00EE900AF8EE98
:1053D000E00A20EE800A10BD6C0600205C8FA04120
:1053E00000000020134A9FED141AA2F54B70144BD5
:1053F0008188D0ED020A1B6832F81120A2F25372A4
:1054000000EE102AB8EEC00A20EE200AC0EE010A13
:105410009FED0A0A30EE800ABCEEC00A10EE102A98
:105420005A63491C89B28180B1F5C87F01D300213C
:10543000818070474003002000007A440060EA4405
:1054400038110020134A9FED141AA2F54B70144B2B
:10545000C188D0ED020A1B6832F81120A2F2537203
:1054600000EE102AB8EEC00A20EE200AC0EE010AB3
:105470009FED0A0A30EE800ABCEEC00A10EE102A38
:10548000DA63491C89B2C180B1F5C87F01D300211C
:10549000C18070474003002000007A440060EA4465
:1054A00038110020FDF74AF8FEF738FEFEF7E2FD5E
:1054B000FEF79FFFFEF73AFCFEF722FCFEF7D0FB5B
:1054C000FEF7F6FCFEF7A0FDFEF77AFCFEF724FDE2
:1054D00035496FF00100096808613348FDF71EFF88
:1054E00000213248FEF7B0F908213048FEF7ACF948
:1054F0007F212F48FCF7B4F902222E492C48FCF7F3
:105500009FFD2E4C2B4D9FED2C0A01200C3D84ED70
:10551000000A68804FF4667680B200EE100A01201F
:10552000B8EE400A84ED000AFCF7C8FE6888401C0B
:1055300080B26880B042EFD900201E4E6880012101
:105540001FA20846FEF7ADFE1FA201210220FEF7B2
:10555000A8FE3288042307210120FEF781FE72880D
:10556000042307210220FEF77BFE286900F062F881
:1055700041EC100B16A153EC102B1748FAF744FF1F
:10558000154A01210320FEF78CFE94ED000A042346
:105590000121BCEEC00A184610EE102AFEF760FE8C
:1055A0000A20FCF78BFECAE7841100203811002086
:1055B0006C1000206C060020000048421C000020F7
:1055C000565F7261773A0000495F7261773A000076
:1055D000252E3266000000003810002000EBC002CB
:1055E00002EB0010044A08B502EB00106A46FBF714
:1055F00083FB9DED000A08BDC80C002010B50029F2
:105600000AD00878002807D005487844FBF72CFB1F
:10561000002801D0002010BD0248784410BD0000D1
:105620001E080000160800000808A0F500114FEA47
:105630003101704743004FEAD30C4FEA3C0C434022
:105640001FBF40070CF1605113F0FE4F70471CF074
:10565000006F03D100200CF0004170470CF00043B4
:1056600043EA507010B540EACC0000F00EF800BFDD
:10567000000000924FEA0001FFF7D6BF4FF0004153
:105680004FF00000A1F5002170470EF1020E2EF040
:10569000030E5EF8044B244204D44FEA4102B2F1F7
:1056A0007F4F11D84FEA4003B3F17F4F0CD80ED192
:1056B0004FEAD07CB2F17F4F0CEB4C0C0CF1020C9A
:1056C00008BF4CEBD17C04E04FF0080C01E04FEA3E
:1056D000D17C0CEB4C0324FA03F404F00704B4F17E
:1056E000040C06D20EEB840CBDE810404CF0010C0B
:1056F0006047DFE80CF0070802024FF00040A0F519
:10570000800010BD0846420018BFD2F1807288BFE9
:1057100000F0004010BD4FF04070E1EE100A7047FD
:10572000FBF71BB8000000000000000000000000B4
:1057300000000000000000F800000000000000333E
:105740003000000000100C06100C060000000000E5
:105750000000000040C07840C0784000043F0404CE
:105760003F040400007088FC08300000001820FF8F
:10577000211E0000F008F000E018000000211C03CA
:105780001E211E0000F00888700000001E21232446
:105790001927211010160E00000000000000000064
:1057A00000000000000000E01804020000000007F4
:1057B0001820400000020418E000000000402018FB
:1057C00007000000404080F0804040000202010FCE
:1057D00001020200000000F0000000000101011FB2
:1057E00001010100000000000000000080B0700016
:1057F00000000000000000000000000000010101A6
:105800000101010100000000000000000030300034
:10581000000000000000000080601804006018060E
:105820000100000000E010080810E000000F102048
:1058300020100F00001010F8000000000020203F92
:10584000202000000070080808887000003028241C
:1058500022213000003008888848300000182020BD
:1058600020110E000000C02010F8000000070424E2
:10587000243F240000F80888880808000019212027
:1058800020110E0000E0108888180000000F112081
:1058900020110E0000380808C83808000000003F3A
:1058A000000000000070880808887000001C222199
:1058B00021221C0000E010080810E0000000312246
:1058C00022110F00000000C0C000000000000030E6
:1058D0003000000000000080000000000000806038
:1058E00000000000000080402010080000010204B9
:1058F00008102000404040404040400004040404A0
:10590000040404000008102040800000002010085B
:1059100004020100007048080808F0000000003090
:1059200036010000C030C828E810E000071827241E
:1059300023140B000000C038E0000000203C2302CC
:105940000227382008F8888888700000203F20202F
:1059500020110E00C0300808080838000718202061
:105960002010080008F808080810E000203F202058
:1059700020100F0008F88888E8081000203F202039
:105980002320180008F88888E8081000203F20002D
:1059900003000000C0300808083800000718202065
:1059A000221E020008F808000008F808203F210124
:1059B00001213F20000808F8080800000020203FCF
:1059C0002020000000000808F8080800C08080803F
:1059D0007F00000008F888C028180800203F200138
:1059E0002638200008F8080000000000203F202092
:1059F0002020300008F8F800F8F80800203F003FA9
:105A0000003F200008F830C00008F808203F2000C0
:105A100007183F00E01008080810E0000F102020D1
:105A200020100F0008F808080808F000203F2101A6
:105A300001010000E01008080810E0000F182424FD
:105A400038504F0008F8888888887000203F200070
:105A5000030C302000708808080838000038202126
:105A600021221C00180808F8080818000000203F30
:105A70002000000008F808000008F808001F202097
:105A800020201F000878880000C838080000073868
:105A90000E010000F80800F80008F800033C0700B9
:105AA000073C0300081868808068180820302C0321
:105AB000032C30200838C800C83808000000203FF8
:105AC0002000000010080808C838080020382621E7
:105AD00020201800000000FE020202000000007FEB
