:020000040800F2
:10000000A00C0020790200084F4700087940000842
:100010004947000859070008417A0008000000001D
:1000200000000000000000000000000089740008CB
:100030002708000800000000297300088B740008DE
:10004000930200089302000893020008930200083C
:10005000930200089302000893020008930200082C
:100060009302000893020008930200086107000849
:100070006D0700089302000893020008930200082D
:1000800093020008930200087D050008930200080F
:1000900093020008930200089302000893020008EC
:1000A00093020008930200089302000893020008DC
:1000B00093020008930200089302000893020008CC
:1000C00093020008930200089302000893020008BC
:1000D00093020008930200089302000893020008AC
:1000E000930200089302000893020008930200089C
:1000F000930200089302000893020008930200088C
:10010000930200089302000893020008930200087B
:10011000930200089302000893020008930200086B
:10012000930200089302000893020008930200085B
:10013000930200089302000893020008930200084B
:10014000930200089302000893020008930200083B
:10015000930200089302000893020008930200082B
:1001600093020008FD39000893020008930200087A
:10017000930200089302000893020008930200080B
:1001800093020008930200089302000893020008FB
:100190009302000800000000930200089302000888
:1001A00093020008930200089302000893020008DB
:1001B00093020008930200089302000893020008CB
:1001C00093020008930200089302000893020008BB
:1001D000930200089302000800F002F800F03CF8D7
:1001E0000AA090E8000C82448344AAF10107DA4592
:1001F00001D100F031F8AFF2090EBAE80F0013F0A8
:10020000010F18BFFB1A43F0010318477485000063
:1002100094850000103A24BF78C878C1FAD85207F4
:1002200024BF30C830C144BF04680C607047000070
:100230000023002400250026103A28BF78C1FBD8EF
:10024000520728BF30C148BF0B6070471FB507F089
:10025000E1FE1FBD10B510BD00F05AF91146FFF7C1
:10026000F5FF07F0DBFD00F078F903B4FFF7F2FFCC
:1002700003BC00F07BF900000948804709480047AB
:10028000FEE7FEE7FEE7FEE7FEE7FEE7FEE7FEE746
:10029000FEE7FEE704480549054A064B70470000A3
:1002A000F9740008D9010008A0060020A00C002065
:1002B000A0080020A008002053EA020C00F069808A
:1002C0002DE9F04B4FF00006002B1FBFB3FA83F56A
:1002D00003FA05F424FA05F65E4012BF1643B2FA9B
:1002E00082F502FA05F4C5F120051EBF22FA05FCCD
:1002F00044EA0C04203556EA044C4FEA144418BF73
:10030000641C4FF000084FF00009904271EB030CA1
:1003100039D3002919BFB1FA81F701FA07F6B0FA0B
:1003200080F700FA07F6C7F120071EBF20FA07FC86
:1003300046EA0C062037B6FBF4FCA7EB0507103F96
:1003400007F01F0BCBF120060CFA0BFB2CFA06F67C
:1003500044BFB3460026202FA4BF5E464FF0000BDB
:100360005BEA060C08BF4FF0010B19EB0B09ABFB66
:10037000027C48EB0608C01B06FB02CC0BFB03CC3F
:1003800071EB0C01C1E70B46024641464846BDE809
:10039000F08B13B54FF000004FF00001AFF3008079
:1003A000BDE81C407047032A40F2308010F0030C77
:1003B00000F0158011F8013BBCF1020F624498BFB8
:1003C00011F801CB00F8013B38BF11F8013BA2F155
:1003D000040298BF00F801CB38BF00F8013B11F0D0
:1003E000030300F02580083AC0F0088051F8043B70
:1003F000083A51F804CBA0E80810F5E7121D5CBFDD
:1004000051F8043B40F8043BAFF30080D20724BF0F
:1004100011F8013B11F801CB48BF11F8012B24BFA3
:1004200000F8013B00F801CB48BF00F8012B7047F2
:1004300010B5203AC0F00B80B1E81850203AA0E87F
:100440001850B1E81850A0E81850BFF4F5AF5FEAB3
:10045000027C24BFB1E81850A0E8185044BF18C966
:1004600018C0BDE810405FEA827C24BF51F8043B0D
:1004700040F8043B08BF7047D20728BF31F8023B61
:1004800048BF11F8012B28BF20F8023B48BF00F8F5
:10049000012B70474FF0000200B513469446964674
:1004A000203922BFA0E80C50A0E80C50B1F1200187
:1004B000BFF4F7AF090728BFA0E80C5048BF0CC035
:1004C0005DF804EB890028BF40F8042B08BF704793
:1004D00048BF20F8022B11F0804F18BF00F8012B05
:1004E000704770477047704710B500F009F8006812
:1004F00010BD10B5044600F003F8046010BD000004
:10050000004870473C060020004870473C06002029
:100510007546FFF7F9FFAE4605006946534620F0E1
:100520000700854618B020B5FFF7B4FEBDE82040AF
:100530004FF000064FF000074FF000084FF0000B9F
:1005400021F00701AC46ACE8C009ACE8C009ACE852
:10055000C009ACE8C0098D46704710B50446AFF33A
:1005600000802046BDE81040FFF77FBE01491820FB
:10057000ABBEFEE7260002007047000010B504483D
:1005800000F0DEFDBDE81040024800F0D9BD0000DB
:10059000040300207003002010B5846AE16D11F09F
:1005A000500F06D0E16DC90625D5204600F0C5FDE7
:1005B00010BDE06D40F40070E06520680168090737
:1005C00016D503F06EFD78B12068C068800400285D
:1005D0000ADBE06D20F48070E065E06DC00403D4B8
:1005E000E06D40F00100E065204600F089FD10BD9F
:1005F000C0688007EBE7616D496BBDE810400847B4
:1006000010B5806AC16D41F04001C165016E41F0D5
:100610000401016600F091FD10BD10B5806A00F084
:100620008BFD10BD70B50446006881688268C1F317
:10063000400112F0010F28D039BB816801F00D0193
:10064000012914D18168124A1140891C81602168F6
:100650000320086001F088FB054612E001F084FBEE
:10066000401B02280DD920688068C00709D0E06DC2
:1006700040F01000E065206E40F00100206601208F
:1006800070BD20688068C007E8D1002070BD000000
:10069000C0FFFF7FF8B50446002000902068816805
:1006A00011F0010F4AD18168254A114237D1816882
:1006B000D5432940491C81602068B0F1A04F02D089
:1006C0002049884201D1204800E02048806800F09D
:1006D000E07000020DD51E481E490068B0FBF1F025
:1006E000401C00EB4000800000E0401E009000280D
:1006F000FBD101F039FB06461BE0816811F0010FC8
:1007000003D181682940491C816001F02DFB801BC9
:1007100002280ED920680068C043C00709D0E06DE8
:1007200040F01000E065206E40F0010020660120DE
:10073000F8BD20680168C943C907DED10020F8BDB3
:100740003F000080000100500003005000070050EF
:10075000F0000020400D030005F054FEFEE700000D
:10076000014801F0C5B80000DC030020014801F099
:10077000BFB800003C04002010B501680E4CCAB29E
:100780001423083AA14203D2B2FBF3F20B4904E06E
:10079000B2FBF3F2094920310832436C02F01F0228
:1007A00023F003031944816404498031C1640121A9
:1007B0009140016510BD000008040240000802409D
:1007C0000179084A01F07F0102EB81024265054A86
:1007D0004432491E826501F01F0201219140C1652A
:1007E00070470000FC08024030B5D0E91345656051
:1007F000446D14B1D0E91645656090F8444004F0AA
:100800001F050124AC40056C6C600468636083685C
:10081000102B036803D099600068C26030BD9A60F5
:100820000068C16030BD704705F056FE72B6FEE745
:10083000F8B500260446009690F858000D460128A9
:100840000BD0012084F858002046FFF7EBFE010092
:10085000E06D04D040F010002AE00220F8BD20F442
:10086000885040F00200E06520688268134B1A400F
:1008700005F080431A4342F000428260104A20682B
:100880000EE0009B5B1C0093934209D3E06D20F0C7
:10089000020040F01000E06584F858600120F8BDC7
:1008A0008368DB0FEDD1E06D20F0020040F0010025
:1008B000E06584F858600846F8BD0000C0FFFF3FBF
:1008C00002DE0400704770477047002806D00068B9
:1008D000B0F1A04F02D1012005F02DBE7047704746
:1008E0002DE9F04F044690F858009BB00F464FF0AA
:1008F000000B012812D0012084F85800002617961A
:10090000189620684FF0A048DFF81C91DFF81CA172
:10091000474D404506D12846009508E002201BB00F
:10092000BDE8F08F48450AD15046CDF800A003F04D
:10093000B4FB0090206803F0B0FB40B109E0E06D2B
:1009400040F02000E06584F858600120E7E7009857
:1009500050B1E06D40F02000E0654FF0010B00BFAA
:1009600084F858605846DAE720684146884201D04A
:10097000A84201D12F4800E02F48D7F800C02F4BE4
:1009800040F61F72BCF1000F2DD0D0F808C094F8CB
:1009900038802CF4604C4CEA483CD7F804804CEA90
:1009A000080CC0F808C0D4F800C08C4501D0AC4594
:1009B00004D18968AB6801F0010109E0D9F8081099
:1009C000DAF8085001F0010105F001059B682943A0
:1009D00003F001031943C3D1BB6839681943836825
:1009E000934319431DE0876827F4604787602768B1
:1009F0008F4201D0AF4204D18968AB6801F0010198
:100A000009E0D9F80810DAF8085001F0010105F002
:100A100001059B68294303F001031943A0D18168B4
:100A2000914381609CE700000004005000050050E5
:100A30000001005000030050000700500006005065
:100A40002DE9F05F044690F858000D464FF440073A
:100A500001280FD0012684F85860206803F019FBA4
:100A60008046206803F011FBDFF8189258EA000076
:100A700003D0BEE00220BDE8F09F28684946824AC4
:100A80004FF400034FF0807C4FF0C0784FF0E07BD4
:100A9000884244D16868B0F1A07F19D008DC984240
:100AA00034D0B8420ED0604533D1784A206815E082
:100AB000404512D058452CD1A86820F07C7040F0F9
:100AC000E0720AE0A86820F07C7040F4400204E084
:100AD000A86820F07C7040F0A072206803F0EAFA69
:100AE0002068016AAA6921F4E04111430162E06DC6
:100AF00020F48030E065206880210160287B012897
:100B00002068416808D021F0800171E0604A2068C7
:100B1000E4E700222068E1E741F0800168E06968CD
:100B2000DFF870A1B1F1A07F0BD006DC994233D081
:100B3000B94206D0614547D12EE041452CD05945F8
:100B400042D12168504513D1D1F8A020A8684303B1
:100B50000BD090FAA0F0B0FA80F000BF00F01F00B8
:100B600086403243C1F8A0201BE0C0F38460F5E763
:100B7000D1F8A420A86843030BD090FAA0F0B0FAF3
:100B800080F000BF00F01F0086403243C1F8A4206F
:100B900007E0C0F38460F5E723680146184603F0D8
:100BA00089FA2968E06D514514D120F40030E065E0
:100BB00020684FF480710160287B0128206841681B
:100BC00005D021F4807113E000222368E5E741F4A9
:100BD00080710DE020F48020E06520684FF4007102
:100BE0000160287B01282068416813D021F400713E
:100BF00041602A684A4510D123682869D968DB68B2
:100C0000C1F3C101490088406969C3F3C1035B00B6
:100C1000994026E041F40071EAE72368D868042689
:100C2000C0F3C1000328286909D0D968C1F3C10104
:100C3000494206EB410101F01F01C84000E080007D
:100C4000D968C1F3C1010329696909D0DB68C3F31D
:100C5000C1035B4206EB430303F01F03D94000E0EE
:100C600089000C25236805EA92421A44136A41EA76
:100C7000004003F0F02303431362002084F858007F
:100C8000F9E600000000C07DFFFF8701FFFF0701BC
:100C9000FFFF8700FFFF17002DE9F84F00270446EC
:100CA000009790F85800DFF818840D46B9460128DF
:100CB00011D0012684F85860206803F0EAF960B189
:100CC000E06D40F02000E0655FF0010784F8589087
:100CD0003846BDE8F88F0220FBE7D5E900210C2358
:100CE000206803EA91131844036B01F01F014FF0D1
:100CF0001F0C0CFA01FCC2F3846223EA0C038A4045
:100D000013430363206803F0C4F98246206803F0AC
:100D1000BCF95AEA00003CD1AA6829682068B2F1FF
:100D2000004F37D003F0DCF92068416921F0004121
:100D3000416120686969C268C2F3C10252009140F2
:100D40002A69042A31D000EB82002B68026EDFF89A
:100D500074C303F0F84302EA0C020B431A4342F057
:100D60000041016620682A69A96900EB8200026ED1
:100D700022F080720A430266297F20682A690129CD
:100D800010D0002100EB8200026E22F000720A43B4
:100D900002667DE0002203F0A3F92068416941F07A
:100DA0000041C5E74FF00071ECE7002103F067F95F
:100DB000400320684FF0000172D003F060F990FA10
:100DC000A0F0B0FA80F1286842036ED090FAA0F04B
:100DD000B0FA80F0814204D100221146206803F06D
:100DE0008EF90121206803F04AF9400320684FF092
:100DF00001015DD003F043F990FAA0F0B0FA80F160
:100E00002868420359D090FAA0F0B0FA80F08142ED
:100E100004D100220121206803F071F90221206829
:100E200003F02DF9400320684FF0020148D003F091
:100E300026F990FAA0F0B0FA80F12868420344D075
:100E400090FAA0F0B0FA80F0814204D10022022191
:100E5000206803F054F90321206803F010F94003DF
:100E600020684FF0030133D003F009F990FAA0F0A5
:100E7000B0FA80F1286842032FD090FAA0F0B0FABF
:100E800080F0814204D100220321206803F037F969
:100E90002068816811F0010F22D0ACE000E004E08E
:100EA00003F0EDF8C0F384618DE7C0F3846091E74F
:100EB00003F0E5F8C0F38461A2E7C0F38460A6E71D
:100EC00003F0DDF8C0F38461B7E7C0F38460BBE7EB
:100ED00003F0D5F8C0F38461CCE7C0F38460D0E7B9
:100EE0002A7B296850F8B03FC1F3120C23EA0C03A7
:100EF00002F0180C744A22FA0CF20A401343036001
:100F0000E968414577D1286841031CD090FAA0F1E7
:100F1000B1FA81F1491C01F01F0109294FEA403162
:100F200032D8002912D000BF90FAA0F1B1FA81F1B5
:100F300001F1010101F01F0106FA01F609D100BF1C
:100F4000C0F3846109E0C0F38461E3E7C0F3846126
:100F5000EEE790FAA0F1B1FA81F101F1010101F09F
:100F60001F0146EA816102D1C0F3846003E090FA78
:100F7000A0F0B0FA80F000F1010000F01F0000EBDB
:100F8000400041EA005132E000290ED090FAA0F171
:100F9000B1FA81F101F1010101F01F0106FA01F638
:100FA00006D100BFC0F3846106E0C0F38461F1E7BD
:100FB00090FAA0F1B1FA81F101F1010101F01F01F4
:100FC00046EA816102D1C0F3846003E090FAA0F0A8
:100FD000B0FA80F000F1010000F01F003B4A00EB86
:100FE000400002EB005041EA000141F00071AA68A4
:100FF000206803F075F836482B6803423FF466AE6C
:1010000021684FF0A04C334D3348344E614501D038
:10101000A94201D1024600E032469268DFF8C08062
:1010200002F0E072434503D0DFF8B880434521D198
:101030005FEA02281ED4614506D02B4B99427FF40B
:1010400045AEA94200D0304642F40001826822F049
:10105000E0720A438260254825490068B0FBF1F040
:10106000401C00EB4000800000E0401E0090002883
:10107000FBD12BE6DFF87C8043450DD15FEAC21837
:101080000AD4A942F5D01C4B9942F2D0614500D058
:10109000304642F080710CE0DFF860804345E8D1D3
:1010A0005302E6D4A942E4D0614500D0304642F470
:1010B0008001826822F0E0720A43826006E6000046
:1010C00000007F4000F0FF03FFFF0700000020FE4C
:1010D000000008800001005000030050000700508D
:1010E000000021C31000C09000060050F000002056
:1010F000400D0300000052C700050050000084CBE3
:1011000010B5002814D000680A49884203D1BDE810
:10111000104005F0CFBCB0F1A04F09D105F086FB1F
:1011200005F03CFA002803D1BDE8104003F0CABC2A
:1011300010BD000000010050704705F0F9B9000033
:101140002DE9F84F04460068066845684FF0A0484E
:10115000DFF89092404501D0484501D1A24800E017
:10116000A248806800F01F07B0070ED5A8070CD56D
:10117000E06DC00603D4E06D40F40060E0652046F9
:10118000FFF7A0FB216802200860DFF864B2DFF8F7
:1011900064A2700701D5680703D430073FD528073C
:1011A0003DD5E06DC00603D4E06D40F40070E0650D
:1011B000206802F076FF60B32068484501D14246BE
:1011C00004E0584501D1524600E00246824208D070
:1011D0003FB1052F05D0092F03D0484503D1414623
:1011E00006E0C16805E0584501D1514600E00146DE
:1011F000C96889040DD4016809070AD502F049FFBE
:1012000058B3E06D40F01000E065206E40F0010042
:1012100020662046FFF774FF21680C200860B006A6
:1012200001D5A80603D470065FD568065DD5E06DCC
:10123000C00603D4E06D40F40050E0652068C16C46
:1012400011F4C07F1AD00021009102F02AFF02465B
:101250002068484514D1434617E02068416821F0D2
:101260000C014160E06D20F48070E065E06DC00429
:10127000CFD4E06D40F00100E065CAE70121E3E76B
:10128000584501D1534600E00346834208D03FB1A0
:10129000062F05D0072F03D0484503D1414606E06D
:1012A000C16805E0584501D1514600E00146C968D2
:1012B000009BA3B18B0102D58AB18A040FD40268C6
:1012C00052060CD589020AD402F0DFFEF0B3E06DBD
:1012D00040F01000E065206E40F0010020662046DE
:1012E000FFF7F1FA21686020086030060BD5280668
:1012F00009D5E06D40F48030E065204600F094F9B7
:10130000216880200860F0050CD5E8050AD5E06D5D
:1013100040F40030E0652046FFF7D7FA21684FF42B
:1013200080700860B0050CD5A8050AD5E06D40F4C2
:101330008020E0652046FFF7D2FA21684FF4007064
:101340000860F00631D5E8062FD500E009E0E06B33
:10135000E8B12068EFB3404501D0484512D122489A
:1013600011E02068416821F060014160E06D20F4E7
:101370008050E065E06DC005B1D4E06D40F0010043
:10138000E065ACE71948806800F4604050B1E06D5A
:1013900040F48060E065206E40F002002066204648
:1013A000FFF7CBFE216810200860700517D568058F
:1013B00015D5E06D40F48040E065206E40F00800F7
:1013C000206621684FF4806008602046BDE8F84F31
:1013D00000E001E0FFF778BAC068C007D6E7BDE8D3
:1013E000F88F00000001005000030050000700507B
:1013F0000005005000040050F8B54FF0000504004F
:101400002E46009502D0E06D10B107E00120F8BD36
:10141000204600F01BF9266684F858602068816831
:10142000C1F3407119B18168734A1140816020682D
:101430008168C1F3007189B98168704A114041F037
:10144000805181606E486F490068B0FBF1F0400048
:10145000801C00E0401E00900028FBD120688168BD
:10146000C1F3007141B9E16D41F01001E165216EF8
:1014700041F001012166012502F00BFEE16DC90674
:1014800000D430B1E06D40F01000E0650125284641
:10149000F8BDE06D20F4807040F00200E065206847
:1014A000816811F0010F27D14FF0A043564A9842AE
:1014B00001D0904204D19968966801F001010AE0D8
:1014C00052498968524E01F00101B66806F00106E2
:1014D0003143504EB66806F0010631430CD19842B4
:1014E00001D0904201D14C4800E04C4861688268CC
:1014F00022F47C120A438260E168E06B627F084359
:10150000A16841EA4231084394F8241040EA0140BE
:10151000012904D1218D424A02EB41410843E16A8D
:1015200029B101F47871226B014342EA010022687B
:10153000D1683C4B19400143D16020680169626B5E
:1015400021F0406111430161206802F09EFD70BBF3
:10155000207F94F838102268800340EA4100D16867
:1015600044F2020399430143D160206900282068B6
:1015700001690AD041F480310161206850F8C01F30
:1015800022696FF30D01114307E021F480310161FD
:10159000206850F8C01F6FF30D01016094F84000FF
:1015A00001280CD02068016921F001010161606906
:1015B00001282068016B21F00F0111D013E0D4E95C
:1015C00011010843D4E913121143084321680A6941
:1015D00040F2FC739A43104340F001000861E6E7D3
:1015E000226A521E11430163E06D20F0020040F0B8
:1015F0000100E0654BE70000C0FFFF5FC0FFFF7F19
:10160000F0000020400D03000001005000040050D5
:101610000005005000060050000300500007005075
:101620000000FEFF0740F0FF00280BD00068B0F17B
:10163000A04F05D00449884204D1022004F07BBFAA
:101640000020FBE770470000000100502DE9F04F3B
:101650009BB00646142115A8FEF71CFF54216846CE
:10166000FEF718FF4FF400423168002590034F4FFA
:101670004F4C4FF003084FF080094FF4807A4FF43D
:10168000806BB1F1A04F10D04A4B99425AD11190C2
:101690000092684601F084FB08B1FFF7C5F838688E
:1016A000401C3860012850D057E0119000926846E5
:1016B00001F076FB08B1FFF7B7F83868401C3860D6
:1016C000012807D1E06C40F40050E064E06C00F4C5
:1016D00000501A90E06C40F00400E064E06C00F010
:1016E00004001A90E06C40F00100E064E06C022716
:1016F00000F001001597CDE916851A90444615A90A
:101700002D4800F00DFA15A94FF090401597CDE93E
:10171000164500F005FA2A4C284820600520C4E947
:1017200001052020C4E906B000022062204632E014
:101730007465002201211220A66201F099FA12209C
:1017400001F088FA1BB0BDE8F08FE06C40F4005067
:10175000E064E06C00F400501A90E06C40F004008B
:10176000E064E06C179500F004001A900120CDE9C8
:10177000150815A9104800F0D3F91048104C143082
:10178000603420602420C4E901052020C4E906B0AB
:1017900000022062204604F10C0181E8200600F0DE
:1017A00005F90028C4D0FFF73FF8C1E7E0000020AA
:1017B00000100240000100500008004808000240EC
:1017C000DC0300202DE9F047044600684FF0A048F4
:1017D0003D4F91468A46404501D0B84201D13B4930
:1017E00000E03B49896801F01F0502F052FC002827
:1017F00068D194F85800012864D0012084F858007A
:1018000034492068884201D1012000E00020401EB8
:1018100028424FF0000605D0052D03D0092D01D038
:10182000012003E02046FEF735FF18B184F8586028
:10183000BDE8F087E06D40F60161884340F48070B8
:10184000E0652068B84201D1414605E0224988425E
:1018500001D1224900E00146814200D01DB9E06D6E
:1018600020F48010E065E06DC00404D5206E20F007
:101870000600206600E02666616D1948C862616D49
:1018800018480863616D1848486321681C20086087
:1018900084F858602068416841F010014160206878
:1018A000C16841F00101C16021684B465246403198
:1018B000606D00F0DDF821688A680C4B1A40121D3B
:1018C0008A60B5E70220B3E7000100500003005032
:1018D00000070050000600500005005000040050B2
:1018E000990500081B06000801060008C0FFFF7FDD
:1018F000F0B4016C0C6801680D6890F8442002F0A7
:101900001F06042202FA06F3234211D06B070FD5FB
:101910000B689B0603D40B6823F004030B6090F85C
:10192000441001F01F018A40016C4A60016B1DE008
:10193000022303FA06F727424FF0000C4FF0010292
:1019400018D0AF0716D50C68A40605D40C6824F08F
:101950000A040C6080F8252090F8441001F01F0163
:101960008B40016C4B6080F824C0C16A00291AD0FA
:10197000F0BC08470823B340234214D02B0712D5EC
:101980000B6823F00E030B6090F84410036C01F019
:101990001F0102FA01F15960C26380F8252080F826
:1019A00024C0416BE2E7F0BC7047000070B5040052
:1019B0000CD02C4A21681420914209D22A4A0A44A8
:1019C000B2FBF0F08000606428480AE0012070BD9E
:1019D000244A52420A44B2FBF0F08000606421487D
:1019E00008382064022084F825000A6847F6F07061
:1019F0008243D4E902031843D4E904352B43184346
:101A0000A3691843E3691843236A18431043086025
:101A10002046FEF7B1FEA0680025B0F5804F00D14A
:101A200065602079A16C00F07F000860D4E91301A3
:101A300041606068401E032808D82046FEF7C0FEBB
:101A4000606D0560D4E91601416002E06565A56539
:101A5000E565E563012084F8250084F82450002022
:101A600070BD000008040240F8FFFDBF0000024006
:101A700070B5044690F82400002501280CD0012000
:101A800084F8240094F825600020012E06D084F804
:101A900024000225284670BD022070BD022684F86D
:101AA0002560E0632068066826F00106066020468F
:101AB000FEF79AFE206B00282068016802D041F0F2
:101AC0000E0106E021F0040101602068016841F088
:101AD0000A010160A06C0168C90303D5016841F4E3
:101AE00080710160606D18B1016841F4807101601E
:101AF0002068016841F001010160CBE770B5044640
:101B000000F032F90546601C02D0044840680444E5
:101B100000F02AF9401BA042FAD370BDE400002077
:101B20002DE9F04FDFF80C92002301260325A9F1DF
:101B3000040B85B00F2709F1040AABF1040EF1E0A4
:101B400006FA03FC12EA0C027ED00C7904F00304BE
:101B5000012C01D0022C20D1846800945C0005FA8D
:101B600004F80494009C24EA08040094D1F80C8042
:101B7000049C08FA04F8009C48EA0408C0F80880AD
:101B8000446824EA0C0491F804C0CCF3001C0CFA5D
:101B900003FC4CEA040CC0F804C00C79E443A4072D
:101BA00002D18C68012C0ED0C4684FEA430805FAB4
:101BB00008FC24EA0C04D1F808C00CFA08FC4CEA32
:101BC000040CC0F80CC00C7904F00304022C16D1EC
:101BD000DC0800EB840CCDF808C0DCF820C05C0702
:101BE0004FEAD46807FA08F42CEA040C0C6904FAEA
:101BF00008F444EA0C04DDF808C0CCF8204004687E
:101C00004FEA430805FA08FC24EA0C0491F804C0E2
:101C10000CF0030C0CFA08FC4CEA040CC0F800C0F1
:101C20004C6814F4403F7CD0434CD4F860C04CF076
:101C3000010CC4F860C0246E23F0030C04F001040E
:101C400000943E4C644400E06BE00294A4684FEAC8
:101C5000837C4FEA1C7807FA08FC24EA0C04B0F1F4
:101C6000904F06D0DFF8D8C0604505D14FF0010C89
:101C700020E04FF0000C1DE0DFF8C8C0604502D145
:101C80004FF0020C16E0DFF8C0C0604502D14FF003
:101C9000030C0FE0DFF8B4C0604502D14FF0040C34
:101CA00008E0DFF8ACC0604502D14FF0050C01E060
:101CB0004FF0060C0CFA08FC4CEA040C029CC4F829
:101CC00008C0D9F80040CC46D1F8048094435FEABC
:101CD000C82800D51443CCF80040DAF80040D446B8
:101CE000D1F8048094435FEA882800D51443CCF8E7
:101CF0000040DBF80040DC46D1F8048094435FEA02
:101D0000883800D51443CCF80040DEF80040F44693
:101D1000D1F8048094435FEAC83800D51443CCF866
:101D200000405B1C0C682246DC407FF409AF05B024
:101D3000BDE8F08F0804014000100240000001409F
:101D40000004004800080048000C0048001000484B
:101D5000001400480069084000D0012070470AB113
:101D60008161704781627047014880687047000058
:101D7000E400002030B590F8DD30022B15D090F84B
:101D8000DC30012B11D0012380F8DC30022480F8F4
:101D9000DD400024202949D00EDC042934D006DCA3
:101DA000012923D0022911D126E0022030BD0829C3
:101DB00030D010290AD133E040293DD0802943D0CA
:101DC000B1F5807F46D0B1F5007F49D0072180F87A
:101DD000DD1080F8DC4000BF90F8DD10072945D009
:101DE00080F8DD3080F8DC40002030BD0168D1F89B
:101DF000005462F3040504E00168D1F8005462F372
:101E00008A15C1F80054E7E70168D1F8005462F37D
:101E10001035F6E70168D1F8005462F39645F0E713
:101E20000168D1F8005462F31C65EAE70168D1F853
:101E3000045462F3040504E00168D1F8045462F329
:101E40008A15C1F80454C7E70168D1F8045462F355
:101E50001035F6E70168D1F8045462F39645F0E7CF
:101E60000168D1F8045462F31C65EAE7012030BD33
:101E7000F0B590F8DD30022B1AD090F8DC30012B51
:101E800016D0012680F8DC60022380F8DD3004687B
:101E9000D4F88053D4F8FC33002720296ED00EDC10
:101EA00004293DD006DC012922D0022911D12AE0E3
:101EB0000220F0BD082940D010290AD14AE040296B
:101EC0007ED0802977D0B1F5807F75D0B1F5007FC5
:101ED00073D0072280F8DD2080F8DC7090F8DD20D8
:101EE000072A6BD01029016869D2C1F88053C9E074
:101EF00025F4E02C1568526805F4E02545EA0C0548
:101F0000C4F8BC23EAE725F4601C15684FF4601E92
:101F10000EEAC505526845EA0C05C4F8C023DDE7A2
:101F200025F0E07C15684FF0E07E0EEA85155268DA
:101F300045EA0C05C4F8C423D0E725F0606C1568A9
:101F40004FF0606E0EEA4525526845EA0C05C4F86C
:101F5000C823C3E723F0070C1368C3F3024343EA23
:101F60000C03D4F8F8C32CF01F0CC4F8F8C30468B1
:101F7000D4F8F8C3127902F01F0216E023F0700CB7
:101F800013684FF0700E0EEA133343EA0C03D4F8D3
:101F9000F8C32CF4787CC4F8F8C30468D4F8F8C308
:101FA00052684FF4787E0EEA42124CEA020CC4F8F2
:101FB000F8C393E704E01BE032E047E05EE05FE057
:101FC00023F4E06C13684FF4E06E0EEA132343EA47
:101FD0000C03D4F8F8C32CF4F84CC4F8F8C3046824
:101FE000D4F8F8C352684FF4F84E0EEA8222DCE7C8
:101FF00023F4E04C13684FF4E04E0EEA131343EA67
:102000000C03D4F8F8C32CF4F81CC4F8F8C3046823
:10201000D4F8F8C392884FF4F81E0EEA0242C4E7DF
:1020200023F4E02C136803F4E02343EA0C03D4F810
:10203000F8C32CF0787CC4F8F8C30468D4F8F8C36B
:1020400092884FF0787E0EEA4252AEE723F4E00C1D
:1020500013684FF4E00E0EEA031343EA0C03D4F8BE
:10206000F8C32CF0F84CC4F8F8C30468D4F8F8C3EB
:1020700012794FF0F84E0EEA826296E70120F0BD29
:10208000C1F8FC3380F8DD6080F8DC700020F0BD22
:102090007047704770477047704770477047704788
:1020A000704710B590F8DC20012A21D0012280F879
:1020B000DC20022380F8DD304B1C1BD00368D3F8F2
:1020C000CC4344F00204C3F8CC430368D3F8CC43B8
:1020D00024F00C040C43C3F8CC430168D1F8CC3392
:1020E00043F00103C1F8CC3380F8DD20002010BD9F
:1020F000022010BD0168D1F8CC3323F00203C1F8EF
:10210000CC33EAE770B590F8DD30022B3CD090F884
:10211000DC30012B38D0012500F8DC5F022343704E
:102120001388948803F4E053C4F308041C43138910
:102130006FF07E4603F400732343148A04F4804452
:102140001C43938903F400432343948A06EA04441E
:102150001C43936903F000732343146AD26904F0AB
:1021600080441C4302F00042224350F8DC3CB82477
:1021700004EBC1141959054E3140114319514570F2
:1021800000210170084670BD022070BD0020003C97
:10219000704770477047082004F094BC7047704740
:1021A000704700002DE9F04F90F8DD30022B26D06B
:1021B00090F8DC30012B22D04FF0010B80F8DCB01E
:1021C000022380F8DD300768D7F8D043D7F8D4333E
:1021D00015784FF4007805F00106C5F340054FF47B
:1021E000F04C4FF400494FF0000A08297ED009DC7A
:1021F000012935D0022947D0042907D159E002200E
:10220000BDE8F08F10296FD020296ED0072180F80B
:10221000DD1080F8DCA000BF90F8DD1007297CD02D
:1022200004F07F31C7F8D013056848F2800123EA33
:102230000102C5F8D4230268D2F8D05304F08034E8
:102240002543C2F8D0530268D2F8D4430B401C4354
:10225000C2F8D44380F8DDB080F8DCA00020CFE7DE
:10226000117924F0FE0401F00201214341EA8604C1
:1022700023F4803141EA0543117A127B01F07801A1
:10228000214302F0800412E0516824F47E4408EAFD
:102290000121214341EA862423F4003141EA4543E8
:1022A00091680CEA01212143D46809EA04240C4313
:1022B000B2E791884FF4003C24F47E040CEA01411B
:1022C000214341EA864423F4802141EA8543118970
:1022D0004FF4F00505EA0141214392894FF40004CF
:1022E00004EA0244E3E701E01BE02EE011794FF03D
:1022F000007C24F07E440CEA0161214341EA8664BB
:1023000023F4002141EAC543117A4FF0F04505EA74
:1023100001612143127B2C0100E02BE004EA0264FE
:10232000C5E7117923F0FE0301F00201194341EAE8
:10233000860121F4801141EA0553117A127B01F0E4
:102340007801194302F0800312E0516823F47E43C0
:1023500008EA0121194341EA862121F4001141EAEA
:10236000455391680CEA01211943D36809EA032314
:102370000B4351E7012043E730B590F8DD30022BE5
:1023800014D090F8DC30012B10D0012380F8DC3021
:10239000022480F8DD400024082941D008DC01290E
:1023A0001AD0022923D0042906D12EE0022030BD04
:1023B000102940D0202949D0072180F8DD1080F86D
:1023C000DC4000BF90F8DD1007294DD080F8DD30EB
:1023D00080F8DC40002030BD11685268890041EA75
:1023E000C2120168D1F8085425F0BC0509E0116853
:1023F0005268890241EAC2320168D1F8085425F4D2
:102400003C452A43C1F80824DCE7118892888904F6
:1024100041EAC2520168D1F8085425F43C05F0E7BE
:1024200011781279890641EAC2720168D1F808541C
:1024300025F03C45E5E711685268890041EAC2127F
:102440000168D1F80C5425F0BC0509E01168526808
:10245000890241EAC2320168D1F80C5425F43C45A6
:102460002A43C1F80C24ADE7012030BD10B5CB07DD
:1024700006D00368D3F8D04362F30004C3F8D04316
:102480008B0706D50368D3F8D04362F30824C3F85A
:10249000D0434B0706D50368D3F8D04362F310440A
:1024A000C3F8D0430B0706D50368D3F8D04362F3D3
:1024B0001864C3F8D043CB0606D50368D3F8D443D9
:1024C00062F30004C3F8D443890606D50068D0F847
:1024D000D41362F30821C0F8D41310BD10B590F8DE
:1024E000DD20022A18D090F8DC20012A14D0012225
:1024F00000F8DC2F0223437050F8DC3CD3F8D443BF
:1025000001F0407124F040740C43C3F8D44342708E
:1025100000210170084610BD022010BDFF2903D024
:10252000062903D001F028BC01F0A2BA01F03DBB9E
:1025300038B5040056D0022084F8DD000025C4F828
:10254000E050C4F8E450C4F8E850C4F8EC50C4F8C3
:10255000F050C4F8F450C4F8F850207AC0071BD0EB
:1025600021492068884208D12048016E41F08061ED
:102570000166006E00F0806000902168086820F419
:102580004042208A00F44040104320F44052A08A88
:1025900000F4405010430860204600F029F8207AEB
:1025A000800708D52168086820F44072A08900F4EB
:1025B000407010430860012084F8DD0084F8DC508E
:1025C0005FF00001C1EBC10004EB8000491C856194
:1025D000C561056245628562C9B205630629F1D904
:1025E000002038BD012038BD0068014000100240C5
:1025F00010B586B0044614216846FDF74BFF174915
:102600002068884227D11648016E41F0806101663A
:10261000016E01F080610591C16C41F00201C1645D
:10262000C06C694600F0020005904FF48060009095
:102630000220019001200290002003900D200490C0
:102640000848FFF76DFA00221146492000F010FB00
:10265000492000F0FFFA06B010BD000000680140FC
:10266000001002400004004810B586B00446142152
:102670006846FDF70FFF0F492068884218D10E48C1
:10268000C16C41F00101C164C06C694600F00100F9
:1026900005904FF47060009002200190002002909D
:1026A000032003900D2004904FF09040FFF738FA7C
:1026B00006B010BD0068014000100240704770472E
:1026C0007047704770B50D460446FFF74DFB064650
:1026D00007E0681C05D0FFF747FB801BA8420DD818
:1026E00065B12068D0F88803C043C003F1D401204D
:1026F00084F8DD00002084F8DC0070BD072084F839
:10270000DD00032070BD7047704770B590F8DD3074
:10271000022B1DD090F8DC30012B19D0012380F85A
:10272000DC30022480F8DD40EC25046805EBC1159F
:102730006159CE0605D54FF6C076B14332400A4303
:10274000625180F8DD30002180F8DC10084670BD51
:10275000022070BD10B590F8DD20022A14D090F848
:10276000DC20012A10D0012200F8DC2F0223437064
:1027700050F8DC3CD3F884430C43C3F884434270E4
:1027800000210170084610BD022010BD704770473F
:1027900070B590F8DD30022B23D0022380F8DD30B5
:1027A000062920D08023046803EBC115635923F068
:1027B00007069368334323F01806D3683343635105
:1027C0009425046805EBC1151368635198240368C8
:1027D00004EBC11152685A50012180F8DD1000202D
:1027E00070BD022070BD0368196821F0070491686C
:1027F000214321F01804D16821431960036811684E
:102800005961516802689161E6E72DE9F04F90F84F
:10281000DD40022C25D090F8DC40012C21D04FF077
:10282000010980F8DC90022480F8DD4000274FF099
:10283000070C062918D09C2404EBC116012A39D0B4
:102840008024A8254FF4005A4FF4405B05EBC115D6
:1028500004EBC114022A2FD0042A45D0082A0BD138
:1028600044E00220BDE8F08F012A0AD0022A0CD0F1
:10287000042A0ED0082A10D080F8DDC080F8DC7061
:102880000EE002681968D1610AE0026819685162B5
:1028900006E002681968916202E002681968D16274
:1028A00090F8DD10072948D080F8DD9080F8DC70C2
:1028B0000020D7E7196835E04FF0A408D0F800C031
:1028C00008EBC1111A684CF8012059680029016809
:1028D0000A5922F440522ED00A5101680A59D3F8FD
:1028E00004C042EA0C0218E0196821E04FF0AC087D
:1028F000D0F800C008EBC1111A684CF801205968E3
:10290000002901680A5922F4404214D00A51016892
:102910000A59D3F804C042EA8C020A515968514559
:1029200003D1996802689151BAE75945B8D19968BD
:1029300002685151B4E70A51B2E7012092E710B59D
:1029400090F8DC20012A0ED0012200F8DC2F0223AF
:10295000437050F8DC3C1C680C431C604270002142
:102960000170084610BD022010BD10B590F8DC20A3
:10297000012A0ED0012200F8DC2F0223437050F808
:10298000DC3C1C688C431C604270002101700846CE
:1029900010BD022010BD70B5044690F8DD0002287D
:1029A00011D094F8DC0001280ED0012584F8DC5009
:1029B000022084F8DD00204601F06FF984F8DD5034
:1029C000002084F8DC0070BD022070BD10B590F8C6
:1029D000DC20012A10D0012200F8DC2F02234370F2
:1029E00050F8DC3CD3F894430C43C3F89443427052
:1029F00000210170084610BD022010BD10B590F8EE
:102A0000DC20012A10D0012200F8DC2F02234370C1
:102A100050F8DC3CD3F898430C43C3F89843427019
:102A200000210170084610BD022010BD2DE9F041C3
:102A3000044690F8DD0015460E46022826D094F88C
:102A4000DC00012821D0012784F8DC70022084F802
:102A5000DD00062E1CD0204601F042FAC6EBC6006F
:102A600004EB80002968016269684162A96881629B
:102A7000E968C162296901633146204600F0C4FF5C
:102A8000062E15D0E86A40B112E00220BDE8F081C0
:102A90001146204601F040F8E0E78021206801EB74
:102AA000C6114258EB6D22F4007242EA43224250B2
:102AB00084F8DD70002084F8DC00E7E770B590F85A
:102AC000DD30022B23D090F8DC30012B1FD0012306
:102AD00080F8DC30022480F8DD40EC25046805EB4A
:102AE000C1156159166821F0100141EA061121F45F
:102AF00080165168314321F48036D168314321F486
:102B00000036916831439669012E02D00BE0022015
:102B100070BD21F004061169314321F002065169AC
:102B2000314341F00101615180F8DD30002180F82E
:102B3000DC10084670BD000070B5040013D0216899
:102B40004CF6CC400860216845F255500860D4E945
:102B5000000141602168A0688860FFF705F905461B
:102B600041F601060DE0012070BD00BFFFF7FCF843
:102B7000401BB04205D92068C068400701D003203F
:102B800070BD2068C0684007F0D120680269E16824
:102B90008A4201D0016102E04AF6AA2101600020C8
:102BA00070BD00684AF6AA2101600020704700004D
:102BB000024881684268114481607047E400002047
:102BC00010B50024032000F073F80F2000F008F87F
:102BD00008B1012401E000F025F8204610BD0000F6
:102BE00070B50E4E05460024706898B14FF47A71A6
:102BF000B1FBF0F00A490968B1FBF0F000F0B0FD5C
:102C000040B9102D06D200222946501E00F030F89F
:102C1000356000E00124204670BD0000E400002083
:102C2000F00000200A4882B0016E41F00101016607
:102C3000016E01F001010091816D41F080518165CB
:102C4000806D00F08050009002B000F0A1B800004C
:102C500000100240002809DB00F01F020121914012
:102C60004009800000F1E020C0F80011704700002A
:102C7000F0B40E4B1B680C46C3F30223C3F10705E7
:102C8000042D00D90425191D072901D2002300E0D5
:102C9000DB1E012606FA05F1491E214099409E409F
:102CA000761E16403143F0BC04F001BF0CED00E08D
:102CB000064900F0070208684FF6FF03184040EA93
:102CC0000220034A10430860704700000CED00E04A
:102CD0000000FA052B492C4B0A6832214A432B4944
:102CE00040B1B0F5007F086829D020F4C06040F4FE
:102CF00080602CE00868C0F34120022804D051F81D
:102D0000800F20F4807022E0D1F8800020F48070E1
:102D1000C1F88000086820F4C06040F400700860CA
:102D2000B2FBF3F0401C00E0401E4A69520501D599
:102D30000028F9D1486940050AD503207047C0F33F
:102D40004120022806D051F8800F40F480700860BE
:102D500000207047D1F8800040F48070C1F88000F6
:102D6000086820F4C06040F400700860B2FBF3F023
:102D7000401C00E0401E4A695205DBD50028F9D10D
:102D8000D8E70000F000002040420F000070004033
:102D90000248816841F480418160704700700040C2
:102DA0002DE9F843044600680026BB4D00035ED5BC
:102DB000A86D0027C00008D4A86D40F08050A86519
:102DC000A86D012700F080500090DFF8D092D9F86C
:102DD000001041F48071C9F80010FEF7C5FF80466D
:102DE00006E000BFFEF7C0FFA0EB080002282BD8CA
:102DF000D9F80000C005F5D5D5F8900010F4407062
:102E000014D0216D814211D0D5F89000D5F89010E2
:102E100020F4407041F48031C5F89010D5F890103E
:102E200021F48031C5F89010C5F89000C00711D08A
:102E3000FEF79AFF804641F2883907E0FEF794FFDB
:102E4000A0EB0801494501D903260BE0D5F8900015
:102E50008007F3D5D5F89000216D20F44070084329
:102E6000C5F890001FB1A86D20F08050A8652078AB
:102E7000C00707D0D5F88800616820F00300084338
:102E8000C5F888002078800707D5D5F88800A168A4
:102E900020F00C000843C5F888002078400707D5CB
:102EA000D5F88800E16820F030000843C5F88800B4
:102EB0002078000707D5D5F88800216920F0C000E8
:102EC0000843C5F888002078C00607D5D5F88800E3
:102ED000616920F440700843C5F8880020788006B6
:102EE00007D5D5F88800A16920F440600843C5F8EB
:102EF00088002078400607D5D5F88800E16920F4DD
:102F000040500843C5F888002078000607D5D5F85A
:102F10008800216A20F440400843C5F888002088D2
:102F2000C00507D5D5F88800616A20F44030084311
:102F3000C5F888002068800307D5D5F89C00A16AF1
:102F400020F003000843C5F89C002088800507D5C1
:102F5000D5F88800E16A20F440200843C5F88800CD
:102F6000208840050FD5D5F88800216B20F440104B
:102F70000843C5F88800206BB0F5801F03D1E868CE
:102F800040F48010E860208800050FD5D5F888004F
:102F9000616B20F440000843C5F88800606BB0F511
:102FA000800F03D1E86840F48010E8602088C004F6
:102FB0000FD5D5F88800A16B20F040700843C5F804
:102FC0008800A06BB0F1807F03D1E86840F48010E6
:102FD000E86020884FF0006180040ED5D5F88800A5
:102FE000E26B20F040601043C5F88800E06B884237
:102FF00003D1E86840F48010E860208840040ED5D2
:10300000D5F88800226C20F040601043C5F8880095
:10301000206C884203D1E86840F48010E860208882
:1030200000040FD5D5F88800616C20F040500843AB
:10303000C5F88800606CB0F1805F03D1E86840F4A7
:103040008030E8602068C0030FD5D5F88800A16CF7
:1030500020F040400843C5F88800A06CB0F1804FD4
:1030600003D1E86840F48030E860206840030FD561
:10307000D5F89C00E16C20F440100843C5F89C0092
:10308000E06CB0F5001F03D1E86840F48010E86000
:103090003046BDE8F8830000001002400070004098
:1030A000704700002DE9F0470E4605004FF000077D
:1030B00025D0DFF8AC81D8F8000000F00F00B04256
:1030C0000CD2D8F8001021F00F013143C8F80010DD
:1030D000D8F8000000F00F00B04210D12968614C10
:1030E000C80741F2883A5AD06868DFF87C91032813
:1030F00008D0022820682DD0400500282CDB0120B4
:10310000BDE8F08720688001F9D5E06800F003028F
:10311000E068C0F30310401C032A19D0534A00BFD3
:10312000B2FBF0F0E268C2F306225043E268C2F359
:103130004162521C5200B0FBF2F0484517D9A0681A
:1031400010F0F00F0CD0880711D5A86840B10EE040
:10315000474AE5E78003D0E700F0BEF8484506D9C6
:10316000A06820F0F00040F08000A0608027A068F8
:10317000696820F003000843A060FEF7F5FD814672
:1031800006E000BFFEF7F0FDA0EB090151453AD87B
:10319000A068696800F00C00B0EB810FF2D12868DC
:1031A000810714D5400703D5A06840F4E060A06013
:1031B0002878000705D5A06820F4605040F4E0604E
:1031C000A060A068A96820F0F000084304E0802F08
:1031D00003D1A06820F0F000A060D8F800104046AD
:1031E00001F00F01B14216D9016821F00F013143FE
:1031F0000160FEF7B9FD074607E000BFFEF7B4FD2A
:10320000C11B514501D903207AE7D8F8000000F02E
:103210000F00B042F2D12878400705D5A068E968D0
:1032200020F4E0600843A0602878000706D5A06875
:10323000296920F4605040EAC100A06000F04CF819
:10324000A1680C4AC1F30311515C01F01F01C84091
:103250000949086009480068BDE8F047FFF7C0BCAD
:10326000002002400010024000B4C4040024F40016
:1032700000127A0048870008F0000020E4000020D7
:103280000248016841F400210160704700100240CB
:103290000548064900688968054AC1F30221515C66
:1032A00001F01F01C8407047F000002000100240EC
:1032B000588700080548064900688968054AC1F32F
:1032C000C221515C01F01F01C8407047F00000208E
:1032D0000010024058870008184910B58868C0F3EC
:1032E00081021748012A0BD08A684310C2F3810279
:1032F000022A06D08A68C2F38102032A03D0002082
:1033000010BD184610BDCA6802F00304CA68C2F3B3
:103310000312521C032C02D0B0FBF2F001E0B3FB0D
:10332000F2F0CA68C968C2F306225043C1F3416192
:10333000491C4900B0FBF1F010BD00000010024034
:103340000024F40010B5044CE069C00503D5FFF774
:10335000A7FEA015206210BD001002402DE9F84321
:1033600004007AD02078F84DC00747D0A868E968F3
:1033700000F00C0001F003010C2802D0082817D03F
:1033800001E0032914D06068B0F5803F17D0B0F594
:10339000A02F286817D020F480302860286820F4F7
:1033A000802028606068E0B1FEF7DEFC064614E08D
:1033B0002868800322D560680028D2D01EE02868E3
:1033C00040F48030EDE740F480202860F7E700BF4C
:1033D000FEF7CAFC801B642870D828688003F7D5E4
:1033E0000CE0FEF7C1FC064605E000BFFEF7BCFCA2
:1033F000801B6428F0D828688003F7D420788007E1
:103400004CD5A868E96800F00C0001F003010C2815
:1034100002D004280DD001E002290AD0E06800287B
:1034200028682BD040F480702860FEF79DFC06468B
:1034300019E02868400502D5E068002891D0686846
:10344000217C20F0FE4040EA01606860BF480068CF
:10345000FFF7C6FB002800D120E072E1FEF784FCF4
:10346000801B0228B8D828684005F7D56868217CF9
:1034700020F0FE4040EA016068600FE020F48070B8
:103480002860FEF771FC064605E000BFFEF76CFC05
:10349000801B0228A0D828684005F7D420780007B0
:1034A00029D560690028D5F8940013D040F00100B8
:1034B000C5F89400FEF758FC064606E090E000BF11
:1034C000FEF752FC801B022886D8D5F894008007AE
:1034D000F6D510E020F00100C5F89400FEF744FC9A
:1034E000064604E0FEF740FC801B022878D8D5F899
:1034F00094008007F6D42078400761D5A86D002697
:10350000C00008D4A86D40F08050A865A86D0126C1
:1035100000F0805000908E480168C90511D4016800
:10352000804641F480710160FEF71EFC074604E00E
:10353000FEF71AFCC01B022852D8D8F80000C005BC
:10354000F6D5A068012815D00528D5F8900016D02A
:1035500020F00100C5F89000D5F8900020F004009C
:10356000C5F89000A06841F28838B8B1FEF7FCFBBE
:1035700007460EE0D5F8900040F00100F0E740F07B
:103580000400C5F89000F5E7FEF7EEFBC11B4145CE
:1035900026D8D5F890008007F6D50CE0FEF7E4FBBE
:1035A000074604E0FEF7E0FBC11B414518D8D5F8FB
:1035B00090008007F6D41EB1A86D20F08050A86559
:1035C0002078800629D5A0690028D5F8980013D066
:1035D00040F00100C5F89800FEF7C6FB064606E07D
:1035E00075E000BFFEF7C0FB801B02286FD8D5F83E
:1035F00098008007F6D510E020F00100C5F898008B
:10360000FEF7B2FB064604E0FEF7AEFB801B022885
:103610005DD8D5F898008007F6D4E069F0B3A968C2
:10362000C1F3810103295DD00228286820F0807051
:10363000286003D0FEF798FB04464BE0FEF794FBAE
:10364000064604E0FEF790FB801B02283FD828685E
:103650008001F7D4F4E908016FF00F0202EB0111C9
:103660000843218A5204490802EB4151A26841EA09
:1036700002210843217D4FF07E42490802EB41615F
:103680000843217B40EAC160E968324A114008439F
:10369000E860286840F08070286000E05EE0E8683C
:1036A00040F08070E860FEF75FFB044605E000BF75
:1036B000FEF75AFB001B022809D828688001F7D5BD
:1036C0004CE000BFFEF750FB001B022802D903208C
:1036D000BDE8F88328688001F4D4E8681E490840F2
:1036E000E8603BE00128F3D0E868226A00F00301BB
:1036F000914226D1616A00F0F0020901103991422D
:103700001FD1A26A00F4FE41B1EB022F19D194F847
:103710002C2000F07841B1EBC26F12D1218E00F461
:10372000C00249084905A1F50011914209D194F858
:10373000341000F0C06049084906A1F100718142CF
:103740000CD00120C4E7000000100240E40000207B
:10375000007000400C809F01FCFFEEFE0020B7E7E8
:1037600010B5401EB0F1807F01D3012010BD4FF095
:10377000E02460610F21601704F099F90020A06136
:1037800007202061002010BD90F88410012918D076
:10379000012180F884102421C0F8881001680A688B
:1037A0000B6823F001030B6022F0005100224266F7
:1037B000036819602021C0F8881080F88420104622
:1037C00070470220704770B5044690F884000128C5
:1037D0001DD0012084F884002420C4F888002068CB
:1037E0000568026822F0010202602068826822F007
:1037F00060620A438260204603F086FE206805600E
:103800002020C4F88800002084F8840070BD0220C5
:1038100070BD70B5044690F8840001281DD00120C9
:1038200084F884002420C4F88800206805680268B1
:1038300022F0010202602068826822F060420A439E
:103840008260204603F060FE206805602020C4F8F6
:103850008800002084F8840070BD022070BD10B57F
:10386000040003D0D4F8880010B107E0012010BD97
:10387000002084F88400204600F026F82420C4F8B4
:1038800088002068016821F001010160A06A10B180
:10389000204603F05BFE204603F03CFF0128E6D003
:1038A0002068416821F4904141602068816821F0DE
:1038B0002A0181602068016841F001010160204611
:1038C000BDE8104003F0A6BE30B59BB004461421FD
:1038D00015A8FCF7DFFD54216846FCF7DBFD16490F
:1038E0002068884225D1022500246846009502946C
:1038F000FFF756FA08B1FCF797FF1048816D41F4C5
:1039000000318165816D01F400311A91C16C41F083
:103910000801C164C06CCDE9165400F008001A908B
:10392000602015900720CDE9184015A90448FEF73E
:10393000F7F81BB030BD000000440040001002400A
:10394000000C00482DE9F84F0446D0F8880098464E
:1039500015460E46202802D00220BDE8F88F96B307
:103960008DB30020C4F890004FF02109C4F888906E
:103970001834FEF7F9F9A5878246E58754F8100C4C
:10398000183CB0F5805F01D1206910B135460026A2
:1039900000E000255FF02007B4F8560053464FF0D2
:1039A0000002CDF80080D8B18021204603F0FEFF50
:1039B000D8B955B115F8010B21688862D4F8881080
:1039C00039EA010006D00120C7E736F8020BC0F340
:1039D0000800F1E7B4F85600401EA4F85600DBE7F3
:1039E0004021204603F0E2FF18B1C4F8887003209C
:1039F000B3E7C4F888700020AFE70000FF2101485A
:103A0000FEF78CBD9C040020072912D2DFE801F0EC
:103A10000A12181E242A04000068D0F8841341F00A
:103A2000010104E00068D0F8841341F00201C0F8FD
:103A3000841370470068D0F8841341F00401F6E75E
:103A40000068D0F8841341F00801F0E70068D0F86E
:103A5000841341F01001EAE70068D0F8841341F0C4
:103A60002001E4E70068D0F8841341F04001DEE76C
:103A700070B506460068D0F88853D0F89043E9073F
:103A800007D0E10705D00121C0F88C133046FEF7BE
:103A900080FBA80708D5A00706D531680220C1F829
:103AA0008C033046FEF776FB680708D5600706D51D
:103AB00031680420C1F88C033046FEF76CFB280700
:103AC00008D5200706D531680820C1F88C03304698
:103AD000FEF764FBE80608D5E00606D5316810203D
:103AE000C1F88C033046FEF75AFB680608D560061D
:103AF00006D531684020C1F88C033046FEF750FBF4
:103B0000A80608D5A00606D531682020C1F88C0388
:103B10003046FEF73CFE70BD70B503681A68D3F8F6
:103B2000A0534C6922F020022646144324F0C00220
:103B3000202E2BD08C69022C28D0032C2BD0042CC7
:103B40002ED022F0E00200BF22F40064CA692243B2
:103B500022F480640A6A224322F0C0644A6A224343
:103B600022F000648A6A2243CC6A22F0404242EA90
:103B7000840222F000544A6B096B224325F48034FE
:103B800021431A600068C0F8A01370BD22F0C00283
:103B900042F02002D8E722F0800242F04002D3E750
:103BA00022F0400242F08002CEE72DE9F0470446C1
:103BB0000068D0F88883D0F890734668C5685FEADB
:103BC000C8314FF001090DD5F9030BD54FF4803101
:103BD000C0F88C1384F8DD90002084F8DC002046C7
:103BE000FEF75EFA5FEA883009D5B80307D5216889
:103BF0004FF40030C1F88C032046FEF749FAF00775
:103C000008D0E80706D02168C1F8089006212046B0
:103C1000FEF741FAB00708D5A80706D521680220AB
:103C2000886006212046FEF737FA700708D5680736
:103C300006D521680420886006212046FEF72DFA6B
:103C4000300708D5280706D5216808208860062196
:103C50002046FEF723FAF00608D5E80606D52168C7
:103C60001020886006212046FEF74EFDB00607D5DD
:103C7000A80605D52168202088602046FEF786FD2D
:103C8000700608D5680606D52168402088600621A0
:103C90002046FEF738FDBDE8F087F0B50024E426A5
:103CA000056806EBC11755F807C0B82606EBC11624
:103CB000AE59402A20D00EDC082A2CD006DC012A7E
:103CC0001AD0022A27D0042A31D115E0102A13D0A5
:103CD000202A2CD11FE0B2F5007F1CD005DC802A01
:103CE00019D0B2F5807F22D106E0B2F5806F03D003
:103CF000B2F5006F1BD10EE04FF0BC0E0EEBC11EF3
:103D00005A6845F80E204FF0C00E05680EEBC11141
:103D10009A686A500BE0C42404EBC1145A682A5113
:103D2000C825046805EBC1119A6862501024FE2171
:103D3000A1401A682CEA010CA240D96842EA0C02A0
:103D4000A14011431A69D3F814C01546A2400A4392
:103D50000CFA04FC99694CEA020CA14041EA0C01FE
:103D6000082D06D1B20504D4B20102D4DA69A2400A
:103D700011430068C151F0BD2DE9F0410746884666
:103D80000068842202EBC81146588C2202EBC8114D
:103D900045584FF08802F30702EBC81407D0E90733
:103DA00005D00121015141463846FEF774F9B007AC
:103DB00008D5A80706D5396802200851414638467B
:103DC000FEF76AF9700708D5680706D53968042038
:103DD000085141463846FEF760F9300708D52807F4
:103DE00006D539680820085141463846FEF756F98D
:103DF000F00608D5E80606D5396810200851414676
:103E00003846FEF781FC700608D5680606D5396885
:103E10004020085141463846FEF775FC300608D56B
:103E2000280606D539688020085141463846FEF7F5
:103E300030F9F00509D5E80507D539684FF48070E9
:103E4000085141463846FEF725F9B00509D5A805C1
:103E500007D539684FF40070085141463846FEF7DF
:103E60002EFC700509D5680507D539684FF48060C8
:103E7000085141463846FEF721FC300509D5280592
:103E800007D539684FF40060085141463846FEF7BF
:103E900018FCF00409D5E80407D539684FF48050C0
:103EA000085141463846FEF70BFCB00409D5A8047A
:103EB00007D539684FF40050085141463846FEF79F
:103EC000EEF8700409D5680407D539684FF48040CE
:103ED000085141463846FEF75BF9BDE8F081000025
:103EE0002DE9F04F8024036804EBC1169C5924F09F
:103EF00070449C5103689A469D59E82404EBC11410
:103F0000A64653F80490E42404EBC114A3461C59BC
:103F1000D3F8A033576925F020053D43202F24D046
:103F20009769022F21D0032F24D0042F27D025F406
:103F3000D07500BF25F40067D5693D4325F480673F
:103F4000156A3D4325F0C067556A3D4325F000677B
:103F5000956A3D4325F07047D56A3D43576B25F47C
:103F60000035B7F1005F0FD010E025F4C07545F0C3
:103F70002005DFE725F4807545F08005DAE725F0B8
:103F8000800545F48075D5E745F4003525F04007F8
:103F9000956BD2F850802F4327F4802C976D47EA19
:103FA0000C07DFF8D0C007EA0C0748EA070892F8C8
:103FB0003C7029F03F0C07F03F0747EA0C0727F059
:103FC000004C176C47EA0C0725B924F4807C546C2C
:103FD00044EA0C04D2F848C0BCF5606F02D0BCF5CE
:103FE000F05F01D1402D03D124F4F0544CEA0404D5
:103FF00024F48045D46C2C43556D062927D2DFE884
:1040000001F003090F151B21126B23F4003343EA5F
:1040100042031CE0126B23F4802343EA820316E080
:10402000126B23F4002343EAC20310E0126B23F463
:10403000801343EA02130AE0126B23F4001343EAED
:10404000421304E0126B23F4800343EA82134AF81C
:104050000680066846F80E70066846F80B40D424C1
:10406000026804EBC11155500068C0F8A033BDE8E8
:10407000F08F0000FFFF06FE02F0C4F9FEE700EB40
:104080008100006E00F0F84070478068C0F3C00007
:1040900070478068C0F3800070478068C0F380007C
:1040A0007047C06810F4406F01D0002070470120B5
:1040B0007047000010B501F0010303EBC303C1F327
:1040C000015404EB830300EB8300C368034C0A40F4
:1040D0000C40A3431343C36010BD0000FFFFC77D26
:1040E000042303EAD15310B518444369C1F30451C2
:1040F00007248C40A3438A401343436110BD00EB67
:104100008100016E21F000411143016670470000FB
:1041100070B592B000240F9410941C21684611943D
:10412000FCF7B8F9202107A8FCF7B4F937484FF09D
:10413000A041012501604FF40021C0E90114C460D1
:1041400008210461C0E90551047744770221016226
:1041500080F824404FF4D461C162A902016380F861
:1041600038508900C16380F84040FDF745F908B137
:10417000FCF75AFB0FA925480F94FCF7B1FB08B1D7
:10418000FCF752FB22480090224E4FF44000CDE94C
:10419000010640F6FF70CDE904048DF80C50694625
:1041A0001A480694FCF74CFC08B1FCF73DFB0620CE
:1041B000CDE90760032009907F200A900420CDE913
:1041C0000B0407A91148FCF767FD08B1FCF72CFBAD
:1041D000114C0C20CDE9074007A90C48FCF75CFD09
:1041E00008B1FCF721FB0D4800904FF0E070CDE9DD
:1041F00001044FF47F60049069460448FCF720FCFA
:10420000002801D0FCF710FB12B070BD04030020A1
:104210000000C07D040060088000501DFFFF1700F3
:10422000F0B58FB01C216846FCF734F9202107A8AF
:10423000FCF730F92548244900240160C902C0E98F
:104240000114C46004260461C0E90546047744777C
:104250000125056280F824404FF4D461C162A902AF
:10426000016380F838508900C16380F84040FDF751
:10427000C3F808B1FCF7D8FA15480090154F4FF471
:104280004000CDE9010740F6FF70CDE904048DF848
:104290000C5069460D480694FCF7D2FB08B1FCF7B8
:1042A000C3FA0620CDE90770032009907F20CDE9ED
:1042B0000A0607A90C940548FCF7EEFC002801D07B
:1042C000FCF7B2FA0FB0F0BD0001005070030020FF
:1042D0000000C07D40002019114808B5816C41F0F4
:1042E00004018164816C01F004010091816C41F052
:1042F00001018164806C002200F001000090022125
:104300000B20FEF7B5FC0B20FEF7A4FC00220121D8
:104310000C20FEF7ADFCBDE808400C20FEF79ABC6F
:10432000001002402DE9F04186B014216846FCF7E8
:10433000B1F82C48C16C41F02001C164C16C01F09E
:1043400020010591C16C41F00401C164C16C01F010
:1043500004010591C16C41F00101C164C16C01F01F
:1043600001010591C16C41F00201C164C16C01F011
:1043700002010591C16C41F00801C164C06C4FF4A9
:10438000004400F008004FF09047059000222146BD
:104390003846FDF7E4FCDFF85080002280214046DB
:1043A000FDF7DDFC009401AA01240025022682E825
:1043B000700069463846FDF7B3FBCDE90045694614
:1043C0000A480294FDF7ACFB8020009001AA11205E
:1043D00082E8610069464046FDF7A2FB06B0BDE8F1
:1043E000F08100000010024000040048000C00486A
:1043F000F0B5C1B000243B94349435943C943D9482
:1044000036943E943F94379429942A942B946021B7
:1044100068462C94FCF73EF8389439941C212DA85A
:104420003A94FCF737F8242120A8FCF733F8202130
:1044300018A8FCF72FF89D489B4904258460C0E923
:104440000015FEF775F808B1FCF7EEF90C21974856
:10445000FDF727FE08B1FCF7E7F90A219348FEF7BC
:1044600031F908B1FCF7E0F900219048FEF736F881
:1044700008B1FCF7D9F93B943BAA04218B483C9442
:10448000FDF77AFF08B1FCF7CFF9349435943694F0
:1044900034AA042185483794FDF784FE08B1FCF75F
:1044A000C3F9012204218148FDF7E0FF0220CDE994
:1044B0003E403EAA01217D48FDF7DAFC08B1FCF739
:1044C000B3F9002201217948FDF754FC08B1FCF74B
:1044D000ABF929AA48F2D040082682E871000621EB
:1044E0007248FEF755F908B1FCF79EF90094019463
:1044F00001270294CDE90347089405940694079494
:104500000D9409940A940B940C946A46062167480A
:104510001794FEF78BFA08B1FCF786F944F268208D
:10452000389038AB022206216048FEF76EF908B1D8
:10453000FCF77AF903202B9029AA00215B48FEF7AB
:1045400027F908B1FCF770F930942DAA00215748DB
:104550002D973394FEF7B2FA08B1FCF765F94FF4E2
:10456000A0773A4600215148FEF7CFF808B1FCF792
:104570005BF900944FF000600A900DA9019480004F
:1045800081E831004015CDE910401294149415943F
:104590006A46002145481694FEF748FA08B1FCF730
:1045A00043F96A4601214148FEF740FA08B1FCF799
:1045B0003BF938AB012200213C48FEF726F908B14F
:1045C000FCF732F94FF4406020905520CDE92104EA
:1045D000CDE9244023942694279420AA002133482F
:1045E0002894FDF78FFD08B1FCF71EF920AA0121E0
:1045F0002E48FDF787FD08B1FCF716F9CDE91846FE
:104600002020CDE91A64CDE91C401E9418AB01228C
:10461000002126481F94FEF7BEF908B1FCF704F903
:1046200018AB042201212148FEF7B5F908B1FCF7C7
:10463000FBF8199418AB022200211C481A94FEF7CB
:10464000AAF908B1FCF7F0F818AB082201211748C5
:10465000FEF7A1F908B1FCF7E7F829AA01211348F0
:10466000FEF796F808B1FCF7DFF82DAA01210F48F4
:10467000FEF724FA08B1FCF7D7F83A4601210B48B7
:10468000FEF743F808B1FCF7CFF8012238AB11462A
:104690000648FEF7BAF808B1FCF7C6F80348FDF77C
:1046A000E3FF41B0F0BD0000006801409C04002021
:1046B0000A4810B5084901600421416040F6FF71C5
:1046C000C160F9218160FEF737FA002803D0BDE808
:1046D0001040FCF7A9B810BD00300040980500203C
:1046E000184810B5164901604FF4E12141600021DE
:1046F00081600C22C160C0E904128161C161016264
:1047000041628162FFF7ABF808B1FCF78DF8002138
:104710000C48FFF77EF808B1FCF786F8002109483D
:10472000FFF751F808B1FCF77FF80648FFF72CF8BF
:10473000002803D0BDE81040FCF776B810BD00009B
:1047400000440040A805002001F05CFEFEE701F0F7
:1047500059FEFEF7F7FDFEE770B500240021204664
:1047600000F0A1F80025002000F091F96D1CEDB2D9
:10477000802DF8D3641CE4B2082CEFD370BD10B5C3
:10478000012000F057F9BDE81040012000F060B9A9
:1047900070B500240646802525FA04F0304000D08C
:1047A000012000F055F9012000F044F9002000F04C
:1047B00041F9641CE4B2082CEED3012000F03AF970
:1047C000BDE87040002000F035B910B5012000F0C0
:1047D0003FF9012000F02EF9002000F039F9BDE882
:1047E0001040002000F026B910B5002000F030F98C
:1047F000012000F01FF9BDE81040012000F028B9A9
:1048000010B5FFF7BCFFAE2000F030F9D52000F066
:104810002DF9802000F02AF9A82000F027F93F2088
:1048200000F024F9D32000F021F9002000F01EF957
:10483000402000F01BF9A12000F018F9C82000F07A
:1048400015F9DA2000F012F9122000F00FF981209A
:1048500000F00CF9CF2000F009F9D92000F006F99A
:10486000F12000F003F9DB2000F000F9302000F027
:10487000FDF8A42000F0FAF8A62000F0F7F88D204B
:1048800000F0F4F8142000F0F1F8AF2000F0EEF89A
:10489000BDE81040FFF760BF0246012000E0504332
:1048A000491EFCD2704710B50C4640F0B00000F035
:1048B000DDF8102040EA141000F0D8F804F00F00E2
:1048C000BDE8104000F0D2B82DE9F0410746CE0017
:1048D0004000083E801E15464FF0FF38F1B2C0B2CE
:1048E000FFF7E1FF1148002400EB05152819A0F59A
:1048F000805090F8000E00F0CAF8641CE4B2082C56
:10490000F4D308EB4700F1B2C0B2FFF7CCFF0024AC
:104910002819A0F5805090F8080E00F0B8F8641C33
:10492000E4B2082CF4D3BDE8F08100001E8000083A
:104930002DE9F0411D4617460E468046002415E03D
:10494000291B1020491EFFF7A7FFB7FBF0F000F06E
:104950000F0206EB0400C1B20A2A404601D23032EF
:1049600000E03732FFF7B0FF641CE4B2AC42E7D39B
:10497000BDE8F0812DE9F04700241D461646884623
:1049800081460A2713E0291B0A20491EFFF784FFEE
:10499000B6FBF0F0B0FBF7F107FB110208EB0400E7
:1049A000C1B248463032FFF78FFF641CE4B2AC421C
:1049B000E9D3BDE8F0872DE9F0471E46140088468C
:1049C000814604D42B22FFF77FFF254603E02D22EA
:1049D000FFF77AFF654200240A2714E0311B0A2002
:1049E000491EFFF759FFB5FBF0F0B0FBF7F107FBED
:1049F000110208EB0400401CC1B248463032FFF7F8
:104A000063FF641CE4B2B442E8D3BDE8F0872DE94B
:104A1000F04115460E460746002406E03019C1B2A3
:104A20003846FFF751FF641CE4B22A5D002AF5D135
:104A3000BDE8F08110B502464FF400414FF09040C0
:104A4000FDF78DF9BDE81040032003F0D9B900004F
:104A500010B5024680210448FDF781F9BDE81040F9
:104A6000012003F0CDB900000004004810B5044651
:104A7000FFF7ABFE7820FFF78BFE0020FFF788FEE4
:104A80002046FFF785FEBDE81040FFF7ADBE10B52C
:104A90000446FFF79AFE7820FFF77AFE4020FFF7E2
:104AA00077FE2046FFF774FEBDE81040FFF79CBE7E
:104AB00003480521017000214161417081717047F7
:104AC0000000002070B5AAB0684601F06DFD9DF8A9
:104AD0004400002833D00F98002830D1224C207891
:104AE0004FF400450B2814D02078062805D02078F4
:104AF000072802D02078082821D1684600F0CCFE93
:104B000000281CD012A800F0D9FB1E98A0B10546C1
:104B100012E0684600F0C0FE0028F3D112A800F0B1
:104B2000CDFB9DF8A400002809D101F055FC4FF4FD
:104B3000847630B1304600E0284600F0A9F92AB06A
:104B400070BD6946012000F09BFA0028F4D10620D0
:104B500020700120607001F083FC0028EAD16846D3
:104B600000F06EFAEBE700000000002070B5114E77
:104B700005460024306958B14178022900D001244B
:104B800002F093F930B1306902F00AF810B103E095
:104B9000022070BD44F0020445B195F8440028B1EC
:104BA000E86B08B144F48074204670BD44F0040002
:104BB00070BD000000000020014800787047000030
:104BC0000000002010B5134A0446106191700021C6
:104BD0001170516151709161D161116251629162A4
:104BE000D17011715171917111815181918101F0D7
:104BF0008BFC204602F04CF900280AD0204600F039
:104C0000CDFB002805D0BDE810404FF4C07000F087
:104C10003FB910BD0000002010B5FFF7A7FF08B195
:104C2000002010BD012010BD10B501212448FDF762
:104C300091F858B100222349002003464C793CB139
:104C4000CC78A24217D0CA704B811CE00122F2E757
:104C500012B10B81002010BD08891E2804D2401C0F
:104C600080B208811E28F5D301204871CB700B71EA
:104C70004B818B81EEE74C891E2C04D2641CA4B2BC
:104C80004C811E2C0BD00A79002AE4D08A894FF679
:104C9000FF739A42DFD28A89521C8A8110BD0C7937
:104CA0000A710AB18B81F6E7002CF7D08A8940F2AD
:104CB000B634323AA24200D801208B8110BD0000E8
:104CC000000C00480000002010B501F01DFCBDE8FC
:104CD000104000F04FBC00002DE9F047AAB0FFF7EC
:104CE000A3FF0646684601F05FFC684C607800252B
:104CF00010B16561657002E06069401C60610F98E9
:104D00000028207808D00A2801D0FFF7DDFF0A200C
:104D100020702AB0BDE8F08709274FF001094FF055
:104D200004084FF4004A0C2871D2DFE800F0072E87
:104D30002E313E4C7989879F0687EAE7A07810B12B
:104D40004FF47A7000E0642061698842E1D82069FC
:104D500058B1417811B1012902D006E0484683E0FC
:104D600001F01EFF08B102207EE0206902F090F8F9
:104D700020B19DF8410008B1032075E05FF080008C
:104D800000F086F8C5E76561C3E701F0BDFBC0E749
:104D90009DF844000028BCD09DF840000028B8D001
:104DA00060696428B5D340465EE06846FFF734FF8B
:104DB00038B1A069401CA061C828AAD3FFF778FECB
:104DC000A7E7A561A5E76846FFF726FFC8B1A07968
:104DD000F0B1002E9DD06E463046FFF71DFF002833
:104DE00097D001F0DBFB002893D13146042000F07E
:104DF00047F998B112A800F061FA1E980028BFD1B7
:104E00002FE084F80080A5616561A57181E739E034
:104E100020790028B6D184F806907AE70B2023E0A9
:104E20007EB920696169B0F87C008842AAD86946D9
:104E3000022000F025F9A0B9072015E00EB968E7B7
:104E40001EB1FFF741FF27709DE712A800F036FA68
:104E50009DF88C00002895D06946032000F010F9D9
:104E600008B150468CE7082020708CE76069642800
:104E700088D36846FFF7D0FE00289FD184F80080D1
:104E800065619EE74FF400707AE7000000000020A3
:104E900010B501F017FE00F0A9FB02490A200870C6
:104EA00010BD00000000002030B5ABB018A801F024
:104EB0007BFB684600F002FA1E4C2078062818D0CA
:104EC0002078072815D02078082812D000252398AC
:104ED000E169884223D02498216A88421FD025980E
:104EE000616A88421BD09DF8A000C0B1279810B11C
:104EF00015E00125EBE720780A2810D001F07CFAB4
:104F000068B101F08BFAA84209D135B10A98A16ABB
:104F1000884204D000F028FB08B1012000E0002006
:104F20002399E16124992162259961620A99A1621C
:104F30002BB030BD000000201A4B10B593F846404E
:104F400003F1600254B1106808431060186B084305
:104F50001863002083F84500012010BD83F8460047
:104F60001071116093F83E0050710F4890ED040AE3
:104F70000C4882ED050A93ED030A703882ED060AAB
:104F800093ED040A82ED070A90ED0E0A82ED080AFD
:104F900093ED060A82ED090A93ED070A82ED0B0AEA
:104FA000D4E70000900100202C000020B4EE400A5D
:104FB000F1EE10FA0BD110EE100AB0F1FF4F06DA45
:104FC00010EE100A10F5000F01D2012070470020EA
:104FD00070470000044880ED000A80ED010A80ED72
:104FE000020A80ED030A70476C0100201349F0EEBD
:104FF000400AA1F1100091ED010A90ED001AD1EDE7
:10500000001A90ED012A20EE010AD0ED032A01EEEC
:10501000A00AD1ED021A01EE820A91ED032AD0ED29
:10502000021A02EE610A91ED042AC0ED031A02EEA3
:10503000620A80ED020AC0EC020A70477C0100207F
:10504000002819D0EFF3108272B60C49836BCB6441
:10505000836B01F16000036491F85D30FF2B04D293
:1050600091F85D305B1C81F85D3091F85D1080F83F
:105070005110002A00D162B6704700009001002054
:105080002DE9F04F07462DED028B81B0894C0020B1
:10509000DFED878A009060780E46B0EE688A88B3AC
:1050A000E06878B376B317B196F8440050B3DFF8F0
:1050B00008A296ED070A4FF080458AED020A96EDA8
:1050C000040A8AED030A96ED020A8AED040A96EDB7
:1050D000070A10EE100AA84208DDFFF767FF28B1A3
:1050E00096ED070A84ED060A8AED0C0A94ED060A8D
:1050F00010EE100AA84210DDFFF758FF68B194EDDA
:10510000068A0FE0FFE701B04FF40041BDEC028BCF
:105110001120BDE8F04FFFF70FBF042F02D0E06869
:1051200090ED058AEFF3108B72B6CFB1DFF888816E
:105130000025A8F160084FF00109042F13D0012FBA
:1051400055D0022F7BD0032F77D04FF4004113208E
:10515000FFF7F2FECDF80000BBF1000F6ED0A0E02B
:1051600000F008FAF8E75448FC3801F0A1FF524873
:10517000D03802F0C3F8B0EE480AFFF72BFFC4EDB9
:10518000048A84ED058AC4ED078A2562A5626580DC
:10519000A580E56225632570E580404688F8435088
:1051A00088F8445040F8305F8773494680F815907E
:1051B000B26B8261C56196ED040A80ED080A80ED4C
:1051C000098AC0ED0A8A80F82C9080F82D5050464C
:1051D000B26B40F83C2F456096ED040A80ED020A60
:1051E00080ED038AC0ED048A01754575B4E7324845
:1051F000FC3801F05DFF3048D03802F07FF8B0EEA7
:10520000480AFFF7E7FEC4ED048A84ED058AC4ED81
:10521000078A2562A5626580A580E5622563257001
:10522000E580404688F8435088F8445040F8305FA5
:10523000877380F815908FE701E01DE030E0B0EE55
:10524000480AFFF7C7FEB0EE480A84ED050A6580FC
:105250001948E58094ED041AF0EE480AFC3801F094
:10526000DDFE28B1404600F83E7F80F8079073E7E6
:105270004FF4004112206BE7E06890ED050A84EDE1
:10528000050AE580E56225632570A8F83650C8ED6B
:105290000E8A88F8425088F83E7088F844905BE7A0
:1052A00062B6009801B0BDEC028BBDE8F08F000043
:1052B000000000002C000020F001002000286AD02F
:1052C000EFF3108272B6344991ED000A80ED000AC6
:1052D00091ED010A80ED010A91ED020A80ED020ACA
:1052E00091ED030A80ED030A91ED040A80ED040AB2
:1052F00091ED050A80ED050A91ED060A80ED060A9A
:1053000091ED070A80ED070A91ED080A80ED080A81
:1053100091ED090A80ED090A51F8283F40F8283F2D
:105320004B6843608B6883608B898381CB89C381A1
:1053300091ED040A80ED040A8B8A83828B7D83754C
:10534000CB7DC3750B7E03764B7E43768B7E837657
:10535000CB7EC3760B7F03774B7F43778B7F83773F
:105360000B6A03624B6A436291ED0A0A80ED0A0AF6
:1053700091ED0B0A80ED0B0A91ED0C0A80ED0C0A01
:1053800091F8343080F8343091F8351080F83510C9
:10539000002A00D162B67047900100202DE9F0414B
:1053A0006B4D04462DED028B6021E8600020687093
:1053B0006848FBF76FF848F280071CB3D4ED0E0A7B
:1053C000F5EEC00AF1EE10FA1CD994ED020AB5EE22
:1053D000C00AF1EE10FA15D9F1EE001A94ED191A7F
:1053E00020EE210AB4EEC01AF1EE10FA0AD9B2EE9C
:1053F000040A41EE400AB0EEE00A10EE100AB0F1E5
:105400007C5F02DD3946012093E094ED100ADFED68
:10541000520A80EE202AD4ED180A94ED170ADFED27
:105420004F1A4C489C3801F0B8FD94ED163A4948A3
:1054300094ED0E2AF1EE432AD4ED151A94ED021ADA
:10544000D4ED140A94ED130A703801F0CBFED4EDBC
:105450000E0A94ED021A80EE810AF6EE000A30EE92
:10546000200ABCEEC00A85ED090A94ED190A9FEDE9
:105470003C2AF0EE008AC2EE001A71EEA00AFCEEA1
:10548000E00A10EE900ADFED370A288121EE208A2B
:1054900060EE280A88EE200A02F036FBC8EE001AF9
:1054A000D4ED1A2A28EE081A2A4E143EA6F18800D6
:1054B00061EEA10AB0EE600A30EE813A02EEA10A76
:1054C00030EE012A83EE020A31EE603A42EEE10A42
:1054D00063EE283A70EE810A83EE823A86ED000A86
:1054E00080EE821A86ED013A86ED020A86ED033AD5
:1054F00086ED041A90F82900C8B1A6F15C0090F876
:105500004900A0B1686A90B1288980B1FFF74EFDCB
:1055100068B196ED010AFFF749FD40B196ED040A26
:10552000FFF744FD18B1204601F07CFF38B1394641
:105530000220BDEC028BBDE8F041FFF7FDBC01206D
:10554000687000F017F8BDEC028B0020BDE8F08118
:105550002C00002090010020F304B53F0000000063
:1055600000007A44DB0F4941014890F8450070473C
:105570009001002070B51A4801F09AFD18482C30AF
:1055800001F0BCFE16480025174C40F8785F9FEDEF
:10559000150A45608560C56084ED040A84ED050A3E
:1055A00084ED060A84ED070A2562A5626580A58060
:1055B000E56225632570E58001F048FF0848602119
:1055C0009C30FAF767FF06485421FC30FAF762FF77
:1055D00003489C3000F83E5F6178C17170BD0000E7
:1055E000F4000020000000002C0000202DE9F04F06
:1055F000A84C2DED108B99B094ED000A8DED0E0A9C
:1056000094ED010A8DED0D0A94ED020A8DED0C0A60
:1056100094ED030A8DED0B0A94ED040A8DED0A0A50
:1056200094ED050A8DED090A94ED060A8DED080A40
:1056300094ED070A8DED070A94ED080A8DED060A30
:1056400094ED090A8DED050A54F8288FCDF84C80A9
:10565000D4F80480CDF85080D4F80880CDF8548078
:10566000A58965F30F02E58994ED040A65F31F42ED
:1056700092468DED040AA28A62F30F07A27D62F3BF
:105680001747E27D62F31F67227E62F30706627EA0
:1056900062F30F26A27E62F31746E27E62F31F6674
:1056A000227F62F30700627F62F30F20A27F62F322
:1056B00017408146206A1690606A179094ED0A0A96
:1056C0008DED030A94ED0B0A8DED020AD4ED0CFA70
:1056D00094F8340060F3070C94F835006D4D60F3D6
:1056E0000F2C6035E34628680F90287960F3070196
:1056F000687960F30F21009195ED02FAD5ED03EA88
:1057000095ED04EAD5ED05DA95ED06DAD5ED07CA93
:1057100095ED08CAD5ED09BA95ED0ABAD5ED0BAAF3
:1057200095ED0CAAD5ED0D9AA86B1090E86B119031
:10573000286C129095ED119AD5ED128A95ED138A89
:1057400095F8500060F3070395F8510060F30F23BC
:105750000193FFF70FFF9DED0E0A04ED0A0A9DED80
:105760000D0A04ED090A9DED0C0A04ED080A9DEDF1
:105770000B0A04ED070A9DED0A0A04ED060A9DEDE9
:10578000090A04ED050A9DED080A04ED040A9DEDE1
:10579000070A04ED030A9DED060A04ED020A9DEDD9
:1057A000050A04ED010ADDF84C80C4F80080DDF83C
:1057B0005080C4F80480DDF85480C4F80880A4F850
:1057C0000CA04FEA1A40E0819DED040A84ED040A22
:1057D000A782380CA075380EE0752676300A607600
:1057E000300CA076300EE07684F81C904FEA192039
:1057F00060774FEA1940A077169820621798606288
:105800009DED030A84ED0A0A9DED020A84ED0B0A60
:10581000C4ED0CFA84F834B04FEA1B2084F835004C
:105820000F982860009929710099080A687185ED20
:1058300002FAC5ED03EA85ED04EAC5ED05DA85ED6A
:1058400006DAC5ED07CA85ED08CAC5ED09BA85EDCA
:105850000ABAC5ED0BAA85ED0CAAC5ED0D9A1098F4
:10586000A8631198E8631298286485ED119AC5ED34
:10587000128A85ED138A019B85F85030019B180A26
:1058800085F851000020607719B0BDEC108BBDE8A1
:10589000F08F0000900100202DE9F05FFF4D0446DD
:1058A0002DED068B687888B3E86878B37CB394F8FC
:1058B000440060B3FA4E94ED070A86ED020A94EDB7
:1058C000040A86ED030A94ED020A86ED040A94EDBB
:1058D000078AB0EE480AFFF769FB4FF0804ADFED18
:1058E000F18AA6F1600818B118EE100A504525DCBF
:1058F00086ED0D8A95ED060A10EE100A50450FDD73
:10590000FFF754FB60B195ED068A10E000E003E07C
:105910004FF40041032029E24FF40041042025E226
:1059200098F83E00042806D0E86890ED058AB06B30
:10593000401CB06304E0B0EE688A01E085ED068AA1
:1059400086ED0C8A98F83E00B1460127042818D04D
:10595000D348D03890F8490000287CD0DFF840A325
:10596000AAF1FC0A9AF82900002874D098F83E00A1
:1059700018B198F83E0003286ED94FF40041062074
:10598000F4E1E8682E4690ED010ADFEDC70A20EE4B
:10599000209A19EE100AB0F17C5F01DAB6EE009A97
:1059A00094ED040A18EE100A88ED140A88ED158AA1
:1059B00094ED040A4D4689ED110A89ED128A50458D
:1059C00020DDB0EE480AFFF7F1FAD8B1F068D4ED67
:1059D000040A90F99E0000EE100AB8EEC00A20EE0C
:1059E000200AC0EE089AB0EE690AFFF7DFFAC8B1E4
:1059F000B0EE690A01F09AFCC0B100BF4FF401415A
:105A00001020B3E188F85C70C8ED028AC8ED068A00
:105A1000D8F82800401CC8F8280088F8457085F898
:105A2000507045E24FF401410F209FE188ED008A5C
:105A300088ED018AC8ED028AC8ED038A94ED020A56
:105A4000B1EE400A88ED040AC8ED068A01F0E4FCD4
:105A500088ED070A01E02EE031E001F0DDFC88ED81
:105A6000160A94F8420068B1A06BD8F84810884232
:105A700008D094ED040AB0EEC00AB4EEC90AF1EE03
:105A800010FA01DD012000E0002088F85C00D8F861
:105A90002800401CC8F8280088F8457001F0BCFCBC
:105AA00085ED130A01F0B8FC85ED0B0A98F85C004F
:105AB00085F85000FCE14FF40041052056E198F8CC
:105AC0003E000026012814D06888401C80B26880FF
:105AD0000A2827D36E80B0EE480AFFF787FAB0EEA7
