:020000040800F2
:10000000480A0020790200089F410008393B000897
:100010009D4100081D0700081D4D0008000000005C
:10002000000000000000000000000000674700081A
:10003000E70700080000000065470008694700085E
:10004000930200089302000893020008930200083C
:10005000930200089302000893020008930200082C
:100060009302000893020008930200082107000889
:100070002D0700089302000893020008930200086D
:1000800093020008930200089302000893020008FC
:10009000930200089302000893020008E907000891
:1000A00093020008930200089302000893020008DC
:1000B00093020008930200089302000893020008CC
:1000C00093020008930200089302000893020008BC
:1000D00093020008930200089302000893020008AC
:1000E000930200089302000893020008930200089C
:1000F000930200089302000893020008930200088C
:10010000930200089302000893020008930200087B
:10011000930200089302000893020008930200086B
:10012000930200089302000893020008930200085B
:10013000930200089302000893020008930200084B
:10014000930200089302000893020008930200083B
:10015000930200089302000893020008930200082B
:1001600093020008BD3400089302000893020008BF
:10017000930200089302000893020008930200080B
:1001800093020008930200089302000893020008FB
:100190009302000800000000930200089302000888
:1001A00093020008930200089302000893020008DB
:1001B00093020008930200089302000893020008CB
:1001C00093020008930200089302000893020008BB
:1001D000930200089302000800F002F800F03CF8D7
:1001E0000AA090E8000C82448344AAF10107DA4592
:1001F00001D100F031F8AFF2090EBAE80F0013F0A8
:10020000010F18BFFB1A43F001031847B854000050
:10021000D8540000103A24BF78C878C1FAD85207E1
:1002200024BF30C830C144BF04680C607047000070
:100230000023002400250026103A28BF78C1FBD8EF
:10024000520728BF30C148BF0B6070471FB504F08C
:1002500005FF1FBD10B510BD00F046F91146FFF7B0
:10026000F5FF04F09BFD00F064F903B4FFF7F2FF23
:1002700003BC00F06BF900000948804709480047BB
:10028000FEE7FEE7FEE7FEE7FEE7FEE7FEE7FEE746
:10029000FEE7FEE704480549054A064B70470000A3
:1002A000D5470008D901000848040020480A00206A
:1002B000480600204806002053EA020C00F069803E
:1002C0002DE9F04B4FF00006002B1FBFB3FA83F56A
:1002D00003FA05F424FA05F65E4012BF1643B2FA9B
:1002E00082F502FA05F4C5F120051EBF22FA05FCCD
:1002F00044EA0C04203556EA044C4FEA144418BF73
:10030000641C4FF000084FF00009904271EB030CA1
:1003100039D3002919BFB1FA81F701FA07F6B0FA0B
:1003200080F700FA07F6C7F120071EBF20FA07FC86
:1003300046EA0C062037B6FBF4FCA7EB0507103F96
:1003400007F01F0BCBF120060CFA0BFB2CFA06F67C
:1003500044BFB3460026202FA4BF5E464FF0000BDB
:100360005BEA060C08BF4FF0010B19EB0B09ABFB66
:10037000027C48EB0608C01B06FB02CC0BFB03CC3F
:1003800071EB0C01C1E70B46024641464846BDE809
:10039000F08B13B54FF000004FF00001AFF3008079
:1003A000BDE81C407047032A40F2308010F0030C77
:1003B00000F0158011F8013BBCF1020F624498BFB8
:1003C00011F801CB00F8013B38BF11F8013BA2F155
:1003D000040298BF00F801CB38BF00F8013B11F0D0
:1003E000030300F02580083AC0F0088051F8043B70
:1003F000083A51F804CBA0E80810F5E7121D5CBFDD
:1004000051F8043B40F8043BAFF30080D20724BF0F
:1004100011F8013B11F801CB48BF11F8012B24BFA3
:1004200000F8013B00F801CB48BF00F8012B7047F2
:1004300010B5203AC0F00B80B1E81850203AA0E87F
:100440001850B1E81850A0E81850BFF4F5AF5FEAB3
:10045000027C24BFB1E81850A0E8185044BF18C966
:1004600018C0BDE810405FEA827C24BF51F8043B0D
:1004700040F8043B08BF7047D20728BF31F8023B61
:1004800048BF11F8012B28BF20F8023B48BF00F8F5
:10049000012B70474FF0000200B513469446964674
:1004A000203922BFA0E80C50A0E80C50B1F1200187
:1004B000BFF4F7AF090728BFA0E80C5048BF0CC035
:1004C0005DF804EB890028BF40F8042B08BF704793
:1004D00048BF20F8022B11F0804F18BF00F8012B05
:1004E0007047704770477047754600F02BF8AE466E
:1004F00005006946534620F00700854618B020B530
:10050000FFF7C8FEBDE820404FF000064FF000079F
:100510004FF000084FF0000B21F00701AC46ACE8AB
:10052000C009ACE8C009ACE8C009ACE8C0098D4618
:10053000704710B50446AFF300802046BDE8104078
:10054000FFF793BE00487047E403002001491820DC
:10055000ABBEFEE726000200704710B5846AE16D6D
:1005600011F0500F06D0E16DC90625D5204600F0E8
:1005700082FC10BDE06D40F40070E0652068016809
:10058000090716D503F0EBFA78B12068C06880043B
:1005900000280ADBE06D20F48070E065E06DC004A7
:1005A00003D4E06D40F00100E065204600F052FC0D
:1005B00010BDC0688007EBE7616D496BBDE8104076
:1005C000084710B5806AC16D41F04001C165016EF8
:1005D00041F00401016600F04EFC10BD10B5806AC8
:1005E00000F048FC10BD000070B50446006881684A
:1005F0008268C1F3400112F0010F28D039BB816835
:1006000001F00D01012914D18168124A1140891CA1
:10061000816021680320086001F0DCF8054612E0E3
:1006200001F0D8F8401B02280DD920688068C00767
:1006300009D0E06D40F01000E065206E40F0010050
:100640002066012070BD20688068C007E8D10020C6
:1006500070BD0000C0FFFF7FF8B504460020009089
:100660002068816811F0010F4AD18168254A114242
:1006700037D18168D5432940491C81602068B0F199
:10068000A04F02D02049884201D1204800E02048F4
:10069000806800F0E07000020DD51E481E49006819
:1006A000B0FBF1F0401C00EB4000800000E0401E79
:1006B00000900028FBD101F08DF806461BE0816810
:1006C00011F0010F03D181682940491C816001F0BC
:1006D00081F8801B02280ED920680068C043C0073B
:1006E00009D0E06D40F01000E065206E40F00100A0
:1006F00020660120F8BD20680168C943C907DED122
:100700000020F8BD3F0000800001005000030050B1
:10071000000700503C000020400D0300FEE70000F1
:10072000014800F00DBE000038010020014800F033
:1007300007BE00009801002010B501680E4CCAB237
:100740001423083AA14203D2B2FBF3F20B4904E0AE
:10075000B2FBF3F2094920310832436C02F01F0268
:1007600023F003031944816404498031C1640121E9
:100770009140016510BD00000804024000080240DD
:100780000179084A01F07F0102EB81024265054AC6
:100790004432491E826501F01F0201219140C1656A
:1007A00070470000FC08024030B5D0E91345656091
:1007B000446D14B1D0E91645656090F8444004F0EA
:1007C0001F050124AC40056C6C600468636083689D
:1007D000102B036803D099600068C26030BD9A6036
:1007E0000068C16030BD7047202000F0C7BE03F034
:1007F00093FE72B6FEE70000F8B5002604460096A8
:1008000090F858000D4601280BD0012084F85800BC
:100810002046FFF7E9FE0100E06D04D040F0100033
:100820002AE00220F8BD20F4885040F00200E06584
:1008300020688268134B1A4005F080431A4342F047
:1008400000428260104A20680EE0009B5B1C00930F
:10085000934209D3E06D20F0020040F01000E06503
:1008600084F858600120F8BD8368DB0FEDD1E06D9E
:1008700020F0020040F00100E06584F8586008466E
:10088000F8BD0000C0FFFF3F02DE04002DE9F04F7D
:10089000044690F858009BB00F464FF0000B01281B
:1008A00012D0012084F85800002617961896206868
:1008B0004FF0A048DFF81C91DFF81CA1474D4045E0
:1008C00006D12846009508E002201BB0BDE8F08F55
:1008D00048450AD15046CDF800A003F03CF90090FD
:1008E000206803F038F940B109E0E06D40F02000E5
:1008F000E06584F858600120E7E7009850B1E06DAA
:1009000040F02000E0654FF0010B00BF84F8586014
:100910005846DAE720684146884201D0A84201D112
:100920002F4800E02F48D7F800C02F4B40F61F7229
:10093000BCF1000F2DD0D0F808C094F838802CF40A
:10094000604C4CEA483CD7F804804CEA080CC0F8EC
:1009500008C0D4F800C08C4501D0AC4504D18968EA
:10096000AB6801F0010109E0D9F80810DAF8085085
:1009700001F0010105F001059B68294303F0010323
:100980001943C3D1BB68396819438368934319433A
:100990001DE0876827F46047876027688F4201D091
:1009A000AF4204D18968AB6801F0010109E0D9F8D0
:1009B0000810DAF8085001F0010105F001059B6804
:1009C000294303F001031943A0D181689143816059
:1009D0009CE700000004005000050050000100509A
:1009E0000003005000070050000600502DE9F84FAA
:1009F00000270446009790F85800DFF818840D4649
:100A0000B946012811D0012684F85860206803F007
:100A10009EF860B1E06D40F02000E0655FF00107F6
:100A200084F858903846BDE8F88F0220FBE7D5E9F6
:100A300000210C23206803EA91131844036B01F092
:100A40001F014FF01F0C0CFA01FCC2F3846223EA71
:100A50000C038A4013430363206803F078F882464E
:100A6000206803F070F85AEA00003CD1AA682968AF
:100A70002068B2F1004F37D003F079F8206841695F
:100A800021F00041416120686969C268C2F3C10276
:100A9000520091402A69042A31D000EB82002B6871
:100AA000026EDFF874C303F0F84302EA0C020B4352
:100AB0001A4342F00041016620682A69A96900EBE7
:100AC0008200026E22F080720A430266297F20684B
:100AD0002A69012910D0002100EB8200026E22F069
:100AE00000720A4302667DE0002203F040F82068AD
:100AF000416941F00041C5E74FF00071ECE700218A
:100B000003F01BF8400320684FF0000172D003F09F
:100B100014F890FAA0F0B0FA80F1286842036ED081
:100B200090FAA0F0B0FA80F0814204D10022114680
:100B3000206803F02BF80121206802F0FEFF40033B
:100B400020684FF001015DD002F0F7FF90FAA0F0AD
:100B5000B0FA80F12868420359D090FAA0F0B0FAB8
:100B600080F0814204D100220121206803F00EF8B8
:100B70000221206802F0E1FF400320684FF00201EB
:100B800048D002F0DAFF90FAA0F0B0FA80F12868BD
:100B9000420344D090FAA0F0B0FA80F0814204D130
:100BA00000220221206802F0F1FF0321206802F0F8
:100BB000C4FF400320684FF0030133D002F0BDFFB3
:100BC00090FAA0F0B0FA80F1286842032FD090FA92
:100BD000A0F0B0FA80F0814204D100220321206805
:100BE00002F0D4FF2068816811F0010F22D0ACE040
:100BF00000E004E002F0A1FFC0F384618DE7C0F3E0
:100C0000846091E702F099FFC0F38461A2E7C0F32A
:100C10008460A6E702F091FFC0F38461B7E7C0F3F8
:100C20008460BBE702F089FFC0F38461CCE7C0F3C6
:100C30008460D0E72A7B296850F8B03FC1F3120CDA
:100C400023EA0C0302F0180C744A22FA0CF20A4050
:100C500013430360E968414577D1286841031CD0FC
:100C600090FAA0F1B1FA81F1491C01F01F010929A4
:100C70004FEA403132D8002912D000BF90FAA0F1DB
:100C8000B1FA81F101F1010101F01F0106FA01F64B
:100C900009D100BFC0F3846109E0C0F38461E3E7D8
:100CA000C0F38461EEE790FAA0F1B1FA81F101F1AD
:100CB000010101F01F0146EA816102D1C0F38460A5
:100CC00003E090FAA0F0B0FA80F000F1010000F02B
:100CD0001F0000EB400041EA005132E000290ED035
:100CE00090FAA0F1B1FA81F101F1010101F01F01C7
:100CF00006FA01F606D100BFC0F3846106E0C0F336
:100D00008461F1E790FAA0F1B1FA81F101F10101FA
:100D100001F01F0146EA816102D1C0F3846003E063
:100D200090FAA0F0B0FA80F000F1010000F01F008E
:100D30003B4A00EB400002EB005041EA000141F069
:100D40000071AA68206802F012FF36482B6803423F
:100D50003FF466AE21684FF0A04C334D3348344E1B
:100D6000614501D0A94201D1024600E032469268B5
:100D7000DFF8C08002F0E072434503D0DFF8B880AE
:100D8000434521D15FEA02281ED4614506D02B4B92
:100D900099427FF445AEA94200D0304642F40001AA
:100DA000826822F0E0720A43826025482549006883
:100DB000B0FBF1F0401C00EB4000800000E0401E62
:100DC00000900028FBD12BE6DFF87C8043450DD155
:100DD0005FEAC2180AD4A942F5D01C4B9942F2D05E
:100DE000614500D0304642F080710CE0DFF8608051
:100DF0004345E8D15302E6D4A942E4D0614500D08E
:100E0000304642F48001826822F0E0720A43826038
:100E100006E6000000007F4000F0FF03FFFF070030
:100E2000000020FE00000880000100500003005078
:100E300000070050000021C31000C09000060050C1
:100E40003C000020400D0300000052C70005005088
:100E5000000084CB00280AD000680549884201D1EF
:100E600003F06CBCB0F1A04F01D103F0EDBB7047B3
:100E700000010050704703F06DBB0000F8B54FF063
:100E8000000504002E46009502D0E06D10B107E089
:100E90000120F8BD204600F009F9266684F8586064
:100EA00020688168C1F3407119B18168734A1140AB
:100EB000816020688168C1F3007189B98168704AD6
:100EC000114041F0805181606E486F490068B0FB6D
:100ED000F1F04000801C00E0401E00900028FBD193
:100EE00020688168C1F3007141B9E16D41F01001E2
:100EF000E165216E41F001012166012502F027FE26
:100F0000E16DC90600D430B1E06D40F01000E0653D
:100F100001252846F8BDE06D20F4807040F0020005
:100F2000E0652068816811F0010F27D14FF0A043E0
:100F3000564A984201D0904204D19968966801F0CF
:100F400001010AE052498968524E01F00101B66878
:100F500006F001063143504EB66806F001063143F3
:100F60000CD1984201D0904201D14C4800E04C484D
:100F70006168826822F47C120A438260E168E06B57
:100F8000627F0843A16841EA4231084394F8241083
:100F900040EA0140012904D1218D424A02EB41413E
:100FA0000843E16A29B101F47871226B014342EAF6
:100FB00001002268D1683C4B19400143D160206890
:100FC0000169626B21F0406111430161206802F008
:100FD000BAFD70BB207F94F838102268800340EA85
:100FE0004100D16844F2020399430143D160206972
:100FF0000028206801690AD041F48031016120682D
:1010000050F8C01F22696FF30D01114307E021F46E
:1010100080310161206850F8C01F6FF30D0101603D
:1010200094F8400001280CD02068016921F00101EA
:101030000161606901282068016B21F00F0111D066
:1010400013E0D4E911010843D4E913121143084312
:1010500021680A6940F2FC739A43104340F0010092
:101060000861E6E7226A521E11430163E06D20F039
:10107000020040F00100E0654BE70000C0FFFF5FA9
:10108000C0FFFF7F3C000020400D03000001005026
:1010900000040050000500500006005000030050FE
:1010A000000700500000FEFF0740F0FF2DE9F04F61
:1010B0009BB00646142115A8FFF7ECF954216846A9
:1010C000FFF7E8F94FF400423168002590034B4FD9
:1010D0004B4C4FF003084FF080094FF4807A4FF4E7
:1010E000806BB1F1A04F10D0464B994252D1119074
:1010F0000092684601F0CAFB08B1FFF778FB386838
:10110000401C3860012848D04FE01190009268469A
:1011100001F0BCFB08B1FFF76AFB3868401C38607F
:10112000012807D1E06C40F40050E064E06C00F46A
:1011300000501A90E06C40F00400E064E06C00F0B5
:1011400004001A90E06C40F00100E064E06C0227BB
:1011500000F001001597CDE916851A90444615A9AF
:10116000294800F017FA15A94FF090401597CDE9DE
:10117000164500F00FFA264C244820600520C4E9EB
:1011800001052020C4E906B00002206220462AE0C2
:101190007465A6621BB0BDE8F08FE06C40F40050AF
:1011A000E064E06C00F400501A90E06C40F0040041
:1011B000E064E06C179500F004001A900120CDE97E
:1011C000150815A9104800F0E5F91048104C143026
:1011D000603420602420C4E901052020C4E906B061
:1011E00000022062204604F10C0181E8200600F094
:1011F00005F90028CCD0FFF7FAFAC9E70C00002067
:1012000000100240000100500008004808000240A1
:10121000380100202DE9F047044600684FF0A0484F
:101220003D4F91468A46404501D0B84201D13B49E5
:1012300000E03B49896801F01F0502F088FC0028A6
:1012400068D194F85800012864D0012084F858002F
:1012500034492068884201D1012000E00020401E6E
:1012600028424FF0000605D0052D03D0092D01D0EE
:10127000012003E02046FFF7EFF918B184F8586029
:10128000BDE8F087E06D40F60161884340F480706E
:10129000E0652068B84201D1414605E02249884214
:1012A00001D1224900E00146814200D01DB9E06D24
:1012B00020F48010E065E06DC00404D5206E20F0BD
:1012C0000600206600E02666616D1948C862616DFF
:1012D00018480863616D1848486321681C2008603D
:1012E00084F858602068416841F01001416020682E
:1012F000C16841F00101C16021684B46524640314E
:10130000606D00F0DDF821688A680C4B1A40121DF0
:101310008A60B5E70220B3E70001005000030050E7
:101320000007005000060050000500500004005067
:101330005B050008DD050008C3050008C0FFFF7F4E
:10134000F0B4016C0C6801680D6890F8442002F05C
:101350001F06042202FA06F3234211D06B070FD5B1
:101360000B689B0603D40B6823F004030B6090F812
:10137000441001F01F018A40016C4A60016B1DE0BE
:10138000022303FA06F727424FF0000C4FF0010248
:1013900018D0AF0716D50C68A40605D40C6824F045
:1013A0000A040C6080F8252090F8441001F01F0119
:1013B0008B40016C4B6080F824C0C16A00291AD0B0
:1013C000F0BC08470823B340234214D02B0712D5A2
:1013D0000B6823F00E030B6090F84410036C01F0CF
:1013E0001F0102FA01F15960C26380F8252080F8DC
:1013F00024C0416BE2E7F0BC7047000070B5040008
:101400000CD02C4A21681420914209D22A4A0A445D
:10141000B2FBF0F08000606428480AE0012070BD53
:10142000244A52420A44B2FBF0F080006064214832
:1014300008382064022084F825000A6847F6F07016
:101440008243D4E902031843D4E904352B431843FB
:10145000A3691843E3691843236A184310430860DB
:101460002046FFF769F9A0680025B0F5804F00D14C
:1014700065602079A16C00F07F000860D4E9130159
:1014800041606068401E032808D82046FFF778F9BD
:10149000606D0560D4E91601416002E06565A565EF
:1014A000E565E563012084F8250084F824500020D8
:1014B00070BD000008040240F8FFFDBF00000240BC
:1014C00070B5044690F82400002501280CD00120B6
:1014D00084F8240094F825600020012E06D084F8BA
:1014E00024000225284670BD022070BD022684F823
:1014F0002560E0632068066826F001060660204645
:10150000FFF752F9206B00282068016802D041F0F3
:101510000E0106E021F0040101602068016841F03D
:101520000A010160A06C0168C90303D5016841F498
:1015300080710160606D18B1016841F480710160D3
:101540002068016841F001010160CBE770B50446F5
:1015500000F040F90546601C02D00448406804448D
:1015600000F038F9401BA042FAD370BD30000020D3
:10157000202802D1102003F0E9B87047044910B5C3
:101580000A68024202D00860FFF7F2FF10BD0000B7
:10159000140401402DE9F04FDFF80C9200230126DE
:1015A0000325A9F1040B85B00F2709F1040AABF15B
:1015B000040EF1E006FA03FC12EA0C027ED00C796C
:1015C00004F00304012C01D0022C20D18468009483
:1015D0005C0005FA04F80494009C24EA08040094D2
:1015E000D1F80C80049C08FA04F8009C48EA04082E
:1015F000C0F80880446824EA0C0491F804C0CCF3D5
:10160000001C0CFA03FC4CEA040CC0F804C00C7972
:10161000E443A40702D18C68012C0ED0C4684FEAC1
:10162000430805FA08FC24EA0C04D1F808C00CFAB7
:1016300008FC4CEA040CC0F80CC00C7904F003045C
:10164000022C16D1DC0800EB840CCDF808C0DCF8C5
:1016500020C05C074FEAD46807FA08F42CEA040CAF
:101660000C6904FA08F444EA0C04DDF808C0CCF86C
:10167000204004684FEA430805FA08FC24EA0C04F9
:1016800091F804C00CF0030C0CFA08FC4CEA040CB2
:10169000C0F800C04C6814F4403F7CD0434CD4F8F0
:1016A00060C04CF0010CC4F860C0246E23F0030C41
:1016B00004F0010400943E4C644400E06BE00294AA
:1016C000A4684FEA837C4FEA1C7807FA08FC24EAF6
:1016D0000C04B0F1904F06D0DFF8D8C0604505D1BA
:1016E0004FF0010C20E04FF0000C1DE0DFF8C8C007
:1016F000604502D14FF0020C16E0DFF8C0C0604533
:1017000002D14FF0030C0FE0DFF8B4C0604502D106
:101710004FF0040C08E0DFF8ACC0604502D14FF098
:10172000050C01E04FF0060C0CFA08FC4CEA040C26
:10173000029CC4F808C0D9F80040CC46D1F8048017
:1017400094435FEAC82800D51443CCF80040DAF887
:101750000040D446D1F8048094435FEA882800D53D
:101760001443CCF80040DBF80040DC46D1F804809C
:1017700094435FEA883800D51443CCF80040DEF883
:101780000040F446D1F8048094435FEAC83800D59D
:101790001443CCF800405B1C0C682246DC407FF40C
:1017A00009AF05B0BDE8F08F080401400010024009
:1017B000000001400004004800080048000C0048F8
:1017C00000100048001400480AB18161704781622E
:1017D000704700000148806870470000300000201A
:1017E00030B590F8DD30022B15D090F8DC30012BAD
:1017F00011D0012380F8DC30022480F8DD40002481
:10180000202949D00EDC042934D006DC012923D05C
:10181000022911D126E0022030BD082930D010293C
:101820000AD133E040293DD0802943D0B1F5807FF3
:1018300046D0B1F5007F49D0072180F8DD1080F84F
:10184000DC4000BF90F8DD10072945D080F8DD307E
:1018500080F8DC40002030BD0168D1F8005462F30C
:10186000040504E00168D1F8005462F38A15C1F858
:101870000054E7E70168D1F8005462F31035F6E749
:101880000168D1F8005462F39645F0E70168D1F899
:10189000005462F31C65EAE70168D1F8045462F36E
:1018A000040504E00168D1F8045462F38A15C1F814
:1018B0000454C7E70168D1F8045462F31035F6E721
:1018C0000168D1F8045462F39645F0E70168D1F855
:1018D000045462F31C65EAE7012030BDF0B590F8CE
:1018E000DD30022B1AD090F8DC30012B16D0012607
:1018F00080F8DC60022380F8DD300468D4F880537F
:10190000D4F8FC33002720296ED00EDC04293DD00A
:1019100006DC012922D0022911D12AE00220F0BDE3
:10192000082940D010290AD14AE040297ED08029D8
:1019300077D0B1F5807F75D0B1F5007F73D00722E5
:1019400080F8DD2080F8DC7090F8DD20072A6BD06D
:101950001029016869D2C1F88053C9E025F4E02C50
:101960001568526805F4E02545EA0C05C4F8BC2367
:10197000EAE725F4601C15684FF4601E0EEAC50501
:10198000526845EA0C05C4F8C023DDE725F0E07C89
:1019900015684FF0E07E0EEA8515526845EA0C05A1
:1019A000C4F8C423D0E725F0606C15684FF0606E72
:1019B0000EEA4525526845EA0C05C4F8C823C3E77A
:1019C00023F0070C1368C3F3024343EA0C03D4F873
:1019D000F8C32CF01F0CC4F8F8C30468D4F8F8C39B
:1019E000127902F01F0216E023F0700C13684FF01A
:1019F000700E0EEA133343EA0C03D4F8F8C32CF448
:101A0000787CC4F8F8C30468D4F8F8C352684FF47B
:101A1000787E0EEA42124CEA020CC4F8F8C393E74F
:101A200004E01BE032E047E05EE05FE023F4E06CBE
:101A300013684FF4E06E0EEA132343EA0C03D4F864
:101A4000F8C32CF4F84CC4F8F8C30468D4F8F8C30D
:101A500052684FF4F84E0EEA8222DCE723F4E04CA1
:101A600013684FF4E04E0EEA131343EA0C03D4F864
:101A7000F8C32CF4F81CC4F8F8C30468D4F8F8C30D
:101A800092884FF4F81E0EEA0242C4E723F4E02CD9
:101A9000136803F4E02343EA0C03D4F8F8C32CF0F2
:101AA000787CC4F8F8C30468D4F8F8C392884FF07F
:101AB000787E0EEA4252AEE723F4E00C13684FF44E
:101AC000E00E0EEA031343EA0C03D4F8F8C32CF03B
:101AD000F84CC4F8F8C30468D4F8F8C312794FF08E
:101AE000F84E0EEA826296E70120F0BDC1F8FC33A1
:101AF00080F8DD6080F8DC700020F0BD7047704732
:101B0000704770477047704770477047704710B50F
:101B100090F8DC20012A21D0012280F8DC20022369
:101B200080F8DD304B1C1BD00368D3F8CC4344F065
:101B30000204C3F8CC430368D3F8CC4324F00C046C
:101B40000C43C3F8CC430168D1F8CC3343F0010314
:101B5000C1F8CC3380F8DD20002010BD022010BD7C
:101B60000168D1F8CC3323F00203C1F8CC33EAE7A3
:101B700070B590F8DD30022B3CD090F8DC30012BB2
:101B800038D0012500F8DC5F022343701388948865
:101B900003F4E053C4F308041C4313896FF07E463A
:101BA00003F400732343148A04F480441C43938990
:101BB00003F400432343948A06EA04441C439369D4
:101BC00003F000732343146AD26904F080441C4379
:101BD00002F00042224350F8DC3CB82404EBC1146C
:101BE0001959054E314011431951457000210170BA
:101BF000084670BD022070BD0020003C7047704751
:101C00007047082002F0A2BD70477047704700007F
:101C100030B590F8DD30022B14D090F8DC30012B79
:101C200010D0012380F8DC30022480F8DD4000244D
:101C300008293FD008DC01291AD0022922D0042922
:101C400006D12CE0022030BD10293ED0202946D0FC
:101C5000072180F8DD1080F8DC4000BF90F8DD102F
:101C6000072949D080F8DD3080F8DC40002030BD05
:101C70000168D1F80854926825F0030545EA42024C
:101C8000521C09E00168D1F80854926825F44075A7
:101C900045EA422242F48072C1F80824DEE7016876
:101CA000D1F80854128925F4403545EA424242F4FD
:101CB0008032F1E70168D1F80854127A25F04075B6
:101CC00045EA426242F08072E6E70168D1F80C54BE
:101CD000926825F0030545EA4202521C09E00168BA
:101CE000D1F80C54926825F4407545EA422242F43A
:101CF0008072C1F80C24B1E7012030BD2DE9F04F0E
:101D000090F8DD30022B26D090F8DC30012B22D069
:101D10004FF0010B80F8DCB0022380F8DD3007685B
:101D2000D7F8D043D7F8D43315784FF4007805F0BE
:101D30000106C5F340054FF4F04C4FF400494FF055
:101D4000000A08297ED009DC012935D0022947D0B4
:101D5000042907D159E00220BDE8F08F10296FD087
:101D600020296ED0072180F8DD1080F8DCA000BFAC
:101D700090F8DD1007297CD004F07F31C7F8D0132C
:101D8000056848F2800123EA0102C5F8D4230268FD
:101D9000D2F8D05304F080342543C2F8D0530268FF
:101DA000D2F8D4430B401C43C2F8D44380F8DDB0D2
:101DB00080F8DCA00020CFE7117924F0FE0401F0C8
:101DC0000201214341EA860423F4803141EA0543BC
:101DD000117A127B01F07801214302F0800412E0B5
:101DE000516824F47E4408EA0121214341EA862413
:101DF00023F4003141EA454391680CEA0121214373
:101E0000D46809EA04240C43B2E791884FF4003CFB
:101E100024F47E040CEA0141214341EA864423F480
:101E2000802141EA854311894FF4F00505EA01411B
:101E3000214392894FF4000404EA0244E3E701E0FD
:101E40001BE02EE011794FF0007C24F07E440CEA78
:101E50000161214341EA866423F4002141EAC5433C
:101E6000117A4FF0F04505EA01612143127B2C0104
:101E700000E02BE004EA0264C5E7117923F0FE03D9
:101E800001F00201194341EA860121F4801141EA7F
:101E90000553117A127B01F07801194302F0800397
:101EA00012E0516823F47E4308EA0121194341EA14
:101EB000862121F4001141EA455391680CEA012181
:101EC0001943D36809EA03230B4351E7012043E791
:101ED00030B590F8DD30022B14D090F8DC30012BB7
:101EE00010D0012380F8DC30022480F8DD4000248B
:101EF000082941D008DC01291AD0022923D004295D
:101F000006D12EE0022030BD102940D0202949D032
:101F1000072180F8DD1080F8DC4000BF90F8DD106C
:101F200007294DD080F8DD3080F8DC40002030BD3E
:101F300011685268890041EAC2120168D1F8085458
:101F400025F0BC0509E011685268890241EAC232F5
:101F50000168D1F8085425F43C452A43C1F8082407
:101F6000DCE711889288890441EAC2520168D1F8FD
:101F7000085425F43C05F0E711781279890641EA06
:101F8000C2720168D1F8085425F03C45E5E71168B4
:101F90005268890041EAC2120168D1F80C5425F058
:101FA000BC0509E011685268890241EAC232016841
:101FB000D1F80C5425F43C452A43C1F80C24ADE774
:101FC000012030BD10B5CB0706D00368D3F8D0434D
:101FD00062F30004C3F8D0438B0706D50368D3F837
:101FE000D04362F30824C3F8D0434B0706D50368F7
:101FF000D3F8D04362F31044C3F8D0430B0706D59F
:102000000368D3F8D04362F31864C3F8D043CB0617
:1020100006D50368D3F8D44362F30004C3F8D4436D
:10202000890606D50068D0F8D41362F30821C0F8F9
:10203000D41310BD10B590F8DD20022A18D090F806
:10204000DC20012A14D0012200F8DC2F0223437087
:1020500050F8DC3CD3F8D44301F0407124F04074D4
:102060000C43C3F8D443427000210170084610BDF0
:10207000022010BDFF2903D0062903D001F0DCBBEC
:1020800001F056BA01F0F1BA38B5040056D002207A
:1020900084F8DD000025C4F8E050C4F8E450C4F82A
:1020A000E850C4F8EC50C4F8F050C4F8F450C4F848
:1020B000F850207AC0071BD021492068884208D1F7
:1020C0002048016E41F080610166006E00F0806082
:1020D00000902168086820F44042208A00F44040C3
:1020E000104320F44052A08A00F44050104308608E
:1020F000204600F029F8207A800708D52168086872
:1021000020F44072A08900F4407010430860012060
:1021100084F8DD0084F8DC505FF00001C1EBC10001
:1021200004EB8000491C8561C561056245628562DA
:10213000C9B205630629F1D9002038BD012038BD98
:10214000006801400010024010B586B0044614211A
:102150006846FEF79FF916492068884226D115483F
:10216000016E41F080610166016E01F080610591B0
:10217000C16C41F00201C164C06C694600F002000C
:1021800005904FF4806000900220019000200290A2
:1021900003900D2004900848FFF7FCF90022114637
:1021A000492000F0DBFA492000F0CAFA06B010BD61
:1021B00000680140001002400004004810B586B0DD
:1021C000044614216846FEF765F90F4920688842E5
:1021D00018D10E48C16C41F00101C164C06C694660
:1021E00000F0010005904FF4706000900220019013
:1021F00000200290032003900D2004904FF09040A7
:10220000FFF7C8F906B010BD006801400010024099
:10221000704770477047704770B50D460446FFF72A
:10222000D9FA064607E0681C05D0FFF7D3FA801BF1
:10223000A8420DD865B12068D0F88803C043C00318
:10224000F1D4012084F8DD00002084F8DC0070BDAA
:10225000072084F8DD00032070BD7047704770B51B
:1022600090F8DD30022B1DD090F8DC30012B19D016
:10227000012380F8DC30022480F8DD40EC2504687E
:1022800005EBC1156159CE0605D54FF6C076B143B1
:1022900032400A43625180F8DD30002180F8DC10C2
:1022A000084670BD022070BD7047704770B590F849
:1022B000DD30022B23D0022380F8DD30062920D028
:1022C0008023046803EBC115635923F00706936864
:1022D000334323F01806D3683343635194250468CD
:1022E00005EBC115136863519824036804EBC11111
:1022F00052685A50012180F8DD10002070BD022084
:1023000070BD0368196821F007049168214321F02A
:102310001804D16821431960036811685961516834
:1023200002689161E6E72DE9F04F90F8DD40022C5C
:1023300025D090F8DC40012C21D04FF0010980F825
:10234000DC90022480F8DD4000274FF0070C0629BE
:1023500018D09C2404EBC116012A39D08024A8256A
:102360004FF4005A4FF4405B05EBC11504EBC11468
:10237000022A2FD0042A45D0082A0BD144E002209B
:10238000BDE8F08F012A0AD0022A0CD0042A0ED010
:10239000082A10D080F8DDC080F8DC700EE00268FA
:1023A0001968D1610AE002681968516206E00268A2
:1023B0001968916202E002681968D16290F8DD1034
:1023C000072948D080F8DD9080F8DC700020D7E73E
:1023D000196835E04FF0A408D0F800C008EBC1112F
:1023E0001A684CF801205968002901680A5922F43A
:1023F00040522ED00A5101680A59D3F804C042EA6B
:102400000C0218E0196821E04FF0AC08D0F800C0C9
:1024100008EBC1111A684CF80120596800290168BD
:102420000A5922F4404214D00A5101680A59D3F8DB
:1024300004C042EA8C020A515968514503D1996897
:1024400002689151BAE75945B8D19968026851516B
:10245000B4E70A51B2E7012092E710B590F8DC200A
:10246000012A0ED0012200F8DC2F0223437050F81D
:10247000DC3C1C680C431C60427000210170084663
:1024800010BD022010BD10B590F8DC20012A0ED03E
:10249000012200F8DC2F0223437050F8DC3C1C685A
:1024A0008C431C60427000210170084610BD022060
:1024B00010BD70B5044690F8DD00022811D094F8E4
:1024C000DC0001280ED0012584F8DC50022084F8BD
:1024D000DD00204601F041F984F8DD50002084F849
:1024E000DC0070BD022070BD10B590F8DC20012A20
:1024F00010D0012200F8DC2F0223437050F8DC3C9E
:10250000D3F898430C43C3F89843427000210170FC
:10251000084610BD022010BD2DE9F041044690F898
:10252000DD0015460E46022826D094F8DC0001286E
:1025300021D0012784F8DC70022084F8DD00062E0B
:102540001CD0204601F02CFAC6EBC60004EB80003C
:102550002968016269684162A9688162E968C162AB
:10256000296901633146204600F0AEFF062E15D0E2
:10257000E86A40B112E00220BDE8F0811146204631
:1025800001F02AF8E0E78021206801EBC6114258EB
:10259000EB6D22F4007242EA4322425084F8DD706F
:1025A000002084F8DC00E7E770B590F8DD30022BFE
:1025B00023D090F8DC30012B1FD0012380F8DC30D1
:1025C000022480F8DD40EC25046805EBC115615953
:1025D000166821F0100141EA061121F480165168B5
:1025E000314321F48036D168314321F400369168BB
:1025F00031439669012E02D00BE0022070BD21F01C
:1026000004061169314321F002065169314341F05A
:102610000101615180F8DD30002180F8DC100846AE
:1026200070BD000070B5040013D021684CF6CC409A
:102630000860216845F255500860D4E90001416006
:102640002168A0688860FFF7C5F8054641F60106D5
:102650000DE0012070BD00BFFFF7BCF8401BB04289
:1026600005D92068C068400701D0032070BD2068EC
:10267000C0684007F0D120680269E1688A4201D051
:10268000016102E04AF6AA210160002070BD0068E5
:102690004AF6AA21016000207047000002488168C4
:1026A00042681144816070473000002010B500245A
:1026B000032000F073F80F2000F008F808B101249F
:1026C00001E000F025F8204610BD000070B50E4E68
:1026D00005460024706898B14FF47A71B1FBF0F0B0
:1026E0000A490968B1FBF0F000F09AFD40B9102DDD
:1026F00006D200222946501E00F030F8356000E076
:102700000124204670BD0000300000203C00002065
:102710000A4882B0016E41F001010166016E01F0CC
:1027200001010091816D41F080518165806D00F063
:102730008050009002B000F0A1B8000000100240EC
:10274000002809DB00F01F020121914040098000B0
:1027500000F1E020C0F8001170470000F0B40E4B0B
:102760001B680C46C3F30223C3F10705042D00D9EF
:102770000425191D072901D2002300E0DB1E0126D4
:1027800006FA05F1491E214099409E40761E1640EA
:102790003143F0BC02F0E4BA0CED00E0064900F071
:1027A000070208684FF6FF03184040EA0220034A78
:1027B00010430860704700000CED00E00000FA05CF
:1027C0002B492C4B0A6832214A432B4940B1B0F5C2
:1027D000007F086829D020F4C06040F480602CE0BD
:1027E0000868C0F34120022804D051F8800F20F47B
:1027F000807022E0D1F8800020F48070C1F8800061
:10280000086820F4C06040F400700860B2FBF3F088
:10281000401C00E0401E4A69520501D50028F9D14C
:10282000486940050AD503207047C0F341200228BB
:1028300006D051F8800F40F4807008600020704787
:10284000D1F8800040F48070C1F88000086820F45E
:10285000C06040F400700860B2FBF3F0401C00E080
:10286000401E4A695205DBD50028F9D1D8E700009F
:102870003C00002040420F00007000400248816888
:1028800041F4804181607047007000402DE9F843B9
:10289000044600680026BB4D00035ED5A86D0027E6
:1028A000C00008D4A86D40F08050A865A86D01272D
:1028B00000F080500090DFF8D092D9F8001041F479
:1028C0008071C9F80010FEF785FF804606E000BF62
:1028D000FEF780FFA0EB080002282BD8D9F80000F3
:1028E000C005F5D5D5F8900010F4407014D0216DD6
:1028F000814211D0D5F89000D5F8901020F44070A6
:1029000041F48031C5F89010D5F8901021F4803151
:10291000C5F89010C5F89000C00711D0FEF75AFF17
:10292000804641F2883907E0FEF754FFA0EB08012A
:10293000494501D903260BE0D5F890008007F3D56F
:10294000D5F89000216D20F440700843C5F8900040
:102950001FB1A86D20F08050A8652078C00707D06F
:10296000D5F88800616820F003000843C5F88800A6
:102970002078800707D5D5F88800A16820F00C00E2
:102980000843C5F888002078400707D5D5F88800A7
:10299000E16820F030000843C5F88800207800077F
:1029A00007D5D5F88800216920F0C0000843C5F894
:1029B00088002078C00607D5D5F88800616920F422
:1029C00040700843C5F888002078800607D5D5F800
:1029D0008800A16920F440600843C5F88800207889
:1029E000400607D5D5F88800E16920F44050084337
:1029F000C5F888002078000607D5D5F88800216A38
:102A000020F440400843C5F888002088C00507D559
:102A1000D5F88800616A20F440300843C5F8880082
:102A20002068800307D5D5F89C00A16A20F0030038
:102A30000843C5F89C002088800507D5D5F8880094
:102A4000E16A20F440200843C5F88800208840054A
:102A50000FD5D5F88800216B20F440100843C5F845
:102A60008800206BB0F5801F03D1E86840F4801027
:102A7000E860208800050FD5D5F88800616B20F448
:102A800040000843C5F88800606BB0F5800F03D1A3
:102A9000E86840F48010E8602088C0040FD5D5F8BD
:102AA0008800A16B20F040700843C5F88800A06B37
:102AB000B0F1807F03D1E86840F48010E86020889E
:102AC0004FF0006180040ED5D5F88800E26B20F04D
:102AD00040601043C5F88800E06B884203D1E86885
:102AE00040F48010E860208840040ED5D5F88800B6
:102AF000226C20F040601043C5F88800206C8842AA
:102B000003D1E86840F48010E860208800040FD505
:102B1000D5F88800616C20F040500843C5F8880063
:102B2000606CB0F1805F03D1E86840F48030E86009
:102B30002068C0030FD5D5F88800A16C20F0404074
:102B40000843C5F88800A06CB0F1804F03D1E86855
:102B500040F48030E860206840030FD5D5F89C0031
:102B6000E16C20F440100843C5F89C00E06CB0F51F
:102B7000001F03D1E86840F48010E8603046BDE8EB
:102B8000F883000000100240007000402DE9F0477B
:102B90000E4605004FF0000725D0DFF8AC81D8F8CD
:102BA000000000F00F00B0420CD2D8F8001021F065
:102BB0000F013143C8F80010D8F8000000F00F00F2
:102BC000B04210D12968614CC80741F2883A5AD006
:102BD0006868DFF87C91032808D0022820682DD08F
:102BE000400500282CDB0120BDE8F087206880012B
:102BF000F9D5E06800F00302E068C0F30310401C60
:102C0000032A19D0534A00BFB2FBF0F0E268C2F3C6
:102C100006225043E268C2F34162521C5200B0FBEC
:102C2000F2F0484517D9A06810F0F00F0CD08807D3
:102C300011D5A86840B10EE0474AE5E78003D0E728
:102C400000F0B6F8484506D9A06820F0F00040F042
:102C50008000A0608027A068696820F00300084316
:102C6000A060FEF7B7FD814606E000BFFEF7B2FDAB
:102C7000A0EB090151453AD8A068696800F00C0042
:102C8000B0EB810FF2D12868810714D5400703D536
:102C9000A06840F4E060A0602878000705D5A0682F
:102CA00020F4605040F4E060A060A068A96820F0C3
:102CB000F000084304E0802F03D1A06820F0F0006A
:102CC000A060D8F80010404601F00F01B14216D9BB
:102CD000016821F00F0131430160FEF77BFD0746DB
:102CE00007E000BFFEF776FDC11B514501D9032067
:102CF0007AE7D8F8000000F00F00B042F2D128784F
:102D0000400705D5A068E96820F4E0600843A060AA
:102D10002878000706D5A068296920F4605040EAA9
:102D2000C100A06000F044F8A1680C4AC1F303118F
:102D3000515C01F01F01C84009490860094800685A
:102D4000BDE8F047FFF7C2BC00200240001002407F
:102D500000B4C4040024F40000127A00AC56000849
:102D60003C000020300000200548064900688968C2
:102D7000054AC1F30221515C01F01F01C8407047B0
:102D80003C00002000100240BC56000805480649DF
:102D900000688968054AC1F3C221515C01F01F0136
:102DA000C84070473C00002000100240BC5600089C
:102DB000184910B58868C0F381021748012A0BD062
:102DC0008A684310C2F38102022A06D08A68C2F3DD
:102DD0008102032A03D0002010BD184610BDCA6826
:102DE00002F00304CA68C2F30312521C032C02D07F
:102DF000B0FBF2F001E0B3FBF2F0CA68C968C2F3BD
:102E000006225043C1F34161491C4900B0FBF1F077
:102E100010BD0000001002400024F4002DE9F8432A
:102E200004007AD02078F84DC00747D0A868E96838
:102E300000F00C0001F003010C2802D0082817D084
:102E400001E0032914D06068B0F5803F17D0B0F5D9
:102E5000A02F286817D020F480302860286820F43C
:102E6000802028606068E0B1FEF7B4FC064614E0FC
:102E70002868800322D560680028D2D01EE0286828
:102E800040F48030EDE740F480202860F7E700BF91
:102E9000FEF7A0FC801B642870D828688003F7D553
:102EA0000CE0FEF797FC064605E000BFFEF792FC3B
:102EB000801B6428F0D828688003F7D42078800726
:102EC0004CD5A868E96800F00C0001F003010C285B
:102ED00002D004280DD001E002290AD0E0680028C1
:102EE00028682BD040F480702860FEF773FC0646FB
:102EF00019E02868400502D5E068002891D068688C
:102F0000217C20F0FE4040EA01606860BF48006814
:102F1000FFF7DCFB002800D120E072E1FEF75AFC4D
:102F2000801B0228B8D828684005F7D56868217C3E
:102F300020F0FE4040EA016068600FE020F48070FD
:102F40002860FEF747FC064605E000BFFEF742FC9E
:102F5000801B0228A0D828684005F7D420780007F5
:102F600029D560690028D5F8940013D040F00100FD
:102F7000C5F89400FEF72EFC064606E090E000BF80
:102F8000FEF728FC801B022886D8D5F8940080071D
:102F9000F6D510E020F00100C5F89400FEF71AFC09
:102FA000064604E0FEF716FC801B022878D8D5F808
:102FB00094008007F6D42078400761D5A86D0026DC
:102FC000C00008D4A86D40F08050A865A86D012607
:102FD00000F0805000908E480168C90511D4016846
:102FE000804641F480710160FEF7F4FB074604E07F
:102FF000FEF7F0FBC01B022852D8D8F80000C0052D
:10300000F6D5A068012815D00528D5F8900016D06F
:1030100020F00100C5F89000D5F8900020F00400E1
:10302000C5F89000A06841F28838B8B1FEF7D2FB2D
:1030300007460EE0D5F8900040F00100F0E740F0C0
:103040000400C5F89000F5E7FEF7C4FBC11B41453D
:1030500026D8D5F890008007F6D50CE0FEF7BAFB2D
:10306000074604E0FEF7B6FBC11B414518D8D5F86A
:1030700090008007F6D41EB1A86D20F08050A8659E
:103080002078800629D5A0690028D5F8980013D0AB
:1030900040F00100C5F89800FEF79CFB064606E0EC
:1030A00075E000BFFEF796FB801B02286FD8D5F8AD
:1030B00098008007F6D510E020F00100C5F89800D0
:1030C000FEF788FB064604E0FEF784FB801B02281F
:1030D0005DD8D5F898008007F6D4E069F0B3A96808
:1030E000C1F3810103295DD00228286820F0807097
:1030F000286003D0FEF76EFB04464BE0FEF76AFB48
:10310000064604E0FEF766FB801B02283FD82868CD
:103110008001F7D4F4E908016FF00F0202EB01110E
:103120000843218A5204490802EB4151A26841EA4E
:1031300002210843217D4FF07E42490802EB4161A4
:103140000843217B40EAC160E968324A11400843E4
:10315000E860286840F08070286000E05EE0E86881
:1031600040F08070E860FEF735FB044605E000BFE4
:10317000FEF730FB001B022809D828688001F7D52C
:103180004CE000BFFEF726FB001B022802D90320FB
:10319000BDE8F88328688001F4D4E8681E49084037
:1031A000E8603BE00128F3D0E868226A00F0030100
:1031B000914226D1616A00F0F00209011039914272
:1031C0001FD1A26A00F4FE41B1EB022F19D194F88D
:1031D0002C2000F07841B1EBC26F12D1218E00F4A7
:1031E000C00249084905A1F50011914209D194F89E
:1031F000341000F0C06049084906A1F10071814215
:103200000CD00120C4E70000001002403000002074
:10321000007000400C809F01FCFFEEFE0020B7E72D
:1032200010B5401EB0F1807F01D3012010BD4FF0DA
:10323000E02460610F21601701F092FD0020A06181
:1032400007202061002010BD90F88410012918D0BB
:10325000012180F884102421C0F8881001680A68D0
:103260000B6823F001030B6022F00051002242663C
:10327000036819602021C0F8881080F88420104667
:1032800070470220704770B5044690F8840001280A
:103290001DD0012084F884002420C4F88800206810
:1032A0000568026822F0010202602068826822F04C
:1032B00060620A438260204601F094FA206805604B
:1032C0002020C4F88800002084F8840070BD02200B
:1032D00070BD70B5044690F8840001281DD001200F
:1032E00084F884002420C4F88800206805680268F7
:1032F00022F0010202602068826822F060420A43E4
:103300008260204601F06EFA206805602020C4F833
:103310008800002084F8840070BD022070BD10B5C4
:10332000040003D0D4F8880010B107E0012010BDDC
:10333000002084F88400204600F026F82420C4F8F9
:1033400088002068016821F001010160A06A10B1C5
:10335000204601F069FA204601F04AFB0128E6D038
:103360002068416821F4904141602068816821F023
:103370002A0181602068016841F001010160204656
:10338000BDE8104001F0B4BA30B59BB0044614213A
:1033900015A8FDF77FF854216846FDF77BF816491C
:1033A0002068884225D102250024684600950294B1
:1033B000FFF76CFA08B1FDF71AFA1048816D41F475
:1033C00000318165816D01F400311A91C16C41F0C9
:1033D0000801C164C06CCDE9165400F008001A90D1
:1033E000602015900720CDE9184015A90448FEF784
:1033F000D1F81BB030BD0000004400400010024076
:10340000000C00482DE9F84F0446D0F88800984693
:1034100015460E46202802D00220BDE8F88F96B34C
:103420008DB30020C4F890004FF02109C4F88890B3
:103430001834FEF7CFF9A5878246E58754F8100CBB
:10344000183CB0F5805F01D1206910B135460026E7
:1034500000E000255FF02007B4F8560053464FF017
:103460000002CDF80080D8B18021204601F00CFC8C
:10347000D8B955B115F8010B21688862D4F88810C5
:1034800039EA010006D00120C7E736F8020BC0F385
:103490000800F1E7B4F85600401EA4F85600DBE738
:1034A0004021204601F0F0FB18B1C4F888700320D9
:1034B000B3E7C4F888700020AFE70000FF2101489F
:1034C000FEF7D8BDF8010020072912D2DFE801F08D
:1034D0000A12181E242A04000068D0F8841341F050
:1034E000010104E00068D0F8841341F00201C0F843
:1034F000841370470068D0F8841341F00401F6E7A4
:103500000068D0F8841341F00801F0E70068D0F8B3
:10351000841341F01001EAE70068D0F8841341F009
:103520002001E4E70068D0F8841341F04001DEE7B1
:1035300070B506460068D0F88853D0F89043E90784
:1035400007D0E10705D00121C0F88C133046FEF703
:1035500056FBA80708D5A00706D531680220C1F898
:103560008C033046FEF74CFB680708D5600706D58C
:1035700031680420C1F88C033046FEF742FB28076F
:1035800008D5200706D531680820C1F88C033046DD
:10359000FEF73AFBE80608D5E00606D531681020AC
:1035A000C1F88C033046FEF730FB680608D560068C
:1035B00006D531684020C1F88C033046FEF726FB63
:1035C000A80608D5A00606D531682020C1F88C03CE
:1035D0003046FEF76AFE70BD70B503681A68D3F80E
:1035E000A0534C6922F020022646144324F0C00266
:1035F000202E2BD08C69022C28D0032C2BD0042C0D
:103600002ED022F0E00200BF22F40064CA692243F7
:1036100022F480640A6A224322F0C0644A6A224388
:1036200022F000648A6A2243CC6A22F0404242EAD5
:10363000840222F000544A6B096B224325F4803443
:1036400021431A600068C0F8A01370BD22F0C002C8
:1036500042F02002D8E722F0800242F04002D3E795
:1036600022F0400242F08002CEE72DE9F047044606
:103670000068D0F88883D0F890734668C5685FEA20
:10368000C8314FF001090DD5F9030BD54FF4803146
:10369000C0F88C1384F8DD90002084F8DC0020460C
:1036A000FEF734FA5FEA883009D5B80307D52168F8
:1036B0004FF40030C1F88C032046FEF71FFAF007E4
:1036C00008D0E80706D02168C1F8089006212046F6
:1036D000FEF717FAB00708D5A80706D5216802201B
:1036E000886006212046FEF70DFA700708D56807A6
:1036F00006D521680420886006212046FEF703FADB
:10370000300708D5280706D52168082088600621DB
:103710002046FEF7F9F9F00608D5E80606D5216837
:103720001020886006212046FEF798FDB00607D5D8
:10373000A80605D52168202088602046FEF7B4FD44
:10374000700608D5680606D52168402088600621E5
:103750002046FEF782FDBDE8F087F0B50024E426A0
:10376000056806EBC11755F807C0B82606EBC11669
:10377000AE59402A20D00EDC082A2CD006DC012AC3
:103780001AD0022A27D0042A31D115E0102A13D0EA
:10379000202A2CD11FE0B2F5007F1CD005DC802A46
:1037A00019D0B2F5807F22D106E0B2F5806F03D048
:1037B000B2F5006F1BD10EE04FF0BC0E0EEBC11E38
:1037C0005A6845F80E204FF0C00E05680EEBC11187
:1037D0009A686A500BE0C42404EBC1145A682A5159
:1037E000C825046805EBC1119A6862501024FE21B7
:1037F000A1401A682CEA010CA240D96842EA0C02E6
:10380000A14011431A69D3F814C01546A2400A43D7
:103810000CFA04FC99694CEA020CA14041EA0C0143
:10382000082D06D1B20504D4B20102D4DA69A2404F
:1038300011430068C151F0BD2DE9F04107468846AB
:103840000068842202EBC81146588C2202EBC81192
:1038500045584FF08802F30702EBC81407D0E90778
:1038600005D00121015141463846FEF74AF9B0071B
:1038700008D5A80706D539680220085141463846C0
:10388000FEF740F9700708D5680706D539680420A7
:10389000085141463846FEF736F9300708D5280763
:1038A00006D539680820085141463846FEF72CF9FC
:1038B000F00608D5E80606D53968102008514146BB
:1038C0003846FEF7CBFC700608D5680606D5396881
:1038D0004020085141463846FEF7BFFC300608D567
:1038E000280606D539688020085141463846FEF73B
:1038F00006F9F00509D5E80507D539684FF4807059
:10390000085141463846FEF7FBF8B00509D5A80531
:1039100007D539684FF40070085141463846FEF724
:1039200078FC700509D5680507D539684FF48060C3
:10393000085141463846FEF76BFC300509D528058D
:1039400007D539684FF40060085141463846FEF704
:1039500062FCF00409D5E80407D539684FF48050BB
:10396000085141463846FEF755FCB00409D5A80475
:1039700007D539684FF40050085141463846FEF7E4
:10398000C4F8700409D5680407D539684FF480403D
:10399000085141463846FEF731F9BDE8F081000094
:1039A0002DE9F04F8024036804EBC1169C5924F0E4
:1039B00070449C5103689A469D59E82404EBC11455
:1039C000A64653F80490E42404EBC114A3461C5902
:1039D000D3F8A033576925F020053D43202F24D08C
:1039E0009769022F21D0032F24D0042F27D025F44C
:1039F000D07500BF25F40067D5693D4325F4806785
:103A0000156A3D4325F0C067556A3D4325F00067C0
:103A1000956A3D4325F07047D56A3D43576B25F4C1
:103A20000035B7F1005F0FD010E025F4C07545F008
:103A30002005DFE725F4807545F08005DAE725F0FD
:103A4000800545F48075D5E745F4003525F040073D
:103A5000956BD2F850802F4327F4802C976D47EA5E
:103A60000C07DFF8D0C007EA0C0748EA070892F80D
:103A70003C7029F03F0C07F03F0747EA0C0727F09E
:103A8000004C176C47EA0C0725B924F4807C546C71
:103A900044EA0C04D2F848C0BCF5606F02D0BCF513
:103AA000F05F01D1402D03D124F4F0544CEA04041A
:103AB00024F48045D46C2C43556D062927D2DFE8C9
:103AC00001F003090F151B21126B23F4003343EAA5
:103AD00042031CE0126B23F4802343EA820316E0C6
:103AE000126B23F4002343EAC20310E0126B23F4A9
:103AF000801343EA02130AE0126B23F4001343EA33
:103B0000421304E0126B23F4800343EA82134AF861
:103B10000680066846F80E70066846F80B40D42406
:103B2000026804EBC11155500068C0F8A033BDE82D
:103B3000F08F0000FFFF06FEFEE700EB8100006E45
:103B400000F0F84070478068C0F3C000704780689C
:103B5000C0F3800070478068C0F380007047C06881
:103B600010F4406F01D000207047012070470423FB
:103B700003EAD15310B518444369C1F30451072433
:103B80008C40A3438A401343436110BD00EB810086
:103B9000016E21F0004111430166704710B58CB0F1
:103BA000002408940994202168460A94FCF772FCCA
:103BB00025484FF0A041082201604FF40021C0E9E0
:103BC0000114C46001210461C0E90512047744773F
:103BD0000222026280F824404FF4D462C2628A0258
:103BE000026380F838100903C16380F84040FDF794
:103BF00045F908B1FCF7FBFD08A913480894FCF748
:103C000045FE08B1FCF7F3FD104800900620019036
:103C1000032002907F2003900420CDE9040469462C
:103C20000948FCF7E3FE08B1FCF7E1FD0848009005
:103C30000C20019069460448FCF7D8FE002801D00A
:103C4000FCF7D5FD0CB010BD60000020040060083A
:103C50008000501D30B589B020216846FCF71AFC61
:103C60001B481A4900240160C902C0E90114C4605C
:103C700004250461C0E90545047744770121016208
:103C800080F824404FF4D462C2628A02026380F852
:103C900038100903C16380F84040FDF7EFF808B120
:103CA000FCF7A5FD0B480090062001900320029030
:103CB0007F200594CDE9030569460548FCF796FE8B
:103CC000002801D0FCF793FD09B030BD0001005081
:103CD000CC00002040002019114808B5816C41F04B
:103CE00004018164816C01F004010091816C41F058
:103CF00001018164806C002200F00100009002212B
:103D00000B20FEF72BFD0B20FEF71AFD00220121F0
:103D10000C20FEF723FDBDE808400C20FEF710BD87
:103D2000001002402DE9F04387B014216846FCF7EB
:103D3000B1FB3D48C16C41F01001C164C16C01F0A0
:103D400010010591C16C41F02001C164C16C01F00A
:103D500020010591C16C41F00401C164C16C01F006
:103D600004010591C16C41F00101C164C16C01F015
:103D700001010591C16C41F00201C164C16C01F007
:103D800002010591C16C41F00801C164C06C4FF49F
:103D9000004500F008004FF09047059000222946AA
:103DA0003846FDF711FDDFF884800022802140466F
:103DB000FDF70AFDDFF87890002201214846FDF763
:103DC00003FD202000904FF404100024CDE90104ED
:103DD00069464846FDF7DEFB00950226012503965D
:103DE000CDE9015469463846FDF7D4FB80200090A8
:103DF00001AA112082E8510069464046FDF7CAFB3E
:103E00000095CDE90154694648460394FDF7C2FB8D
:103E1000002203211720FEF7A1FC1720FEF790FCDB
:103E200007B0BDE8F0830000001002400004004825
:103E300000100048F0B5C1B0002439943A9434948D
:103E40003594389436943E943F94379429942A9428
:103E50002B94602168462C94FCF71CFB3B943C940B
:103E60001C212DA83D94FCF715FB242120A8FCF76C
:103E700011FB202118A8FCF70DFBA1489F49042540
:103E80008460C0E90015FEF7FFF808B1FCF7AFFC4D
:103E90000C219B48FDF73BFE08B1FCF7A8FC0A216A
:103EA0009748FEF7B9F908B1FCF7A1FC0021944846
:103EB000FEF7C0F808B1FCF79AFC3894399438AA98
:103EC00004218F483A94FEF703F808B1FCF78FFC01
:103ED00038AA04218A48FDF79BFE08B1FCF787FC4D
:103EE00034943594369434AA042185483794FDF7E8
:103EF00005FF08B1FCF77BFC012204218048FEF796
:103F000061F80220CDE93E403EAA01217C48FDF740
:103F1000E5FC08B1FCF76BFC002201217848FDF7B5
:103F20005FFC08B1FCF763FC29AA48F2D0400826E0
:103F300082E8710006217248FEF7B8F908B1FCF773
:103F400056FC0094019401270294CDE9034708949C
:103F50000594069407940D9409940A940B940C9478
:103F60006A46062166481794FEF7D6FA08B1FCF7B0
:103F70003EFC44F268203B903BAB022206216048A5
:103F8000FEF7D1F908B1FCF732FC03202B9029AAE7
:103F900000215B48FEF78AF908B1FCF728FC309451
:103FA0002DAA002156482D973394FEF7FDFA08B14B
:103FB000FCF71DFC4FF4A07200215148FEF74FF9A9
:103FC00008B1FCF714FC00944FF000600A900DA9B2
:103FD0000194800081E831004015CDE91040129431
:103FE000149415946A46002145481694FEF794FAF5
:103FF00008B1FCF7FCFB6A4601214148FEF78CFA48
:1040000008B1FCF7F4FB3BAB012200213C48FEF772
:104010008AF908B1FCF7EBFB4FF440602090552083
:10402000CDE92104CDE9244023942694279420AAA5
:10403000002133482894FDF79BFD08B1FCF7D7FB1E
:1040400020AA01212E48FDF793FD08B1FCF7CFFB14
:10405000CDE918462020CDE91C401A941B941E94EB
:1040600018AB0122002126481F94FEF722FA08B15E
:10407000FCF7BDFB18AB042201212148FEF719FA19
:1040800008B1FCF7B4FB18AB022200211C481994BC
:10409000FEF70FFA08B1FCF7AAFB18AB08220121C2
:1040A0001748FEF706FA08B1FCF7A1FB29AA01217F
:1040B0001348FEF7FBF808B1FCF799FB2DAA012184
:1040C0000F48FEF771FA08B1FCF791FB45F2401278
:1040D00001210B48FEF7C3F808B1FCF788FB012269
:1040E0003BAB11460648FEF71EF908B1FCF77FFB13
:1040F0000348FEF763F841B0F0BD000000680140DE
:10410000F80100200A4810B5084901600421416007
:1041100040F6FF71C160F9218160FEF783FA002843
:1041200003D0BDE81040FCF762BB10BD003000407A
:10413000F4020020184810B5164901604FF4E1213F
:104140004160002181600C22C160C0E904128161DC
:10415000C161016241628162FFF7E1F808B1FCF7D9
:1041600046FB00210C48FFF7B4F808B1FCF73FFB11
:1041700000210948FFF787F808B1FCF738FB06482B
:10418000FFF762F8002803D0BDE81040FCF72FBB12
:1041900010BD00000044004004030020FEE7FEE7DD
:1041A00070B500240021204600F0A1F80025002071
:1041B00000F091F96D1CEDB2802DF8D3641CE4B2CF
:1041C000082CEFD370BD10B5012000F057F9BDE801
:1041D0001040012000F060B970B50024064680252B
:1041E00025FA04F0304000D0012000F055F90120FC
:1041F00000F044F9002000F041F9641CE4B2082CFE
:10420000EED3012000F03AF9BDE87040002000F044
:1042100035B910B5012000F03FF9012000F02EF96A
:10422000002000F039F9BDE81040002000F026B968
:1042300010B5002000F030F9012000F01FF9BDE8B2
:104240001040012000F028B910B5FFF7BCFFAE20E8
:1042500000F030F9D52000F02DF9802000F02AF987
:10426000A82000F027F93F2000F024F9D32000F027
:1042700021F9002000F01EF9402000F01BF9A120D8
:1042800000F018F9C82000F015F9DA2000F012F952
:10429000122000F00FF9812000F00CF9CF2000F07F
:1042A00009F9D92000F006F9F12000F003F9DB202C
:1042B00000F000F9302000F0FDF8A42000F0FAF83A
:1042C000A62000F0F7F88D2000F0F4F8142000F09C
:1042D000F1F8AF2000F0EEF8BDE81040FFF760BF46
:1042E0000246012000E05043491EFCD2704710B541
:1042F0000C4640F0B00000F0DDF8102040EA141049
:1043000000F0D8F804F00F00BDE8104000F0D2B87B
:104310002DE9F0410746CE004000083E801E1546BC
:104320004FF0FF38F1B2C0B2FFF7E1FF11480024AF
:1043300000EB05152819A0F5805090F8000E00F04C
:10434000CAF8641CE4B2082CF4D308EB4700F1B2BD
:10435000C0B2FFF7CCFF00242819A0F5805090F8D8
:10436000080E00F0B8F8641CE4B2082CF4D3BDE8E1
:10437000F0810000665000082DE9F0411D46174607
:104380000E468046002415E0291B1020491EFFF729
:10439000A7FFB7FBF0F000F00F0206EB0400C1B27C
:1043A0000A2A404601D2303200E03732FFF7B0FF30
:1043B000641CE4B2AC42E7D3BDE8F0812DE9F047DC
:1043C00000241D461646884681460A2713E0291B0D
:1043D0000A20491EFFF784FFB6FBF0F0B0FBF7F1AF
:1043E00007FB110208EB0400C1B248463032FFF768
:1043F0008FFF641CE4B2AC42E9D3BDE8F0872DE93D
:10440000F0471E4614008846814604D42B22FFF74D
:104410007FFF254603E02D22FFF77AFF6542002447
:104420000A2714E0311B0A20491EFFF759FFB5FB8C
:10443000F0F0B0FBF7F107FB110208EB0400401CA1
:10444000C1B248463032FFF763FF641CE4B2B442A5
:10445000E8D3BDE8F0872DE9F04115460E46074642
:10446000002406E03019C1B23846FFF751FF641C42
:10447000E4B22A5D002AF5D1BDE8F08110B502460C
:104480004FF400414FF09040FDF79EF9BDE8104019
:10449000032000F075BC000010B5024680210448DE
:1044A000FDF792F9BDE81040012000F069BC000062
:1044B0000004004810B50446FFF7ABFE7820FFF774
:1044C0008BFE0020FFF788FE2046FFF785FEBDE843
:1044D0001040FFF7ADBE10B50446FFF79AFE7820F6
:1044E000FFF77AFE4020FFF777FE2046FFF774FEC5
:1044F000BDE81040FFF79CBE0548064900688842A9
:1045000004D14FF4E0210248FDF7A7BF0120704716
:10451000F80100200068014010B5002201210A487E
:10452000FDF752F909480A49006888420AD10F216B
:104530000648FDF7D9FFBDE810404FF4E0210348DD
:10454000FDF7A1BF10BD000000100048F8010020D9
:1045500000680140022000F0F9B80000002824D0D3
:1045600072B612490A8802804A8842808A8882800C
:1045700091ED020A80ED020A91ED030A80ED030A33
:1045800091ED040A80ED040A4A6942618A698261F8
:10459000CA69C2610A6A026291F8242080F8242064
:1045A00091F8251080F8251062B670479803002016
:1045B00010B522488AB00024048044800838048062
:1045C00028216846FBF766FF28221D496846FBF74D
:1045D0002FFF1C48BDF800100180BDF8021041807B
:1045E000BDF8041081809DED020A80ED020A9DED68
:1045F000030A80ED030A9DED040A80ED040A059983
:104600004161069981610799C161089901629DF82C
:10461000241080F824109DF8251080F825100748F4
:104620000A38046144618461C46184804FF400618C
:10463000C180018104700AB010BD00001A00002082
:104640005856000898030020F0B4384802694169C0
:104650008A4207D10178491CC9B2017003293AD3B3
:1046600001201DE00021314B01700A3342611C889A
:104670002F490C805B884B802C4B9B1C1B888B80AC
:104680004B695B1C4B618A610B884FF480529342EB
:1046900005D24B88934202D28B88934203D30420E5
:1046A000F0BC00F053B882880123FF2A15D80C888B
:1046B00085692C4484618D88C669521C354492B248
:1046C000C5618280B2F5807F05D1220AC2802A0AA4
:1046D000028181F82430F0BC70470A88C488121B1C
:1046E0008C8800EE102ADFED130A0089B8EEC00AAC
:1046F000201A20EE200A81ED020A00EE100AF8EEE0
:10470000C00A9FED0D0A60EE800AC1ED030A4888D9
:1047100000EE900AF8EE600A20EE800A81ED040AAD
:10472000C869401CC86181F82530D4E7100000201A
:10473000980300206F12833A0AD7233C024801698C
:10474000491C0161704700001000002004490A6AFA
:1047500002430A62002081F82500FFF7DDBE000059
:104760009803002070477047FDF798BF10B594B0CC
:1047700038216846FBF78EFE14210EA8FBF78AFE4F
:104780000020FEF71DF8092000904FF480300190C2
:104790000120059002200324CDE907045521CDE92D
:1047A00009010B900C900D906846FEF737FB60B93D
:1047B0000F20CDE90E0400201090119012900421DA
:1047C0000EA8FEF7E3F9002801D0FCF710F814B0AA
:1047D00010BD00000248016841F47001016070479B
:1047E00088ED00E030B5416EB9B102689168926819
:1047F000C1F342610B4B520F9C5CE50003F10804CE
:10480000A25CB5FBF2F2A0F86A205A5C615CD200AF
:10481000B2FBF1F1A0F8681030BD0121A0F86A10D8
:10482000F8E700009C56000890F82810090706D504
:1048300001684A68836B22F400421A434A6090F888
:104840002810C90706D001684A68C36A22F40032FA
:104850001A434A6090F82810890706D501684A680B
:10486000036B22F480321A434A6090F828104907FB
:1048700006D501684A68436B22F480221A434A60D5
:1048800090F82810C90606D501688A68C36B22F41F
:1048900080521A438A6090F82810890606D501686C
:1048A0008A68036C22F400521A438A6090F8281038
:1048B000490611D501684A68436C22F480121A43F4
:1048C0004A60416CB1F5801F06D101684A68836C6B
:1048D00022F4C0021A434A6090F82810090606D54F
:1048E00001684A68C06C22F4002202434A607047A3
:1048F0002DE9F84300260446C0F89060FCF76AFFF3
:104900008046206800684FF0200500076FF07E4762
:1049100013D54346002229042046009700F0B4F93D
:1049200058B1216851E8000F20F0800041E80002F2
:10493000002AF6D1C4F8885021E0206800684007BA
:1049400022D5434600224FF480012046009700F014
:104950009BF9C8B1216851E8000F20F4907041E83C
:104960000002002AF6D12068083050E8001F21F02C
:10497000010140E80012002AF5D1C4F88C5084F8F7
:1049800084600320BDE8F883C4F88850C4F88C50D4
:1049900044F86C6F666026760020F3E710B5026875
:1049A00052E8001F21F4907142E80013002BF6D169
:1049B0000E4B0268083252E8001F194042E800140A
:1049C000002CF6D1C16E012908D1016851E8002FF1
:1049D00022F0100241E80023002BF6D12021C0F87C
:1049E0008C100021C166416710BD0000FEFFFFEF83
:1049F0002DE9F0410446016880682269E3691043AB
:104A0000626900251A431043DFF84CC20A68934BD1
:104A10001A4002430A6020684168E26821F440516C
:104A2000114341602168A069614501D0226A1043A9
:104A30008A688B4B1A4002438A602068C16A626AA6
:104A400021F00F011143C1628649236886488B42D9
:104A50000DD1D0F8880010F0030006D0012867D0EF
:104A6000022854D0032851D164E001204FE07F494F
:104A70008B420BD1D0F8880010F00C0047D00428EE
:104A800045D0082852D00C2840D153E078498B42B9
:104A90000BD1D0F8880010F0300038D0102847D063
:104AA000202843D0302831D144E072498B420BD1C9
:104AB000D0F8880010F0C00029D0402838D08028D5
:104AC00034D0C02822D135E06B498B420ED1D0F8CA
:104AD000880010F440701AD0B0F5807F28D0B0F56F
:104AE000007F23D0B0F5407F10D123E063450DD186
:104AF000D0F8880010F4406009D0B0F5806F17D06E
:104B0000B0F5006F12D0B0F5406F13D010205B4AA3
:104B10005B4F00264FF40041634539D160B1022854
:104B20000DD004280DD0082831D10EE00220EEE788
:104B30000420ECE70820EAE7FEF716F903E0114647
:104B400003E0FEF735F901007BD0606A37F81020EA
:104B50006768B1FBF2F007EB4703834269D8B0EB1B
:104B6000073F66D8002308461946FBF7A5FB090254
:104B700041EA106102027808101871413A46002398
:104B8000FBF79AFB3F4AA0F54071914257D950E09C
:104B9000E3694FF6EF788B422BD1092849D2DFE841
:104BA00000F005080D48254848480E00FEF7DCF8DF
:104BB00001E0FEF7EBF8010001D142E01146606A26
:104BC00037F81000B1FBF0F04100606801EB5001D4
:104BD000B1FBF0F1A1F1100040452AD84FF6F07278
:104BE00001EA0200C1F34201084328E0FEF7E0F8C1
:104BF000E1E709281DD2DFE800F005080D1C1E1CA6
:104C00001C1C0E00FEF7B0F801E0FEF7BFF8010033
:104C100001D116E01146606A37F81000B1FBF0F1DF
:104C2000606801EB5001B1FBF0F0A0F110014145CB
:104C300004D9012505E0FEF7BBF8E8E780B221685A
:104C4000C8600120A4F86A0024F8680F2846E660CE
:104C50002661BDE8F081000000800040F369FFCFCD
:104C6000FFF4FF11003801400010024000440040F2
:104C700000480040004C0040005000400024F40078
:104C800084560008FFFC0F002DE9F04799461746AF
:104C90000D4604464FF00008089E33E0701C31D0EA
:104CA000FCF798FDA0EB0900B04218D8BEB120680F
:104CB0000168490726D5802D24D0402D22D0C16916
:104CC000C94309070DD4082505622046FFF766FE93
:104CD000C4F8905084F884800120BDE8F087032058
:104CE000FBE7C069C04300050CD421684FF40060A5
:104CF00008622046FFF752FE2020C4F8900084F896
:104D00008480ECE72068C06935EA000004D0002008
:104D1000B842C3D00020E0E70120F9E7FEE7000039
:104D200070B5050003D011B10AB1082A01D90120DC
:104D300070BD9400261D22460748FBF734FB064849
:104D4000064920443246096801602846BDE87040A3
:104D500002230149FEF756BBC0030020805600081D
:104D60000907090E002804DB00F1E02080F8001498
:104D7000704700F00F0000F1E02080F8141D70472C
:104D8000AA2148430521B0FBF1F003E000BF00BFBA
:104D900000BF00BF401EF9D2704700008AB0FDF787
:104DA00085FCFFF7E3FCFEF7BDFFFEF795FFFFF77D
:104DB00041F8FEF7F3FEFEF74DFFFFF7BBF9642065
:104DC000FCF7C4FBFFF740FAFFF7F2FB012192A2C8
:104DD0000846FFF740FB91A201210220FFF73BFBB1
:104DE0008FA201210320FFF736FB8EA201210420B0
:104DF000FFF731FB002201218B48FCF7E5FC7F2106
:104E00008A48FBF7F9FC08B1022025E07F21884899
:104E1000FBF7F2FC0028F7D1012286498348FCF712
:104E2000F9F90028F0D1022283498148FCF7F2F910
:104E30000028E9D17D48406D0068016821F0040137
:104E400001607B48406D0068016821F00401016049
:104E5000FFF752FB20B10820FFF778FCFBF7C7FCF7
:104E6000FFF750F9FCF7B6FC8246FCF7B3FC0025CF
:104E70008146A846DFF8C4B1FCF7ACFCA0EB090002
:104E80000A284FD3FCF7A6FC81466846FFF766FB6D
:104E9000BBF800105C4600EE101AB8EE400ADFEDD9
:104EA000680A6848491C20EE200A89B2642980ED0E
:104EB000000AABF8001001D300212180BDF80010DA
:104EC000082200EE101AB8EE400A80ED010ABDF883
:104ED000041000EE101AB8EE400A80ED020ABDF888
:104EE000021000EE101A5749B8EE400A80ED030A8E
:104EF0009DED020A80ED040A9DED030A80ED050A8E
:104F00009DED040A80ED060A9DED080AB8EE400A00
:104F100080ED070A4C48FFF703FF00286CD0A0681B
:104F2000401CA060FCF756FCA0EB0A006428A3D349
:104F3000FCF750FC82466846FFF710FB9DED020A25
:104F4000DFED420A20EE200ABDEEC00A10EE107A14
:104F50009DED030ADFED3E0ABDF80020042320EE9C
:104F6000200A03210120BDEEC00A10EE106A9DED5B
:104F7000040A20EE200ABCEEC00A10EE104AFFF729
:104F80001DFA05233A4608210120FFF738FABDF83B
:104F90000420042303210220FFF710FA05233246E0
:104FA00008210220FFF72BFA0321BDF80220042379
:104FB0000846FFF703FA0523224608210320FFF7DE
:104FC000FDF9244907980523B0FBF1F201FB120219
:104FD00003210420FFF7F2F902230A210420089A92
:104FE000FFF7CAF90598A84202D00699414507D1B2
:104FF0000120FFF7ABFB0BE06068401C606091E7AD
:105000009DF8250020B1089810B91348FDF73FFB23
:10501000DDE9055080462FE7493A0000563A000086
:10502000443A0000533A000000100048CC00002031
:1050300060000020120000201A0000200000002064
:105040000AD7233C400000200403002000007A44DB
:105050000000C842A0860100F40200204FF040701A
:10506000E1EE100A704700000000000000000000A0
:10507000000000000000000000F800000000000038
:1050800000333000000000100C06100C0600000079
:1050900000000000000040C07840C0784000043F9D
:1050A00004043F040400007088FC0830000000186D
:1050B00020FF211E0000F008F000E0180000002191
:1050C0001C031E211E0000F00888700000001E2135
:1050D00023241927211010160E00000000000000E4
:1050E000000000000000000000E0180402000000C2
:1050F00000071820400000020418E00000000040F3
:10510000201807000000404080F08040400002026C
:10511000010F01020200000000F000000000010188
:10512000011F01010100000000000000000080B02C
:1051300070000000000000000000000000000001FE
:105140000101010101010000000000000000003029
:1051500030000000000000000000806018040060C3
:1051600018060100000000E010080810E000000F21
:10517000102020100F00001010F800000000002088
:10518000203F2020000000700808088870000030D0
:105190002824222130000030088888483000001878
:1051A000202020110E000000C02010F80000000791
:1051B0000424243F240000F8088888080800001907
:1051C000212020110E0000E0108888180000000F38
:1051D000112020110E0000380808C838080000000F
:1051E000003F000000000070880808887000001C64
:1051F000222121221C0000E010080810E00000001D
:10520000312222110F00000000C0C0000000000089
:1052100000303000000000000080000000000000AE
:1052200080600000000000008040201008000001A5
:105230000204081020004040404040404000040468
:105240000404040404000008102040800000002032
:10525000100804020100007048080808F00000006F
:10526000003036010000C030C828E810E000071800
:10527000272423140B000000C038E0000000203C6D
:1052800023020227382008F8888888700000203F11
:10529000202020110E00C030080808083800071828
:1052A00020202010080008F808080810E000203F1F
:1052B000202020100F0008F88888E8081000203F00
:1052C00020202320180008F88888E8081000203FD4
:1052D000200003000000C03008080838000007184C
:1052E0002020221E020008F808000008F808203FCD
:1052F000210101213F20000808F8080800000020D3
:10530000203F2020000000000808F8080800C080A6
:1053100080807F00000008F888C028180800203F1F
:1053200020012638200008F8080000000000203F77
:1053300020202020300008F8F800F8F80800203F6E
:10534000003F003F200008F830C00008F808203F68
:10535000200007183F00E01008080810E0000F10B8
:10536000202020100F0008F808080808F000203F4F
:10537000210101010000E01008080810E0000F18EA
:10538000242438504F0008F8888888887000203F0F
:105390002000030C3020007088080808380000380E
:1053A000202121221C00180808F808081800000015
:1053B000203F2000000008F808000008F808001F3F
:1053C000202020201F000878880000C8380800002E
:1053D00007380E010000F80800F80008F800033C48
:1053E0000700073C03000818688080681808203010
:1053F0002C03032C30200838C800C83808000000EF
:10540000203F2000000010080808C8380800203895
:10541000262120201800000000FE020202000000E9
:10542000007F40404000000C30C000000000000041
:1054300000010638C00000020202FE000000004029
:1054400040407F000000000004020202040000004F
:10545000000000000000000000000000000080804C
:105460008080808080800002020400000000000034
:105470000000000000000000808080800000001913
:10548000242222223F2008F8008080000000003FF4
:10549000112020110E000000008080800000000E0E
:1054A000112020201100000000808088F800000EEC
:1054B000112020103F200000808080800000001F0D
:1054C000222222221300008080F088888818002081
:1054D000203F202000000000808080808000006B42
:1054E00094949493600008F8008080800000203F2E
:1054F000210000203F20008098980000000000203C
:10550000203F20200000000000809898000000C08C
:105510008080807F000008F8000080808000203FAD
:1055200024022D302000000808F8000000000020B0
:10553000203F202000008080808080808000203FED
:1055400020003F20003F8080008080800000203FBE
:10555000210000203F200000808080800000001F8C
:10556000202020201F00808000808000000080FF1D
:10557000A12020110E000000008080808000000E1D
:10558000112020A0FF80808080008080800020206B
:105590003F212000010000008080808080000033D7
:1055A000242424241900008080E080800000000072
:1055B000001F202000008080000000808000001F6D
:1055C000202020103F20808080000080808000010B
:1055D0000E300806010080800080008080800F303F
:1055E0000C030C300F0000808000808080000020C1
:1055F000312E0E31200080808000008080808081EC
:105600008E7018060100008080808080800000215C
:10561000302C2221300000000000807C02020000BB
:105620000000003F404000000000FF0000000000BC
:105630000000FF0000000002027C8000000000402B
:10564000403F0000000000060101020204040000C7
:10565000000000000000000000000000000000004A
:10566000000000000000000000000000000000003A
:10567000000000000000000000000000000000002A
:105680000000807F010002000400060008000A00FC
:105690000C00100020004000800000010101010307
:1056A00007010000080402040801010100000000D5
:1056B00000000000010203040607080900000000C2
:1056C00001020304E456000800000020400000002E
:1056D000140200082457000840000020080A0000B7
:1056E0003002000800000000000000000000000080
:1056F000000000000000000000000008000800009A
:105700000000000000000000000000000000000099
:105710000000000010000000010000000000000078
:045720000024F4006D
:04000005080001D915
:00000001FF
