:020000040800F2
:10000000D00A00207902000827440008B93D000802
:100010002144000859070008C559000800000000E5
:100020000000000000000000000000001154000863
:10003000270800080000000065510008135400085C
:10004000930200089302000893020008930200083C
:10005000930200089302000893020008930200082C
:100060009302000893020008930200086107000849
:100070006D0700089302000893020008930200082D
:1000800093020008930200087D050008930200080F
:100090009302000893020008930200082908000850
:1000A00093020008930200089302000893020008DC
:1000B00093020008930200089302000893020008CC
:1000C00093020008930200089302000893020008BC
:1000D00093020008930200089302000893020008AC
:1000E000930200089302000893020008930200089C
:1000F000930200089302000893020008930200088C
:10010000930200089302000893020008930200087B
:10011000930200089302000893020008930200086B
:10012000930200089302000893020008930200085B
:10013000930200089302000893020008930200084B
:10014000930200089302000893020008930200083B
:10015000930200089302000893020008930200082B
:10016000930200083D37000893020008930200083C
:10017000930200089302000893020008930200080B
:1001800093020008930200089302000893020008FB
:100190009302000800000000930200089302000888
:1001A00093020008930200089302000893020008DB
:1001B00093020008930200089302000893020008CB
:1001C00093020008930200089302000893020008BB
:1001D000930200089302000800F002F800F03CF8D7
:1001E0000AA090E8000C82448344AAF10107DA4592
:1001F00001D100F031F8AFF2090EBAE80F0013F0A8
:10020000010F18BFFB1A43F0010318475C6500009B
:100210007C650000103A24BF78C878C1FAD852072C
:1002200024BF30C830C144BF04680C607047000070
:100230000023002400250026103A28BF78C1FBD8EF
:10024000520728BF30C148BF0B6070471FB505F08B
:1002500017FF1FBD10B510BD00F05AF91146FFF78A
:10026000F5FF05F06BFD00F078F903B4FFF7F2FF3E
:1002700003BC00F07BF900000948804709480047AB
:10028000FEE7FEE7FEE7FEE7FEE7FEE7FEE7FEE746
:10029000FEE7FEE704480549054A064B70470000A3
:1002A0007D540008D9010008D0040020D00A0020A5
:1002B000D0060020D006002053EA020C00F069802E
:1002C0002DE9F04B4FF00006002B1FBFB3FA83F56A
:1002D00003FA05F424FA05F65E4012BF1643B2FA9B
:1002E00082F502FA05F4C5F120051EBF22FA05FCCD
:1002F00044EA0C04203556EA044C4FEA144418BF73
:10030000641C4FF000084FF00009904271EB030CA1
:1003100039D3002919BFB1FA81F701FA07F6B0FA0B
:1003200080F700FA07F6C7F120071EBF20FA07FC86
:1003300046EA0C062037B6FBF4FCA7EB0507103F96
:1003400007F01F0BCBF120060CFA0BFB2CFA06F67C
:1003500044BFB3460026202FA4BF5E464FF0000BDB
:100360005BEA060C08BF4FF0010B19EB0B09ABFB66
:10037000027C48EB0608C01B06FB02CC0BFB03CC3F
:1003800071EB0C01C1E70B46024641464846BDE809
:10039000F08B13B54FF000004FF00001AFF3008079
:1003A000BDE81C407047032A40F2308010F0030C77
:1003B00000F0158011F8013BBCF1020F624498BFB8
:1003C00011F801CB00F8013B38BF11F8013BA2F155
:1003D000040298BF00F801CB38BF00F8013B11F0D0
:1003E000030300F02580083AC0F0088051F8043B70
:1003F000083A51F804CBA0E80810F5E7121D5CBFDD
:1004000051F8043B40F8043BAFF30080D20724BF0F
:1004100011F8013B11F801CB48BF11F8012B24BFA3
:1004200000F8013B00F801CB48BF00F8012B7047F2
:1004300010B5203AC0F00B80B1E81850203AA0E87F
:100440001850B1E81850A0E81850BFF4F5AF5FEAB3
:10045000027C24BFB1E81850A0E8185044BF18C966
:1004600018C0BDE810405FEA827C24BF51F8043B0D
:1004700040F8043B08BF7047D20728BF31F8023B61
:1004800048BF11F8012B28BF20F8023B48BF00F8F5
:10049000012B70474FF0000200B513469446964674
:1004A000203922BFA0E80C50A0E80C50B1F1200187
:1004B000BFF4F7AF090728BFA0E80C5048BF0CC035
:1004C0005DF804EB890028BF40F8042B08BF704793
:1004D00048BF20F8022B11F0804F18BF00F8012B05
:1004E000704770477047704710B500F009F8006812
:1004F00010BD10B5044600F003F8046010BD000004
:10050000004870476C040020004870476C040020CD
:100510007546FFF7F9FFAE4605006946534620F0E1
:100520000700854618B020B5FFF7B4FEBDE82040AF
:100530004FF000064FF000074FF000084FF0000B9F
:1005400021F00701AC46ACE8C009ACE8C009ACE852
:10055000C009ACE8C0098D46704710B50446AFF33A
:1005600000802046BDE81040FFF77FBE01491820FB
:10057000ABBEFEE7260002007047000010B504483D
:1005800000F0AEFCBDE81040024800F0A9BC00003D
:1005900034010020A001002010B5846AE16D11F043
:1005A000500F06D0E16DC90625D5204600F095FC18
:1005B00010BDE06D40F40070E06520680168090737
:1005C00016D503F00EFC78B12068C06880040028BE
:1005D0000ADBE06D20F48070E065E06DC00403D4B8
:1005E000E06D40F00100E065204600F059FC10BDD0
:1005F000C0688007EBE7616D496BBDE810400847B4
:1006000010B5806AC16D41F04001C165016E41F0D5
:100610000401016600F061FC10BD10B5806A00F0B5
:100620005BFC10BD70B50446006881688268C1F348
:10063000400112F0010F28D039BB816801F00D0193
:10064000012914D18168124A1140891C81602168F6
:100650000320086001F05AFA054612E001F056FA4C
:10066000401B02280DD920688068C00709D0E06DC2
:1006700040F01000E065206E40F00100206601208F
:1006800070BD20688068C007E8D1002070BD000000
:10069000C0FFFF7FF8B50446002000902068816805
:1006A00011F0010F4AD18168254A114237D1816882
:1006B000D5432940491C81602068B0F1A04F02D089
:1006C0002049884201D1204800E02048806800F09D
:1006D000E07000020DD51E481E490068B0FBF1F025
:1006E000401C00EB4000800000E0401E009000280D
:1006F000FBD101F00BFA06461BE0816811F0010FF7
:1007000003D181682940491C816001F0FFF9801BF9
:1007100002280ED920680068C043C00709D0E06DE8
:1007200040F01000E065206E40F0010020660120DE
:10073000F8BD20680168C943C907DED10020F8BDB3
:100740003F000080000100500003005000070050EF
:100750007C000020400D030004F0FAF9FEE70000E1
:10076000014800F085BF00000C020020014800F0A5
:100770007FBF00006C02002010B501680E4CCAB2A9
:100780001423083AA14203D2B2FBF3F20B4904E06E
:10079000B2FBF3F2094920310832436C02F01F0228
:1007A00023F003031944816404498031C1640121A9
:1007B0009140016510BD000008040240000802409D
:1007C0000179084A01F07F0102EB81024265054A86
:1007D0004432491E826501F01F0201219140C1652A
:1007E00070470000FC08024030B5D0E91345656051
:1007F000446D14B1D0E91645656090F8444004F0AA
:100800001F050124AC40056C6C600468636083685C
:10081000102B036803D099600068C26030BD9A60F5
:100820000068C16030BD7047202001F03FB804F07F
:10083000C5F972B6FEE70000F8B50026044600963A
:1008400090F858000D4601280BD0012084F858007C
:100850002046FFF7E7FE0100E06D04D040F01000F5
:100860002AE00220F8BD20F4885040F00200E06544
:1008700020688268134B1A4005F080431A4342F007
:1008800000428260104A20680EE0009B5B1C0093CF
:10089000934209D3E06D20F0020040F01000E065C3
:1008A00084F858600120F8BD8368DB0FEDD1E06D5E
:1008B00020F0020040F00100E06584F8586008462E
:1008C000F8BD0000C0FFFF3F02DE04007047704724
:1008D00070477047704700002DE9F04F044690F8CC
:1008E00058009BB00F464FF0000B012812D001209A
:1008F00084F8580000261796189620684FF0A048F4
:10090000DFF81C91DFF81CA1474D404506D1284671
:10091000009508E002201BB0BDE8F08F48450AD1E1
:100920005046CDF800A003F058FA0090206803F07C
:1009300054FA40B109E0E06D40F02000E06584F831
:1009400058600120E7E7009850B1E06D40F02000CA
:10095000E0654FF0010B00BF84F858605846DAE7B5
:1009600020684146884201D0A84201D12F4800E0CA
:100970002F48D7F800C02F4B40F61F72BCF1000F74
:100980002DD0D0F808C094F838802CF4604C4CEA94
:10099000483CD7F804804CEA080CC0F808C0D4F8EA
:1009A00000C08C4501D0AC4504D18968AB6801F02A
:1009B000010109E0D9F80810DAF8085001F0010146
:1009C00005F001059B68294303F001031943C3D1D6
:1009D000BB68396819438368934319431DE08768EE
:1009E00027F46047876027688F4201D0AF4204D167
:1009F0008968AB6801F0010109E0D9F80810DAF85C
:100A0000085001F0010105F001059B68294303F03E
:100A100001031943A0D18168914381609CE70000E4
:100A20000004005000050050000100500003005079
:100A300000070050000600502DE9F84F002704463B
:100A4000009790F85800DFF818840D46B946012841
:100A500011D0012684F85860206803F0BAF960B11B
:100A6000E06D40F02000E0655FF0010784F85890E9
:100A70003846BDE8F88F0220FBE7D5E900210C23BA
:100A8000206803EA91131844036B01F01F014FF033
:100A90001F0C0CFA01FCC2F3846223EA0C038A40A7
:100AA00013430363206803F094F98246206803F03F
:100AB0008CF95AEA00003CD1AA6829682068B2F192
:100AC000004F37D003F095F92068416921F00041CB
:100AD000416120686969C268C2F3C1025200914055
:100AE0002A69042A31D000EB82002B68026EDFF8FD
:100AF00074C303F0F84302EA0C020B431A4342F0BA
:100B00000041016620682A69A96900EB8200026E33
:100B100022F080720A430266297F20682A6901292F
:100B200010D0002100EB8200026E22F000720A4316
:100B300002667DE0002203F05CF92068416941F023
:100B40000041C5E74FF00071ECE7002103F037F9F1
:100B5000400320684FF0000172D003F030F990FAA2
:100B6000A0F0B0FA80F1286842036ED090FAA0F0AD
:100B7000B0FA80F0814204D100221146206803F0CF
:100B800047F90121206803F01AF9400320684FF06B
:100B900001015DD003F013F990FAA0F0B0FA80F1F2
:100BA0002868420359D090FAA0F0B0FA80F0814250
:100BB00004D100220121206803F02AF902212068D3
:100BC00003F0FDF8400320684FF0020148D003F025
:100BD000F6F890FAA0F0B0FA80F12868420344D009
:100BE00090FAA0F0B0FA80F0814204D100220221F4
:100BF000206803F00DF90321206803F0E0F84003BA
:100C000020684FF0030133D003F0D9F890FAA0F038
:100C1000B0FA80F1286842032FD090FAA0F0B0FA21
:100C200080F0814204D100220321206803F0F0F813
:100C30002068816811F0010F22D0ACE000E004E0F0
:100C400003F0BDF8C0F384618DE7C0F3846091E7E1
:100C500003F0B5F8C0F38461A2E7C0F38460A6E7AF
:100C600003F0ADF8C0F38461B7E7C0F38460BBE77D
:100C700003F0A5F8C0F38461CCE7C0F38460D0E74B
:100C80002A7B296850F8B03FC1F3120C23EA0C0309
:100C900002F0180C744A22FA0CF20A401343036063
:100CA000E968414577D1286841031CD090FAA0F14A
:100CB000B1FA81F1491C01F01F0109294FEA4031C5
:100CC00032D8002912D000BF90FAA0F1B1FA81F118
:100CD00001F1010101F01F0106FA01F609D100BF7F
:100CE000C0F3846109E0C0F38461E3E7C0F3846189
:100CF000EEE790FAA0F1B1FA81F101F1010101F002
:100D00001F0146EA816102D1C0F3846003E090FADA
:100D1000A0F0B0FA80F000F1010000F01F0000EB3D
:100D2000400041EA005132E000290ED090FAA0F1D3
:100D3000B1FA81F101F1010101F01F0106FA01F69A
:100D400006D100BFC0F3846106E0C0F38461F1E71F
:100D500090FAA0F1B1FA81F101F1010101F01F0156
:100D600046EA816102D1C0F3846003E090FAA0F00A
:100D7000B0FA80F000F1010000F01F003B4A00EBE8
:100D8000400002EB005041EA000141F00071AA6806
:100D9000206803F02EF836482B6803423FF466AE15
:100DA00021684FF0A04C334D3348344E614501D09B
:100DB000A94201D1024600E032469268DFF8C080C5
:100DC00002F0E072434503D0DFF8B880434521D1FB
:100DD0005FEA02281ED4614506D02B4B99427FF46E
:100DE00045AEA94200D0304642F40001826822F0AC
:100DF000E0720A438260254825490068B0FBF1F0A3
:100E0000401C00EB4000800000E0401E00900028E5
:100E1000FBD12BE6DFF87C8043450DD15FEAC21899
:100E20000AD4A942F5D01C4B9942F2D0614500D0BA
:100E3000304642F080710CE0DFF860804345E8D135
:100E40005302E6D4A942E4D0614500D0304642F4D2
:100E50008001826822F0E0720A43826006E60000A8
:100E600000007F4000F0FF03FFFF0700000020FEAE
:100E700000000880000100500003005000070050EF
:100E8000000021C31000C090000600507C0000202C
:100E9000400D0300000052C700050050000084CB45
:100EA00010B5002814D000680A49884203D1BDE873
:100EB000104004F09FB8B0F1A04F09D103F068FFD3
:100EC00003F0B6FE002803D1BDE8104003F05ABC81
:100ED00010BD000000010050704703F0A5BE0000E7
:100EE0002DE9F84F04460068066845684FF0A048B1
:100EF000DFF89092404501D0484501D1A24800E07A
:100F0000A248806800F01F07B0070ED5A8070CD5CF
:100F1000E06DC00603D4E06D40F40060E06520465B
:100F2000FFF7D4FC216802200860DFF864B2DFF824
:100F300064A2700701D5680703D430073FD528079E
:100F40003DD5E06DC00603D4E06D40F40070E0656F
:100F5000206802F046FF60B32068484501D1424650
:100F600004E0584501D1524600E00246824208D0D2
:100F70003FB1052F05D0092F03D0484503D1414685
:100F800006E0C16805E0584501D1514600E0014640
:100F9000C96889040DD4016809070AD502F019FF50
:100FA00058B3E06D40F01000E065206E40F00100A5
:100FB00020662046FFF774FF21680C200860B00609
:100FC00001D5A80603D470065FD568065DD5E06D2F
:100FD000C00603D4E06D40F40050E0652068C16CA9
:100FE00011F4C07F1AD00021009102F0FAFE0246EF
:100FF0002068484514D1434617E02068416821F035
:101000000C014160E06D20F48070E065E06DC0048B
:10101000CFD4E06D40F00100E065CAE70121E3E7CD
:10102000584501D1534600E00346834208D03FB102
:10103000062F05D0072F03D0484503D1414606E0CF
:10104000C16805E0584501D1514600E00146C96834
:10105000009BA3B18B0102D58AB18A040FD4026828
:1010600052060CD589020AD402F0AFFEF0B3E06D4F
:1010700040F01000E065206E40F001002066204640
:10108000FFF725FC21686020086030060BD5280694
:1010900009D5E06D40F48030E065204600F094F919
:1010A000216880200860F0050CD5E8050AD5E06DC0
:1010B00040F40030E0652046FFF70BFC21684FF458
:1010C00080700860B0050CD5A8050AD5E06D40F425
:1010D0008020E0652046FFF7FDFB21684FF400709B
:1010E0000860F00631D5E8062FD500E009E0E06B96
:1010F000E8B12068EFB3404501D0484512D12248FD
:1011000011E02068416821F060014160E06D20F449
:101110008050E065E06DC005B1D4E06D40F00100A5
:10112000E065ACE71948806800F4604050B1E06DBC
:1011300040F48060E065206E40F0020020662046AA
:10114000FFF7CBFE216810200860700517D56805F1
:1011500015D5E06D40F48040E065206E40F0080059
:10116000206621684FF4806008602046BDE8F84F93
:1011700000E001E0FFF7ACBBC068C007D6E7BDE800
:10118000F88F0000000100500003005000070050DD
:101190000005005000040050F8B54FF000050400B1
:1011A0002E46009502D0E06D10B107E00120F8BD99
:1011B000204600F00BF9266684F8586020688168A4
:1011C000C1F3407119B18168734A11408160206890
:1011D0008168C1F3007189B98168704A114041F09A
:1011E000805181606E486F490068B0FBF1F04000AB
:1011F000801C00E0401E00900028FBD12068816820
:10120000C1F3007141B9E16D41F01001E165216E5A
:1012100041F001012166012502F0DBFDE16DC90607
:1012200000D430B1E06D40F01000E06501252846A3
:10123000F8BDE06D20F4807040F00200E0652068A9
:10124000816811F0010F27D14FF0A043564A984210
:1012500001D0904204D19968966801F001010AE03A
:1012600052498968524E01F00101B66806F0010644
:101270003143504EB66806F0010631430CD1984216
:1012800001D0904201D14C4800E04C48616882682E
:1012900022F47C120A438260E168E06B627F0843BB
:1012A000A16841EA4231084394F8241040EA014021
:1012B000012904D1218D424A02EB41410843E16AF0
:1012C00029B101F47871226B014342EA01002268DE
:1012D000D1683C4B19400143D16020680169626BC1
:1012E00021F0406111430161206802F06EFD70BB86
:1012F000207F94F838102268800340EA4100D168CA
:1013000044F2020399430143D16020690028206818
:1013100001690AD041F480310161206850F8C01F92
:1013200022696FF30D01114307E021F4803101615F
:10133000206850F8C01F6FF30D01016094F8400061
:1013400001280CD02068016921F001010161606968
:1013500001282068016B21F00F0111D013E0D4E9BE
:1013600011010843D4E913121143084321680A69A3
:1013700040F2FC739A43104340F001000861E6E735
:10138000226A521E11430163E06D20F0020040F01A
:101390000100E0654BE70000C0FFFF5FC0FFFF7F7B
:1013A0007C000020400D03000001005000040050AC
:1013B00000050050000600500003005000070050D8
:1013C0000000FEFF0740F0FF704700002DE9F04FDE
:1013D0009BB00646142115A8FFF75CF85421684617
:1013E000FFF758F84FF400423168002590034F4F43
:1013F0004F4C4FF003084FF080094FF4807A4FF4C0
:10140000806BB1F1A04F10D04A4B99425AD1119044
:101410000092684601F07AFB08B1FFF708FA3868D5
:10142000401C3860012850D057E011900092684667
:1014300001F06CFB08B1FFF7FAF93868401C38601E
:10144000012807D1E06C40F40050E064E06C00F447
:1014500000501A90E06C40F00400E064E06C00F092
:1014600004001A90E06C40F00100E064E06C022798
:1014700000F001001597CDE916851A90444615A98C
:101480002D4800F01FFA15A94FF090401597CDE9AF
:10149000164500F017FA2A4C284820600520C4E9B8
:1014A00001052020C4E906B000022062204632E097
:1014B0007465002201211220A66201F08FFA122029
:1014C00001F07EFA1BB0BDE8F08FE06C40F40050F4
:1014D000E064E06C00F400501A90E06C40F004000E
:1014E000E064E06C179500F004001A900120CDE94B
:1014F000150815A9104800F0E5F91048104C1430F3
:10150000603420602420C4E901052020C4E906B02D
:1015100000022062204604F10C0181E8200600F060
:1015200005F90028C4D0FFF782F9C1E76C0000205C
:10153000001002400001005000080048080002406E
:101540000C0200202DE9F047044600684FF0A04847
:101550003D4F91468A46404501D0B84201D13B49B2
:1015600000E03B49896801F01F0502F032FC0028C9
:1015700068D194F85800012864D0012084F85800FC
:1015800034492068884201D1012000E00020401E3B
:1015900028424FF0000605D0052D03D0092D01D0BB
:1015A000012003E02046FFF775F818B184F8586071
:1015B000BDE8F087E06D40F60161884340F480703B
:1015C000E0652068B84201D1414605E022498842E1
:1015D00001D1224900E00146814200D01DB9E06DF1
:1015E00020F48010E065E06DC00404D5206E20F08A
:1015F0000600206600E02666616D1948C862616DCC
:1016000018480863616D1848486321681C20086009
:1016100084F858602068416841F0100141602068FA
:10162000C16841F00101C16021684B46524640311A
:10163000606D00F0DDF821688A680C4B1A40121DBD
:101640008A60B5E70220B3E70001005000030050B4
:101650000007005000060050000500500004005034
:10166000990500081B06000801060008C0FFFF7F5F
:10167000F0B4016C0C6801680D6890F8442002F029
:101680001F06042202FA06F3234211D06B070FD57E
:101690000B689B0603D40B6823F004030B6090F8DF
:1016A000441001F01F018A40016C4A60016B1DE08B
:1016B000022303FA06F727424FF0000C4FF0010215
:1016C00018D0AF0716D50C68A40605D40C6824F012
:1016D0000A040C6080F8252090F8441001F01F01E6
:1016E0008B40016C4B6080F824C0C16A00291AD07D
:1016F000F0BC08470823B340234214D02B0712D56F
:101700000B6823F00E030B6090F84410036C01F09B
:101710001F0102FA01F15960C26380F8252080F8A8
:1017200024C0416BE2E7F0BC7047000070B50400D4
:101730000CD02C4A21681420914209D22A4A0A442A
:10174000B2FBF0F08000606428480AE0012070BD20
:10175000244A52420A44B2FBF0F0800060642148FF
:1017600008382064022084F825000A6847F6F070E3
:101770008243D4E902031843D4E904352B431843C8
:10178000A3691843E3691843236A184310430860A8
:101790002046FEF7F1FFA0680025B0F5804F00D18C
:1017A00065602079A16C00F07F000860D4E9130126
:1017B00041606068401E032808D82046FFF700F803
:1017C000606D0560D4E91601416002E06565A565BC
:1017D000E565E563012084F8250084F824500020A5
:1017E00070BD000008040240F8FFFDBF0000024089
:1017F00070B5044690F82400002501280CD0012083
:1018000084F8240094F825600020012E06D084F886
:1018100024000225284670BD022070BD022684F8EF
:101820002560E0632068066826F001060660204611
:10183000FEF7DAFF206B00282068016802D041F033
:101840000E0106E021F0040101602068016841F00A
:101850000A010160A06C0168C90303D5016841F465
:1018600080710160606D18B1016841F480710160A0
:101870002068016841F001010160CBE770B50446C2
:1018800000F044F90546601C02D004484068044456
:1018900000F03CF9401BA042FAD370BD700000205C
:1018A000202802D1102003F0ADBB7047044910B5C9
:1018B0000A68024202D00860FFF7F2FF10BD000084
:1018C000140401402DE9F04FDFF80C9200230126AB
:1018D0000325A9F1040B85B00F2709F1040AABF128
:1018E000040EF1E006FA03FC12EA0C027ED00C7939
:1018F00004F00304012C01D0022C20D18468009450
:101900005C0005FA04F80494009C24EA080400949E
:10191000D1F80C80049C08FA04F8009C48EA0408FA
:10192000C0F80880446824EA0C0491F804C0CCF3A1
:10193000001C0CFA03FC4CEA040CC0F804C00C793F
:10194000E443A40702D18C68012C0ED0C4684FEA8E
:10195000430805FA08FC24EA0C04D1F808C00CFA84
:1019600008FC4CEA040CC0F80CC00C7904F0030429
:10197000022C16D1DC0800EB840CCDF808C0DCF892
:1019800020C05C074FEAD46807FA08F42CEA040C7C
:101990000C6904FA08F444EA0C04DDF808C0CCF839
:1019A000204004684FEA430805FA08FC24EA0C04C6
:1019B00091F804C00CF0030C0CFA08FC4CEA040C7F
:1019C000C0F800C04C6814F4403F7CD0434CD4F8BD
:1019D00060C04CF0010CC4F860C0246E23F0030C0E
:1019E00004F0010400943E4C644400E06BE0029477
:1019F000A4684FEA837C4FEA1C7807FA08FC24EAC3
:101A00000C04B0F1904F06D0DFF8D8C0604505D186
:101A10004FF0010C20E04FF0000C1DE0DFF8C8C0D3
:101A2000604502D14FF0020C16E0DFF8C0C06045FF
:101A300002D14FF0030C0FE0DFF8B4C0604502D1D3
:101A40004FF0040C08E0DFF8ACC0604502D14FF065
:101A5000050C01E04FF0060C0CFA08FC4CEA040CF3
:101A6000029CC4F808C0D9F80040CC46D1F80480E4
:101A700094435FEAC82800D51443CCF80040DAF854
:101A80000040D446D1F8048094435FEA882800D50A
:101A90001443CCF80040DBF80040DC46D1F8048069
:101AA00094435FEA883800D51443CCF80040DEF850
:101AB0000040F446D1F8048094435FEAC83800D56A
:101AC0001443CCF800405B1C0C682246DC407FF4D9
:101AD00009AF05B0BDE8F08F0804014000100240D6
:101AE000000001400004004800080048000C0048C5
:101AF00000100048001400480069084000D0012090
:101B000070470AB1816170478162704701488068FF
:101B1000704700007000002030B590F8DD30022BD7
:101B200015D090F8DC30012B11D0012380F8DC3087
:101B3000022480F8DD400024202949D00EDC04294D
:101B400034D006DC012923D0022911D126E002205D
:101B500030BD082930D010290AD133E040293DD0CA
:101B6000802943D0B1F5807F46D0B1F5007F49D0C0
:101B7000072180F8DD1080F8DC4000BF90F8DD1010
:101B8000072945D080F8DD3080F8DC40002030BDEA
:101B90000168D1F8005462F3040504E00168D1F84B
:101BA000005462F38A15C1F80054E7E70168D1F8E0
:101BB000005462F31035F6E70168D1F8005462F37F
:101BC0009645F0E70168D1F8005462F31C65EAE736
:101BD0000168D1F8045462F3040504E00168D1F807
:101BE000045462F38A15C1F80454C7E70168D1F8B8
:101BF000045462F31035F6E70168D1F8045462F337
:101C00009645F0E70168D1F8045462F31C65EAE7F1
:101C1000012030BDF0B590F8DD30022B1AD090F8DD
:101C2000DC30012B16D0012680F8DC60022380F81E
:101C3000DD300468D4F88053D4F8FC330027202921
:101C40006ED00EDC04293DD006DC012922D0022909
:101C500011D12AE00220F0BD082940D010290AD174
:101C60004AE040297ED0802977D0B1F5807F75D0B9
:101C7000B1F5007F73D0072280F8DD2080F8DC709A
:101C800090F8DD20072A6BD01029016869D2C1F8CD
:101C90008053C9E025F4E02C1568526805F4E0256E
:101CA00045EA0C05C4F8BC23EAE725F4601C156876
:101CB0004FF4601E0EEAC505526845EA0C05C4F8EB
:101CC000C023DDE725F0E07C15684FF0E07E0EEAEA
:101CD0008515526845EA0C05C4F8C423D0E725F001
:101CE000606C15684FF0606E0EEA4525526845EA53
:101CF0000C05C4F8C823C3E723F0070C1368C3F32B
:101D0000024343EA0C03D4F8F8C32CF01F0CC4F8C8
:101D1000F8C30468D4F8F8C3127902F01F0216E081
:101D200023F0700C13684FF0700E0EEA133343EA81
:101D30000C03D4F8F8C32CF4787CC4F8F8C3046816
:101D4000D4F8F8C352684FF4787E0EEA42124CEA97
:101D5000020CC4F8F8C393E704E01BE032E047E06C
:101D60005EE05FE023F4E06C13684FF4E06E0EEA8F
:101D7000132343EA0C03D4F8F8C32CF4F84CC4F84A
:101D8000F8C30468D4F8F8C352684FF4F84E0EEA6A
:101D90008222DCE723F4E04C13684FF4E04E0EEAB5
:101DA000131343EA0C03D4F8F8C32CF4F81CC4F85A
:101DB000F8C30468D4F8F8C392884FF4F81E0EEA0A
:101DC0000242C4E723F4E02C136803F4E02343EA5F
:101DD0000C03D4F8F8C32CF0787CC4F8F8C304687A
:101DE000D4F8F8C392884FF0787E0EEA4252AEE7FC
:101DF00023F4E00C13684FF4E00E0EEA031343EAF9
:101E00000C03D4F8F8C32CF0F84CC4F8F8C30468F9
:101E1000D4F8F8C312794FF0F84E0EEA826296E7D2
:101E20000120F0BDC1F8FC3380F8DD6080F8DC7083
:101E30000020F0BD7047704770477047704770478B
:101E400070477047704710B590F8DC20012A21D008
:101E5000012280F8DC20022380F8DD304B1C1BD0EF
:101E60000368D3F8CC4344F00204C3F8CC430368BE
:101E7000D3F8CC4324F00C040C43C3F8CC430168E2
:101E8000D1F8CC3343F00103C1F8CC3380F8DD2026
:101E9000002010BD022010BD0168D1F8CC3323F022
:101EA0000203C1F8CC33EAE770B590F8DD30022BBD
:101EB0003CD090F8DC30012B38D0012500F8DC5FF5
:101EC000022343701388948803F4E053C4F3080496
:101ED0001C4313896FF07E4603F400732343148A76
:101EE00004F480441C43938903F400432343948AFD
:101EF00006EA04441C43936903F000732343146A05
:101F0000D26904F080441C4302F00042224350F89E
:101F1000DC3CB82404EBC1141959054E314011437F
:101F20001951457000210170084670BD022070BD36
:101F30000020003C704770477047082003F062B8EB
:101F400070477047704700002DE9F04F90F8DD3082
:101F5000022B26D090F8DC30012B22D04FF0010B61
:101F600080F8DCB0022380F8DD300768D7F8D04372
:101F7000D7F8D43315784FF4007805F00106C5F38F
:101F800040054FF4F04C4FF400494FF0000A082987
:101F90007ED009DC012935D0022947D0042907D198
:101FA00059E00220BDE8F08F10296FD020296ED0B3
:101FB000072180F8DD1080F8DCA000BF90F8DD106C
:101FC00007297CD004F07F31C7F8D013056848F2A8
:101FD000800123EA0102C5F8D4230268D2F8D05365
:101FE00004F080342543C2F8D0530268D2F8D443B9
:101FF0000B401C43C2F8D44380F8DDB080F8DCA06D
:102000000020CFE7117924F0FE0401F00201214302
:1020100041EA860423F4803141EA0543117A127BB8
:1020200001F07801214302F0800412E0516824F4A9
:102030007E4408EA0121214341EA862423F4003149
:1020400041EA454391680CEA01212143D46809EA39
:1020500004240C43B2E791884FF4003C24F47E043E
:102060000CEA0141214341EA864423F4802141EAFC
:10207000854311894FF4F00505EA01412143928916
:102080004FF4000404EA0244E3E701E01BE02EE021
:1020900011794FF0007C24F07E440CEA0161214369
:1020A00041EA866423F4002141EAC543117A4FF0E6
:1020B000F04505EA01612143127B2C0100E02BE091
:1020C00004EA0264C5E7117923F0FE0301F002017E
:1020D000194341EA860121F4801141EA0553117A3E
:1020E000127B01F07801194302F0800312E051687D
:1020F00023F47E4308EA0121194341EA862121F4B1
:10210000001141EA455391680CEA01211943D36853
:1021100009EA03230B4351E7012043E730B590F868
:10212000DD30022B14D090F8DC30012B10D00123CD
:1021300080F8DC30022480F8DD400024082941D0FA
:1021400008DC01291AD0022923D0042906D12EE067
:10215000022030BD102940D0202949D0072180F825
:10216000DD1080F8DC4000BF90F8DD1007294DD06D
:1021700080F8DD3080F8DC40002030BD1168526806
:10218000890041EAC2120168D1F8085425F0BC0563
:1021900009E011685268890241EAC2320168D1F847
:1021A000085425F43C452A43C1F80824DCE711888B
:1021B0009288890441EAC2520168D1F8085425F492
:1021C0003C05F0E711781279890641EAC27201688C
:1021D000D1F8085425F03C45E5E7116852688900BC
:1021E00041EAC2120168D1F80C5425F0BC0509E09F
:1021F00011685268890241EAC2320168D1F80C5470
:1022000025F43C452A43C1F80C24ADE7012030BD3C
:1022100010B5CB0706D00368D3F8D04362F30004AF
:10222000C3F8D0438B0706D50368D3F8D04362F3D5
:102230000824C3F8D0434B0706D50368D3F8D0432E
:1022400062F31044C3F8D0430B0706D50368D3F8F4
:10225000D04362F31864C3F8D043CB0606D50368B5
:10226000D3F8D44362F30004C3F8D443890606D5F7
:102270000068D0F8D41362F30821C0F8D41310BD5D
:1022800010B590F8DD20022A18D090F8DC20012A41
:1022900014D0012200F8DC2F0223437050F8DC3CFC
:1022A000D3F8D44301F0407124F040740C43C3F8D8
:1022B000D443427000210170084610BD022010BDB9
:1022C000FF2903D0062903D001F0F6BB01F070BA54
:1022D00001F00BBB38B5040056D0022084F8DD00B5
:1022E0000025C4F8E050C4F8E450C4F8E850C4F83D
:1022F000EC50C4F8F050C4F8F450C4F8F850207A08
:10230000C0071BD021492068884208D12048016EAF
:1023100041F080610166006E00F0806000902168ED
:10232000086820F44042208A00F44040104320F422
:102330004052A08A00F4405010430860204600F04C
:1023400029F8207A800708D52168086820F44072AF
:10235000A08900F4407010430860012084F8DD007B
:1023600084F8DC505FF00001C1EBC10004EB800099
:10237000491C8561C561056245628562C9B2056314
:102380000629F1D9002038BD012038BD0068014080
:102390000010024010B586B0044614216846FEF7CE
:1023A00079F817492068884227D11648016E41F014
:1023B00080610166016E01F080610591C16C41F0A0
:1023C0000201C164C06C694600F0020005904FF440
:1023D0008060009002200190012002900020039074
:1023E0000D2004900848FFF76DFA0022114649209D
:1023F00000F0F4FA492000F0E3FA06B010BD000046
:1024000000680140001002400004004810B586B08A
:10241000044614216846FEF73DF80F4920688842BB
:1024200018D10E48C16C41F00101C164C06C69460D
:1024300000F0010005904FF47060009002200190C0
:1024400000200290032003900D2004904FF0904054
:10245000FFF738FA06B010BD0068014000100240D6
:10246000704770477047704770B50D460446FFF7D8
:102470004DFB064607E0681C05D0FFF747FB801BB5
:10248000A8420DD865B12068D0F88803C043C003C6
:10249000F1D4012084F8DD00002084F8DC0070BD58
:1024A000072084F8DD00032070BD7047704770B5C9
:1024B00090F8DD30022B1DD090F8DC30012B19D0C4
:1024C000012380F8DC30022480F8DD40EC2504682C
:1024D00005EBC1156159CE0605D54FF6C076B1435F
:1024E00032400A43625180F8DD30002180F8DC1070
:1024F000084670BD022070BD7047704770B590F8F7
:10250000DD30022B23D0022380F8DD30062920D0D5
:102510008023046803EBC115635923F00706936811
:10252000334323F01806D36833436351942504687A
:1025300005EBC115136863519824036804EBC111BE
:1025400052685A50012180F8DD10002070BD022031
:1025500070BD0368196821F007049168214321F0D8
:102560001804D168214319600368116859615168E2
:1025700002689161E6E72DE9F04F90F8DD40022C0A
:1025800025D090F8DC40012C21D04FF0010980F8D3
:10259000DC90022480F8DD4000274FF0070C06296C
:1025A00018D09C2404EBC116012A39D08024A82518
:1025B0004FF4005A4FF4405B05EBC11504EBC11416
:1025C000022A2FD0042A45D0082A0BD144E0022049
:1025D000BDE8F08F012A0AD0022A0CD0042A0ED0BE
:1025E000082A10D080F8DDC080F8DC700EE00268A8
:1025F0001968D1610AE002681968516206E0026850
:102600001968916202E002681968D16290F8DD10E1
:10261000072948D080F8DD9080F8DC700020D7E7EB
:10262000196835E04FF0A408D0F800C008EBC111DC
:102630001A684CF801205968002901680A5922F4E7
:1026400040522ED00A5101680A59D3F804C042EA18
:102650000C0218E0196821E04FF0AC08D0F800C077
:1026600008EBC1111A684CF801205968002901686B
:102670000A5922F4404214D00A5101680A59D3F889
:1026800004C042EA8C020A515968514503D1996845
:1026900002689151BAE75945B8D199680268515119
:1026A000B4E70A51B2E7012092E710B590F8DC20B8
:1026B000012A0ED0012200F8DC2F0223437050F8CB
:1026C000DC3C1C680C431C60427000210170084611
:1026D00010BD022010BD10B590F8DC20012A0ED0EC
:1026E000012200F8DC2F0223437050F8DC3C1C6808
:1026F0008C431C60427000210170084610BD02200E
:1027000010BD70B5044690F8DD00022811D094F891
:10271000DC0001280ED0012584F8DC50022084F86A
:10272000DD00204601F059F984F8DD50002084F8DE
:10273000DC0070BD022070BD10B590F8DC20012ACD
:1027400010D0012200F8DC2F0223437050F8DC3C4B
:10275000D3F894430C43C3F89443427000210170B2
:10276000084610BD022010BD10B590F8DC20012AEB
:1027700010D0012200F8DC2F0223437050F8DC3C1B
:10278000D3F898430C43C3F898434270002101707A
:10279000084610BD022010BD2DE9F041044690F816
:1027A000DD0015460E46022826D094F8DC000128EC
:1027B00021D0012784F8DC70022084F8DD00062E89
:1027C0001CD0204601F02CFAC6EBC60004EB8000BA
:1027D0002968016269684162A9688162E968C16229
:1027E000296901633146204600F0AEFF062E15D060
:1027F000E86A40B112E00220BDE8F08111462046AF
:1028000001F02AF8E0E78021206801EBC611425868
:10281000EB6D22F4007242EA4322425084F8DD70EC
:10282000002084F8DC00E7E770B590F8DD30022B7B
:1028300023D090F8DC30012B1FD0012380F8DC304E
:10284000022480F8DD40EC25046805EBC1156159D0
:10285000166821F0100141EA061121F48016516832
:10286000314321F48036D168314321F40036916838
:1028700031439669012E02D00BE0022070BD21F099
:1028800004061169314321F002065169314341F0D8
:102890000101615180F8DD30002180F8DC1008462C
:1028A00070BD000070B5040013D021684CF6CC4018
:1028B0000860216845F255500860D4E90001416084
:1028C0002168A0688860FFF721F9054641F60106F6
:1028D0000DE0012070BD00BFFFF718F9401BB042AA
:1028E00005D92068C068400701D0032070BD20686A
:1028F000C0684007F0D120680269E1688A4201D0CF
:10290000016102E04AF6AA210160002070BD006862
:102910004AF6AA2101600020704700000248816841
:1029200042681144816070477000002010B5002497
:10293000032000F073F80F2000F008F808B101241C
:1029400001E000F025F8204610BD000070B50E4EE5
:1029500005460024706898B14FF47A71B1FBF0F02D
:102960000A490968B1FBF0F000F09AFD40B9102D5A
:1029700006D200222946501E00F030F8356000E0F3
:102980000124204670BD0000700000207C00002063
:102990000A4882B0016E41F001010166016E01F04A
:1029A00001010091816D41F080518165806D00F0E1
:1029B0008050009002B000F0A1B80000001002406A
:1029C000002809DB00F01F0201219140400980002E
:1029D00000F1E020C0F8001170470000F0B40E4B89
:1029E0001B680C46C3F30223C3F10705042D00D96D
:1029F0000425191D072901D2002300E0DB1E012652
:102A000006FA05F1491E214099409E40761E164067
:102A10003143F0BC02F0FABF0CED00E0064900F0D3
:102A2000070208684FF6FF03184040EA0220034AF5
:102A300010430860704700000CED00E00000FA054C
:102A40002B492C4B0A6832214A432B4940B1B0F53F
:102A5000007F086829D020F4C06040F480602CE03A
:102A60000868C0F34120022804D051F8800F20F4F8
:102A7000807022E0D1F8800020F48070C1F88000DE
:102A8000086820F4C06040F400700860B2FBF3F006
:102A9000401C00E0401E4A69520501D50028F9D1CA
:102AA000486940050AD503207047C0F34120022839
:102AB00006D051F8800F40F4807008600020704705
:102AC000D1F8800040F48070C1F88000086820F4DC
:102AD000C06040F400700860B2FBF3F0401C00E0FE
:102AE000401E4A695205DBD50028F9D1D8E700001D
:102AF0007C00002040420F000070004002488168C6
:102B000041F4804181607047007000402DE9F84336
:102B1000044600680026BB4D00035ED5A86D002763
:102B2000C00008D4A86D40F08050A865A86D0127AA
:102B300000F080500090DFF8D092D9F8001041F4F6
:102B40008071C9F80010FEF7E1FF804606E000BF83
:102B5000FEF7DCFFA0EB080002282BD8D9F8000014
:102B6000C005F5D5D5F8900010F4407014D0216D53
:102B7000814211D0D5F89000D5F8901020F4407023
:102B800041F48031C5F89010D5F8901021F48031CF
:102B9000C5F89010C5F89000C00711D0FEF7B6FF39
:102BA000804641F2883907E0FEF7B0FFA0EB08014C
:102BB000494501D903260BE0D5F890008007F3D5ED
:102BC000D5F89000216D20F440700843C5F89000BE
:102BD0001FB1A86D20F08050A8652078C00707D0ED
:102BE000D5F88800616820F003000843C5F8880024
:102BF0002078800707D5D5F88800A16820F00C0060
:102C00000843C5F888002078400707D5D5F8880024
:102C1000E16820F030000843C5F8880020780007FC
:102C200007D5D5F88800216920F0C0000843C5F811
:102C300088002078C00607D5D5F88800616920F49F
:102C400040700843C5F888002078800607D5D5F87D
:102C50008800A16920F440600843C5F88800207806
:102C6000400607D5D5F88800E16920F440500843B4
:102C7000C5F888002078000607D5D5F88800216AB5
:102C800020F440400843C5F888002088C00507D5D7
:102C9000D5F88800616A20F440300843C5F8880000
:102CA0002068800307D5D5F89C00A16A20F00300B6
:102CB0000843C5F89C002088800507D5D5F8880012
:102CC000E16A20F440200843C5F8880020884005C8
:102CD0000FD5D5F88800216B20F440100843C5F8C3
:102CE0008800206BB0F5801F03D1E86840F48010A5
:102CF000E860208800050FD5D5F88800616B20F4C6
:102D000040000843C5F88800606BB0F5800F03D120
:102D1000E86840F48010E8602088C0040FD5D5F83A
:102D20008800A16B20F040700843C5F88800A06BB4
:102D3000B0F1807F03D1E86840F48010E86020881B
:102D40004FF0006180040ED5D5F88800E26B20F0CA
:102D500040601043C5F88800E06B884203D1E86802
:102D600040F48010E860208840040ED5D5F8880033
:102D7000226C20F040601043C5F88800206C884227
:102D800003D1E86840F48010E860208800040FD583
:102D9000D5F88800616C20F040500843C5F88800E1
:102DA000606CB0F1805F03D1E86840F48030E86087
:102DB0002068C0030FD5D5F88800A16C20F04040F2
:102DC0000843C5F88800A06CB0F1804F03D1E868D3
:102DD00040F48030E860206840030FD5D5F89C00AF
:102DE000E16C20F440100843C5F89C00E06CB0F59D
:102DF000001F03D1E86840F48010E8603046BDE869
:102E0000F883000000100240007000402DE9F047F8
:102E10000E4605004FF0000725D0DFF8AC81D8F84A
:102E2000000000F00F00B0420CD2D8F8001021F0E2
:102E30000F013143C8F80010D8F8000000F00F006F
:102E4000B04210D12968614CC80741F2883A5AD083
:102E50006868DFF87C91032808D0022820682DD00C
:102E6000400500282CDB0120BDE8F08720688001A8
:102E7000F9D5E06800F00302E068C0F30310401CDD
:102E8000032A19D0534A00BFB2FBF0F0E268C2F344
:102E900006225043E268C2F34162521C5200B0FB6A
:102EA000F2F0484517D9A06810F0F00F0CD0880751
:102EB00011D5A86840B10EE0474AE5E78003D0E7A6
:102EC00000F0B6F8484506D9A06820F0F00040F0C0
:102ED0008000A0608027A068696820F00300084394
:102EE000A060FEF713FE814606E000BFFEF70EFE6F
:102EF000A0EB090151453AD8A068696800F00C00C0
:102F0000B0EB810FF2D12868810714D5400703D5B3
:102F1000A06840F4E060A0602878000705D5A068AC
:102F200020F4605040F4E060A060A068A96820F040
:102F3000F000084304E0802F03D1A06820F0F000E7
:102F4000A060D8F80010404601F00F01B14216D938
:102F5000016821F00F0131430160FEF7D7FD0746FC
:102F600007E000BFFEF7D2FDC11B514501D9032088
:102F70007AE7D8F8000000F00F00B042F2D12878CC
:102F8000400705D5A068E96820F4E0600843A06028
:102F90002878000706D5A068296920F4605040EA27
:102FA000C100A06000F044F8A1680C4AC1F303110D
:102FB000515C01F01F01C8400949086009480068D8
:102FC000BDE8F047FFF7C2BC0020024000100240FD
:102FD00000B4C4040024F40000127A003067000832
:102FE0007C000020700000200548064900688968C0
:102FF000054AC1F30221515C01F01F01C84070472E
:103000007C00002000100240406700080548064987
:1030100000688968054AC1F3C221515C01F01F01B3
:10302000C84070477C000020001002404067000844
:10303000184910B58868C0F381021748012A0BD0DF
:103040008A684310C2F38102022A06D08A68C2F35A
:103050008102032A03D0002010BD184610BDCA68A3
:1030600002F00304CA68C2F30312521C032C02D0FC
:10307000B0FBF2F001E0B3FBF2F0CA68C968C2F33A
:1030800006225043C1F34161491C4900B0FBF1F0F5
:1030900010BD0000001002400024F4002DE9F843A8
:1030A00004007AD02078F84DC00747D0A868E968B6
:1030B00000F00C0001F003010C2802D0082817D002
:1030C00001E0032914D06068B0F5803F17D0B0F557
:1030D000A02F286817D020F480302860286820F4BA
:1030E000802028606068E0B1FEF710FD064614E01D
:1030F0002868800322D560680028D2D01EE02868A6
:1031000040F48030EDE740F480202860F7E700BF0E
:10311000FEF7FCFC801B642870D828688003F7D574
:103120000CE0FEF7F3FC064605E000BFFEF7EEFC00
:10313000801B6428F0D828688003F7D420788007A3
:103140004CD5A868E96800F00C0001F003010C28D8
:1031500002D004280DD001E002290AD0E06800283E
:1031600028682BD040F480702860FEF7CFFC06461C
:1031700019E02868400502D5E068002891D0686809
:10318000217C20F0FE4040EA01606860BF48006892
:10319000FFF7DCFB002800D120E072E1FEF7B6FC6F
:1031A000801B0228B8D828684005F7D56868217CBC
:1031B00020F0FE4040EA016068600FE020F480707B
:1031C0002860FEF7A3FC064605E000BFFEF79EFC64
:1031D000801B0228A0D828684005F7D42078000773
:1031E00029D560690028D5F8940013D040F001007B
:1031F000C5F89400FEF78AFC064606E090E000BFA2
:10320000FEF784FC801B022886D8D5F8940080073E
:10321000F6D510E020F00100C5F89400FEF776FC2A
:10322000064604E0FEF772FC801B022878D8D5F829
:1032300094008007F6D42078400761D5A86D002659
:10324000C00008D4A86D40F08050A865A86D012684
:1032500000F0805000908E480168C90511D40168C3
:10326000804641F480710160FEF750FC074604E09F
:10327000FEF74CFCC01B022852D8D8F80000C0054D
:10328000F6D5A068012815D00528D5F8900016D0ED
:1032900020F00100C5F89000D5F8900020F004005F
:1032A000C5F89000A06841F28838B8B1FEF72EFC4E
:1032B00007460EE0D5F8900040F00100F0E740F03E
:1032C0000400C5F89000F5E7FEF720FCC11B41455E
:1032D00026D8D5F890008007F6D50CE0FEF716FC4E
:1032E000074604E0FEF712FCC11B414518D8D5F88B
:1032F00090008007F6D41EB1A86D20F08050A8651C
:103300002078800629D5A0690028D5F8980013D028
:1033100040F00100C5F89800FEF7F8FB064606E00D
:1033200075E000BFFEF7F2FB801B02286FD8D5F8CE
:1033300098008007F6D510E020F00100C5F898004D
:10334000FEF7E4FB064604E0FEF7E0FB801B0228E4
:103350005DD8D5F898008007F6D4E069F0B3A96885
:10336000C1F3810103295DD00228286820F0807014
:10337000286003D0FEF7CAFB04464BE0FEF7C6FB0D
:10338000064604E0FEF7C2FB801B02283FD82868EF
:103390008001F7D4F4E908016FF00F0202EB01118C
:1033A0000843218A5204490802EB4151A26841EACC
:1033B00002210843217D4FF07E42490802EB416122
:1033C0000843217B40EAC160E968324A1140084362
:1033D000E860286840F08070286000E05EE0E868FF
:1033E00040F08070E860FEF791FB044605E000BF06
:1033F000FEF78CFB001B022809D828688001F7D54E
:103400004CE000BFFEF782FB001B022802D903201C
:10341000BDE8F88328688001F4D4E8681E490840B4
:10342000E8603BE00128F3D0E868226A00F003017D
:10343000914226D1616A00F0F002090110399142EF
:103440001FD1A26A00F4FE41B1EB022F19D194F80A
:103450002C2000F07841B1EBC26F12D1218E00F424
:10346000C00249084905A1F50011914209D194F81B
:10347000341000F0C06049084906A1F10071814292
:103480000CD00120C4E700000010024070000020B2
:10349000007000400C809F01FCFFEEFE0020B7E7AB
:1034A00010B5401EB0F1807F01D3012010BD4FF058
:1034B000E02460610F21601702F0A8FA0020A061EB
:1034C00007202061002010BD90F88410012918D039
:1034D000012180F884102421C0F8881001680A684E
:1034E0000B6823F001030B6022F0005100224266BA
:1034F000036819602021C0F8881080F884201046E5
:1035000070470220704770B5044690F88400012887
:103510001DD0012084F884002420C4F8880020688D
:103520000568026822F0010202602068826822F0C9
:1035300060620A438260204601F0A8FF20680560AF
:103540002020C4F88800002084F8840070BD022088
:1035500070BD70B5044690F8840001281DD001208C
:1035600084F884002420C4F8880020680568026874
:1035700022F0010202602068826822F060420A4361
:103580008260204601F082FF206805602020C4F898
:103590008800002084F8840070BD022070BD10B542
:1035A000040003D0D4F8880010B107E0012010BD5A
:1035B000002084F88400204600F026F82420C4F877
:1035C00088002068016821F001010160A06A10B143
:1035D000204601F07DFF204602F05EF80128E6D08B
:1035E0002068416821F4904141602068816821F0A1
:1035F0002A0181602068016841F0010101602046D4
:10360000BDE8104001F0C8BF30B59BB0044614219E
:1036100015A8FCF73FFF54216846FCF73BFF16490D
:103620002068884225D1022500246846009502942E
:10363000FFF76CFA08B1FDF7FAF81048816D41F414
:1036400000318165816D01F400311A91C16C41F046
:103650000801C164C06CCDE9165400F008001A904E
:10366000602015900720CDE9184015A90448FEF701
:1036700029F91BB030BD000000440040001002409A
:10368000000C00482DE9F84F0446D0F88800984611
:1036900015460E46202802D00220BDE8F88F96B3CA
:1036A0008DB30020C4F890004FF02109C4F8889031
:1036B0001834FEF72BFAA5878246E58754F8100CDC
:1036C000183CB0F5805F01D1206910B13546002665
:1036D00000E000255FF02007B4F8560053464FF095
:1036E0000002CDF80080D8B18021204602F020F9F8
:1036F000D8B955B115F8010B21688862D4F8881043
:1037000039EA010006D00120C7E736F8020BC0F302
:103710000800F1E7B4F85600401EA4F85600DBE7B5
:103720004021204602F004F918B1C4F88870032043
:10373000B3E7C4F888700020AFE70000FF2101481C
:10374000FEF7BEBDCC020020072912D2DFE801F04F
:103750000A12181E242A04000068D0F8841341F0CD
:10376000010104E00068D0F8841341F00201C0F8C0
:10377000841370470068D0F8841341F00401F6E721
:103780000068D0F8841341F00801F0E70068D0F831
:10379000841341F01001EAE70068D0F8841341F087
:1037A0002001E4E70068D0F8841341F04001DEE72F
:1037B00070B506460068D0F88853D0F89043E90702
:1037C00007D0E10705D00121C0F88C133046FEF781
:1037D000B2FBA80708D5A00706D531680220C1F8BA
:1037E0008C033046FEF7A8FB680708D5600706D5AE
:1037F00031680420C1F88C033046FEF79EFB280791
:1038000008D5200706D531680820C1F88C0330465A
:10381000FEF796FBE80608D5E00606D531681020CD
:10382000C1F88C033046FEF78CFB680608D56006AD
:1038300006D531684020C1F88C033046FEF782FB84
:10384000A80608D5A00606D531682020C1F88C034B
:103850003046FEF752FE70BD70B503681A68D3F8A3
:10386000A0534C6922F020022646144324F0C002E3
:10387000202E2BD08C69022C28D0032C2BD0042C8A
:103880002ED022F0E00200BF22F40064CA69224375
:1038900022F480640A6A224322F0C0644A6A224306
:1038A00022F000648A6A2243CC6A22F0404242EA53
:1038B000840222F000544A6B096B224325F48034C1
:1038C00021431A600068C0F8A01370BD22F0C00246
:1038D00042F02002D8E722F0800242F04002D3E713
:1038E00022F0400242F08002CEE72DE9F047044684
:1038F0000068D0F88883D0F890734668C5685FEA9E
:10390000C8314FF001090DD5F9030BD54FF48031C3
:10391000C0F88C1384F8DD90002084F8DC00204689
:10392000FEF790FA5FEA883009D5B80307D5216819
:103930004FF40030C1F88C032046FEF77BFAF00705
:1039400008D0E80706D02168C1F808900621204673
:10395000FEF773FAB00708D5A80706D5216802203C
:10396000886006212046FEF769FA700708D56807C7
:1039700006D521680420886006212046FEF75FFAFC
:10398000300708D5280706D5216808208860062159
:103990002046FEF755FAF00608D5E80606D5216858
:1039A0001020886006212046FEF780FDB00607D56E
:1039B000A80605D52168202088602046FEF79CFDDA
:1039C000700608D5680606D5216840208860062163
:1039D0002046FEF76AFDBDE8F087F0B50024E42636
:1039E000056806EBC11755F807C0B82606EBC116E7
:1039F000AE59402A20D00EDC082A2CD006DC012A41
:103A00001AD0022A27D0042A31D115E0102A13D067
:103A1000202A2CD11FE0B2F5007F1CD005DC802AC3
:103A200019D0B2F5807F22D106E0B2F5806F03D0C5
:103A3000B2F5006F1BD10EE04FF0BC0E0EEBC11EB5
:103A40005A6845F80E204FF0C00E05680EEBC11104
:103A50009A686A500BE0C42404EBC1145A682A51D6
:103A6000C825046805EBC1119A6862501024FE2134
:103A7000A1401A682CEA010CA240D96842EA0C0263
:103A8000A14011431A69D3F814C01546A2400A4355
:103A90000CFA04FC99694CEA020CA14041EA0C01C1
:103AA000082D06D1B20504D4B20102D4DA69A240CD
:103AB00011430068C151F0BD2DE9F0410746884629
:103AC0000068842202EBC81146588C2202EBC81110
:103AD00045584FF08802F30702EBC81407D0E907F6
:103AE00005D00121015141463846FEF7A6F9B0073D
:103AF00008D5A80706D5396802200851414638463E
:103B0000FEF79CF9700708D5680706D539680420C8
:103B1000085141463846FEF792F9300708D5280784
:103B200006D539680820085141463846FEF788F91D
:103B3000F00608D5E80606D5396810200851414638
:103B40003846FEF7B3FC700608D5680606D5396816
:103B50004020085141463846FEF7A7FC300608D5FC
:103B6000280606D539688020085141463846FEF7B8
:103B700062F9F00509D5E80507D539684FF480707A
:103B8000085141463846FEF757F9B00509D5A80552
:103B900007D539684FF40070085141463846FEF7A2
:103BA00060FC700509D5680507D539684FF4806059
:103BB000085141463846FEF753FC300509D5280523
:103BC00007D539684FF40060085141463846FEF782
:103BD0004AFCF00409D5E80407D539684FF4805051
:103BE000085141463846FEF73DFCB00409D5A8040B
:103BF00007D539684FF40050085141463846FEF762
:103C000020F9700409D5680407D539684FF480405D
:103C1000085141463846FEF78DF9BDE8F0810000B5
:103C20002DE9F04F8024036804EBC1169C5924F061
:103C300070449C5103689A469D59E82404EBC114D2
:103C4000A64653F80490E42404EBC114A3461C597F
:103C5000D3F8A033576925F020053D43202F24D009
:103C60009769022F21D0032F24D0042F27D025F4C9
:103C7000D07500BF25F40067D5693D4325F4806702
:103C8000156A3D4325F0C067556A3D4325F000673E
:103C9000956A3D4325F07047D56A3D43576B25F43F
:103CA0000035B7F1005F0FD010E025F4C07545F086
:103CB0002005DFE725F4807545F08005DAE725F07B
:103CC000800545F48075D5E745F4003525F04007BB
:103CD000956BD2F850802F4327F4802C976D47EADC
:103CE0000C07DFF8D0C007EA0C0748EA070892F88B
:103CF0003C7029F03F0C07F03F0747EA0C0727F01C
:103D0000004C176C47EA0C0725B924F4807C546CEE
:103D100044EA0C04D2F848C0BCF5606F02D0BCF590
:103D2000F05F01D1402D03D124F4F0544CEA040497
:103D300024F48045D46C2C43556D062927D2DFE846
:103D400001F003090F151B21126B23F4003343EA22
:103D500042031CE0126B23F4802343EA820316E043
:103D6000126B23F4002343EAC20310E0126B23F426
:103D7000801343EA02130AE0126B23F4001343EAB0
:103D8000421304E0126B23F4800343EA82134AF8DF
:103D90000680066846F80E70066846F80B40D42484
:103DA000026804EBC11155500068C0F8A033BDE8AB
:103DB000F08F0000FFFF06FE00F0CAFEFEE700EBFA
:103DC0008100006E00F0F84070478068C0F3C000CA
:103DD00070478068C0F3800070478068C0F380003F
:103DE0007047C06810F4406F01D000207047012078
:103DF0007047042303EAD15310B518444369C1F353
:103E0000045107248C40A3438A401343436110BDEF
:103E100000EB8100016E21F0004111430166704703
:103E200010B58CB0002408940994202168460A94A7
:103E3000FCF730FB25484FF0A041082201604FF409
:103E40000021C0E90114C46001210461C0E9051228
:103E5000047744770222026280F824404FF4D4624F
:103E6000C2628A02026380F838100903C16380F8D5
:103E70004040FDF791F908B1FCF7D9FC08A91348B7
:103E80000894FCF729FD08B1FCF7D1FC104800901C
:103E900006200190032002907F2003900420CDE9AA
:103EA000040469460948FCF7C7FD08B1FCF7BFFCEC
:103EB000084800900C20019069460448FCF7BCFDBE
:103EC000002801D0FCF7B3FC0CB010BD3401002079
:103ED000040060088000501D30B589B0202168467C
:103EE000FCF7D8FA1B481A4900240160C902C0E94E
:103EF0000114C46004250461C0E9054504774477D2
:103F00000121016280F824404FF4D462C2628A0227
:103F1000026380F838100903C16380F84040FDF760
:103F20003BF908B1FCF783FC0B4800900620019098
:103F3000032002907F200594CDE9030569460548DA
:103F4000FCF77AFD002801D0FCF771FC09B030BD08
:103F500000010050A001002040002019114808B5C0
:103F6000816C41F004018164816C01F004010091D5
:103F7000816C41F001018164806C002200F001003D
:103F8000009002210B20FEF729FD0B20FEF718FD03
:103F9000002201210C20FEF721FDBDE808400C2085
:103FA000FEF70EBD001002402DE9F04387B014214A
:103FB0006846FCF76FFA4048C16C41F01001C164DB
:103FC000C16C01F010010591C16C41F02001C16488
:103FD000C16C01F020010591C16C41F00401C16484
:103FE000C16C01F004010591C16C41F00101C16493
:103FF000C16C01F001010591C16C41F00201C16485
:10400000C16C01F002010591C16C41F00801C1646D
:10401000C06C4FF4004500F008004FF09047059049
:10402000002229463846FDF76CFDDFF8908000221B
:1040300080214046FDF765FDDFF8849000220121D4
:104040004846FDF75EFD202000904FF40410012447
:10405000CDE9010469464846FDF734FCCDE900543A
:1040600000250226CDE9025669463846FDF72AFCAE
:10407000CDE90045694613480294FDF723FC8020F2
:10408000009001AA112082E8610069464046FDF7D0
:1040900019FC0094CDE90145694648460395FDF7B2
:1040A00011FC002203211720FEF798FC1720FEF7D1
:1040B00087FC07B0BDE8F083001002400004004810
:1040C00000100048000C0048F0B5C1B000243B943B
:1040D000349435943C943D9436943E943F94379474
:1040E00029942A942B94602168462C94FCF7D2F9E9
:1040F000389439941C212DA83A94FCF7CBF924214B
:1041000020A8FCF7C7F9202118A8FCF7C3F99D489F
:104110009B4904258460C0E90015FEF7DBF808B16F
:10412000FCF785FB0C219748FDF78DFE08B1FCF7E5
:104130007EFB0A219348FEF797F908B1FCF777FB5D
:1041400000219048FEF79CF808B1FCF770FB3B9407
:104150003BAA04218B483C94FDF7E0FF08B1FCF733
:1041600066FB34943594369434AA042185483794F8
:10417000FDF7EAFE08B1FCF75AFB01220421814851
:10418000FEF746F80220CDE93E403EAA01217D48D7
:10419000FDF740FD08B1FCF74AFB002201217948F8
:1041A000FDF7BAFC08B1FCF742FB29AA48F2D0405F
:1041B000082682E8710006217248FEF79FF908B1CF
:1041C000FCF735FB0094019401270294CDE90347E5
:1041D00008940594069407940D9409940A940B94FA
:1041E0000C946A46062167481794FEF7D5FA08B181
:1041F000FCF71DFB44F26820389038AB0222062100
:104200006048FEF7B8F908B1FCF711FB03202B90CA
:1042100029AA00215B48FEF771F908B1FCF707FBFA
:1042200030942DAA002157482D973394FEF7FCFABD
:1042300008B1FCF7FCFA4FF4A0773A460021514848
:10424000FEF735F908B1FCF7F2FA00944FF0006080
:104250000A900DA90194800081E831004015CDE954
:1042600010401294149415946A46002145481694FF
:10427000FEF792FA08B1FCF7DAFA6A4601214148E2
:10428000FEF78AFA08B1FCF7D2FA38AB0122002116
:104290003C48FEF770F908B1FCF7C9FA4FF44060EA
:1042A00020905520CDE92104CDE924402394269483
:1042B000279420AA002133482894FDF7F5FD08B182
:1042C000FCF7B5FA20AA01212E48FDF7EDFD08B153
:1042D000FCF7ADFACDE918462020CDE91A64CDE906
:1042E0001C401E9418AB0122002126481F94FEF7A3
:1042F00008FA08B1FCF79BFA18AB04220121214807
:10430000FEF7FFF908B1FCF792FA199418AB0222F4
:1043100000211C481A94FEF7F4F908B1FCF787FA5B
:1043200018AB082201211748FEF7EBF908B1FCF79A
:104330007EFA29AA01211348FEF7E0F808B1FCF73C
:1043400076FA2DAA01210F48FEF76EFA08B1FCF7A4
:104350006EFA3A4601210B48FEF7A9F808B1FCF7BE
:1043600066FA012238AB11460648FEF704F908B197
:10437000FCF75DFA0348FEF749F841B0F0BD0000D4
:1043800000680140CC0200200A4810B508490160CD
:104390000421416040F6FF71C160F9218160FEF7A0
:1043A00081FA002803D0BDE81040FCF740BA10BDE8
:1043B00000300040C8030020184810B516490160BD
:1043C0004FF4E1214160002181600C22C160C0E90D
:1043D00004128161C161016241628162FFF7DFF80D
:1043E00008B1FCF724FA00210C48FFF7B2F808B135
:1043F000FCF71DFA00210948FFF785F808B1FCF722
:1044000016FA0648FFF760F8002803D0BDE8104010
:10441000FCF70DBA10BD000000440040D803002096
:1044200000F096FBFEE700F093FBFEE770B500247A
:104430000021204600F0A1F80025002000F091F9AD
:104440006D1CEDB2802DF8D3641CE4B2082CEFD3C0
:1044500070BD10B5012000F057F9BDE810400120F3
:1044600000F060B970B500240646802525FA04F0F6
:10447000304000D0012000F055F9012000F044F94F
:10448000002000F041F9641CE4B2082CEED30120B6
:1044900000F03AF9BDE87040002000F035B910B5E1
:1044A000012000F03FF9012000F02EF9002000F07B
:1044B00039F9BDE81040002000F026B910B5002001
:1044C00000F030F9012000F01FF9BDE81040012094
:1044D00000F028B910B5FFF7BCFFAE2000F030F9AE
:1044E000D52000F02DF9802000F02AF9A82000F056
:1044F00027F93F2000F024F9D32000F021F9002013
:1045000000F01EF9402000F01BF9A12000F018F97E
:10451000C82000F015F9DA2000F012F9122000F09E
:104520000FF9812000F00CF9CF2000F009F9D92013
:1045300000F006F9F12000F003F9DB2000F000F9AB
:10454000302000F0FDF8A42000F0FAF8A62000F0DA
:10455000F7F88D2000F0F4F8142000F0F1F8AF2007
:1045600000F0EEF8BDE81040FFF760BF0246012002
:1045700000E05043491EFCD2704710B50C4640F095
:10458000B00000F0DDF8102040EA141000F0D8F878
:1045900004F00F00BDE8104000F0D2B82DE9F04162
:1045A0000746CE004000083E801E15464FF0FF38FB
:1045B000F1B2C0B2FFF7E1FF1148002400EB05158E
:1045C0002819A0F5805090F8000E00F0CAF8641C7D
:1045D000E4B2082CF4D308EB4700F1B2C0B2FFF705
:1045E000CCFF00242819A0F5805090F8080E00F0A8
:1045F000B8F8641CE4B2082CF4D3BDE8F0810000E4
:104600008A6000082DE9F0411D4617460E46804697
:10461000002415E0291B1020491EFFF7A7FFB7FB58
:10462000F0F000F00F0206EB0400C1B20A2A404687
:1046300001D2303200E03732FFF7B0FF641CE4B241
:10464000AC42E7D3BDE8F0812DE9F04700241D46D8
:104650001646884681460A2713E0291B0A20491E70
:10466000FFF784FFB6FBF0F0B0FBF7F107FB110298
:1046700008EB0400C1B248463032FFF78FFF641CDC
:10468000E4B2AC42E9D3BDE8F0872DE9F0471E461D
:1046900014008846814604D42B22FFF77FFF25466D
:1046A00003E02D22FFF77AFF654200240A2714E079
:1046B000311B0A20491EFFF759FFB5FBF0F0B0FB94
:1046C000F7F107FB110208EB0400401CC1B2484699
:1046D0003032FFF763FF641CE4B2B442E8D3BDE8B4
:1046E000F0872DE9F04115460E460746002406E006
:1046F0003019C1B23846FFF751FF641CE4B22A5D9D
:10470000002AF5D1BDE8F08110B502464FF4004112
:104710004FF09040FDF7F5F9BDE81040032001F09F
:10472000FFBA000010B5024680210448FDF7E9F900
:10473000BDE81040012001F0F3BA00000004004879
:1047400010B50446FFF7ABFE7820FFF78BFE002084
:10475000FFF788FE2046FFF785FEBDE81040FFF713
:10476000ADBE10B50446FFF79AFE7820FFF77AFE3B
:104770004020FFF777FE2046FFF774FEBDE81040AB
:10478000FFF79CBE00B58FB0684600F057FA9DF861
:104790003600002816D00C98002813D1684600F087
:1047A000EBFD09480178052902D00078062809D1D7
:1047B00000F05AFD00F04CFD002803D14FF40070CA
:1047C00000F086F90FB000BD4000002001480078DD
:1047D000704700004000002010B50A4A044690606F
:1047E000517000211170D16011615161916191701E
:1047F000D1709180D18000F0FFF92046BDE81040D3
:1048000000F020BD40000020E8B320498968D1B302
:1048100091ED010ADFED1E0A91ED022AF0EE081A71
:1048200020EE201ADFED1B0A90F8362060EE200AF9
:1048300032EE610A32EE212A2AB390F8352012B303
:10484000D0ED051AF4EEC11AF1EE10FA1CDBF4EE0D
:10485000E01AF1EE10FA17D8D0ED060AF4EEC00A0D
:10486000F1EE10FA10DBF4EEC20AF1EE10FA0BD8FA
:1048700090ED070AD1ED040AB4EEE00AF1EE10FA69
:1048800002DB01207047FFE70020FBE7400000202B
:104890006666663FCDCC8C3F10B501211848FDF708
:1048A0002BF948B100221749002004468B789A4220
:1048B00004D08A708C8009E00122F4E78B881E2BDB
:1048C00004D25B1C9BB28B801E2B0AD0CA78002AB4
:1048D00006D0CA884FF6FF739A4201D2521CCA8092
:1048E00010BDCB783BB132B9CB88322B03D3B3F5B3
:1048F0007A7F00D80120CA70002AEAD1CC8010BD8E
:10490000000C00484000002070B51B4C0546A06814
:1049100000F088FB00282DD02846FFF775FF0028FF
:1049200028D000F09BFC002824D04FF4806113486D
:10493000FDF7E2F800281DD0114D20212846FDF793
:10494000DBF8002816D000F08FFC00F081FC10B1DD
:1049500000F014F928B1BDE870404FF4027000F087
:10496000B7B8012211462846FDF7CBF80520207084
:104970000020E06070BD00004000002000040048FE
:104980000010004810B500F037F9BDE8104000F005
:10499000DBBC00002DE9F0438FB0FFF77DFF06463A
:1049A000684600F04BF9494CE068401CE0600C9907
:1049B000082729B12770FFF7E5FF0FB0BDE8F083A6
:1049C000217800254FF003094FF00708092978D214
:1049D000DFE801F006101D25333F596A0500ECE7BA
:1049E000617811B14FF47A7100E064218142E4D81A
:1049F000012009E0A06800F015FB0028DDD09DF83B
:104A000034000028D9D002202070E560D5E79DF859
:104A100036100029D1D0C828CFD34846F4E76846DD
:104A2000FFF7F2FE38B12069401C2061B0F5FA7F33
:104A3000C3D30420E8E72561BFE76846FFF7E4FE3B
:104A400028B1002EB9D06846FFF75EFFB5E74846AB
:104A500034E0CEB99DF83500F8B1A0689DED070AA5
:104A6000D0ED030AB4EEE00AF1EE10FA09DA00F034
:104A7000DDFBA068D0ED0D0AB4EEE00AF1EE10FA0D
:104A80009BDB0620C0E726B1FFF77CFF84F800809F
:104A9000BBE79DF8350000288FD1FFF773FF277023
:104AA000802000F0AFFAB0E7642886D36846FFF7AD
:104AB000ABFE10B1042001E003E00320207025616B
:104AC000A3E74FF4806000F003F876E74000002091
:104AD00010B500F097FA02490820087010BD0000D8
:104AE0004000002000B58FB0684600F0A7F81649D6
:104AF00008984A6990420AD009988A69904206D07B
:104B00000C9820B90878082801D0012200E0002282
:104B100008984861099888610B780C48052B08D0E3
:104B20000978062905D052B10121FCF7E5FF48B10B
:104B300005E022B10121FCF7DFFF012800D00020B1
:104B40000FB000BD0120FBE740000020001000482E
:104B500003490120886203490F2008607047000064
:104B600000100048986B0140034A1368C3F89C008A
:104B70001068C0F81C117047CC0200200548064997
:104B80000068884203D10F210248FDF7D5BD0120FE
:104B900070470000CC02002000680140054806492B
:104BA0000068884204D14FF4E0210248FDF77DBD42
:104BB00001207047CC0200200068014010B500229F
:104BC00001210A48FCF79DFF09480A49006888420C
:104BD0000AD10F210648FDF7C7FDBDE810404FF48C
:104BE000E0210348FDF777BD10BD0000001000482C
:104BF000CC0200200068014010B5002201210748C6
:104C0000FCF77FFF064807490068884205D1BDE8E8
:104C100010400F210248FDF7A7BD10BD001000484D
:104C2000CC02002000680140022000F0EBB9000037
:104C30000148006B704700008000002000283AD037
:104C4000EFF3108272B61C490B8803804B884380B7
:104C50008B88838091ED020A80ED020A91ED030AB0
:104C600080ED030A91ED040A80ED040A91ED050A36
:104C700080ED050A91ED060A80ED060A91ED070A1E
:104C800080ED070A0B6A03624B6A43628B6A836298
:104C9000CB6AC3620B6B036391F8343080F8343015
:104CA00091F8353080F8353091F8361080F83610AC
:104CB000002A00D162B670478000002030B505465A
:104CC0002F488FB0002404804480001F04803821C6
:104CD0006846FBF7DFFB38222A496846FBF7A8FB4A
:104CE0002949BDF800000880BDF802004880BDF8E1
:104CF000040088809DED020A81ED020A9DED030A01
:104D000081ED030A9DED040A81ED040A9DED050A7B
:104D100081ED050A9DED060A81ED060A9DED070A63
:104D200081ED070A08980862099848620A98886223
:104D30000B98C8620C9808639DF8340081F8340021
:104D40009DF8350081F835009DF8360081F8360071
:104D50000B4A921FC2E9035454619FED0C0A9461FF
:104D600082ED070A82ED080AFF20948010705470CB
:104D7000002D02D0012081F834000FB030BD0000BA
:104D8000060000207C660008800000200000000073
:104D90002DE9F0418F4C2DED028B2069616988422D
:104DA00007D16078401CC0B2607003287DD3012019
:104DB00000E1002687496670891D60610A88864D7A
:104DC0002A80498869808349891C0988A980296AC1
:104DD000491C29626862E068C0B12A884FF480519A
:104DE0008A4213D26A888A4210D2AA888A420DD295
:104DF000298804290AD92A8840F6FB718A4205D2FB
:104E0000AA88042A02D9AA888A4201D30420D1E0C0
:104E1000298830F8482F8B1AA988428850ED030A58
:104E20008A1A90F90410594300EE101AB8EEC00A1D
:104E300020EE200A85ED020A90F9051050ED020AD5
:104E4000514300EE101AB8EEC00A20EE200A85ED9C
:104E5000040A698850ED010A00EE101AB8EE400A03
:104E600020EE200A85ED070A95ED040A95ED041A57
:104E7000D4ED070A40EE010AC4ED070A95ED021AC7
:104E8000D5ED021A94ED080A01EE210A84ED080A14
:104E9000A088401C80B2A080C82818D39FED4F8AFC
:104EA00080EE880A00F06AFE00E08EE085ED050ADB
:104EB000D4ED080A80EE880A00F060FE85ED030A52
:104EC0009FED470A84ED070A84ED080AA680E06892
:104ED00090ED0A0ADFED430AA16980EE201A491C11
:104EE000A161FCEEC10A10EE903ADFED3F0A80EEC0
:104EF000201AFCEEC10A10EE902A521C914201D9F0
:104F000085F83560D5ED040ADFF8E0E010EE90CAD0
:104F10000127F44502D9FF21217024E0D5ED040AD0
:104F2000DFF8CCE010EE90CAF4451CDD94F900C027
:104F3000BCF1000F17DA99420FD391420DD800EE61
:104F4000901AF8EE600A80EE201A85ED061AE96ADA
:104F5000491CE96285F8357003E0E96A09B185F812
:104F60003560A661277000F05DF8A0B1E068D5ED6E
:104F7000020A90ED0E0AF4EEC00AF1EE10FA08DC17
:104F8000D5ED020AB1EE400AF4EEC00AF1EE10FAD5
:104F900001D220200EE0E06800F044F880B1E06823
:104FA00095ED070AD0ED060AB4EEE00AF1EE10FA2C
:104FB00006DD4020BDEC028BBDE8F04100F022B8D8
:104FC000A86A401CA86285F83670BDEC028BBDE86B
:104FD000F081000000000020800000200000484315
:104FE0000000000000005C4200003442CDCC4CBE0A
:104FF000CDCC4C3E02480169491C0161704700005C
:105000000000002004490A6B02430A63002081F873
:105010003600FFF7F1BD0000800000200048704717
:10502000B4660008E8B390F84F10D1B30178C1BB63
:1050300090ED010AB5EEC00AF1EE10FA31D9454AF9
:10504000816891422DDB444A91427EDC90ED040A56
:10505000B5EEC00AF1EE10FA77D9D0ED030AF4EEFE
:10506000C00AF1EE10FA70D990ED080AB5EEC00A48
:10507000F1EE10FA69D990ED090AB5EEC00AF1EE29
:1050800010FA62D990ED0F0AB5EEC00AF1EE10FAEF
:105090005BD990ED100AB5EEC00AF1EE10FA54D9C2
:1050A00000E052E090ED110AB5EEC00AF1EE10FA00
:1050B0004BD9B0F84810402947D34FF47C62914255
:1050C00043D2B0F84A1040293FD391423DD290F9E3
:1050D0004C10012901D0491C37D190F94D100129FC
:1050E00001D0491C31D190F94E10012901D0491C41
:1050F0002BD190ED0B0AB5EEC00AF1EE10FA24D9CF
:1051000010EE101A154A91421FDC90ED0C1AB5EE04
:10511000C01AF1EE10FA18D990ED0D0AB4EEC10ADA
:10512000F1EE10FA11D390ED0E1AB4EEC01AF1EEB2
:1051300010FA0AD990ED060AB4EEE00AF1EE10FA80
:1051400003D9806A0649884201DA002070470120AD
:105150007047000000003442000082423333733F46
:1051600000007A447047000010B527492DED028BEE
:10517000B0EE408A9FED230A486870B1B4EE488AC9
:10518000F1EE10FA09D118EE102AB2F1FF4F04DA4D
:1051900018EE102A12F5000F02D3002048700DE01F
:1051A00090ED0B0AB4EEC08AF1EE10FA06DCB1EE17
:1051B000400AB4EEC08AF1EE10FA01D2B0EE408A95
:1051C000B7EE001AB6EE000A31EE482ADFED0F1AEC
:1051D000F0EE400A42EE210AFCEEE00A10EE900AE0
:1051E00078EE010A80B200EEA10ABCEEC00A10EE11
:1051F000101A89B2FFF7B8FCB0EE480ABDEC028B7A
:1052000010BD0000000000002400002000D08446F3
:1052100010B59FED040AFFF7A7FF034880ED050ACC
:1052200010BD00000000000024000020014890EDA7
:10523000040A704724000020014890ED050A7047D9
:10524000240000200149486000F07EB824000020BE
:105250000148407870470000240000200148007891
:10526000704700002400002070B5334C2DED028BF8
:105270006068E0B32178D1B3304D95F83610B1B302
:1052800090ED0C0AD4ED040AB4EEE00AF1EE10FA47
:105290001ADC95ED070A90ED031AB4EEC10AF1EE9F
:1052A00010FA13D290ED0D0AB4EEE00AF1EE10FA06
:1052B0000CDD9FED231A70EE810AC4ED040AB4EEF2
:1052C000E00AF1EE10FA01D284ED040A95ED060A27
:1052D000DFED1C0A20EE208A94ED020A00F0A6FB06
:1052E000D4ED040A68EE200A60EE200A00E020E017
:1052F000606895ED040A90ED081A01EE600AD5ED9C
:10530000070A10EE901AB1F1804F01DCF0EE000AAE
:1053100090F94E0001EE100AB8EEC11A21EE001A03
:1053200081EE200AFFF720FF84ED050ABDEC028B19
:1053300070BD00206070F9E724000020B800002054
:1053400017B75138DB0FC9400A489FED090A002101
:1053500080ED020A80ED030A80ED040A80ED050A63
:1053600081610170416801B101214170FFF750BFB7
:10537000000000002400002070B5204C050024D05F
:1053800095F8360008B36668FEB1382229461C48F5
:10539000FBF74EF895F83500DFED1A0A0121B8B198
:1053A000E86AA269904213D0A0619FED170A84EDCC
:1053B000020A95ED060A20EE200AD6ED0A0A80EED2
:1053C000201A84ED031A217015E00020607070BD72
:1053D000207880B194ED020A94ED031A0B4A30EE66
:1053E000010A10EE100A84ED020A904203DB30EE4F
:1053F000600A84ED020A617070BD00002400002084
:10540000B8000020DB0FC94000000000DB0FC940DE
:105410007047FDF783BA10B594B038216846FBF7A2
:1054200039F814210EA8FBF735F80020FDF708FB2A
:10543000092000904FF48030019001200590022057
:105440000324CDE907045521CDE909010B900C9007
:105450000D906846FDF722FE60B90F20CDE90E04DD
:10546000002010901190129004210EA8FDF7CEFCA0
:10547000002801D0FBF7DBF914B010BD0248016829
:1054800041F470010160704788ED00E030B5416E75
:10549000B9B1026891689268C1F342610B4B520F37
:1054A0009C5CE50003F10804A25CB5FBF2F2A0F8F5
:1054B0006A205A5C615CD200B2FBF1F1A0F868107E
:1054C00030BD0121A0F86A10F8E70000206700084D
:1054D00090F82810090706D501684A68836B22F402
:1054E00000421A434A6090F82810C90706D00168A4
:1054F0004A68C36A22F400321A434A6090F82810BE
:10550000890706D501684A68036B22F480321A4382
:105510004A6090F82810490706D501684A68436B2D
:1055200022F480221A434A6090F82810C90606D552
:1055300001688A68C36B22F480521A438A6090F82B
:105540002810890606D501688A68036C22F4005287
:105550001A438A6090F82810490611D501684A68F4
:10556000436C22F480121A434A60416CB1F5801FEB
:1055700006D101684A68836C22F4C0021A434A606B
:1055800090F82810090606D501684A68C06C22F414
:10559000002202434A6070472DE9F8430026044682
:1055A000C0F89060FCF7B2FA8046206800684FF0BF
:1055B000200500076FF07E4713D5434600222904DB
:1055C0002046009700F0B4F958B1216851E8000F67
:1055D00020F0800041E80002002AF6D1C4F888508B
:1055E00021E020680068400722D5434600224FF49E
:1055F00080012046009700F09BF9C8B1216851E86E
:10560000000F20F4907041E80002002AF6D12068D3
:10561000083050E8001F21F0010140E80012002A84
:10562000F5D1C4F88C5084F884600320BDE8F88379
:10563000C4F88850C4F88C5044F86C6F66602676C5
:105640000020F3E710B5026852E8001F21F49071C2
:1056500042E80013002BF6D10E4B0268083252E8E4
:10566000001F194042E80014002CF6D1C16E012938
:1056700008D1016851E8002F22F0100241E8002310
:10568000002BF6D12021C0F88C100021C1664167A3
:1056900010BD0000FEFFFFEF2DE9F0410446016858
:1056A00080682269E3691043626900251A43104348
:1056B000DFF84CC20A68934B1A4002430A60206824
:1056C0004168E26821F44051114341602168A069BA
:1056D000614501D0226A10438A688B4B1A4002430D
:1056E0008A602068C16A626A21F00F011143C162B9
:1056F0008649236886488B420DD1D0F8880010F087
:10570000030006D0012867D0022854D0032851D1C5
:1057100064E001204FE07F498B420BD1D0F8880034
:1057200010F00C0047D0042845D0082852D00C288F
:1057300040D153E078498B420BD1D0F8880010F06B
:10574000300038D0102847D0202843D0302831D11D
:1057500044E072498B420BD1D0F8880010F0C000B1
:1057600029D0402838D0802834D0C02822D135E034
:105770006B498B420ED1D0F8880010F440701AD0DB
:10578000B0F5807F28D0B0F5007F23D0B0F5407F02
:1057900010D123E063450DD1D0F8880010F44060AB
:1057A00009D0B0F5806F17D0B0F5006F12D0B0F50A
:1057B000406F13D010205B4A5B4F00264FF400412E
:1057C000634539D160B102280DD004280DD00828D6
:1057D00031D10EE00220EEE70420ECE70820EAE7F2
:1057E000FDF702FC03E0114603E0FDF721FC010098
:1057F0007BD0606A37F810206768B1FBF2F007EBE6
:105800004703834269D8B0EB073F66D800230846B8
:105810001946FAF751FD090241EA106102027808BF
:10582000101871413A460023FAF746FD3F4AA0F5A9
:105830004071914257D950E0E3694FF6EF788B42BF
:105840002BD1092849D2DFE800F005080D4825488A
:1058500048480E00FDF7C8FB01E0FDF7D7FB01004B
:1058600001D142E01146606A37F81000B1FBF0F058
:105870004100606801EB5001B1FBF0F1A1F11000B3
:1058800040452AD84FF6F07201EA0200C1F3420106
:10589000084328E0FDF7CCFBE1E709281DD2DFE84B
:1058A00000F005080D1C1E1C1C1C0E00FDF79CFBC7
:1058B00001E0FDF7ABFB010001D116E01146606A83
:1058C00037F81000B1FBF0F1606801EB5001B1FB5B
:1058D000F0F0A0F11001414504D9012505E0FDF7E4
:1058E000A7FBE8E780B22168C8600120A4F86A003D
:1058F00024F8680F2846E6602661BDE8F0810000C4
:1059000000800040F369FFCFFFF4FF110038014031
:10591000001002400044004000480040004C00409D
:10592000005000400024F40008670008FFFC0F004E
:105930002DE9F047994617460D4604464FF00008FA
:10594000089E33E0701C31D0FCF7E0F8A0EB0900B2
:10595000B04218D8BEB120680168490726D5802D0D
:1059600024D0402D22D0C169C94309070DD4082590
:1059700005622046FFF766FEC4F8905084F88480E4
:105980000120BDE8F0870320FBE7C069C0430005A4
:105990000CD421684FF4006008622046FFF752FEE5
:1059A0002020C4F8900084F88480ECE72068C06967
:1059B00035EA000004D00020B842C3D00020E0E760
:1059C0000120F9E7FFF7C4F8FEE7000070B5050015
:1059D00003D011B10AB1082A01D9012070BD940089
:1059E000261D22460748FAF7DEFC064806492044F1
:1059F0003246096801602846BDE87040022301492B
:105A0000FDF740BEF0000020046700080907090EFA
:105A1000002804DB00F1E02080F80014704700F05B
:105A20000F0000F1E02080F8141D704710EE101AEE
:105A300008B5444A6846B2EB410F28D94FF0E6401A
:105A4000B0EB410F94BF00204FF0FF300090009862
:105A5000002861DB60EE000A10F0010F45D010F065
:105A6000020FDFED391A9FED391A00EEE11ADFED72
:105A7000381A40EE811A21EEA01AF0EE400A40EEEC
:105A8000010A08BFF1EE600AB0EE600A08BD314BB2
:105A900021F0004293423CD911F0004FDFED2E0A75
:105AA00020EE201ADFED2D0A19BF31EE601A71EEDB
:105AB000200A31EE201A71EE600ABDEEE01A11EEF6
:105AC000100A9FED271A00F0030000EEC10A9FEDB7
:105AD000251A009000EEC10A9FED231A00EEC10ABC
