:020000040800F2
:10000000980D002079020008BB5A0008F54400084A
:10001000B55A00085D070008816300080000000071
:10002000000000000000000000000000CB5D0008A0
:100030003B0C000800000000C95D0008CD5D000811
:10004000930200089302000893020008930200083C
:10005000930200089302000893020008930200082C
:10006000930200089302000893020008510B000855
:100070005D0B000893020008930200089302000839
:1000800093020008930200085D050008930200082F
:100090009302000893020008930200083D0C000838
:1000A00093020008930200089302000893020008DC
:1000B00093020008930200089302000893020008CC
:1000C00093020008930200089302000893020008BC
:1000D00093020008930200089302000893020008AC
:1000E000930200089302000893020008930200089C
:1000F00093020008930200089302000879050008A3
:10010000930200089302000893020008930200087B
:10011000930200089302000893020008930200086B
:10012000690B0008750B0008810B0008930200089A
:100130009302000885050008910500089302000855
:10014000930200089302000893020008930200083B
:10015000930200089302000893020008930200082B
:1001600093020008793E00089302000893020008F9
:10017000930200089302000893020008930200080B
:1001800093020008930200089302000893020008FB
:100190009302000800000000930200089302000888
:1001A00093020008930200089302000893020008DB
:1001B00093020008930200089302000893020008CB
:1001C00093020008930200089302000893020008BB
:1001D000930200089302000800F002F800F03CF8D7
:1001E0000AA090E8000C82448344AAF10107DA4592
:1001F00001D100F031F8AFF2090EBAE80F0013F0A8
:10020000010F18BFFB1A43F001031847446E0000AA
:10021000646E0000103A24BF78C878C1FAD852073B
:1002200024BF30C830C144BF04680C607047000070
:100230000023002400250026103A28BF78C1FBD8EF
:10024000520728BF30C148BF0B6070471FB506F08A
:1002500013FB1FBD10B510BD00F046F91146FFF7A6
:10026000F5FF06F0CFF800F064F903B4FFF7F2FFF2
:1002700003BC00F06BF900000948804709480047BB
:10028000FEE7FEE7FEE7FEE7FEE7FEE7FEE7FEE746
:10029000FEE7FEE704480549054A064B70470000A3
:1002A000395E0008D901000898070020980D002049
:1002B000980900209809002053EA020C00F0698098
:1002C0002DE9F04B4FF00006002B1FBFB3FA83F56A
:1002D00003FA05F424FA05F65E4012BF1643B2FA9B
:1002E00082F502FA05F4C5F120051EBF22FA05FCCD
:1002F00044EA0C04203556EA044C4FEA144418BF73
:10030000641C4FF000084FF00009904271EB030CA1
:1003100039D3002919BFB1FA81F701FA07F6B0FA0B
:1003200080F700FA07F6C7F120071EBF20FA07FC86
:1003300046EA0C062037B6FBF4FCA7EB0507103F96
:1003400007F01F0BCBF120060CFA0BFB2CFA06F67C
:1003500044BFB3460026202FA4BF5E464FF0000BDB
:100360005BEA060C08BF4FF0010B19EB0B09ABFB66
:10037000027C48EB0608C01B06FB02CC0BFB03CC3F
:1003800071EB0C01C1E70B46024641464846BDE809
:10039000F08B13B54FF000004FF00001AFF3008079
:1003A000BDE81C407047032A40F2308010F0030C77
:1003B00000F0158011F8013BBCF1020F624498BFB8
:1003C00011F801CB00F8013B38BF11F8013BA2F155
:1003D000040298BF00F801CB38BF00F8013B11F0D0
:1003E000030300F02580083AC0F0088051F8043B70
:1003F000083A51F804CBA0E80810F5E7121D5CBFDD
:1004000051F8043B40F8043BAFF30080D20724BF0F
:1004100011F8013B11F801CB48BF11F8012B24BFA3
:1004200000F8013B00F801CB48BF00F8012B7047F2
:1004300010B5203AC0F00B80B1E81850203AA0E87F
:100440001850B1E81850A0E81850BFF4F5AF5FEAB3
:10045000027C24BFB1E81850A0E8185044BF18C966
:1004600018C0BDE810405FEA827C24BF51F8043B0D
:1004700040F8043B08BF7047D20728BF31F8023B61
:1004800048BF11F8012B28BF20F8023B48BF00F8F5
:10049000012B70474FF0000200B513469446964674
:1004A000203922BFA0E80C50A0E80C50B1F1200187
:1004B000BFF4F7AF090728BFA0E80C5048BF0CC035
:1004C0005DF804EB890028BF40F8042B08BF704793
:1004D00048BF20F8022B11F0804F18BF00F8012B05
:1004E0007047704770477047754600F02BF8AE466E
:1004F00005006946534620F00700854618B020B530
:10050000FFF7C8FEBDE820404FF000064FF000079F
:100510004FF000084FF0000B21F00701AC46ACE8AB
:10052000C009ACE8C009ACE8C009ACE8C0098D4618
:10053000704710B50446AFF300802046BDE8104078
:10054000FFF793BE00487047380700200149182084
:10055000ABBEFEE7260002007047000010B504485D
:1005600000F00EFFBDE81040024800F009BF000097
:100570009C01002008020020014800F001BF00009B
:1005800074020020014800F0FBBE0000E0020020E1
:10059000014800F0F5BE00004C03002010B5846A4D
:1005A000E16D11F0500F06D0E16DC90625D520464A
:1005B00000F0D0FE10BDE06D40F40070E0652068F2
:1005C0000168090716D504F05DFD78B12068C068A0
:1005D000800400280ADBE06D20F48070E065E06DA7
:1005E000C00403D4E06D40F00100E065204600F057
:1005F0007BFE10BDC0688007EBE7616D496BBDE80D
:100600001040084710B5806AC16D41F04001C165D6
:10061000016E41F00401016600F09CFE10BD10B5B2
:10062000806A00F095FE10BD70B5044600688168D0
:100630008268C1F3400112F0010F28D039BB8168F4
:1006400001F00D01012914D18168124A1140891C61
:10065000816021680320086001F0B8FD054612E0C2
:1006600001F0B4FD401B02280DD920688068C00746
:1006700009D0E06D40F01000E065206E40F0010010
:100680002066012070BD20688068C007E8D1002086
:1006900070BD0000C0FFFF7FF8B504460020009049
:1006A0002068816811F0010F4AD18168254A114202
:1006B00037D18168D5432940491C81602068B0F159
:1006C000A04F02D02049884201D1204800E02048B4
:1006D000806800F0E07000020DD51E481E490068D9
:1006E000B0FBF1F0401C00EB4000800000E0401E39
:1006F00000900028FBD101F069FD06461BE08168EF
:1007000011F0010F03D181682940491C816001F07B
:100710005DFD801B02280ED920680068C043C00719
:1007200009D0E06D40F01000E065206E40F001005F
:1007300020660120F8BD20680168C943C907DED1E1
:100740000020F8BD3F000080000100500003005071
:1007500000070050A4000020400D030003F0D8FF64
:10076000FEE7B5EEC00AF1EE10FA01D2B1EE400A92
:1007700070470021AFF3008070B50D462DED088B5A
:10078000B0EE618AF0EE418AB0EE609AF0EE409AE7
:1007900004007DD094F8400000287AD0B0EE690AB9
:1007A00000F072F90028F8D0B0EE490A00F06CF9B8
:1007B0000028F2D0B0EE680A00F066F90028ECD00C
:1007C000B0EE480A00F060F90028E6D094ED010A86
:1007D000B4EEC80AF1EE10FA5BDCF0EE000A80EE2F
:1007E000880A69EE800A29EE001A28EE800AC4ED14
:1007F000020A84ED031A84ED040AB0EE600A00F0E8
:1008000043F90028C9D094ED030A00F03DF900280F
:10081000C3D094ED040A00F037F90028BDD094ED60
:10082000022ADFED7E0A94ED031AD4ED041A22EEBB
:10083000200A01EE200A01EEA00A84ED050A72EEFC
:10084000409A31EE408A71EEC08A00F01DF900280E
:100850001FD0B0EE690A00F017F9002819D0B0EEE9
:10086000480A00F011F9002813D0B0EE680A00F031
:100870000BF900280DD0B0EE681AF0EE480AB0EE81
:10088000690A00F027F9F0EE400AB0EE690A01E0CB
:1008900026E075E0B4EEC80AF1EE10FA01D3B0EE2E
:1008A000480AB0EE681AB4EEC10AF1EE10FA01D3AC
:1008B000B0EE680ABEEE001AB6EE009A60EE810A4B
:1008C00040EE490AC4ED060A70EEA9AA30EE88BAD5
:1008D00070EEA8BA45B194ED050A30EEC0AA05E065
:1008E0000020BDEC088B70BD9FED4DAAB0EE600AF4
:1008F00000F0CAF8002843D0B0EE6A0A00F0C4F84D
:10090000F0B3B0EE4B0A00F0BFF8C8B3B0EE6B0A1C
:1009100000F0BAF8A0B3B0EE4A0A00F0B5F878B328
:10092000B0EE6B0AFFF71DFFF0EE408AB0EE4B0A07
:10093000FFF717FFB0EE408AB0EE6A0AFFF711FF2B
:10094000B0EE681AF0EE480A00F0C4F8F0EE409AF3
:1009500075B1B0EE4A0AFFF704FFB4EEE90AF1EE12
:1009600010FA05DDB0EE4A0AFFF7FBFEF0EE409A02
:10097000F7EE008A0020B0EE688A84F8420000E0BA
:1009800047E094ED000A0125B4EEE90AF1EE10FA11
:1009900003D280EE298A84F8425084ED078A2AEE39
:1009A000880A6BEE080A84ED080AC4ED090A6BEEAA
:1009B000880A30EE280AC4ED0A0A6AEE080A20EE18
:1009C000090AC4ED0B0A00F073F884ED0C0A94EDEB
:1009D000090A30EE280A20EE090A00F069F884EDD1
:1009E0000D0A94ED0A0A30EE280A20EE090A00F0FA
:1009F0005FF884ED0E0A94ED0B0A30EE280A20EE23
:100A0000090A00F055F884ED0F0A84F841500120DE
:100A100067E7204600F072F862E70000ABAAAA3E42
:100A20000000000010B504002DED028BF0EE608A8E
:100A3000B0EE408A1ED04421FFF72CFD204600F086
:100A40005DF8B0EE480A00F01FF898B1B0EE680A01
:100A500000F01AF870B1B5EEC08AF1EE10FA09D9BB
:100A600018EE100AB0F17E5F04DCF5EEC08AF1EEFC
:100A700010FA03D80020BDEC028B10BD84EC028A72
:100A8000012084F84000F6E7B4EE400AF1EE10FAD7
:100A900009D110EE100AB0F1FF4F04DA10EE100A7F
:100AA00010F5000F01D300207047012070470000AF
:100AB00010EE100AB0F17E5F02DDB7EE000A70475B
:100AC000B5EEC00AF1EE10FAF9D29FED010A7047B7
:100AD00000000000B4EEE00AF1EE10FA01DCB0EE26
:100AE000600AB4EEC10AF1EE10FA01DCB0EE410A80
:100AF0007047002801D000F001B870479FED130A3D
:100B0000F7EE000A80ED020A80ED030A80ED040A88
:100B100080ED050A80ED060AC0ED070A80ED080A9F
:100B200080ED090A80ED0A0A80ED0B0AB6EE000A94
:100B300080ED0C0A80ED0D0A80ED0E0A80ED0F0AA3
:100B4000002180F8411080F842107047000000003A
:100B5000014801F0EDB80000B8030020014801F0A1
:100B6000E7B8000018040020014801F0E1B80000D7
:100B700078040020014801F0DBB80000D804002010
:100B8000014801F0D5B800003805002010B5016813
:100B90000E4CCAB21423083AA14203D2B2FBF3F2BC
:100BA0000B4904E0B2FBF3F2094920310832436CEF
:100BB00002F01F0223F003031944816404498031C9
:100BC000C16401219140016510BD0000080402408C
:100BD000000802400179084A01F07F0102EB81021E
:100BE0004265054A4432491E826501F01F02012117
:100BF0009140C16570470000FC08024030B5D0E963
:100C000013456560446D14B1D0E91645656090F8F0
:100C1000444004F01F050124AC40056C6C6004687E
:100C200063608368102B036803D099600068C2601A
:100C300030BD9A600068C16030BD704710B520209B
:100C400001F094F9BDE81040402001F08FB9000098
:100C5000094C00220121204601F0B3FA00220221B2
:100C6000204601F0AEFA04F087F80448FFF741FF90
:100C700003F04EFD72B6FEE7001000485801002058
:100C8000F8B500260446009690F858000D46012855
:100C90000BD0012084F858002046FFF7C5FC010066
:100CA000E06D04D040F010002AE00220F8BD20F4EE
:100CB000885040F00200E06520688268134B1A40BB
:100CC00005F080431A4342F000428260104A2068D7
:100CD0000EE0009B5B1C0093934209D3E06D20F073
:100CE000020040F01000E06584F858600120F8BD73
:100CF0008368DB0FEDD1E06D20F0020040F00100D1
:100D0000E06584F858600846F8BD0000C0FFFF3F6A
:100D100002DE04007047704770477047704700005C
:100D20002DE9F04F044690F858009BB00F464FF065
:100D3000000B012812D0012084F8580000261796D5
:100D4000189620684FF0A048DFF81C91DFF81CA12E
:100D5000474D404506D12846009508E002201BB0CB
:100D6000BDE8F08F48450AD15046CDF800A004F008
:100D700085F90090206804F081F940B109E0E06D48
:100D800040F02000E06584F858600120E7E7009813
:100D900050B1E06D40F02000E0654FF0010B00BF66
:100DA00084F858605846DAE720684146884201D006
:100DB000A84201D12F4800E02F48D7F800C02F4BA0
:100DC00040F61F72BCF1000F2DD0D0F808C094F887
:100DD00038802CF4604C4CEA483CD7F804804CEA4C
:100DE000080CC0F808C0D4F800C08C4501D0AC4550
:100DF00004D18968AB6801F0010109E0D9F8081055
:100E0000DAF8085001F0010105F001059B6829435B
:100E100003F001031943C3D1BB68396819438368E0
:100E2000934319431DE0876827F46047876027686C
:100E30008F4201D0AF4204D18968AB6801F0010153
:100E400009E0D9F80810DAF8085001F0010105F0BE
:100E500001059B68294303F001031943A0D1816870
:100E6000914381609CE700000004005000050050A1
:100E70000001005000030050000700500006005021
:100E80002DE9F84F00270446009790F85800DFF846
:100E900018840D46B946012811D0012684F85860FF
:100EA000206804F0E7F860B1E06D40F02000E065F4
:100EB0005FF0010784F858903846BDE8F88F0220AB
:100EC000FBE7D5E900210C23206803EA91131844BD
:100ED000036B01F01F014FF01F0C0CFA01FCC2F371
:100EE000846223EA0C038A4013430363206804F0FE
:100EF000C1F88246206804F0B9F85AEA00003CD1F3
:100F0000AA6829682068B2F1004F37D004F0C2F80F
:100F10002068416921F00041416120686969C26827
:100F2000C2F3C102520091402A69042A31D000EB79
:100F300082002B68026EDFF874C303F0F84302EA04
:100F40000C020B431A4342F00041016620682A69F3
:100F5000A96900EB8200026E22F080720A430266E9
:100F6000297F20682A69012910D0002100EB820026
:100F7000026E22F000720A4302667DE0002204F055
:100F800089F82068416941F00041C5E74FF00071E0
:100F9000ECE7002104F064F8400320684FF0000102
:100FA00072D004F05DF890FAA0F0B0FA80F12868F1
:100FB00042036ED090FAA0F0B0FA80F0814204D1E2
:100FC00000221146206804F074F80121206804F022
:100FD00047F8400320684FF001015DD004F040F86D
:100FE00090FAA0F0B0FA80F12868420359D090FA44
:100FF000A0F0B0FA80F0814204D1002201212068E3
:1010000004F057F80221206804F02AF84003206811
:101010004FF0020148D004F023F890FAA0F0B0FAA3
:1010200080F12868420344D090FAA0F0B0FA80F032
:10103000814204D100220221206804F03AF8032101
:10104000206804F00DF8400320684FF0030133D00E
:1010500004F006F890FAA0F0B0FA80F12868420394
:101060002FD090FAA0F0B0FA80F0814204D1002293
:101070000321206804F01DF82068816811F0010F39
:1010800022D0ACE000E004E003F0EAFFC0F38461AA
:101090008DE7C0F3846091E703F0E2FFC0F3846161
:1010A000A2E7C0F38460A6E703F0DAFFC0F384612F
:1010B000B7E7C0F38460BBE703F0D2FFC0F38461FD
:1010C000CCE7C0F38460D0E72A7B296850F8B03FB2
:1010D000C1F3120C23EA0C0302F0180C744A22FA32
:1010E0000CF20A4013430360E968414577D1286850
:1010F00041031CD090FAA0F1B1FA81F1491C01F032
:101100001F0109294FEA403132D8002912D000BF0F
:1011100090FAA0F1B1FA81F101F1010101F01F0192
:1011200006FA01F609D100BFC0F3846109E0C0F3FB
:101130008461E3E7C0F38461EEE790FAA0F1B1FACD
:1011400081F101F1010101F01F0146EA816102D143
:10115000C0F3846003E090FAA0F0B0FA80F000F1F0
:10116000010000F01F0000EB400041EA005132E0B6
:1011700000290ED090FAA0F1B1FA81F101F101013C
:1011800001F01F0106FA01F606D100BFC0F3846129
:1011900006E0C0F38461F1E790FAA0F1B1FA81F1C1
:1011A00001F1010101F01F0146EA816102D1C0F3A2
:1011B000846003E090FAA0F0B0FA80F000F1010042
:1011C00000F01F003B4A00EB400002EB005041EAF8
:1011D000000141F00071AA68206803F05BFF364807
:1011E0002B6803423FF466AE21684FF0A04C334DAC
:1011F0003348344E614501D0A94201D1024600E096
:1012000032469268DFF8C08002F0E072434503D0B6
:10121000DFF8B880434521D15FEA02281ED461453A
:1012200006D02B4B99427FF445AEA94200D0304600
:1012300042F40001826822F0E0720A43826025488D
:1012400025490068B0FBF1F0401C00EB4000800035
:1012500000E0401E00900028FBD12BE6DFF87C80E8
:1012600043450DD15FEAC2180AD4A942F5D01C4B00
:101270009942F2D0614500D0304642F080710CE0D6
:10128000DFF860804345E8D15302E6D4A942E4D0B8
:10129000614500D0304642F48001826822F0E0725D
:1012A0000A43826006E6000000007F4000F0FF0372
:1012B000FFFF0700000020FE000008800001005032
:1012C0000003005000070050000021C31000C09030
:1012D00000060050A4000020400D0300000052C78B
:1012E00000050050000084CB00B591B0002824D048
:1012F00000681349884202D103F0FCFA0AE0114960
:10130000884202D103F0FEFA04E00F49884214D16A
:1013100003F000FB684603F027FA9DF84000002820
:101320000BD09DF84100002807D008480E9942696B
:10133000914202D0416103F049FE11B000BD0000AE
:10134000000400500005005000060050700000200E
:101350007047000000280BD000680649884205D07D
:101360000549884202D00549884201D103F0F2B90B
:1013700070470000000400500005005000060050B7
:101380002DE9F84F04460068066845684FF0A0480C
:10139000DFF89092404501D0484501D1A24800E0D5
:1013A000A248806800F01F07B0070ED5A8070CD52B
:1013B000E06DC00603D4E06D40F40060E0652046B7
:1013C000FFF7A8FC216802200860DFF864B2DFF8AC
:1013D00064A2700701D5680703D430073FD52807FA
:1013E0003DD5E06DC00603D4E06D40F40070E065CB
:1013F000206803F047FE60B32068484501D14246AB
:1014000004E0584501D1524600E00246824208D02D
:101410003FB1052F05D0092F03D0484503D14146E0
:1014200006E0C16805E0584501D1514600E001469B
:10143000C96889040DD4016809070AD503F01AFEAA
:1014400058B3E06D40F01000E065206E40F0010000
:1014500020662046FFF748FF21680C200860B00690
:1014600001D5A80603D470065FD568065DD5E06D8A
:10147000C00603D4E06D40F40050E0652068C16C04
:1014800011F4C07F1AD00021009103F0FBFD024649
:101490002068484514D1434617E02068416821F090
:1014A0000C014160E06D20F48070E065E06DC004E7
:1014B000CFD4E06D40F00100E065CAE70121E3E729
:1014C000584501D1534600E00346834208D03FB15E
:1014D000062F05D0072F03D0484503D1414606E02B
:1014E000C16805E0584501D1514600E00146C96890
:1014F000009BA3B18B0102D58AB18A040FD4026884
:1015000052060CD589020AD403F0B0FDF0B3E06DA9
:1015100040F01000E065206E40F00100206620469B
:10152000FFF7F9FB21686020086030060BD528061C
:1015300009D5E06D40F48030E065204600F094F974
:10154000216880200860F0050CD5E8050AD5E06D1B
:1015500040F40030E0652046FFF7DFFB21684FF4E0
:1015600080700860B0050CD5A8050AD5E06D40F480
:101570008020E0652046FFF7D1FB21684FF4007022
:101580000860F00631D5E8062FD500E009E0E06BF1
:10159000E8B12068EFB3404501D0484512D1224858
:1015A00011E02068416821F060014160E06D20F4A5
:1015B0008050E065E06DC005B1D4E06D40F0010001
:1015C000E065ACE71948806800F4604050B1E06D18
:1015D00040F48060E065206E40F002002066204606
:1015E000FFF7B8FE216810200860700517D5680560
:1015F00015D5E06D40F48040E065206E40F00800B5
:10160000206621684FF4806008602046BDE8F84FEE
:1016100000E001E0FFF780BBC068C007D6E7BDE887
:10162000F88F000000010050000300500007005038
:101630000005005000040050F8B54FF0000504000C
:101640002E46009502D0E06D10B107E00120F8BDF4
:10165000204600F00BF9266684F8586020688168FF
:10166000C1F3407119B18168734A114081602068EB
:101670008168C1F3007189B98168704A114041F0F5
:10168000805181606E486F490068B0FBF1F0400006
:10169000801C00E0401E00900028FBD1206881687B
:1016A000C1F3007141B9E16D41F01001E165216EB6
:1016B00041F001012166012503F0DCFCE16DC90662
:1016C00000D430B1E06D40F01000E06501252846FF
:1016D000F8BDE06D20F4807040F00200E065206805
:1016E000816811F0010F27D14FF0A043564A98426C
:1016F00001D0904204D19968966801F001010AE096
:1017000052498968524E01F00101B66806F001069F
:101710003143504EB66806F0010631430CD1984271
:1017200001D0904201D14C4800E04C486168826889
:1017300022F47C120A438260E168E06B627F084316
:10174000A16841EA4231084394F8241040EA01407C
:10175000012904D1218D424A02EB41410843E16A4B
:1017600029B101F47871226B014342EA0100226839
:10177000D1683C4B19400143D16020680169626B1C
:1017800021F0406111430161206803F06FFC70BBE0
:10179000207F94F838102268800340EA4100D16825
:1017A00044F2020399430143D16020690028206874
:1017B00001690AD041F480310161206850F8C01FEE
:1017C00022696FF30D01114307E021F480310161BB
:1017D000206850F8C01F6FF30D01016094F84000BD
:1017E00001280CD02068016921F0010101616069C4
:1017F00001282068016B21F00F0111D013E0D4E91A
:1018000011010843D4E913121143084321680A69FE
:1018100040F2FC739A43104340F001000861E6E790
:10182000226A521E11430163E06D20F0020040F075
:101830000100E0654BE70000C0FFFF5FC0FFFF7FD6
:10184000A4000020400D03000001005000040050DF
:101850000005005000060050000300500007005033
:101860000000FEFF0740F0FF704700002DE9F04F39
:101870009BB00746142115A8FEF70CFE54216846BC
:10188000FEF708FE4FF40041386800258A03CF4E6A
:10189000CF4C4FF003084FF0800B4FF480794FF49A
:1018A000806AB0F1A04F10D0CA4B98427DD16846F3
:1018B0001192009101F0B2FC08B1FFF7C9F930684C
:1018C000401C306001284ED055E0684611920091CE
:1018D00001F0A4FC08B1FFF7BBF93068401C306090
:1018E000012807D1E06C40F40050E064E06C00F4A3
:1018F00000501A90E06C40F00400E064E06C00F0EE
:1019000004001A90E06C40F00100E064E06C0226F4
:1019100000F001001596CDE916851A90444615A9E8
:10192000AD4800F02FFB15A94FF090401596CDE97A
:10193000164500F027FBAA4CA84820600520C4E902
:1019400001052020C4F81490C4E906A0000220621A
:10195000204632E07C65002201211220A76201F0BE
:10196000C5FB12208BE0E06C40F40050E064E06CBA
:1019700000F400501A90E06C40F00400E064E06C69
:10198000179500F004001A900120CDE9150815A95B
:10199000914800F0F7FA9148914C1430603420607F
:1019A0002420C4E90105202000E00FE0C4F81490D1
:1019B000C4E906A0000220622046C4E9035B00F0EF
:1019C00015FA0028C6D0FFF743F9C3E7854B990104
:1019D000CA03984258D168461292009101F01EFC49
:1019E00008B1FFF735F97068401C7060012807D115
:1019F000E06C40F48040E064E06C00F480401A90B9
:101A0000E06C40F00200E064E06C00F002001A902C
:101A1000E06C40F00800E064E06C15A900F00800FC
:101A20001A900120444681E831006F4800F0AAFA7C
:101A3000564615A96D48CDF854A0CDE9164500F0DD
:101A4000A1FA674C6A48C03420602520C4E901052A
:101A50002020C4F81490C4E9066000022062C4E9A2
:101A6000035B204600F0C2F908B1FFF7F1F87C658E
:101A7000002201212F20A76201F038FB2F2001F066
:101A800027FB1BB0BDE8F08F5A4B984254D16846F3
:101A90001292009101F0C2FB08B1FFF7D9F870680B
:101AA000401C7060012807D1E06C40F48040E06485
:101AB000E06C00F480401A90E06C40F01000E064AC
:101AC000E06C00F010001A90E06C40F00800E06458
:101AD000E06C15A900F008001A904FF480404446CD
:101AE00081E83100444800F04DFA4E4615A93F48C0
:101AF000CDF85490CDE9164500F044FA3C483F4CEF
:101B0000143020602620C4E9010520206661C4E964
:101B100006A000022062C4E9035B204600F066F9DB
:101B200008B1FFF795F87C65002201213D20A762EE
:101B300001F0DCFA3D20A2E7314B9842A1D1684682
:101B40001292009101F06AFB08B1FFF781F870680A
:101B5000401C7060012807D1E06C40F48040E064D4
:101B6000E06C00F480401A90E06C40F00800E06403
:101B7000E06C179500F008001A904FF48440CDE90E
:101B8000150815A9194800F0FDF91C4C18486034D7
:101B9000283020602720C4E901052020C4F81490D3
:101BA000C4E906A000022062C4E9035B204600F0FD
:101BB0001DF908B1FFF74CF87C65002201213E2099
:101BC000A76201F093FA3E2059E700009000002040
:101BD00000100240000100500008004808000240C8
:101BE000B80300200004005000040048000C004826
:101BF000080402400005005000100048D8040020EE
:101C0000000600502DE9F047044600684FF0A04858
:101C10003D4F91468A46404501D0B84201D13B49EB
:101C200000E03B49896801F01F0503F023FA002812
:101C300068D194F85800012864D0012084F8580035
:101C400034492068884201D1012000E00020401E74
:101C500028424FF0000605D0052D03D0092D01D0F4
:101C6000012003E02046FEF717FD18B184F8586004
:101C7000BDE8F087E06D40F60161884340F4807074
:101C8000E0652068B84201D1414605E0224988421A
:101C900001D1224900E00146814200D01DB9E06D2A
:101CA00020F48010E065E06DC00404D5206E20F0C3
:101CB0000600206600E02666616D1948C862616D05
:101CC00018480863616D1848486321681C20086043
:101CD00084F858602068416841F010014160206834
:101CE000C16841F00101C16021684B465246403154
:101CF000606D00F0DDF821688A680C4B1A40121DF7
:101D00008A60B5E70220B3E70001005000030050ED
:101D1000000700500006005000050050000400506D
:101D20009D0500081F06000805060008C0FFFF7F8C
:101D3000F0B4016C0C6801680D6890F8442002F062
:101D40001F06042202FA06F3234211D06B070FD5B7
:101D50000B689B0603D40B6823F004030B6090F818
:101D6000441001F01F018A40016C4A60016B1DE0C4
:101D7000022303FA06F727424FF0000C4FF001024E
:101D800018D0AF0716D50C68A40605D40C6824F04B
:101D90000A040C6080F8252090F8441001F01F011F
:101DA0008B40016C4B6080F824C0C16A00291AD0B6
:101DB000F0BC08470823B340234214D02B0712D5A8
:101DC0000B6823F00E030B6090F84410036C01F0D5
:101DD0001F0102FA01F15960C26380F8252080F8E2
:101DE00024C0416BE2E7F0BC7047000070B504000E
:101DF0000CD02C4A21681420914209D22A4A0A4464
:101E0000B2FBF0F08000606428480AE0012070BD59
:101E1000244A52420A44B2FBF0F080006064214838
:101E200008382064022084F825000A6847F6F0701C
:101E30008243D4E902031843D4E904352B43184301
:101E4000A3691843E3691843236A184310430860E1
:101E50002046FEF79BFEA0680025B0F5804F00D11C
:101E600065602079A16C00F07F000860D4E913015F
:101E700041606068401E032808D82046FEF7AAFE8D
:101E8000606D0560D4E91601416002E06565A565F5
:101E9000E565E563012084F8250084F824500020DE
:101EA00070BD000008040240F8FFFDBF00000240C2
:101EB00070B5044690F82400002501280CD00120BC
:101EC00084F8240094F825600020012E06D084F8C0
:101ED00024000225284670BD022070BD022684F829
:101EE0002560E0632068066826F00106066020464B
:101EF000FEF784FE206B00282068016802D041F0C4
:101F00000E0106E021F0040101602068016841F043
:101F10000A010160A06C0168C90303D5016841F49E
:101F200080710160606D18B1016841F480710160D9
:101F30002068016841F001010160CBE770B50446FB
:101F400000F044F90546601C02D00448406804448F
:101F500000F03CF9401BA042FAD370BD980000206D
:101F6000402802D1102002F0F1BC7047044910B59E
:101F70000A68024202D00860FFF7F2FF10BD0000BD
:101F8000140401402DE9F04FDFF80C9200230126E4
:101F90000325A9F1040B85B00F2709F1040AABF161
:101FA000040EF1E006FA03FC12EA0C027ED00C7972
:101FB00004F00304012C01D0022C20D18468009489
:101FC0005C0005FA04F80494009C24EA08040094D8
:101FD000D1F80C80049C08FA04F8009C48EA040834
:101FE000C0F80880446824EA0C0491F804C0CCF3DB
:101FF000001C0CFA03FC4CEA040CC0F804C00C7979
:10200000E443A40702D18C68012C0ED0C4684FEAC7
:10201000430805FA08FC24EA0C04D1F808C00CFABD
:1020200008FC4CEA040CC0F80CC00C7904F0030462
:10203000022C16D1DC0800EB840CCDF808C0DCF8CB
:1020400020C05C074FEAD46807FA08F42CEA040CB5
:102050000C6904FA08F444EA0C04DDF808C0CCF872
:10206000204004684FEA430805FA08FC24EA0C04FF
:1020700091F804C00CF0030C0CFA08FC4CEA040CB8
:10208000C0F800C04C6814F4403F7CD0434CD4F8F6
:1020900060C04CF0010CC4F860C0246E23F0030C47
:1020A00004F0010400943E4C644400E06BE00294B0
:1020B000A4684FEA837C4FEA1C7807FA08FC24EAFC
:1020C0000C04B0F1904F06D0DFF8D8C0604505D1C0
:1020D0004FF0010C20E04FF0000C1DE0DFF8C8C00D
:1020E000604502D14FF0020C16E0DFF8C0C0604539
:1020F00002D14FF0030C0FE0DFF8B4C0604502D10D
:102100004FF0040C08E0DFF8ACC0604502D14FF09E
:10211000050C01E04FF0060C0CFA08FC4CEA040C2C
:10212000029CC4F808C0D9F80040CC46D1F804801D
:1021300094435FEAC82800D51443CCF80040DAF88D
:102140000040D446D1F8048094435FEA882800D543
:102150001443CCF80040DBF80040DC46D1F80480A2
:1021600094435FEA883800D51443CCF80040DEF889
:102170000040F446D1F8048094435FEAC83800D5A3
:102180001443CCF800405B1C0C682246DC407FF412
:1021900009AF05B0BDE8F08F08040140001002400F
:1021A000000001400004004800080048000C0048FE
:1021B00000100048001400480069084000D00120C9
:1021C00070470AB181617047816270470148806839
:1021D000704700009800002030B590F8DD30022BE9
:1021E00015D090F8DC30012B11D0012380F8DC30C1
:1021F000022480F8DD400024202949D00EDC042987
:1022000034D006DC012923D0022911D126E0022096
:1022100030BD082930D010290AD133E040293DD003
:10222000802943D0B1F5807F46D0B1F5007F49D0F9
:10223000072180F8DD1080F8DC4000BF90F8DD1049
:10224000072945D080F8DD3080F8DC40002030BD23
:102250000168D1F8005462F3040504E00168D1F884
:10226000005462F38A15C1F80054E7E70168D1F819
:10227000005462F31035F6E70168D1F8005462F3B8
:102280009645F0E70168D1F8005462F31C65EAE76F
:102290000168D1F8045462F3040504E00168D1F840
:1022A000045462F38A15C1F80454C7E70168D1F8F1
:1022B000045462F31035F6E70168D1F8045462F370
:1022C0009645F0E70168D1F8045462F31C65EAE72B
:1022D000012030BDF0B590F8DD30022B1AD090F817
:1022E000DC30012B16D0012680F8DC60022380F858
:1022F000DD300468D4F88053D4F8FC33002720295B
:102300006ED00EDC04293DD006DC012922D0022942
:1023100011D12AE00220F0BD082940D010290AD1AD
:102320004AE040297ED0802977D0B1F5807F75D0F2
:10233000B1F5007F73D0072280F8DD2080F8DC70D3
:1023400090F8DD20072A6BD01029016869D2C1F806
:102350008053C9E025F4E02C1568526805F4E025A7
:1023600045EA0C05C4F8BC23EAE725F4601C1568AF
:102370004FF4601E0EEAC505526845EA0C05C4F824
:10238000C023DDE725F0E07C15684FF0E07E0EEA23
:102390008515526845EA0C05C4F8C423D0E725F03A
:1023A000606C15684FF0606E0EEA4525526845EA8C
:1023B0000C05C4F8C823C3E723F0070C1368C3F364
:1023C000024343EA0C03D4F8F8C32CF01F0CC4F802
:1023D000F8C30468D4F8F8C3127902F01F0216E0BB
:1023E00023F0700C13684FF0700E0EEA133343EABB
:1023F0000C03D4F8F8C32CF4787CC4F8F8C3046850
:10240000D4F8F8C352684FF4787E0EEA42124CEAD0
:10241000020CC4F8F8C393E704E01BE032E047E0A5
:102420005EE05FE023F4E06C13684FF4E06E0EEAC8
:10243000132343EA0C03D4F8F8C32CF4F84CC4F883
:10244000F8C30468D4F8F8C352684FF4F84E0EEAA3
:102450008222DCE723F4E04C13684FF4E04E0EEAEE
:10246000131343EA0C03D4F8F8C32CF4F81CC4F893
:10247000F8C30468D4F8F8C392884FF4F81E0EEA43
:102480000242C4E723F4E02C136803F4E02343EA98
:102490000C03D4F8F8C32CF0787CC4F8F8C30468B3
:1024A000D4F8F8C392884FF0787E0EEA4252AEE735
:1024B00023F4E00C13684FF4E00E0EEA031343EA32
:1024C0000C03D4F8F8C32CF0F84CC4F8F8C3046833
:1024D000D4F8F8C312794FF0F84E0EEA826296E70C
:1024E0000120F0BDC1F8FC3380F8DD6080F8DC70BD
:1024F0000020F0BD704770477047704770477047C5
:1025000070477047704710B590F8DC20012A21D041
:10251000012280F8DC20022380F8DD304B1C1BD028
:102520000368D3F8CC4344F00204C3F8CC430368F7
:10253000D3F8CC4324F00C040C43C3F8CC4301681B
:10254000D1F8CC3343F00103C1F8CC3380F8DD205F
:10255000002010BD022010BD0168D1F8CC3323F05B
:102560000203C1F8CC33EAE770B590F8DD30022BF6
:102570003CD090F8DC30012B38D0012500F8DC5F2E
:10258000022343701388948803F4E053C4F30804CF
:102590001C4313896FF07E4603F400732343148AAF
:1025A00004F480441C43938903F400432343948A36
:1025B00006EA04441C43936903F000732343146A3E
:1025C000D26904F080441C4302F00042224350F8D8
:1025D000DC3CB82404EBC1141959054E31401143B9
:1025E0001951457000210170084670BD022070BD70
:1025F0000020003C704770477047082002F0A6B9E1
:1026000070477047704700002DE9F04F90F8DD30BB
:10261000022B26D090F8DC30012B22D04FF0010B9A
:1026200080F8DCB0022380F8DD300768D7F8D043AB
:10263000D7F8D43315784FF4007805F00106C5F3C8
:1026400040054FF4F04C4FF400494FF0000A0829C0
:102650007ED009DC012935D0022947D0042907D1D1
:1026600059E00220BDE8F08F10296FD020296ED0EC
:10267000072180F8DD1080F8DCA000BF90F8DD10A5
:1026800007297CD004F07F31C7F8D013056848F2E1
:10269000800123EA0102C5F8D4230268D2F8D0539E
:1026A00004F080342543C2F8D0530268D2F8D443F2
:1026B0000B401C43C2F8D44380F8DDB080F8DCA0A6
:1026C0000020CFE7117924F0FE0401F0020121433C
:1026D00041EA860423F4803141EA0543117A127BF2
:1026E00001F07801214302F0800412E0516824F4E3
:1026F0007E4408EA0121214341EA862423F4003183
:1027000041EA454391680CEA01212143D46809EA72
:1027100004240C43B2E791884FF4003C24F47E0477
:102720000CEA0141214341EA864423F4802141EA35
:10273000854311894FF4F00505EA0141214392894F
:102740004FF4000404EA0244E3E701E01BE02EE05A
:1027500011794FF0007C24F07E440CEA01612143A2
:1027600041EA866423F4002141EAC543117A4FF01F
:10277000F04505EA01612143127B2C0100E02BE0CA
:1027800004EA0264C5E7117923F0FE0301F00201B7
:10279000194341EA860121F4801141EA0553117A77
:1027A000127B01F07801194302F0800312E05168B6
:1027B00023F47E4308EA0121194341EA862121F4EA
:1027C000001141EA455391680CEA01211943D3688D
:1027D00009EA03230B4351E7012043E730B590F8A2
:1027E000DD30022B14D090F8DC30012B10D0012307
:1027F00080F8DC30022480F8DD400024082941D034
:1028000008DC01291AD0022923D0042906D12EE0A0
:10281000022030BD102940D0202949D0072180F85E
:10282000DD1080F8DC4000BF90F8DD1007294DD0A6
:1028300080F8DD3080F8DC40002030BD116852683F
:10284000890041EAC2120168D1F8085425F0BC059C
:1028500009E011685268890241EAC2320168D1F880
:10286000085425F43C452A43C1F80824DCE71188C4
:102870009288890441EAC2520168D1F8085425F4CB
:102880003C05F0E711781279890641EAC2720168C5
:10289000D1F8085425F03C45E5E7116852688900F5
:1028A00041EAC2120168D1F80C5425F0BC0509E0D8
:1028B00011685268890241EAC2320168D1F80C54A9
:1028C00025F43C452A43C1F80C24ADE7012030BD76
:1028D00010B5CB0706D00368D3F8D04362F30004E9
:1028E000C3F8D0438B0706D50368D3F8D04362F30F
:1028F0000824C3F8D0434B0706D50368D3F8D04368
:1029000062F31044C3F8D0430B0706D50368D3F82D
:10291000D04362F31864C3F8D043CB0606D50368EE
:10292000D3F8D44362F30004C3F8D443890606D530
:102930000068D0F8D41362F30821C0F8D41310BD96
:1029400010B590F8DD20022A18D090F8DC20012A7A
:1029500014D0012200F8DC2F0223437050F8DC3C35
:10296000D3F8D44301F0407124F040740C43C3F811
:10297000D443427000210170084610BD022010BDF2
:10298000FF2903D0062903D001F034BC01F0AEBA10
:1029900001F049BB38B5040056D0022084F8DD00B0
:1029A0000025C4F8E050C4F8E450C4F8E850C4F876
:1029B000EC50C4F8F050C4F8F450C4F8F850207A41
:1029C000C0071BD021492068884208D12048016EE9
:1029D00041F080610166006E00F080600090216827
:1029E000086820F44042208A00F44040104320F45C
:1029F0004052A08A00F4405010430860204600F086
:102A000029F8207A800708D52168086820F44072E8
:102A1000A08900F4407010430860012084F8DD00B4
:102A200084F8DC505FF00001C1EBC10004EB8000D2
:102A3000491C8561C561056245628562C9B205634D
:102A40000629F1D9002038BD012038BD00680140B9
:102A50000010024010B586B0044614216846FDF708
:102A600019FD17492068884227D11648016E41F0A8
:102A700080610166016E01F080610591C16C41F0D9
:102A80000201C164C06C694600F0020005904FF479
:102A900080600090022001900120029000200390AD
:102AA0000D2004900848FFF76DFA002211464920D6
:102AB00000F01CFB492000F00BFB06B010BD00002D
:102AC000006801400010024000040048F0B587B0E3
:102AD000044614216846FDF7DDFC21492068884240
:102AE0003BD12048C16C41F00201C164C16C01F0CE
:102AF00002010591C16C41F00401C164C16C01F097
:102B000004010591C16C41F00101C164C06C022552
:102B100000F0010005904FF4704000268DE8610040
:102B200003240D27CDE9034769460F48FFF72AFA2A
:102B30002002CDE90005CDE90264694604940B4802
:102B4000FFF720FA4FF470608DE86100CDE903478C
:102B500069464FF09040FFF715FA07B0F0BD00004E
:102B600000680140001002400004004800080048CE
:102B7000704770477047704770B50D460446FFF7C1
:102B800025FB064607E0681C05D0FFF71FFB801BEE
:102B9000A8420DD865B12068D0F88803C043C003AF
:102BA000F1D4012084F8DD00002084F8DC0070BD41
:102BB000072084F8DD00032070BD7047704770B5B2
:102BC00090F8DD30022B1DD090F8DC30012B19D0AD
:102BD000012380F8DC30022480F8DD40EC25046815
:102BE00005EBC1156159CE0605D54FF6C076B14348
:102BF00032400A43625180F8DD30002180F8DC1059
:102C0000084670BD022070BD7047704770B590F8DF
:102C1000DD30022B23D0022380F8DD30062920D0BE
:102C20008023046803EBC115635923F007069368FA
:102C3000334323F01806D368334363519425046863
:102C400005EBC115136863519824036804EBC111A7
:102C500052685A50012180F8DD10002070BD02201A
:102C600070BD0368196821F007049168214321F0C1
:102C70001804D168214319600368116859615168CB
:102C800002689161E6E72DE9F04F90F8DD40022CF3
:102C900025D090F8DC40012C21D04FF0010980F8BC
:102CA000DC90022480F8DD4000274FF0070C062955
:102CB00018D09C2404EBC116012A39D08024A82501
:102CC0004FF4005A4FF4405B05EBC11504EBC114FF
:102CD000022A2FD0042A45D0082A0BD144E0022032
:102CE000BDE8F08F012A0AD0022A0CD0042A0ED0A7
:102CF000082A10D080F8DDC080F8DC700EE0026891
:102D00001968D1610AE002681968516206E0026838
:102D10001968916202E002681968D16290F8DD10CA
:102D2000072948D080F8DD9080F8DC700020D7E7D4
:102D3000196835E04FF0A408D0F800C008EBC111C5
:102D40001A684CF801205968002901680A5922F4D0
:102D500040522ED00A5101680A59D3F804C042EA01
:102D60000C0218E0196821E04FF0AC08D0F800C060
:102D700008EBC1111A684CF8012059680029016854
:102D80000A5922F4404214D00A5101680A59D3F872
:102D900004C042EA8C020A515968514503D199682E
:102DA00002689151BAE75945B8D199680268515102
:102DB000B4E70A51B2E7012092E710B590F8DC20A1
:102DC000012A0ED0012200F8DC2F0223437050F8B4
:102DD000DC3C1C680C431C604270002101700846FA
:102DE00010BD022010BD10B590F8DC20012A0ED0D5
:102DF000012200F8DC2F0223437050F8DC3C1C68F1
:102E00008C431C60427000210170084610BD0220F6
:102E100010BD70B5044690F8DD00022811D094F87A
:102E2000DC0001280ED0012584F8DC50022084F853
:102E3000DD00204601F06FF984F8DD50002084F8B1
:102E4000DC0070BD022070BD10B590F8DC20012AB6
:102E500010D0012200F8DC2F0223437050F8DC3C34
:102E6000D3F894430C43C3F894434270002101709B
:102E7000084610BD022010BD10B590F8DC20012AD4
:102E800010D0012200F8DC2F0223437050F8DC3C04
:102E9000D3F898430C43C3F8984342700021017063
:102EA000084610BD022010BD2DE9F041044690F8FF
:102EB000DD0015460E46022826D094F8DC000128D5
:102EC00021D0012784F8DC70022084F8DD00062E72
:102ED0001CD0204601F042FAC6EBC60004EB80008D
:102EE0002968016269684162A9688162E968C16212
:102EF000296901633146204600F0C4FF062E15D033
:102F0000E86A40B112E00220BDE8F0811146204697
:102F100001F040F8E0E78021206801EBC61142583B
:102F2000EB6D22F4007242EA4322425084F8DD70D5
:102F3000002084F8DC00E7E770B590F8DD30022B64
:102F400023D090F8DC30012B1FD0012380F8DC3037
:102F5000022480F8DD40EC25046805EBC1156159B9
:102F6000166821F0100141EA061121F4801651681B
:102F7000314321F48036D168314321F40036916821
:102F800031439669012E02D00BE0022070BD21F082
:102F900004061169314321F002065169314341F0C1
:102FA0000101615180F8DD30002180F8DC10084615
:102FB00070BD000070B5040013D021684CF6CC4001
:102FC0000860216845F255500860D4E9000141606D
:102FD0002168A0688860FFF7F9F8054641F6010608
:102FE0000DE0012070BD00BFFFF7F0F8401BB042BC
:102FF00005D92068C068400701D0032070BD206853
:10300000C0684007F0D120680269E1688A4201D0B7
:10301000016102E04AF6AA210160002070BD00684B
:103020004AF6AA210160002070470000024881682A
:1030300042681144816070479800002010B5002458
:10304000032000F073F80F2000F008F808B1012405
:1030500001E000F025F8204610BD000070B50E4ECE
:1030600005460024706898B14FF47A71B1FBF0F016
:103070000A490968B1FBF0F000F0B0FD40B9102D2D
:1030800006D200222946501E00F030F8356000E0DC
:103090000124204670BD000098000020A4000020FC
:1030A0000A4882B0016E41F001010166016E01F033
:1030B00001010091816D41F080518165806D00F0CA
:1030C0008050009002B000F0A1B800000010024053
:1030D000002809DB00F01F02012191404009800017
:1030E00000F1E020C0F8001170470000F0B40E4B72
:1030F0001B680C46C3F30223C3F10705042D00D956
:103100000425191D072901D2002300E0DB1E01263A
:1031100006FA05F1491E214099409E40761E164050
:103120003143F0BC03F050B90CED00E0064900F06B
:10313000070208684FF6FF03184040EA0220034ADE
:1031400010430860704700000CED00E00000FA0535
:103150002B492C4B0A6832214A432B4940B1B0F528
:10316000007F086829D020F4C06040F480602CE023
:103170000868C0F34120022804D051F8800F20F4E1
:10318000807022E0D1F8800020F48070C1F88000C7
:10319000086820F4C06040F400700860B2FBF3F0EF
:1031A000401C00E0401E4A69520501D50028F9D1B3
:1031B000486940050AD503207047C0F34120022822
:1031C00006D051F8800F40F48070086000207047EE
:1031D000D1F8800040F48070C1F88000086820F4C5
:1031E000C06040F400700860B2FBF3F0401C00E0E7
:1031F000401E4A695205DBD50028F9D1D8E7000006
:10320000A400002040420F00007000400248816886
:1032100041F4804181607047007000402DE9F8431F
:10322000044600680026BB4D00035ED5A86D00274C
:10323000C00008D4A86D40F08050A865A86D012793
:1032400000F080500090DFF8D092D9F8001041F4DF
:103250008071C9F80010FEF7B9FF804606E000BF94
:10326000FEF7B4FFA0EB080002282BD8D9F8000025
:10327000C005F5D5D5F8900010F4407014D0216D3C
:10328000814211D0D5F89000D5F8901020F440700C
:1032900041F48031C5F89010D5F8901021F48031B8
:1032A000C5F89010C5F89000C00711D0FEF78EFF4A
:1032B000804641F2883907E0FEF788FFA0EB08015D
:1032C000494501D903260BE0D5F890008007F3D5D6
:1032D000D5F89000216D20F440700843C5F89000A7
:1032E0001FB1A86D20F08050A8652078C00707D0D6
:1032F000D5F88800616820F003000843C5F888000D
:103300002078800707D5D5F88800A16820F00C0048
:103310000843C5F888002078400707D5D5F888000D
:10332000E16820F030000843C5F8880020780007E5
:1033300007D5D5F88800216920F0C0000843C5F8FA
:1033400088002078C00607D5D5F88800616920F488
:1033500040700843C5F888002078800607D5D5F866
:103360008800A16920F440600843C5F888002078EF
:10337000400607D5D5F88800E16920F4405008439D
:10338000C5F888002078000607D5D5F88800216A9E
:1033900020F440400843C5F888002088C00507D5C0
:1033A000D5F88800616A20F440300843C5F88800E9
:1033B0002068800307D5D5F89C00A16A20F003009F
:1033C0000843C5F89C002088800507D5D5F88800FB
:1033D000E16A20F440200843C5F8880020884005B1
:1033E0000FD5D5F88800216B20F440100843C5F8AC
:1033F0008800206BB0F5801F03D1E86840F480108E
:10340000E860208800050FD5D5F88800616B20F4AE
:1034100040000843C5F88800606BB0F5800F03D109
:10342000E86840F48010E8602088C0040FD5D5F823
:103430008800A16B20F040700843C5F88800A06B9D
:10344000B0F1807F03D1E86840F48010E860208804
:103450004FF0006180040ED5D5F88800E26B20F0B3
:1034600040601043C5F88800E06B884203D1E868EB
:1034700040F48010E860208840040ED5D5F888001C
:10348000226C20F040601043C5F88800206C884210
:1034900003D1E86840F48010E860208800040FD56C
:1034A000D5F88800616C20F040500843C5F88800CA
:1034B000606CB0F1805F03D1E86840F48030E86070
:1034C0002068C0030FD5D5F88800A16C20F04040DB
:1034D0000843C5F88800A06CB0F1804F03D1E868BC
:1034E00040F48030E860206840030FD5D5F89C0098
:1034F000E16C20F440100843C5F89C00E06CB0F586
:10350000001F03D1E86840F48010E8603046BDE851
:10351000F883000000100240007000407047000077
:103520002DE9F0470E4605004FF0000725D0DFF8E3
:10353000AC81D8F8000000F00F00B0420CD2D8F8EF
:10354000001021F00F013143C8F80010D8F8000036
:1035500000F00F00B04210D12968614CC80741F259
:10356000883A5AD06868DFF87C91032808D002288E
:1035700020682DD0400500282CDB0120BDE8F08715
:1035800020688001F9D5E06800F00302E068C0F32C
:103590000310401C032A19D0534A00BFB2FBF0F0BD
:1035A000E268C2F306225043E268C2F34162521C51
:1035B0005200B0FBF2F0484517D9A06810F0F00FA8
:1035C0000CD0880711D5A86840B10EE0474AE5E75E
:1035D0008003D0E700F0BEF8484506D9A06820F087
:1035E000F00040F08000A0608027A068696820F0AB
:1035F00003000843A060FEF7E9FD814606E000BF36
:10360000FEF7E4FDA0EB090151453AD8A0686968CE
:1036100000F00C00B0EB810FF2D12868810714D5BF
:10362000400703D5A06840F4E060A0602878000758
:1036300005D5A06820F4605040F4E060A060A06868
:10364000A96820F0F000084304E0802F03D1A068AF
:1036500020F0F000A060D8F80010404601F00F0103
:10366000B14216D9016821F00F0131430160FEF724
:10367000ADFD074607E000BFFEF7A8FDC11B5145A1
:1036800001D903207AE7D8F8000000F00F00B0421B
:10369000F2D12878400705D5A068E96820F4E060F9
:1036A0000843A0602878000706D5A068296920F49F
:1036B000605040EAC100A06000F04CF8A1680C4ADC
:1036C000C1F30311515C01F01F01C84009490860B2
:1036D00009480068BDE8F047FFF7C0BC0020024081
:1036E0000010024000B4C4040024F40000127A0068
:1036F00038700008A40000209800002002480168EB
:1037000041F400210160704700100240054806495D
:1037100000688968054AC1F30221515C01F01F016C
:10372000C8407047A4000020001002404870000804
:103730000548064900688968054AC1F3C221515C01
:1037400001F01F01C8407047A40000200010024093
:1037500048700008184910B58868C0F381021748FE
:10376000012A0BD08A684310C2F38102022A06D0D4
:103770008A68C2F38102032A03D0002010BD1846D4
:1037800010BDCA6802F00304CA68C2F30312521CD7
:10379000032C02D0B0FBF2F001E0B3FBF2F0CA68F8
:1037A000C968C2F306225043C1F34161491C490074
:1037B000B0FBF1F010BD0000001002400024F40046
:1037C00010B5044CE069C00503D5FFF7A7FEA015AE
:1037D000206210BD001002402DE9F84304007AD0A9
:1037E0002078F84DC00747D0A868E96800F00C00C1
:1037F00001F003010C2802D0082817D001E00329AA
:1038000014D06068B0F5803F17D0B0F5A02F2868BD
:1038100017D020F480302860286820F480202860A9
:103820006068E0B1FEF7D2FC064614E02868800329
:1038300022D560680028D2D01EE0286840F480308D
:10384000EDE740F480202860F7E700BFFEF7BEFCFC
:10385000801B642870D828688003F7D50CE0FEF739
:10386000B5FC064605E000BFFEF7B0FC801B6428EF
:10387000F0D828688003F7D4207880074CD5A86852
:10388000E96800F00C0001F003010C2802D00428C4
:103890000DD001E002290AD0E068002828682BD06A
:1038A00040F480702860FEF791FC064619E0286815
:1038B000400502D5E068002891D06868217C20F09E
:1038C000FE4040EA01606860BF480068FFF7C6FB41
:1038D000002800D120E072E1FEF778FC801B02286E
:1038E000B8D828684005F7D56868217C20F0FE40EC
:1038F00040EA016068600FE020F480702860FEF705
:1039000065FC064605E000BFFEF760FC801B022850
:10391000A0D828684005F7D42078000729D5606929
:103920000028D5F8940013D040F00100C5F89400A9
:10393000FEF74CFC064606E090E000BFFEF746FCB2
:10394000801B022886D8D5F894008007F6D510E0B1
:1039500020F00100C5F89400FEF738FC064604E0AC
:10396000FEF734FC801B022878D8D5F89400800735
:10397000F6D42078400761D5A86D0026C00008D491
:10398000A86D40F08050A865A86D012600F0805019
:1039900000908E480168C90511D40168804641F441
:1039A00080710160FEF712FC074604E0FEF70EFC92
:1039B000C01B022852D8D8F80000C005F6D5A06870
:1039C000012815D00528D5F8900016D020F0010068
:1039D000C5F89000D5F8900020F00400C5F89000DC
:1039E000A06841F28838B8B1FEF7F0FB07460EE058
:1039F000D5F8900040F00100F0E740F00400C5F871
:103A00009000F5E7FEF7E2FBC11B414526D8D5F84B
:103A100090008007F6D50CE0FEF7D8FB074604E0DF
:103A2000FEF7D4FBC11B414518D8D5F8900080079C
:103A3000F6D41EB1A86D20F08050A86520788006CD
:103A400029D5A0690028D5F8980013D040F00100CE
:103A5000C5F89800FEF7BAFB064606E075E000BF21
:103A6000FEF7B4FB801B02286FD8D5F898008007BA
:103A7000F6D510E020F00100C5F89800FEF7A6FB8F
:103A8000064604E0FEF7A2FB801B02285DD8D5F8AD
:103A900098008007F6D4E069F0B3A968C1F381010A
:103AA00003295DD00228286820F08070286003D0A8
:103AB000FEF78CFB04464BE0FEF788FB064604E06D
:103AC000FEF784FB801B02283FD828688001F7D4CA
:103AD000F4E908016FF00F0202EB01110843218A9B
:103AE0005204490802EB4151A26841EA022108430D
:103AF000217D4FF07E42490802EB41610843217B62
:103B000040EAC160E968324A11400843E860286829
:103B100040F08070286000E05EE0E86840F080706F
:103B2000E860FEF753FB044605E000BFFEF74EFBDE
:103B3000001B022809D828688001F7D54CE000BF97
:103B4000FEF744FB001B022802D90320BDE8F883DE
:103B500028688001F4D4E8681E490840E8603BE02A
:103B60000128F3D0E868226A00F00301914226D1CF
:103B7000616A00F0F0020901103991421FD1A26A76
:103B800000F4FE41B1EB022F19D194F82C2000F083
:103B90007841B1EBC26F12D1218E00F4C002490806
:103BA0004905A1F50011914209D194F8341000F0B3
:103BB000C06049084906A1F1007181420CD0012082
:103BC000C4E7000000100240980000200070004090
:103BD0000C809F01FCFFEEFE0020B7E710B5401EF1
:103BE000B0F1807F01D3012010BD4FF0E02460616F
:103BF0000F21601702F0E8FB0020A0610720206180
:103C0000002010BD90F88410012918D0012180F8FF
:103C100084102421C0F8881001680A680B6823F01A
:103C200001030B6022F00051002242660368196014
:103C30002021C0F8881080F88420104670470220A8
:103C4000704770B5044690F8840001281DD001200B
:103C500084F884002420C4F888002068056802687D
:103C600022F0010202602068826822F060620A434A
:103C70008260204602F0E8F8206805602020C4F841
:103C80008800002084F8840070BD022070BD70B5EB
:103C9000044690F8840001281DD0012084F8840097
:103CA0002420C4F8880020680568026822F0010218
:103CB00002602068826822F060420A4382602046E7
:103CC00002F0C2F8206805602020C4F888000020B7
:103CD00084F8840070BD022070BD10B5040003D0CC
:103CE000D4F8880010B107E0012010BD002084F84E
:103CF0008400204600F026F82420C4F888002068BC
:103D0000016821F001010160A06A10B1204602F0B3
:103D1000BDF8204602F09EF90128E6D020684168EF
:103D200021F4904141602068816821F02A0181607E
:103D30002068016841F0010101602046BDE81040A3
:103D400002F008B930B59BB00446142115A8FCF761
:103D5000A1FB54216846FCF79DFB16492068884268
:103D600025D102250024684600950294FFF756FAF3
:103D700008B1FCF76DFF1048816D41F40031816599
:103D8000816D01F400311A91C16C41F00801C164E8
:103D9000C06CCDE9165400F008001A906020159010
:103DA0000720CDE9184015A90448FEF7EBF81BB031
:103DB00030BD00000044004000100240000C0048EC
:103DC0002DE9F84F0446D0F88800984615460E466F
:103DD000202802D00220BDE8F88F96B38DB30020D2
:103DE000C4F890004FF02109C4F888901834FEF709
:103DF000EDF9A5878246E58754F8100C183CB0F51C
:103E0000805F01D1206910B13546002600E0002511
:103E10005FF02007B4F8560053464FF00002CDF88B
:103E20000080D8B18021204602F060FAD8B955B19F
:103E300015F8010B21688862D4F8881039EA01006E
:103E400006D00120C7E736F8020BC0F30800F1E7FF
:103E5000B4F85600401EA4F85600DBE74021204687
:103E600002F044FA18B1C4F888700320B3E7C4F82C
:103E700088700020AFE70000FF210148FEF780BDF9
:103E800098050020072912D2DFE801F00A12181E57
:103E9000242A04000068D0F8841341F0010104E0F2
:103EA0000068D0F8841341F00201C0F88413704711
:103EB0000068D0F8841341F00401F6E70068D0F8F8
:103EC000841341F00801F0E70068D0F8841341F052
:103ED0001001EAE70068D0F8841341F02001E4E71C
:103EE0000068D0F8841341F04001DEE770B5064663
:103EF0000068D0F88853D0F89043E90707D0E1076D
:103F000005D00121C0F88C133046FEF774FBA807DA
:103F100008D5A00706D531680220C1F88C033046C9
:103F2000FEF76AFB680708D5600706D531680420EC
:103F3000C1F88C033046FEF760FB280708D5200740
:103F400006D531680820C1F88C033046FEF758FBCF
:103F5000E80608D5E00606D531681020C1F88C03C4
:103F60003046FEF74EFB680608D5600606D5316878
:103F70004020C1F88C033046FEF744FBA80608D564
:103F8000A00606D531682020C1F88C033046FEF724
:103F90003CFE70BD70B503681A68D3F8A0534C6935
:103FA00022F020022646144324F0C002202E2BD0FB
:103FB0008C69022C28D0032C2BD0042C2ED022F07C
:103FC000E00200BF22F40064CA69224322F4806444
:103FD0000A6A224322F0C0644A6A224322F0006443
:103FE0008A6A2243CC6A22F0404242EA840222F0EA
:103FF00000544A6B096B224325F4803421431A6034
:104000000068C0F8A01370BD22F0C00242F0200288
:10401000D8E722F0800242F04002D3E722F04002CB
:1040200042F08002CEE72DE9F04704460068D0F860
:104030008883D0F890734668C5685FEAC8314FF04E
:1040400001090DD5F9030BD54FF48031C0F88C135D
:1040500084F8DD90002084F8DC002046FEF752FA58
:104060005FEA883009D5B80307D521684FF40030DE
:10407000C1F88C032046FEF73DFAF00708D0E807A8
:1040800006D02168C1F8089006212046FEF735FACF
:10409000B00708D5A80706D5216802208860062148
:1040A0002046FEF72BFA700708D5680706D5216869
:1040B0000420886006212046FEF721FA300708D543
:1040C000280706D521680820886006212046FEF7CB
:1040D00017FAF00608D5E80606D521681020886092
:1040E00006212046FEF76AFDB00607D5A80605D5CD
:1040F0002168202088602046FEF786FD700608D5DE
:10410000680606D521684020886006212046FEF713
:1041100054FDBDE8F087F0B50024E426056806EB01
:10412000C11755F807C0B82606EBC116AE59402A8C
:1041300020D00EDC082A2CD006DC012A1AD0022A54
:1041400027D0042A31D115E0102A13D0202A2CD1EF
:104150001FE0B2F5007F1CD005DC802A19D0B2F533
:10416000807F22D106E0B2F5806F03D0B2F5006FF8
:104170001BD10EE04FF0BC0E0EEBC11E5A6845F885
:104180000E204FF0C00E05680EEBC1119A686A5000
:104190000BE0C42404EBC1145A682A51C8250468F2
:1041A00005EBC1119A6862501024FE21A1401A68E3
:1041B0002CEA010CA240D96842EA0C02A14011434A
:1041C0001A69D3F814C01546A2400A430CFA04FC3D
:1041D00099694CEA020CA14041EA0C01082D06D174
:1041E000B20504D4B20102D4DA69A24011430068D6
:1041F000C151F0BD2DE9F041074688460068842290
:1042000002EBC81146588C2202EBC81145584FF0FA
:104210008802F30702EBC81407D0E90705D0012193
:10422000015141463846FEF768F9B00708D5A8079E
:1042300006D539680220085141463846FEF75EF936
:10424000700708D5680706D539680420085141462B
:104250003846FEF754F9300708D5280706D53968DF
:104260000820085141463846FEF74AF9F00608D5BD
:10427000E80606D539681020085141463846FEF751
:104280009DFC700608D5680606D53968402008519F
:1042900041463846FEF791FC300608D5280606D57B
:1042A00039688020085141463846FEF724F9F00568
:1042B00009D5E80507D539684FF4807008514146A3
:1042C0003846FEF719F9B00509D5A80507D53968AC
:1042D0004FF40070085141463846FEF74AFC70051D
:1042E00009D5680507D539684FF480600851414603
:1042F0003846FEF73DFC300509D5280507D5396855
:104300004FF40060085141463846FEF734FCF00493
:1043100009D5E80407D539684FF480500851414663
:104320003846FEF727FCB00409D5A80407D539683C
:104330004FF40050085141463846FEF7E2F8700449
:1043400009D5680407D539684FF4804008514146C3
:104350003846FEF74FF9BDE8F08100002DE9F04F37
:104360008024036804EBC1169C5924F070449C51CE
:1043700003689A469D59E82404EBC114A64653F8F5
:104380000490E42404EBC114A3461C59D3F8A033D1
:10439000576925F020053D43202F24D09769022F2F
:1043A00021D0032F24D0042F27D025F4D07500BFAF
:1043B00025F40067D5693D4325F48067156A3D43C0
:1043C00025F0C067556A3D4325F00067956A3D4377
:1043D00025F07047D56A3D43576B25F40035B7F19A
:1043E000005F0FD010E025F4C07545F02005DFE731
:1043F00025F4807545F08005DAE725F0800545F461
:104400008075D5E745F4003525F04007956BD2F867
:1044100050802F4327F4802C976D47EA0C07DFF874
:10442000D0C007EA0C0748EA070892F83C7029F068
:104430003F0C07F03F0747EA0C0727F0004C176CCA
:1044400047EA0C0725B924F4807C546C44EA0C0438
:10445000D2F848C0BCF5606F02D0BCF5F05F01D166
:10446000402D03D124F4F0544CEA040424F4804594
:10447000D46C2C43556D062927D2DFE801F00309DF
:104480000F151B21126B23F4003343EA42031CE097
:10449000126B23F4802343EA820316E0126B23F4A9
:1044A000002343EAC20310E0126B23F4801343EAB3
:1044B00002130AE0126B23F4001343EA421304E0F0
:1044C000126B23F4800343EA82134AF806800668DD
:1044D00046F80E70066846F80B40D424026804EBD8
:1044E000C11155500068C0F8A033BDE8F08F00003E
:1044F000FFFF06FE00F00CF9FEE70000F7EE000AF1
:1045000030EEC00ADFED060A20EE200AF6EE000AC1
:1045100030EE200ABCEEC00A10EE100A80B27047DE
:1045200000D0044770B5194D002202212846FDF73E
:1045300048FE17481749006888420CD11648007891
:1045400048B100F02BF830B944F268200246114619
:1045500000F044F808B1012070BD4FF47C710C48A4
:10456000FEF772FC040003D000F0D2F8204670BDC4
:1045700000F014F810B100F0CBF8ECE701220221B2
:104580002846FDF71EFE002070BD00000010004808
:1045900098050020006801401800002004480068C9
:1045A000D0F88803C04340F38000401C70470000EF
:1045B00098050020B4EE400AF1EE10FA09D110EE91
:1045C000100AB0F1FF4F04DA10EE100A10F5000FD8
:1045D00001D30020704701207047000030B50F4B19
:1045E0000F4C1B68A3420FD140F2A464A0420BD32E
:1045F00047F62C65A84207D8A14205D3A94203D8A3
:10460000A24201D3AA4201D9012030BDC3F89C01C6
:10461000C3F81C12C3F89C22002030BD980500206E
:104620000068014070B52DED048BB0EE418AF0EECC
:10463000608AB0EE409AFFF7BDFF18B3B0EE680A8B
:10464000FFF7B8FFF0B1B0EE480AFFF7B3FFC8B10B
:1046500019EE101A1848814214DB19EE102A174976
:104660008A420FDC18EE902A82420BDB18EE902A69
:104670008A4207DC18EE102A824203DB18EE100A89
:10468000884203DDBDEC048B012070BDB0EE480A0A
:10469000FFF734FF0546B0EE680AFFF72FFF044628
:1046A000B0EE490AFFF72AFFBDEC048B2A462146EB
:1046B000BDE87040FFF792BFCDCC4C3D3333733F24
:1046C00010B5002202210E48FDF77BFD0D480E4972
:1046D0000E4C0068884203D000202070012010BDDD
:1046E0004FF47C710748FEF7C7FB4FF4641105488F
:1046F000FEF763FB10B10021217010BD0121FBE723
:1047000000100048980500200068014018000020B3
:1047100010B5002202210B48FDF753FD0A480B4952
:104720000068884209D14FF47C710748FEF7A4FB6A
:104730004FF460110448FEF756FB0549002008704D
:1047400010BD0000001000489805002000680140DE
:1047500018000020022000F0F9B800000148C06BEA
:1047600070470000D0000020002843D0EFF31082F3
:1047700072B621490B8803804B8843808B888380E5
:10478000CB88C3800B8903814B89438191ED030A58
:1047900080ED030A91ED040A80ED040A91ED050A0B
:1047A00080ED050A91ED060A80ED060A91ED070AF3
:1047B00080ED070A91ED080A80ED080A91ED090ADB
:1047C00080ED090A91ED0A0A80ED0A0ACB6AC362FC
:1047D0000B6B03634B6B43638B6B8363CB6BC36369
:1047E00091F8403080F8403091F8411080F8411045
:1047F00082F3108870470000D000002010B53A48BE
:1048000092B0002404804480001D04804480001D78
:104810000480448044216846FBF73CFE442233492F
:104820006846FBF705FE3248BDF800100180BDF870
:1048300002104180BDF804108180BDF80610C180CF
:10484000BDF808100181BDF80A1041819DED030AF1
:1048500080ED030A9DED040A80ED040A9DED050A32
:1048600080ED050A9DED060A80ED060A9DED070A1A
:1048700080ED070A9DED080A80ED080A9DED090A02
:1048800080ED090A9DED0A0A80ED0A0A0B99C162C2
:104890000C9901630D9941630E9981630F99C1636E
:1048A0009DF8401080F840109DF8411080F84110AC
:1048B0000D480E38C461046244628462C4620463B9
:1048C00044638463C46304644464846404804FF474
:1048D000006141808180C1800181418181814C30B2
:1048E0000460848012B010BD2A000020D86900083E
:1048F000D00000200248C169491CC16100F032B8F3
:104900001C0000200248016A491C016200F02AB81C
:104910001C0000200248416A491C416200F022B894
:104920001C000020084B10B59C6A001B032807D20E
:10493000D86A081A032803D2186B101A032801D367
:10494000012010BD002010BD1C0000200449CA6BCE
:104950000243CA63002081F84100FFF7D9BE00007E
:10496000D00000202DE9F047854DE869296A6A6A80
:10497000AB6A984209D0EB6A994206D02B6B9A42F7
:1049800003D0884201D1904205D0FFF7CBFF002829
:104990007ED001204FE005F12804794B84E8070020
:1049A0000E331E88774C26805B88E380744B12336D
:1049B0001E8866805B882381714B16331E88A68013
:1049C0005B886381E06221636263A06B401CA0632B
:1049D00021884FF4805081422CD26188814229D2B3
:1049E000A188814226D2E188814223D22189814255
:1049F00020D2618981421DD22088002100F0C8F8B0
:104A0000C0B96088012100F0C3F898B9A0880221DC
:104A100000F0BEF870B9E088032100F0B9F848B999
:104A20002089042100F0B4F820B96089052100F044
:104A3000AFF820B10420BDE8F047FFF787BFE06B77
:104A400008B1002098E028884FF00109FF2834D8E9
:104A500021886A6B8F186F636188AA6B8E18AE63AA
:104A6000A188EA6B8B18EB63E1882A6C0A442A64FC
:104A70002189D5F844C061446964B4F80AC0D5F806
:104A80004880401CC44480B2C5F848C0288000E07B
:104A900011E0B0F5807F0ED1380A6880300AA88016
:104AA000180AE880100A2881080A68814FEA1C2049
:104AB000A88184F84090BDE8F08720886988401A72
:104AC00000EE100AF8EEC00A9FED2F0A60EE800A91
:104AD000C4ED030A6088A988401A00EE900AF8EE37
:104AE000E00A60EE800AC4ED040AA088E988401A52
:104AF00000EE900AF8EEE00A20EE800A84ED050A46
:104B0000E0882989401A00EE100AF8EEC00A9FEDED
:104B10001F0A60EE800AC4ED060A20896989401ADE
:104B200000EE900AF8EEE00A60EE800AC4ED070A93
:104B30006089A989401A00EE900A4846F8EEE00A1A
:104B400020EE800A84ED080A94ED030AD4ED040AED
:104B500030EE200AD4ED050A30EE200A84ED090A71
:104B600094ED060AD4ED070A30EE200AD4ED080AC7
:104B700030EE200A84ED0A0A84F841009BE7000029
:104B80001C000020D00000206F12833A0AD7233C7B
:104B90000A4A102803D940F6EF73984209D3505CB3
:104BA000082804D2401CC0B25054082803D3012066
:104BB000704700205054002070470000680000201B
:104BC00000282DD0EFF3108272B6164991ED000A3D
:104BD00080ED000A91ED010A80ED010A91ED020AD3
:104BE00080ED020A91ED030A80ED030A91ED040ABB
:104BF00080ED040A91ED050A80ED050A91ED060AA3
:104C000080ED060A91ED070A80ED070A0B6A036240
:104C10008B8C838491F8261080F8261082F31088FC
:104C200070470000A800002010B5424C00202DED78
:104C3000028B8AB0B0EE608AF0EE408A20709FED61
:104C40003E0A282128EE000A84ED010A9FED3B0A66
:104C500084ED020A20613A4860613C20608084ED66
:104C6000030A6846FBF716FC282236496846FBF71C
:104C7000DFFB35489DED000A80ED000A9DED010A3D
:104C800080ED010A9DED020A80ED020A9DED030A06
:104C900080ED030A9DED040A80ED040A9DED050AEE
:104CA00080ED050A9DED060A80ED060A9DED070AD6
:104CB00080ED070A08990162BDF8241081849DF8EF
:104CC000261080F82610B0EE680A00F041F800289F
:104CD0002BD0B0EE480A00F03BF8002825D0F5EEC6
:104CE000C08AF1EE10FA20D9B5EEC08AF1EE10FAC2
:104CF0001BD994ED010AF0EE000A60EE200A80EE66
:104D0000A80A84ED020A00F023F800280DD094EDE3
:104D1000020AB5EEC00AF1EE10FA06D910EE100A3A
:104D20000A49884201DC012020700AB0BDEC028BE8
:104D300010BD000000000020EC05513F0000000005
:104D40004C37890188690008A80000206666663F24
:104D5000B4EE400AF1EE10FA0BD110EE100AB0F1E9
:104D6000FF4F06DA10EE100A10F5000F01D20120F5
:104D7000704700207047000000B51E488BB000212E
:104D80009FED1D0A016180ED030A28216846FBF7AB
:104D900081FB282219496846FBF74AFB18489DED1C
:104DA000000A80ED000A9DED010A80ED010A9DEDEB
:104DB000020A80ED020A9DED030A80ED030A9DEDD3
:104DC000040A80ED040A9DED050A80ED050A9DEDBB
:104DD000060A80ED060A9DED070A80ED070A08998C
:104DE0000162BDF8241081849DF8261080F82610F9
:104DF0000BB000BD0000002000000000B0690008FA
:104E0000A800002007490A781AB11E2803D03C28C0
:104E100003D000207047044A00E0044A4A614880F9
:104E20000120704700000020A69BC4004C37890178
:104E300020F00041B1F1804F01D9C1F100410A0ECB
:104E4000402A02D3B7EE000A14E021F07F4100EEC1
:104E5000101A0C49DFED0A0AB8EE400A01EB820194
:104E600091ED011A60EE200A91ED000A31EE401A30
:104E700001EE200A002801DAB1EE400A7047000076
:104E8000000080338468000870B504007ED04C4D6B
:104E9000287800287AD095ED030A4FF07E5110EE65
:104EA000100A88420DDADFED470A30EE200A10EED4
:104EB000100A85ED030A884203DDB7EE000A85ED8E
:104EC000030A2869FFF7B4FF84ED000A2869A0F1FE
:104ED0005530FFF7ADFF84ED010A286900F1553028
:104EE000FFF7A6FF84ED020AD5ED010A95ED031A3E
:104EF000D4ED001A60EE810A61EEA01A20EE200ABD
:104F0000C4ED031A94ED012A22EE202A84ED042A2E
:104F100084ED050A95ED020A20EE010A84ED060AE9
:104F200084ED071A286920626888A084012084F82B
:104F30002600B0EE610AFFF70BFF40B394ED040AC0
:104F4000FFF706FF18B394ED050AFFF701FFF0B174
:104F50001D4894ED000A80ED000A94ED010A80EDF1
:104F6000010A94ED020A80ED020A94ED030A80ED35
:104F7000030A94ED040A80ED040A94ED050A80ED1D
:104F8000050A94ED060A80ED060A01E012E013E03E
:104F900094ED070A80ED070A216A0162A18C8184E1
:104FA00094F8261080F82610D5E9040108442861F9
:104FB000012070BD002070BD002084F82600F9E7B4
:104FC0000000002017B7D138A800002070B58AB0C3
:104FD000FFF7C4FB002831D11E4C207800282DD0CB
:104FE0001D4E75686846FFF74FFFD0B19DED000A72
:104FF00084ED030ABDF82400608003A9F1EE041AD1
:1050000091EC030A1548FBF7B4FB40B1134890F844
:10501000421041B1E169491CE161642905D3402096
:105020000AE0802008E00021E161303090EC030AC2
:10503000FFF7F8FA20B12020FFF788FC0AB070BD16
:105040002069401C20617068A169401B8842F5D925
:10505000A061F3E770000020001000E0580100207C
:1050600000EB8100006E00F0F84070478068C0F3EC
:10507000C00070478068C0F3800070478068C0F34C
:1050800080007047C06810F4406F01D00020704766
:1050900001207047042303EAD15310B51844436933
:1050A000C1F3045107248C40A3438A401343436156
:1050B00010BD00EB8100016E21F00041114301663B
:1050C0007047000010B58CB000240894099420218A
:1050D00068460A94FBF7DEF925484FF0A041082204
:1050E00001604FF40021C0E90114C4600121046192
:1050F000C0E90512047744770222026280F8244056
:105100004FF4D462C2628A02026380F83810090345
:10511000C16380F84040FCF78FFA08B1FBF798FDB7
:1051200008A913480894FBF7FBFD08B1FBF790FDB5
:105130001048009006200190032002907F200390E9
:105140000420CDE9040469460948FBF799FE08B13B
:10515000FBF77EFD084800900C200190694604484A
:10516000FBF78EFE002801D0FBF772FD0CB010BDDE
:105170009C010020040060088000501D10B588B01C
:1051800020216846FBF786F91C481B490024016072
:10519000C902C0E90114C46008210461C0E90541E5
:1051A000047744770121016280F824404FF4D462EF
:1051B000C2628A02026380F838100903C16380F872
:1051C0004040FCF739FA08B1FBF742FD0C4800906B
:1051D00006200190032002907F2003900420CDE957
:1051E000040469460548FBF74BFE002801D0FBF795
:1051F0002FFD08B010BD0000000100500802002083
:105200004000201910B58CB0002408940994202186
:1052100068460A94FBF73EF92548244908220160B4
:105220004902C0E90114C46001210461C0E905120A
:10523000047744770222026280F824404FF4CC6263
:10524000C2628A02026380F838100903C16380F8E1
:105250004040FCF7F1F908B1FBF7FAFC08A9144843
:105260000894FBF75DFD08B1FBF7F2FC11480090D4
:1052700006200190032002907F2003900420CDE9B6
:10528000040469460A48FBF7FBFD08B1FBF7E0FCA4
:10529000094800900C20019069460548FBF7F0FD95
:1052A000002801D0FBF7D4FC0CB010BD0004005066
:1052B00074020020001060328000501D10B588B0CC
:1052C00020216846FBF7E6F82248214900240160C6
:1052D0004FF40021C0E90114C460012108220461D7
:1052E000C0E90512047744770222026280F8244064
:1052F0004FF4CC62C2628A02026380F8381009035C
:10530000C16380F84040FCF797F908B1FBF7A0FCB7
:105310001148009006200190032002907F20039006
:105320000420CDE9040469460A48FBF7A9FD08B149
:10533000FBF78EFC094800900C2001906946054857
:10534000FBF79EFD002801D0FBF782FC08B010BDE2
:1053500000050050E002002000106032020030041E
:1053600010B588B020216846FBF794F822482149FF
:10537000002401604FF40021C0E90114C460012140
:1053800008220461C0E90512047744770222026210
:1053900080F824404FF4CC62C2628A02026380F833
:1053A00038100903C16380F84040FCF745F908B1A3
:1053B000FBF74EFC1148009006200190032002905C
:1053C0007F2003900420CDE9040469460A48FBF7D6
:1053D00057FD08B1FBF73CFC094800900C200190F8
:1053E00069460548FBF74CFD002801D0FBF730FC6F
:1053F00008B010BD000600504C030020002090367D
:105400000008302E214808B5816C41F00401816408
:10541000816C01F004010091816C41F00101816413
:10542000816C01F001010091816C41F00201816405
:10543000806C002200F00200009002210B20FDF79A
:1054400055FE0B20FDF744FE002201210C20FDF744
:105450004DFE0C20FDF73CFE002201213820FDF717
:1054600045FE3820FDF734FE002201213920FDF7EA
:105470003DFE3920FDF72CFE002201213A20FDF7E8
:1054800035FEBDE808403A20FDF722BE001002407C
:105490002DE9F04387B014216846FAF7FBFF3D4839
:1054A000C16C41F01001C164C16C01F010010591A3
:1054B000C16C41F02001C164C16C01F02001059173
:1054C000C16C41F00401C164C16C01F0040105919B
:1054D000C16C41F00101C164C16C01F00101059191
:1054E000C16C41F00201C164C16C01F0020105917F
:1054F000C16C41F00801C164C06C274F00F0080086
:10550000059000220F213846FCF75BFE4FF4004661
:105510004FF09048002231464046FCF752FEDFF83B
:105520007C90002280214846FCF74BFE0F20009023
:1055300001250024CDE90154694638460394FCF75F
:1055400021FD602000904FF40410CDE9010569466B
:105550003846FCF717FD0096CDE90154022569464F
:1055600040460395FCF70EFD8020009001AA112013
:1055700082E8310069464846FCF704FD0022032119
:105580001720FDF7B3FD1720FDF7A2FD07B0BDE81A
:10559000F0830000001002400010004800040048A2
:1055A000F0B5C1B000243D943F9437943E943894B4
:1055B0003A943B943C9439943094319432946021E1
:1055C00068463394FAF766FF349435941C2129A871
:1055D0003694FAF75FFF242120A8FAF75BFF202119
:1055E00018A8FAF757FFFF48FD4904258460C0E971
:1055F0000015FDF7CFF908B1FBF72AFB0C21F9489C
:10560000FCF781FF08B1FBF723FB0A21F548FDF702
:10561000B3FA08B1FBF71CFB0021F248FDF790F943
:1056200008B1FBF715FB3D943DAA0421ED483E94DB
:10563000FDF7D4F808B1FBF70BFB37943894399495
:1056400037AA0421E7483A94FCF7DEFF08B1FBF7DC
:10565000FFFA01220421E348FDF73AF90226CDE9D9
:105660003B463BAA0121DF48FCF734FE08B1FBF7BB
:10567000EFFA00220121DB48FCF7AEFD08B1FBF791
:10568000E7FA3BAA0221D7483C96FCF723FE08B173
:10569000FBF7DEFA00220221D248FCF79DFD08B19B
:1056A000FBF7D6FA30AA48F2D040082682E871000B
:1056B0000621CC48FDF7AAFA08B1FBF7C9FA009415
:1056C000019401270294CDE90347089405940694B8
:1056D00007940D9409940A940B940C946A4606213D
:1056E000C0481794FDF7E0FB08B1FBF7B1FA44F2AC
:1056F0006820349034AB02220621BA48FDF7C3FA81
:1057000008B1FBF7A5FA0320329030AA0021B54872
:10571000FDF77CFA08B1FBF79BFA2C9429AA00212B
:10572000B04829972F94FDF707FC08B1FBF790FAD2
:105730004FF4A0773A460021AA48FDF740FA08B195
:10574000FBF786FA00944FF000600A900DA90194CF
:10575000800081E831004515CDE91045129414947C
:1057600015946A4600219F481694FDF79DFB08B1E9
:10577000FBF76EFA6A4601219A48FDF795FB08B1DE
:10578000FBF766FA6A4602219648FDF78DFB08B1E1
:10579000FBF75EFA6A46032192481294FDF784FBF8
:1057A00008B1FBF755FA6A4604218E48FDF77CFBE9
:1057B00008B1FBF74DFA34AB012200218948FDF70F
:1057C00062FA08B1FBF744FA4FF44060209055208C
:1057D000CDE92104CDE9244023942694279420AADE
:1057E000002180482894FCF7BFFE08B1FBF730FA8F
:1057F00020AA01217B48FCF7B7FE08B1FBF728FA85
:1058000020AA02217748FCF7AFFE08B1FBF720FA87
:1058100020AA03217348FCF7A7FE08B1FBF718FA8A
:1058200020AA04216F48FCF79FFE08B1FBF710FA8D
:10583000CDE918462020CDE91A64CDE91C401E941C
:1058400018AB0122002167481F94FDF7E2FA08B166
:10585000FBF7FEF918AB042201216248FDF7D9FAE3
:1058600008B1FBF7F5F918AB102202215D48FDF7EE
:10587000D0FA08B1FBF7ECF918AB402203215948E4
:10588000FDF7C7FA08B1FBF7E3F918AB2A46042184
:105890005448FDF7BEFA08B1FBF7DAF9199418ABD2
:1058A000022200214F481A94FDF7B3FA08B1FBF722
:1058B000CFF918AB082201214A48FDF7AAFA08B12E
:1058C000FBF7C6F918AB202202214648FDF7A1FAE2
:1058D00008B1FBF7BDF918AB802203214148FDF761
:1058E00098FA08B1FBF7B4F918AB4FF40072042131
:1058F0003C48FDF78EFA08B1FBF7AAF930AA01215E
:105900003848FDF783F908B1FBF7A2F929AA01216C
:105910003448FDF711FB08B1FBF79AF93A4601212B
:105920003048FDF74CF908B1FBF792F9012234AB8E
:1059300011462C48FDF7A7F908B1FBF789F930AA01
:1059400002212848FDF762F908B1FBF781F929AA7D
:1059500002212448FDF7F0FA08B1FBF779F93A463D
:1059600002212048FDF72BF908B1FBF771F934ABA0
:10597000012202211B48FDF786F908B1FBF768F9FF
:1059800030AA03211748FDF741F908B1FBF760F988
:1059900029AA03211348FDF7CFFA08B1FBF758F9FC
:1059A0003A4603210F48FDF70AF908B1FBF750F911
:1059B00034AB012203210B48FDF765F908B1FBF771
:1059C00047F930AA04210748FDF720F908B1FBF791
:1059D0003FF929AA04210348FDF7AEFA30B103E0EC
:1059E0000068014098050020FBF732F93A4604218F
:1059F0000948FDF7E4F808B1FBF72AF934AB0122B6
:105A000004210548FDF73FF908B1FBF721F90248E9
:105A1000FDF75CF841B0F0BD980500200A4810B5CC
:105A2000084901600421416040F6FF71C160F9211D
:105A30008160FDF7BFFA002803D0BDE81040FBF7F6
:105A400007B910BD0030004094060020184810B57A
:105A5000164901604FF4E1214160002181600C2270
:105A6000C160C0E904128161C16101624162816269
:105A7000FEF733F908B1FBF7EBF800210C48FEF70D
:105A800006F908B1FBF7E4F800210948FEF7D9F858
:105A900008B1FBF7DDF80648FEF7B4F8002803D09C
:105AA000BDE81040FBF7D4B810BD00000044004032
:105AB000A4060020FEF72CFEFEE74FF48070FEF7F0
:105AC00045FFFDF77DFEFEE770B50024002120466E
:105AD00000F0A1F80025002000F065F96D1CEDB282
