:020000040800F2
:10000000C00A002055020008F94B00080548000806
:10001000F54B0008790800082D5A00080000000080
:100020000000000000000000000000006D4C00080F
:10003000A110000800000000694C0008B94D00083C
:100040006F0200086F0200086F0200086F020008CC
:100050006F0200086F0200086F0200086F020008BC
:100060006F0200086F0200086F0200086F020008AC
:100070006F0200086F0200086F0200086F0200089C
:100080006F0200086F0200086F0200086F0200088C
:100090006F0200086F0200086F0200086F0200087C
:1000A0006F0200086F0200086F0200086F0200086C
:1000B0006F0200086F0200086F0200086F0200085C
:1000C0006F0200086F0200086F0200086F0200084C
:1000D0006F0200081D5A00086F0200086F02000836
:1000E0006F0200086F0200086F0200086F0200082C
:1000F000914E00086F0200086F0200086F020008AE
:100100006F0200086F0200086F0200086F0200080B
:100110006F0200086F0200086F0200086F020008FB
:10012000F90E00086F0200086F0200086F02000855
:100130006F0200086F0200086F0200086F020008DB
:100140006F0200086F0200086F0200086F020008CB
:100150006F0200086F0200086F0200086F020008BB
:100160006F0200086F0200086F0200086F020008AB
:100170006F0200086F0200086F0200080000000014
:100180006F0200086F02000800F002F800F052F859
:1001900014A696E8000CB244B344DA4501D100F04D
:1001A00049F8BAE80F000FA696E83000A5EB040561
:1001B00004EB0607AAEB0704A7F101074FEA1515A0
:1001C0004FEA3414A4F10104AC4201D300F032F838
:1001D00013F0010F18BFFB1A43F0010300F001F800
:1001E000DBE71847D8650000F8650000103A24BF27
:1001F00078C878C1FAD8520724BF30C830C144BF8C
:1002000004680C6070470000704700000023002461
:1002100000250026103A28BF78C1FBD8520728BF16
:1002200030C148BF0B6070471FB506F08DFA1FBD87
:1002300010B510BD00F0E4F81146FFF7F5FF05F02A
:10024000B5FE00F002F903B4FFF7F2FF03BC00F0C3
:1002500005F900000948804709480047FEE7FEE726
:10026000FEE7FEE7FEE7FEE7FEE7FEE7FEE7FEE766
:1002700004480549054A064B704700007D4E0008BA
:1002800089010008C0040020C00A0020C006002028
:10029000C006002053EA020C00F069802DE9F04B03
:1002A0004FF00006002B1FBFB3FA83F503FA05F4E5
:1002B00024FA05F65E4012BF1643B2FA82F502FA3E
:1002C00005F4C5F120051EBF22FA05FC44EA0C0422
:1002D000203556EA044C4FEA144418BF641C4FF012
:1002E00000084FF00009904271EB030C39D300294C
:1002F00019BFB1FA81F701FA07F6B0FA80F700FAF0
:1003000007F6C7F120071EBF20FA07FC46EA0C06D5
:100310002037B6FBF4FCA7EB0507103F07F01F0BD7
:10032000CBF120062CFA06F60CFA0BFB44BFB346C1
:100330000026202FA4BF5E464FF0000B5BEA060CA0
:1003400008BF4FF0010B19EB0B0948EB0608ABFB9C
:10035000027C06FB02CC0BFB03CCC01B71EB0C0137
:10036000C1E70B46024641464846BDE8F08B13B54F
:10037000084318BF4FF0FF300146AFF30080BDE8DF
:100380001C4070474FF0000200B513469446964655
:10039000203922BFA0E80C50A0E80C50B1F1200198
:1003A000BFF4F7AF090728BFA0E80C5048BF0CC046
:1003B0005DF804EB890028BF40F8042B08BF7047A4
:1003C00048BF20F8022B11F0804F18BF00F8012B16
:1003D000704770477047704710B500F009F8006823
:1003E00010BD10B5044600F003F8046010BD000015
:1003F000004870472800002000487047280000206F
:100400007546FFF7F9FFAE4605006946534620F0F2
:100410000700854618B020B5FFF72AFFBDE8204049
:100420004FF000064FF000074FF000084FF0000BB0
:10043000AC46ACE8C009ACE8C009ACE8C009ACE81F
:10044000C00921F007018D46704710B50446AFF38F
:1004500000802046BDE81040FFF7F5BE0149182096
:10046000ABBEFEE7260002007047000080B582B0F8
:1004700001900198806B00900098006C10F0500F74
:100480003AD1FFE70099086C40F4007008640098C6
:100490000068806810F0405F2AD1FFE70098007E76
:1004A00030BBFFE700980068C06A10F4700F07D0F7
:1004B000FFE70098006880684005002818D4FFE72F
:1004C00000980168486820F0200048600099086C96
:1004D00020F4807008640098006CC004002806D4E2
:1004E000FFE70099086C40F001000864FFE7FFE7B0
:1004F000009801F08DF910E00098006CC00600280B
:1005000004D5FFE7009801F0D5F905E00098806B6D
:10051000C16C01988847FFE7FFE702B080BD00008B
:1005200080B582B001900198806B009000994020C6
:1005300008640099486C40F004004864009801F099
:10054000B9F902B080BD000080B582B00190019879
:10055000806B0090009801F0A9F902B080BD000006
:1005600082B0019042F20030C4F201000090009984
:10057000486820F440304860019842680099486813
:100580001043486001980168486820F48070486012
:10059000019801680269486840EA022048600198B1
:1005A0000168486820F040704860019801688268DE
:1005B00048681043486001980168886820F400602A
:1005C000886001980168C268886810438860019853
:1005D000806A0121C0F60071884219D0FFE70198B6
:1005E0000168886820F07060886001980168826AFC
:1005F00088681043886001980168886820F040503E
:10060000886001980168C26A8868104388600CE0BD
:1006100001980168886820F070608860019801681E
:10062000886820F040508860FFE70198016888687A
:1006300020F0020088600198027E0168886840EA24
:1006400042008860019890F82000C8B1FFE7019847
:100650000168486840F40060486001980168486893
:1006600020F46040486001980168426A4EF2000040
:10067000CFF6FF7000EB423248681043486006E056
:1006800001980168486820F400604860FFE701981D
:100690000168C86A20F47000C86201980168C269E4
:1006A0000020CFF6F07000EB0252C86A1043C86217
:1006B00001980168886820F400708860019890F8BB
:1006C00030200168886840EA42208860019801680B
:1006D000886820F4806088600198016842698868B1
:1006E00040EA8220886002B07047000082B08DF836
:1006F00003009DF80300052803D3FFE700200190C5
:1007000009E09DF8031040F22420C2F2000050F8E6
:1007100021000190FFE79DED010A02B07047000043
:1007200080B582B000208DF80700FFE79DF8070034
:10073000042810D8FFE79DF8072040F22421C2F2D8
:100740000001002041F82200FFE79DF8070001307A
:100750008DF80700EAE740F23041C2F2000142F2B0
:100760001070086040F22021C2F2000101200870E0
:1007700040F25031C2F200010020087005F006FB83
:1007800002B080BD80B582B040F25030C2F20000AD
:10079000007800BBFFE740F23040C2F20000006882
:1007A00040B1FFE740F23041C2F200010868013871
:1007B00008605BE040F22020C2F20000007848B1FF
:1007C000FFE740F22021C2F200010020087005F08E
:1007D000FFFAFFE74AE040F25030C2F20000007832
:1007E000012801D0FFE741E000208DF80700FFE776
:1007F0009DF8070003282AD8FFE79DF8071046F266
:10080000B470C0F60000405C8DF806009DF806103C
:1008100040F28800C2F2000030F8110005F080FCC0
:10082000B0EE401A9DF8071040F25430C2F20000BA
:1008300000EB810090ED000A30EE010A80ED000A25
:10084000FFE79DF8070001308DF80700D0E740F280
:10085000D420C2F200000188013101800088B0F587
:100860007A7F03D3FFE705F03FFAFFE702B080BDD0
:1008700080B505F0ADFA80BDFFE7FEE780B584B036
:1008800003908DED020A05F0D5FA039805F0B6FC49
:1008900040F2C400C2F2000090ED000A40F2CC0029
:1008A000C2F20000D0ED000A40F2A000C2F2000047
:1008B00090ED001A40F2A400C2F20000D0ED001A40
:1008C00000F024FC40F2C820C2F2000090ED000AC3
:1008D000B6EE001AB4EE410AF1EE10FA1FDAFFE7A5
:1008E00040F2C820C2F2000090ED000A9FED311ADC
:1008F00030EE010A80ED000A90ED000AB6EE001A13
:10090000B4EE410AF1EE10FA08DDFFE740F2C8212B
:10091000C2F200014FF07C500860FFE7FFE740F2B1
:10092000C820C2F20000016840F2B030C2F20000FC
:100930000090016240F2D021C2F2000109684162D8
:1009400005F0ACF9009840F2D821C2F2000191ED17
:10095000000A40F23821C2F20001D1ED000A00F095
:10096000EDFD00998A6940F26430C2F20000019006
:100970000260C969416000F09FFC0198816840F203
:10098000B402C2F200021160C36840F2B801C2F2C0
:1009900000010B60036940F2BC00C2F2000003607A
:1009A00092ED000AD1ED000A90ED001A04F060F912
:1009B00004B080BD17B7513980B500F073F880BD21
:1009C00080B540F20800C2F2000090ED000ABFEED0
:1009D000001A30EE010A00F057F980BD80B540F2F0
:1009E0000800C2F2000090ED000AB7EE001A30EEE7
:1009F000010A00F049F980BD80B584B040F21400CE
:100A0000C2F2000001900068039040F20800C2F2B8
:100A100000000068029000F045F801990398086012
:100A20009DED020A00F030F940F21001C2F200011F
:100A30000020086040F2DC21C2F20001088040F290
:100A4000C821C2F20001086004B080BD80B584B046
:100A500040F2A801C2F2000101910020086040F2BA
:100A6000AC01C2F200010291086040F2B001C2F292
:100A700000010391086005F00DFB0199029A0398AB
:100A80000B6840F27C11C2F20001D1F800C0CCF832
:100A9000343012680B689A6300680968C86304B050
:100AA00080BD000080B58AB005F0F4FA40F28830CD
:100AB000C2F2000000F028FD40F24020C2F2000027
:100AC00000F022FD40F2B030C2F2000000F01CFD48
:100AD00040F26430C2F2000000F0D6FB40F2E020A9
:100AE000C2F20000019000F06BFB01989FED5D0ADF
:100AF000DFED5D0A9FED5D1ADFED5D1AB1EE042AB0
:100B0000F6EE002A00F09AFB00F0F4FA40F2D8303A
:100B1000C2F200009FED570A8DED020ADFED560A82
:100B2000CDED030AB3EE041A8DED041AFBEE041AA0
:100B3000CDED051A00F0B6FA9DED020ADDED030ACF
:100B40009DED041ADDED051A40F20440C2F20000EA
:100B500000F0A8FA40F26820C2F20000B2EE050AE6
:100B60008DED060ADFED450ACDED070A9FED441A2B
:100B70008DED081ADFED431ACDED091A00F092FA57
:100B80009DED060ADDED070A9DED081ADDED091A57
:100B900040F29420C2F2000000F084FA40F2D82122
:100BA000C2F200010020086040F23822C2F20002C6
:100BB0004FF07E51116040F21001C2F20001086056
:100BC00040F21402C2F200020021C4F2D0111160FE
:100BD00040F20C02C2F200020021C4F2B421116002
:100BE00040F21C21C2F20001086040F2C021C2F2B2
:100BF0000001086040F2C421C2F20001086040F226
:100C00000802C2F200020021C4F24621116040F243
:100C10001802C2F20002116040F20402C2F20002A5
:100C2000116040F2C001C2F20001086040F23C21B4
:100C3000C2F20001086040F2D021C2F20001086057
:100C400040F2C821C2F20001086040F2DC21C2F289
:100C50000001088040F2C801C2F2000108600AB039
:100C600080BD00BF0000484217B75138A4707D3FD7
:100C70000AD7233C9A99993DA69BC43A17B7513A93
:100C80000000C8430000C8C380B582B08DED010AE2
:100C90009DED010AF3EE040A9FED081A05F0A2F893
:100CA00040F20800C2F2000080ED000A006840F245
:100CB0001801C2F20001086002B080BD0000C84205
:100CC00080B582B040F2A801C2F2000100230B609F
:100CD00040F2AC02C2F20002136040F2B000C2F275
:100CE000000003600B6840F27C11C2F20001D1F8F1
:100CF00000C0CCF8343012680B689A630068096849
:100D0000C863FFE740F27C10C2F200000068006A8E
:100D100041F21111084216D1FFE740F27C10C2F2F5
:100D200000000068006A40F2444108420AD1FFE72F
:100D300040F27C10C2F200000168486C20F40040D0
:100D40004864FFE7FFE7FFE740F27C10C2F20000D3
:100D500000900021019103F0EBF80098042103F0CA
:100D6000E7F80098082103F0E3F8019840F2CC215D
:100D7000C2F20001087002B080BD000080B582B0F0
:100D8000019005F057F840F20800C2F20000006838
:100D900040F20401C2F200010860019805F02EFA49
:100DA00040F2C400C2F2000090ED000A40F2CC0014
:100DB000C2F20000D0ED000A40F2A000C2F2000032
:100DC00090ED001A40F2A400C2F20000D0ED001A2B
:100DD00000F09CF902B080BD80B540F29401C2F2EF
:100DE00000010020087040F21421C2F200010880C6
:100DF00040F21621C2F20001087040F21821C2F23E
:100E00000001088040F21A21C2F20001087040F28D
:100E10001021C2F20001088040F21221C2F200014A
:100E2000087040F20C21C2F20001088040F20E214D
:100E3000C2F200010870FFF773FCFFF7BDFD00F080
:100E400007F880BD40F29400C2F2000000787047BD
:100E500080B5FFF7FBFD80BD80B582B041F2000098
:100E6000C4F202000190022105F056F840F214216C
:100E7000C2F2000140F21622C2F2000246F215034D
:100E8000C0F6000305F058F80198082105F044F871
:100E900040F21821C2F2000140F21A22C2F200020E
:100EA00040F6DD13C0F6000305F046F80198042172
:100EB00005F032F840F21021C2F2000140F2122295
:100EC000C2F2000240F6C113C0F6000305F034F888
:100ED0000198102105F020F840F20C21C2F2000127
:100EE00040F20E22C2F2000245F6FD73C0F6000386
:100EF00005F022F802B080BD80B540F21810C2F2B1
:100F0000000000F07DFF80BD82B001900198007864
:100F100010384AF6AB21CAF6AA21A0FB011000093D
:100F20000090009946F29C70C0F60000405C019968
:100F3000C8650098042807D3FFE7019908680422D0
:100F400062F30900886506E00199086840F2FF3203
:100F500090438865FFE70198806D02B070470000FC
:100F600086B0059000208DF813000598806A0390E4
:100F70000598806910BBFFE70398029003281BD8EF
:100F80000299DFE801F0020D0218059890F82F0091
:100F9000C00720B1FFE701208DF81300FFE70CE048
:100FA0000598C06AB0F1C07F04D1FFE701208DF839
:100FB0001300FFE701E000E0FFE745E005988069E6
:100FC000B0F5005F25D1FFE70398019003281ED8F4
:100FD0000199DFE801F00206021101208DF81300EB
:100FE00016E0059890F82F00C00720B1FFE7012018
:100FF0008DF81300FFE70BE00598C06AB0F1C07FE1
:1010000004D1FFE701208DF81300FFE700E0FFE7C0
:1010100019E003980090032804D3FFE70098032801
:1010200004D00EE001208DF813000BE0059890F835
:101030002F00C00720B1FFE701208DF81300FFE764
:1010400000E0FFE7FFE7FFE79DF8130006B07047F9
:1010500084B003900291019200930398016808689C
:1010600020F480200860009803990968486003987C
:101070008068402809D1FFE70198039909688860D2
:10108000029803990968C86008E002980399096802
:101090008860019803990968C860FFE704B0704749
:1010A0007047000085B004908DED030ACDED020A73
:1010B0008DED011ACDED001A03980499C8600298CD
:1010C000049908610198049948610098049988611D
:1010D0000499002008600499486004998860049984
:1010E000C86104990862049948620499886205B04D
:1010F0007047000040F29801C2F200010020086031
:1011000040F29C01C2F200010860704786B08DED8C
:10111000050ACDED040A8DED031ACDED021A9DED01
:10112000050A9DED032A9DED041A9DED023A21EE7C
:10113000031A20EE020A30EE010AB7EE081A20EE7A
:10114000010A8DED010A9DED040A9DED033A9DED26
:10115000052A9DED024A22EE042A20EE030A30EE13
:10116000420A20EE010A8DED000A40F29800C2F218
:10117000000090ED000A9DED011A9FED0F3A21EE5F
:10118000031A9FED0E2A20EE020A30EE010A80EDCE
:10119000000A40F29C00C2F2000090ED000A9DEDB2
:1011A000001A21EE031A20EE020A30EE010A80ED49
:1011B000000A06B0704700BF0AD7233CA4707D3FE9
:1011C00081B0009000990020086000994860009963
:1011D00088600099C8600099086100994861009989
:1011E00088610099C8610099086200994862009975
:1011F00088620099C8620099086300994863009961
:1012000088630099C863009908640099486400994C
:1012100088640099C8640099086500994865009938
:1012200088650099C8650099086600994866009924
:1012300088660099C86601B07047000080B588B024
:1012400007908DED060ACDED050A8DED041ACDED62
:10125000031A8DED022ACDED012A0798FFF7B0FFA2
:1012600006980799086105980799C8610498079935
:101270000862039807994862029807998862019862
:101280000799C86208B080BD81B000900099002025
:10129000086000994860009988600099C8600099CA
:1012A000086100994861009988610099C8610099B6
:1012B000086201B07047000084B003900399486849
:1012C0004861039890ED001A90ED010A9FED562AAF
:1012D00021EE021AB6EE002A20EE020A30EE010AD2
:1012E00080ED060A039890ED051A90ED060A30EE9F
:1012F000410A80ED070A039903200862039890EDE4
:10130000060AB5EE400AF1EE10FA05DDFFE7039894
:10131000006A0138029003E00398006A0290FFE738
:10132000029803990862039890ED070AB5EE400A07
:10133000F1EE10FA05DDFFE70398006A013801902D
:1013400003E00398006A0190FFE70198039908629F
:10135000039890ED050AB5EE400AF1EE10FA06DAB0
:10136000FFE70398006AC0F10700009003E00398CC
:10137000006A0090FFE70098039908620398006AEA
:10138000012805D0FFE70398006A042814D1FFE77D
:10139000039988698860039890ED050A90ED071A13
:1013A00030EE410A80ED030A039890ED060AB1EE93
:1013B000400A80ED040A34E00398006A022805D050
:1013C000FFE70398006A052814D1FFE7039890ED22
:1013D000061A90ED070A30EE010A80ED020A039921
:1013E0004869C860039890ED050AB1EE400A80EDA7
:1013F000040A15E00399C8698860039890ED070A0C
:10140000B1EE400A80ED030A039890ED050A90EDD5
:10141000061A30EE010AB1EE400A80ED040AFFE739
:10142000FFE704B0704700BFD7B35D3F81B00090C5
:10143000009890ED033A90ED041A90ED050ABEEE87
:10144000002A21EE021A31EE031A20EE020A30EED3
:10145000010A9FED0C1A20EE010A80ED060A0098A1
:1014600090ED040A90ED052A9FED073A22EE032A3B
:1014700020EE030A30EE420A20EE010A80ED070A50
:1014800001B07047ABAA2A3FD7B35D3F80B584B0A7
:1014900003908DED020ACDED010A0398FFF7C6FF18
:1014A00003989DED020ADDED010A00F003F804B097
:1014B00080BD000083B002908DED010ACDED000AE1
:1014C00002989DED002A90ED060A90ED071A9DED19
:1014D000013A21EE031A20EE020A30EE010A80EDF5
:1014E000080A02989DED012A90ED061A90ED070A70
:1014F0009DED003A20EE030A21EE021A30EE410A79
:1015000080ED090A03B0704781B000900099002077
:10151000086000994860009988600099C860009947
:10152000086100994861009988610099C861009933
:1015300008620099486201B07047000083B00290D1
:101540008DED010ACDED000A9DED000A02989DED9A
:10155000011A90ED082A90ED093A21EE031A20EEC7
:10156000020A30EE410A80ED060A9DED010A02985A
:101570009DED001A90ED082A90ED093A21EE031A2C
:1015800020EE020A30EE010A80ED070A03B0704730
:1015900081B00090009890ED000A90ED012A9FED37
:1015A000121A22EE012A9FED113A20EE030A30EEC4
:1015B000020A80ED030A009890ED002A90ED010ADE
:1015C00030EE420A20EE010A80ED040A009890ED08
:1015D000030A90ED041AB1EE400A30EE410A80EDA4
:1015E000050A01B0704700BFABAAAA3EABAA2A3FCA
:1015F00072B6FFE7FEE7000085B00390029100207D
:101600000190FFE7039890F83C00012804D1FFE720
:1016100002208DF81300F7E00399012081F83C00C7
:10162000FFE7FFE7029800680A281CD3FFE702984B
:10163000008800EB4000A0F11E01072000FA01F233
:1016400003980168C8689043C8600299886809884F
:1016500001EB41011E3900FA01F203980168C868E4
:101660001043C86018E00298008800EB4001072092
:1016700000FA01F203980168086990430861029931
:101680008868098801EB410100FA01F203980168BA
:10169000086910430861FFE70298406806281BD8D4
:1016A000FFE70298406800EB8000411F1F2000FA0E
:1016B00001F203980168486B9043486302990888D7
:1016C000496801EB8101053900FA01F203980168CC
:1016D000486B104348633DE0029840680C281CD8D2
:1016E000FFE70298406800EB8000A0F123011F2073
:1016F00000FA01F203980168086B904308630299AD
:101700000888496801EB8101233900FA01F2039846
:101710000168086B104308631BE00298406800EB07
:101720008000A0F141011F2000FA01F20398016836
:10173000C86A9043C86202990888496801EB810130
:10174000413900FA01F203980168C86A1043C8627F
:10175000FFE7FFE742F20030C4F201000090039877
:10176000006842F20001C4F2010188420BD1FFE798
:1017700002980068122806D1FFE70099486840F4F3
:1017800080004860FFE70398006842F20001C4F25D
:10179000010188422ED1FFE702980068102805D089
:1017A000FFE702980068112824D1FFE700994868F4
:1017B00040F40000486002980068102819D1FFE743
:1017C00040F20000C2F2000000684DF68361C4F2EE
:1017D0001B31A0FB0110800C00EB80004000019049
:1017E000FFE7019820B1FFE7019801380190F8E781
:1017F000FFE7FFE7FFE70399002081F83C00FFE7E0
:1018000000208DF81300FFE79DF8130005B0704726
:1018100080B58AB009900998006842F20001C4F2CC
:101820000101884201D0FFE73DE0FEF7ABFFFFF783
:1018300013FB04F0ADFC8DED050A04F0BBFC8DED4F
:10184000060A04F085FC8DED070A04F091FC8DED8D
:10185000080A04F0C1FC8DED040AFFF7F3FA30B971
:10186000FFE7FFF7F5FA05A8FFF788FA05E09DED19
:10187000040A05A8FFF702F8FFE740F2B400C2F23D
:1018800000000068009040F2B800C2F2000000685A
:10189000019040F2BC00C2F200000068029068466D
:1018A00004F0D8F8FFE70AB080BD000081B00090D6
:1018B00001B0704781B0009001B0704780B584B02E
:1018C000029000208DF80700029820B9FFE7012060
:1018D0008DF80F0042E00298806A0121C0F6007185
:1018E000884201D0FFE7FFE70298006C50B9FFE79C
:1018F000029800F037F8029900204864029981F8B4
:101900003C00FFE70298006CC006002817D4FFE7F0
:101910000298006C40F0020020F48850029908649C
:101920000298FEF71DFE0299002048640298006CA0
:1019300040F0010020F002000299086403E0012059
:101940008DF80700FFE7FFE70299002081F83C00CF
:10195000FFE79DF807008DF80F00FFE79DF80F00E7
:1019600004B080BD80B58CB00B9000200A90099027
:101970000890079006900B98006842F20001C4F2AC
:101980000101884278D1FFE7FFE70020059043F688
:101990004400C4F20200016841F4807101600068F3
:1019A00000F4807005900598FFE7FFE700200490A1
:1019B00043F63000C4F20200016841F00101016009
:1019C000006800F0010004900498FFE7FFE70020A2
:1019D000039043F63000C4F20200016841F00401B4
:1019E0000160006800F0040003900398FFE73320D3
:1019F0000690032007900020019008900020C4F278
:101A0000020006A9009100F0A5FC009901200690B3
:101A100040F60000C4F2020000F09CFC019940F284
:101A20001810C2F20000029046F21042C4F2020204
:101A3000026041608160C1604FF4806202614FF4D6
:101A4000006242614FF4005282614FF48072C261C1
:101A50000162416200F064FB18B1FFE7FFF7C8FDC7
:101A6000FFE7FFE70B9840F21811C2F20001816313
:101A70000B988863FFE7FFE70CB080BD80B588B0A6
:101A8000069005910492002003908DF80700FFE76F
:101A9000069890F83C00012804D1FFE702208DF859
:101AA0001F0010E10699012081F83C00FFE7FFE7E5
:101AB00006980068806800F0010001281ED0FFE74A
:101AC00006980168886840F00100886040F20000D4
:101AD000C2F2000000684DF68361C4F21B31A0FB26
:101AE0000110800C00EB40000390FFE7039820B149
:101AF000FFE7039801380390F8E7FFE706980068CE
:101B00008068C005002807D5FFE706980168886847
:101B100020F480708860FFE7069800688068C0073E
:101B2000002800F0C080FFE70698006C40F4807049
:101B300040F201618843069908640698006840688D
:101B40004005002809D5FFE70698006C40F4805056
:101B500020F4005006990864FFE70698006CC00462
:101B6000002806D5FFE70699486C20F00600486477
:101B700003E0069900204864FFE7FFE7069900208C
:101B800081F83C00FFE742F20030C4F2010002900D
:101B90000698816B40F26D40C0F60000C86306985D
:101BA000816B40F24950C0F6000008640698816BD2
:101BB00040F22150C0F60000C864069801686FF03A
:101BC0002200086006980168486840F0806048601C
:101BD00006980168886840F48070886006980168FB
:101BE000806B4C31059A049B00F052FB8DF8070086
:101BF00002984068C006E8BBFFE70698006842F21A
:101C00000001C4F20101884224D0FFE70698006871
:101C100042F20011C4F20101884208D1FFE742F20A
:101C20000430C4F201000068C00698B1FFE70698CE
:101C3000006842F20021C4F20101884219D1FFE795
:101C400042F20430C4F20100006800F01F000F28C7
:101C50000FD8FFE706980068806810F0405F07D152
:101C6000FFE706980168886840F080408860FFE7D9
:101C7000FFE717E00698006842F20001C4F2010194
:101C800088420ED1FFE706980068806810F0405F38
:101C900007D1FFE706980168886840F080408860B7
:101CA000FFE7FFE70AE00699086C40F010000864BF
:101CB0000699486C40F001004864FFE79DF8070072
:101CC0008DF81F00FFE79DF81F0008B080BD0000E1
:101CD00080B584B002900298806D019000F046FDBE
:101CE0000090029890F8350002280DD0FFE7029985
:101CF00080204865FFE70299002081F83400FFE763
:101D000001208DF80F0055E002980168086820F066
:101D10001600086002980168486920F08000486158
:101D20000298006C20B9FFE70298806C38B1FFE799
:101D300002980168086820F008000860FFE7029830
:101D40000168086820F001000860FFE70298006859
:101D50000068C007C8B1FFE700F008FD0099401A0D
:101D6000062811D3FFE70299202048650299032035
:101D700081F83500FFE70299002081F83400FFE781
:101D800003208DF80F0015E0E0E70298C16D3F20B9
:101D90008840019988600299012081F83500FFE7A9
:101DA0000299002081F83400FFE7FFE700208DF85A
:101DB0000F00FFE79DF80F0004B080BD82B00090D7
:101DC000009890F83500022807D0FFE7009980209E
:101DD000486501208DF807000EE00099052081F884
:101DE000350000980168086820F001000860FFE7EE
:101DF00000208DF80700FFE79DF8070002B070474C
:101E000080B586B005900020039040F20000C2F239
:101E10000000006848F2B511C1F64E31A0FB011078
:101E2000800A02900598806D0190019800680490E6
:101E300004980599C96DC840000700281AD5FFE726
:101E40000598006800684007002812D5FFE705984C
:101E50000168086820F0040008600598C16D08203A
:101E60008840019988600599486D40F001004865F7
:101E7000FFE7FFE704980599C96DC840C007A0B106
:101E8000FFE7059800684069000600280CD5FFE7C9
:101E90000598C16D01208840019988600599486DB9
:101EA00040F002004865FFE7FFE704980599C96D17
:101EB000C8404007002814D5FFE70598006800686F
:101EC000800700280CD5FFE70598C16D04208840E5
:101ED000019988600599486D40F004004865FFE766
:101EE000FFE704980599C96DC840C006002847D58A
:101EF000FFE7059800680068000700283FD5FFE766
:101F00000598C16D10208840019988600598006887
:101F10000068400300281AD5FFE7059800680068AC
:101F20000003002809D4FFE70598006C20B1FFE703
:101F30000598016C8847FFE708E00598806C20B1A0
:101F4000FFE70598816C8847FFE7FFE716E00598F3
:101F500000680068C005002807D4FFE705980168FD
:101F6000086820F008000860FFE70598006C20B1C1
:101F7000FFE70598016C8847FFE7FFE7FFE7FFE70A
:101F800004980599C96DC8408006002840F18D80ED
:101F9000FFE7059800680068C006002840F18480CB
:101FA000FFE70598C16D2020884001998860059859
:101FB00090F83500052834D1FFE7059801680868D6
:101FC00020F01600086005980168486920F080003C
:101FD00048610598006C20B9FFE70598806C38B11E
:101FE000FFE705980168086820F008000860FFE72F
:101FF0000598C16D3F2088400199886005990120AE
:1020000081F83500FFE70599002081F83400FFE7EB
:102010000598006D20B1FFE70598016D8847FFE73F
:102020007BE0059800680068400300281AD5FFE7A8
:102030000598006800680003002809D4FFE70598A8
:10204000406C20B1FFE70598416C8847FFE708E046
:102050000598C06B20B1FFE70598C16B8847FFE783
:10206000FFE720E0059800680068C005002811D44B
:10207000FFE705980168086820F0100008600599DE
:10208000012081F83500FFE70599002081F8340030
:10209000FFE7FFE70598C06B20B1FFE70598C16B2C
:1020A0008847FFE7FFE7FFE7FFE70598406DA0B32C
:1020B000FFE70598406DC00730B3FFE7059905209D
:1020C00081F8350005980168086820F00100086073
:1020D000FFE70398013003900299884201D9FFE796
:1020E00007E0FFE7059800680068C0070028F0D106
:1020F000FFE70599012081F83500FFE705990020E9
:1021000081F83400FFE7FFE70598C06C20B1FFE7D6
:102110000598C16C8847FFE7FFE706B080BD000067
:1021200080B586B004900020039000F01FFB029061
:10213000049820B9FFE701208DF81700A3E0049868
:10214000406A08B1FFE7FFE70499022081F83500F3
:10215000FFE70499002081F83400FFE70498016844
:10216000086820F001000860FFE704980068006834
:10217000C00790B1FFE700F0F9FA0299401A06286B
:102180000AD3FFE70499202048650499032081F8C9
:1021900035008DF8170076E0E7E7049800680068DE
:1021A0000390039848F23F01CFF2100108400390DA
:1021B000049900914868D1F808C0CB680A6940EAE0
:1021C0000C00184310434A6910438A691043CA69D6
:1021D0001043096A01430398084303900498406A36
:1021E000042808D1FFE70499C86A096B01430398E2
:1021F00008430390FFE7039804990968086004986E
:10220000006840690390039820F007000390049849
:10221000416A0398084303900498406A04281AD13D
:10222000FFE70498816A0398084303900498C06A02
:1022300080B1FFE70498FEF793FE50B1FFE70499E1
:10224000402048650499012081F835008DF8170079
:1022500019E0FFE7FFE703980499096848610498CB
:10226000FEF752FE01900498C16D3F20884001990D
:102270008860049900204865049A012182F835108D
:102280008DF81700FFE79DF8170006B080BD00002D
:1022900080B588B0069005910492039300208DF8D4
:1022A0000B000698806D0190FFE7069890F83400C7
:1022B000012804D1FFE702208DF81F0045E00699B0
:1022C000012081F83400FFE7FFE7069890F8350019
:1022D00001282BD1FFE70699022081F835000699E5
:1022E0000020486506980599049A039BFEF7B0FE06
:1022F0000698C16D3F208840019988600698016862
:10230000086840F0160008600698006C38B1FFE7D6
:1023100006980168086840F008000860FFE7069822
:102320000168086840F00100086009E0FFE70699CD
:10233000002081F83400FFE702208DF80B00FFE752
:102340009DF80B008DF81F00FFE79DF81F0008B0F7
:1023500080BD00008EB00D900C9100200A90099075
:1023600008900B90FFE70B980F2800F2CC81FFE755
:102370000B99012088400A900C9800680A9908403F
:10238000099009980A99884240F0B881FFE70C98B3
:10239000406800F00300012807D0FFE70C98406870
:1023A00000F0030002282FD1FFE70D988068089005
:1023B0000B984100032000FA01F108988843089027
:1023C0000C98C0680B99490000FA01F1089808437D
:1023D000089008980D9988600D98406808900B99AE
:1023E000012000FA01F10898884308900C98406891
:1023F000C0F300100B9900FA01F108980843089007
:1024000008980D994860FFE70C98406800F00300B9
:10241000032818D0FFE70D98C06808900B9841007A
:10242000032000FA01F10898884308900C9880680E
:102430000B99490000FA01F10898084308900898A0
:102440000D99C860FFE70C98406800F0030002286F
:1024500026D1FFE70D980B996FF0030202EA5101B4
:102460000844006A08900B9800F0070081000F20D4
:1024700000FA01F10898884308900C9800690B99BC
:1024800001F00701890000FA01F10898084308905B
:1024900008980D990B9B02EA530211440862FFE76A
:1024A0000D98006808900B984100032000FA01F194
:1024B0000898884308900C98406800F003000B9936
:1024C000490000FA01F108980843089008980D990E
:1024D00008600C9880798007002800F00E81FFE7E3
:1024E000FFE70020079043F64400C4F202000168B1
:1024F00041F480410160006800F480400790079833
:10250000FFE70B9820F0030043F60801C4F2010135
:10251000405808900B9800F0030081000F2000FA4B
:1025200001F10898884308900D980021C4F2020137
:10253000884203D1FFE7002006905EE00D9840F24C
:102540000041C4F20201884203D1FFE70120059057
:1025500050E00D9840F60001C4F20201884203D118
:10256000FFE70220049042E00D9840F60041C4F2DB
:102570000201884203D1FFE70320039034E00D9865
:1025800041F20001C4F20201884203D1FFE70420B6
:10259000029026E00D9841F20041C4F20201884207
:1025A00003D1FFE70520019018E00D9841F60001E6
:1025B000C4F20201884203D1FFE7062000900AE03E
:1025C0000D9941F60042C4F202020820914208BF70
:1025D00007200090FFE700980190FFE70198029024
:1025E000FFE702980390FFE703980490FFE7049841
:1025F0000590FFE705980690FFE70698C0B20B9993
:1026000001F00301890000FA01F1089808430890DD
:1026100008980B9921F0030143F60802C4F2010265
:10262000885043F60840C4F20100006808900999F8
:102630000898884308900C988079C006002805D532
:10264000FFE70999089808430890FFE7089843F6C0
:102650000841C4F20101086043F60C40C4F20100D5
:102660000068089009990898884308900C98807928
:102670008006002805D5FFE70999089808430890C7
:10268000FFE7089843F60C41C4F20101086043F6E5
:102690000440C4F201000068089009990898884332
:1026A00008900C9880798007002805D5FFE70999E4
:1026B000089808430890FFE7089843F60441C4F2DD
:1026C0000101086043F60040C4F201000068089070
:1026D00009990898884308900C988079C00728B118
:1026E000FFE70999089808430890FFE7089843F620
:1026F0000041C4F201010860FFE7FFE7FFE70B9824
:1027000001300B902FE60EB07047000082B00190B0
:10271000ADF8021001980069BDF80210084204D01B
:10272000FFE701208DF8010003E000208DF8010093
:10273000FFE79DF8010002B07047000082B00190F1
:10274000ADF802108DF801209DF8010028B1FFE7D7
:10275000BDF802000199886105E0BDF8020000049F
:1027600001998861FFE702B07047000040F23840ED
:10277000C2F200000068704740F21C00C2F2000084
:10278000027840F23841C2F2000108681044086043
:102790007047000080B543F60041C4F202010868AA
:1027A00040F400700860086840F4806008600868C1
:1027B00040F480700860032000F08AF80F2000F0D9
:1027C00005F800F03BF8002080BD000080B582B025
:1027D000009040F20000C2F20000006840F21C01CC
:1027E000C2F200010A784FF47A71B1FBF2F1B0FB4A
:1027F000F1F000F0A5FD20B1FFE701208DF8070002
:1028000018E000980F280DD8FFE700994FF0FF302F
:10281000002200F043F8009840F22001C2F20001CB
:10282000086003E001208DF8070003E000208DF828
:102830000700FFE79DF8070002B080BD82B0FFE708
:102840000020019043F64400C4F20200016841F404
:1028500080410160006800F4804001900198FFE72A
:10286000FFE70020009043F64000C4F20200016838
:1028700041F080510160006800F0805000900098A5
:10288000FFE702B07047000080B582B08DF8070006
:102890009DF9070003F06CF902B080BD80B586B0E9
:1028A0008DF81700049103920020029003F078F94C
:1028B00002909DF91700019002980499039A02F082
:1028C0009DF90146019803F073F906B080BD000040
:1028D00080B582B00190019803F08CF902B080BD00
:1028E00080B584B002900191029820B9FFE70120E1
:1028F0008DF80F0021E1019843F60041C4F2020176
:10290000096801F00701884212D9FFE7019943F6EF
:102910000040C4F202000170006800F00700019955
:10292000884204D0FFE701208DF80F0005E1FFE7A2
:1029300002980078800700282AD5FFE702980078DF
:102940004007002809D5FFE743F60801C4F2020159
:10295000086840F4E0500860FFE70298007800073C
:10296000002809D5FFE743F60801C4F20201086810
:1029700040F460400860FFE743F60801C4F202013A
:10298000086820F0F000029A926810430860FFE7A0
:1029900002980078C00700286ED0FFE702984068D0
:1029A000012811D1FFE743F60000C4F202000068DD
:1029B00000F400310020B0EB514F04D1FFE70120BB
:1029C0008DF80F00B9E02CE002984068022805D08D
:1029D000FFE702984068032811D1FFE743F60000A3
:1029E000C4F20200006800F000710020B0EB516FEB
:1029F00004D1FFE701208DF80F009EE010E043F6C0
:102A00000000C4F20200006800F002010020B0EBF8
:102A1000510F04D1FFE701208DF80F008DE0FFE793
:102A2000FFE743F60801C4F20201086820F0030042
:102A3000029A526810430860FFF798FE0090FFE783
:102A400043F60800C4F20200006800F00C0002998E
:102A50004968B0EB810F0ED0FFE7FFF787FE0099C2
:102A6000401A41F28931884204D3FFE703208DF8F0
:102A70000F0062E0E4E7FFE7019843F60041C4F28B
:102A80000201096801F00701884212D2FFE70199AB
:102A900043F60040C4F202000170006800F0070035
:102AA0000199884204D0FFE701208DF80F0044E02F
:102AB000FFE702980078400700280CD5FFE743F6AF
:102AC0000801C4F20201086820F4E050029AD268BA
:102AD00010430860FFE702980078000700280DD532
:102AE000FFE743F60801C4F20201086820F46040E1
:102AF000029A126940EAC2000860FFE700F04CF851
:102B000043F60801C4F202010968C9B20A0946F293
:102B10008471C0F60001895CC84040F20001C2F235
:102B20000001086040F22000C2F200000068FFF7D8
:102B30004DFE00208DF80F00FFE79DF80F0004B058
:102B400080BD000040F20000C2F200000068704743
:102B500080B5FFF7F7FF43F60801C4F202010968E8
:102B6000C1F3822246F29471C0F60001895CC8402C
:102B700080BD000080B5FFF7E5FF43F60801C4F211
:102B80000201096889B24A0B46F29471C0F600014D
:102B9000895CC84080BD000080B586B000200590EB
:102BA00004900390029043F60800C4F2020000680B
:102BB00000F00C000146019140B1FFE701980428A4
:102BC0000AD0FFE7019808280CD04FE042F20040FD
:102BD000C0F2F40002904FE047F64000C0F27D10D2
:102BE000029049E043F60400C4F20200016801F0DB
:102BF0003F01059100684002002813D5FFE743F626
:102C00000400C4F202000068C0F3881047F64001D7
:102C1000C0F27D11A0FB0101059A0023FDF73AFBEC
:102C2000049012E043F60400C4F202000068C0F30E
:102C3000881042F20041C0F2F401A0FB0101059AA4
:102C40000023FDF727FB0490FFE743F60400C4F2DE
:102C50000200006800F44031022000EBD130039004
:102C600004980399B0FBF1F0029005E042F20040B5
:102C7000C0F2F4000290FFE7029806B080BD0000A9
:102C800080B586B00490049820B9FFE701208DF844
:102C9000170050E304980078C007002800F0A580D2
:102CA000FFE743F60800C4F20200006800F00C00E1
:102CB000042813D0FFE743F60800C4F202000068BE
:102CC00000F00C0008281ED1FFE743F60400C4F210
:102CD000020000684002002815D5FFE743F6000017
:102CE000C4F20200006800F400310020B0EB514F44
:102CF00008D0FFE70498406820B9FFE701208DF86D
:102D0000170018E370E0FFE704984068B0F5803FD3
:102D100009D1FFE743F60001C4F20201086840F45C
:102D20008030086020E004984068B0F5A02F0DD1F5
:102D3000FFE743F60001C4F20201086840F4802076
:102D40000860086840F4803008600CE043F6000139
:102D5000C4F20201086820F480300860086820F49A
:102D600080200860FFE7FFE7FFE704984068E8B1CC
:102D7000FFE7FFF7FBFC0390FFE743F60000C4F218
:102D80000200006800F400310020B0EB514F0CD17C
:102D9000FFE7FFF7EBFC0399401A652804D3FFE730
:102DA00003208DF81700C6E2E7E71CE0FFF7DEFC22
:102DB0000390FFE743F60000C4F20200006800F44D
:102DC00000310020B0EB514F0CD0FFE7FFF7CEFCF5
:102DD0000399401A652804D3FFE703208DF81700F4
:102DE000A9E2E7E7FFE7FFE7FFE70498007880073D
:102DF000002840F19680FFE743F60800C4F2020085
:102E0000006810F00C0F13D0FFE743F60800C4F27F
:102E10000200006800F00C0008282CD1FFE743F600
:102E20000400C4F2020000684002002823D4FFE737
:102E300043F60000C4F20200006800F00201002026
:102E4000B0EB510F09D0FFE70498C068012804D007
:102E5000FFE701208DF817006DE243F60001C4F290
:102E60000201086820F0F800049A126940EAC200E2
:102E70000860FFE754E00498C06870B3FFE70021E2
:102E8000C4F2472101200860FFF770FC0390FFE7C0
:102E900043F60000C4F20200006800F002010020C6
:102EA000B0EB510F0CD1FFE7FFF760FC0399401A1C
:102EB000032804D3FFE703208DF817003BE2E7E780
:102EC00043F60001C4F20201086820F0F800049AF9
:102ED000126940EAC200086021E00021C4F24721E3
:102EE00000200860FFF742FC0390FFE743F6000074
:102EF000C4F20200006800F002010020B0EB510FA4
:102F00000CD0FFE7FFF732FC0399401A032804D3E3
:102F1000FFE703208DF817000DE2E7E7FFE7FFE783
:102F2000FFE704980078000700284BD5FFE70498D6
:102F3000406918B3FFE740F68061C4F247210120E1
:102F40000860FFF713FC0390FFE743F67400C4F238
:102F50000200006800F002010020B0EB510F0CD11C
:102F6000FFE7FFF703FC0399401A032804D3FFE7A8
:102F700003208DF81700DEE1E7E722E040F68061EC
:102F8000C4F2472100200860FFF7F0FB0390FFE741
:102F900043F67400C4F20200006800F00201002051
:102FA000B0EB510F0CD0FFE7FFF7E0FB0399401A9D
:102FB000032804D3FFE703208DF81700BBE1E7E700
:102FC000FFE7FFE7049800784007002840F1CE8033
:102FD000FFE700208DF8070043F64000C4F202002E
:102FE0000068C000002815D4FFE7FFE7002000902C
:102FF00043F64000C4F20200016841F080510160D4
:10300000006800F0805000900098FFE701208DF8E4
:103010000700FFE747F20000C4F200000068C005A7
:10302000002822D4FFE747F20001C4F2000108683B
:1030300040F480700860FFF799FB0390FFE747F2C8
:103040000000C4F200000068C00500280CD4FFE7AF
:10305000FFF78CFB0399401A032804D3FFE70320F2
:103060008DF8170067E1EAE7FFE7FFE7049880685B
:10307000012809D1FFE743F67001C4F20201086894
:1030800040F0010008601FE00498806805280DD119
:10309000FFE743F67001C4F20201086840F0040043
:1030A0000860086840F0010008600CE043F6700119
:1030B000C4F20201086820F001000860086820F0EE
:1030C00004000860FFE7FFE7FFE704988068F8B1B5
:1030D000FFE7FFF74BFB0390FFE743F67000C4F2F6
:1030E0000200006800F002010020B0EB510F0ED189
:1030F000FFE7FFF73BFB0399401A41F28931884211
:1031000004D3FFE703208DF8170014E1E5E71EE084
:10311000FFF72CFB0390FFE743F67000C4F20200B8
:10312000006800F002010020B0EB510F0ED0FFE765
:10313000FFF71CFB0399401A41F28931884204D3FE
:10314000FFE703208DF81700F5E0E5E7FFE79DF8BE
:103150000700012809D1FFE743F64001C4F202014C
:10316000086820F080500860FFE7FFE70498806956
:10317000002800F0DC80FFE743F60800C4F20200FC
:10318000006800F00C00082800F08580FFE7049834
:10319000806902285CD1FFE76021C4F2472100204A
:1031A0000860FFF7E3FA0390FFE743F60000C4F27C
:1031B0000200006800F000710020B0EB516F0CD0ED
:1031C000FFE7FFF7D3FA0399401A032804D3FFE778
:1031D00003208DF81700AEE0E7E70499C869D1F83D
:1031E00020C04B6A8A6A40EA0C0040EA8310D2038E
:1031F0004FF6FF739A43A2F580321043C96A40EA42
:10320000016043F60401C4F2020108606021C4F2C7
:10321000472101200860FFF7A9FA0390FFE743F672
:103220000000C4F20200006800F000710020B0EB62
:10323000516F0CD1FFE7FFF799FA0399401A032861
:1032400004D3FFE703208DF8170074E0E7E721E0DF
:103250006021C4F2472100200860FFF787FA03903D
:10326000FFE743F60000C4F20200006800F00071BE
:103270000020B0EB516F0CD0FFE7FFF777FA03990E
:10328000401A032804D3FFE703208DF8170052E00B
:10329000E7E7FFE74AE004988069012804D1FFE7E7
:1032A00001208DF8170046E043F60400C4F2020046
:1032B0000068029004988069012831D0FFE70298E5
:1032C00000F480000499C969884229D1FFE7029877
:1032D00000F03F000499096A884221D1FFE7029873
:1032E00047F6C07108400499496AB0EB811F17D1B5
:1032F000FFE7029800F440300499896AC9034FF649
:10330000FF729143A1F58031884209D1FFE702980D
:1033100000F070600499C96AB0EB016F04D0FFE758
:1033200001208DF8170006E0FFE7FFE7FFE7002028
:103330008DF81700FFE79DF8170006B080BD00006C
:1033400080B582B00190019801F00CFD02B080BD03
:1033500081B0009001B0704781B0009001B070471B
:1033600084B00290019100200090FFE7029890F84D
:103370003C00012804D1FFE702208DF80F0044E053
:103380000299012081F83C00FFE7FFE7009820F058
:10339000FF000199C96808430090009820F440702C
:1033A0000199896808430090009820F48060019991
:1033B000496808430090009820F40060019909686A
:1033C00008430090009820F480500199096908434F
:1033D0000090009820F4005001994969084300903A
:1033E000009820F480400199C96908430090009832
:1033F000029909684864FFE70299002081F83C00BF
:10340000FFE700208DF80F00FFE79DF80F0004B0E4
:103410007047000085B003900291FFE7039890F891
:103420003C00012804D1FFE702208DF813007EE064
:103430000399012081F83C00FFE7FFE70399022090
:1034400081F83D0003980068406801900398006887
:1034500080680090019820F0700001900298016847
:1034600001980843019001980399096848600398FE
:1034700000680021C4F2010188423CD0FFE70398B4
:103480000068B0F1804F36D0FFE70398006840F243
:103490000041C4F2000188422DD0FFE70398006884
:1034A00040F60001C4F20001884224D0FFE70398EF
:1034B000006840F60041C4F2000188421BD0FFE7DB
:1034C0000398006840F20041C4F20101884212D022
:1034D000FFE70398006844F20001C4F2010188424A
:1034E00009D0FFE70398006841F60001C4F200012B
:1034F00088420ED1FFE7009820F0800000900298EB
:103500004168009808430090009803990968886012
:10351000FFE70399012081F83D00FFE703990020B0
:1035200081F83C00FFE700208DF81300FFE79DF8CD
:10353000130005B07047000080B58AB0089007916D
:10354000079828B9FFE7089890F8420005901CE01A
:103550000798042805D1FFE7089890F843000490E5
:1035600010E00798082805D1FFE7089890F8440074
:10357000039004E0089890F845000390FFE7039853
:103580000490FFE704980590FFE70598012804D010
:10359000FFE701208DF8270093E0079828B9FFE79F
:1035A0000899022081F842001EE00798042806D1FD
:1035B000FFE70899022081F84300029012E0079883
:1035C000082806D1FFE70899022081F844000190FD
:1035D00005E00899022081F845000190FFE7019875
:1035E0000290FFE70298FFE7089800680799042215
:1035F00001F044FD08980168486C40F400404864BC
:10360000089800680021C4F2010188423CD0FFE71D
:1036100008980068B0F1804F36D0FFE7089800683E
:1036200040F20041C4F2000188422DD0FFE7089823
:10363000006840F60001C4F20001884224D0FFE790
:103640000898006840F60041C4F2000188421BD08F
:10365000FFE70898006840F20041C4F20101884287
:1036600012D0FFE70898006844F20001C4F201019B
:10367000884209D0FFE70898006841F60001C4F2CB
:103680000001884212D1FFE708980068806800F0C6
:10369000070006900698062807D0FFE708980168FB
:1036A000086840F001000860FFE706E0089801683C
:1036B000086840F001000860FFE700208DF827004F
:1036C000FFE79DF827000AB080BD000080B584B0F8
:1036D00003900291039800680299002201F0CEFC49
:1036E000FFE703980068006A41F21111084210D107
:1036F000FFE703980068006A40F24441084207D19E
:10370000FFE703980168486C20F400404864FFE735
:10371000FFE7FFE7FFE703980068006A41F2111135
:10372000084210D1FFE703980068006A40F2444164
:10373000084207D1FFE703980168086820F00100FC
:103740000860FFE7FFE7FFE7029828B9FFE7039962
:10375000012081F842001EE00298042806D1FFE70C
:103760000399012081F84300019012E00298082893
:1037700006D1FFE70399012081F84400009005E09D
:103780000399012081F845000090FFE7009801901F
:10379000FFE70198FFE7002004B080BD80B582B04C
:1037A0000090009820B9FFE701208DF807003FE066
:1037B000009890F83D0040B9FFE70099002081F89B
:1037C0003C00009800F038F8FFE70099022081F8EB
:1037D0003D00009951F8040B01F062FB00990120B3
:1037E00081F84600FFE70099012081F83E0000992A
:1037F00081F83F00009981F84000009981F841006C
:10380000FFE7FFE70099012081F84200009981F865
:103810004300009981F84400009981F84500FFE7D2
:103820000099012081F83D0000208DF80700FFE796
:103830009DF8070002B080BD80B584B00390039866
:10384000006840F20041C4F2010188421BD1FFE749
:10385000FFE70020029043F64400C4F20200016832
:1038600041F002010160006800F00200029002983D
:10387000FFE72C20019000221146FFF70FF8019876
:10388000FFF702F8FFE704B080BD000080B586B006
:103890000490039100208DF80B00FFE7049890F846
:1038A0003C00012804D1FFE702208DF81700ABE0AF
:1038B0000499012081F83C00FFE7FFE7049902200A
:1038C00081F83D000498006880680190019820F01C
:1038D00077000190019820F47F40019001980499AD
:1038E00009688860039800680090002872D0FFE79C
:1038F000009810286ED0FFE7009820286AD0FFE7D4
:103900000098302866D0FFE70098402855D0FFE7A0
:103910000098502837D0FFE70098602840D0FFE794
:10392000009870280BD0FFE70098B0F5805F05D0B5
:10393000FFE70098B0F5005F16D052E055E004981C
:103940000068039B5A689968DB6801F0B3FB049830
:10395000006880680190019840F07700019001981C
:1039600004990968886040E004980068039B5A68DD
:103970009968DB6801F09EFB04980168886840F450
:103980008040886031E004980068039A5168D268EA
:1039900001F07CFD04980068502101F0A5FB24E0B3
:1039A00004980068039A5168D26801F097FD049862
:1039B0000068602101F098FB17E004980068039A02
:1039C0005168D26801F062FD04980068402101F05E
:1039D0008BFB0AE0049800680399096801F084FBF6
:1039E00003E001208DF80B00FFE70499012081F826
:1039F0003D00FFE70499002081F83C00FFE79DF8B7
:103A00000B008DF81700FFE79DF8170006B080BD8A
:103A100081B0009001B0704780B584B003900398E6
:103A20000068C068029003980068006901909DF8E2
:103A300004008007002824D5FFE79DF808008007D0
:103A400000281DD5FFE7039801686FF002000861A8
:103A5000039901200877039800688069800720B1E6
:103A6000FFE70398FFF7D4FF06E0039800F064F93E
:103A7000039800F059FAFFE7039900200877FFE761
:103A8000FFE79DF804004007002825D5FFE79DF8D3
:103A90000800400700281ED5FFE7039801686FF073
:103AA0000400086103990220087703980068806980
:103AB00010F4407F04D0FFE70398FFF7A9FF06E06A
:103AC000039800F039F9039800F02EFAFFE7039904
:103AD00000200877FFE7FFE79DF8040000070028B3
:103AE00024D5FFE79DF80800000700281DD5FFE753
:103AF000039801686FF008000861039904200877B3
:103B000003980068C069800720B1FFE70398FFF7BA
:103B10007FFF06E0039800F00FF9039800F004FA25
:103B2000FFE7039900200877FFE7FFE79DF804000F
:103B3000C006002825D5FFE79DF80800C00600282C
:103B40001ED5FFE7039801686FF010000861039924
:103B50000820087703980068C06910F4407F04D0FB
:103B6000FFE70398FFF754FF06E0039800F0E4F83E
:103B7000039800F0D9F9FFE7039900200877FFE7E1
:103B8000FFE79DF80400C00778B1FFE79DF8080043
:103B9000C00748B1FFE7039801686FF001000861B2
:103BA000039800F0ABFAFFE7FFE79DF8040000067A
:103BB000002810D5FFE79DF808000006002809D569
:103BC000FFE7039801686FF0800008610398FFF732
:103BD000BFFBFFE7FFE79DF804004006002810D573
:103BE000FFE79DF808004006002809D5FFE7039885
:103BF00001686FF040000861039800F083FAFFE766
:103C0000FFE79DF804008006002810D5FFE79DF827
:103C100008008006002809D5FFE7039801686FF0C7
:103C2000200008610398FFF797FBFFE7FFE704B068
:103C300080BD000080B58EB00D9000200C900B90E0
:103C40000A90099008900D98006840F20041C4F273
:103C5000010188426DD1FFE7FFE70020079043F69E
:103C60003000C4F20200016841F001010160006807
:103C700000F0010007900798FFE7FFE7002006909B
:103C800043F63000C4F20200016841F00201016015
:103C9000006800F0020006900698FFE7FFE70020AA
:103CA000059043F63000C4F20200016841F00401BF
:103CB0000160006800F0040005900598FFE74020CF
:103CC000089002200290099000210A910B90032095
:103CD0000C9040F60000C4F20200019008A9049183
:103CE000FEF738FB04998020009008900020C4F271
:103CF0000200FEF72FFB009A019804990892FEF744
:103D000029FB04990120089040F20040C4F202000F
:103D10000390FEF71FFB019804994FF480720892FC
:103D2000FEF718FB029A039804990892FEF712FB1B
:103D3000FFE70EB080BD000081B0009001B0704779
:103D400080B586B004900391029200208DF80700A0
:103D5000FFE7049890F83C00012804D1FFE7022017
:103D60008DF8170089E00499012081F83C00FFE7F5
:103D7000FFE7029800900C2800F270800099DFE8BD
:103D800001F0076D6D6D206D6D6D3A6D6D6D5300B9
:103D900004980068039901F0BDF9049801688869E6
:103DA00040F00800886104980168886920F00400E8
:103DB00088610398026904980168886910438861E2
:103DC00050E004980068039901F01AFA0498016819
:103DD000886940F40060886104980168886920F46B
:103DE000806088610398026904980168886940EAE4
:103DF0000220886136E004980068039901F07AFA9D
:103E000004980168C86940F00800C8610498016816
:103E1000C86920F00400C861039802690498016829
:103E2000C8691043C8611DE004980068039901F057
:103E3000DBFA04980168C86940F40060C86104981E
:103E40000168C86920F48060C86103980269049819
:103E50000168C86940EA0220C86103E001208DF8CA
:103E60000700FFE7FFE70499002081F83C00FFE727
:103E70009DF807008DF81700FFE79DF8170006B0C2
:103E800080BD000080B582B00090009820B9FFE7A7
:103E900001208DF807003FE0009890F83D0040B900
:103EA000FFE70099002081F83C00009800F038F806
:103EB000FFE70099022081F83D00009951F8040BBA
:103EC00000F0EEFF0099012081F84600FFE700991D
:103ED000012081F83E00009981F83F00009981F8A7
:103EE0004000009981F84100FFE7FFE700990120B9
:103EF00081F84200009981F84300009981F844005C
:103F0000009981F84500FFE70099012081F83D0004
:103F100000208DF80700FFE79DF8070002B080BD84
:103F200081B0009001B0704781B0009001B070473F
:103F300080B58CB00A900991099828B9FFE70A98D2
:103F400090F83E0007901CE00998042805D1FFE78F
:103F50000A9890F83F00069010E00998082805D1CB
:103F6000FFE70A9890F84000059004E00A9890F85E
:103F700041000590FFE705980690FFE70698079037
:103F8000FFE70798012804D0FFE701208DF82F00F4
:103F9000AFE0099828B9FFE70A99022081F83E00AE
:103FA0001EE00998042806D1FFE70A99022081F84B
:103FB0003F00049012E00998082806D1FFE70A990B
:103FC000022081F84000039005E00A99022081F860
:103FD00041000390FFE703980490FFE70498FFE790
:103FE0000A98006809990122019201F02BF80198C2
:103FF0000A9909680022C4F20102914202900CD091
:10400000FFE70A9800684FF60041CBF6FE710844BE
:10401000B0FA80F040090290FFE70298C00738B17B
:10402000FFE70A980168486C40F400404864FFE7E5
:104030000A9800680021C4F2010188423CD0FFE7E1
:104040000A980068B0F1804F36D0FFE70A98006800
:1040500040F20041C4F2000188422DD0FFE70A98E7
:10406000006840F60001C4F20001884224D0FFE756
:104070000A98006840F60041C4F2000188421BD053
:10408000FFE70A98006840F20041C4F2010188424B
:1040900012D0FFE70A98006844F20001C4F201015F
:1040A000884209D0FFE70A98006841F60001C4F28F
:1040B0000001884212D1FFE70A980068806800F08A
:1040C000070008900898062807D0FFE70A980168BB
:1040D000086840F001000860FFE706E00A98016800
:1040E000086840F001000860FFE700208DF82F000D
:1040F000FFE79DF82F000CB080BD000081B000905C
:1041000001B0704781B0009001B0704782B001905B
:10411000ADF8021002B0704781B0009001B0704756
:1041200080B592B0119011980068006810901198B5
:104130000068C0680F901198006840690E900020D8
:104140000D900C90109800F00F000D900D9888B90C
:10415000FFE79DF84000800600280AD5FFE79DF89C
:104160003C008006002804D5FFE7119801F04CFAC6
:1041700002E2FFE70D98002800F0C280FFE79DF8FB
:104180003800C00738B9FFE7BDF83C0010F4907F55
:1041900000F0B680FFE79DF84000C00758B1FFE788
:1041A0009DF83D00C00730B1FFE71199486C40F021
:1041B00001004864FFE79DF84000400700280BD548
:1041C000FFE79DF83800C00730B1FFE71199486C50
:1041D00040F002004864FFE79DF840008007002897
:1041E0000BD5FFE79DF83800C00730B1FFE7119904
:1041F000486C40F004004864FFE79DF84000000769
:10420000002811D5FFE79DF83C008006002805D462
:10421000FFE79DF83800C00730B1FFE71199486CFF
:1042200040F008004864FFE71198406C002866D011
:10423000FFE79DF84000800600280AD5FFE79DF8BB
:104240003C008006002804D5FFE7119801F0DCF956
:10425000FFE7119800684069C0F380100C90119836
:10426000406C0007002804D4FFE70C9800283ED0DB
:10427000FFE7119801F06AF911980068406940065B
:1042800000282FD5FFE7FFE7FFE71198006850E807
:10429000050F20F040000B90FFE70B991198026882
:1042A00042E805100028F0D1FFE7FFE71198C06B46
:1042B00098B1FFE71198C16B45F23150C0F600008C
:1042C00008651198C06BFDF779FD28B1FFE71198DB
:1042D000C06B016D8847FFE703E01198FFF71CFFF3
:1042E000FFE703E01198FFF717FFFFE706E01198DB
:1042F000FFF712FF119900204864FFE7FFE73BE159
:104300001198006B012840F01781FFE79DF84000ED
:10431000C006002840F11081FFE79DF83C00C00670
:10432000002840F10981FFE7FFE700200A9011987B
:10433000006800680A901198006840680A900A981E
:10434000FFE71198006840694006002840F19A8014
:10435000FFE71198C06B00684068ADF82600BDF813
:104360002600002875D0FFE7BDF826001199898D39
:1043700088426EDAFFE7BDF826001199C8851198CA
:10438000C06BC069B0F5807F58D0FFE7FFE7FFE75B
:104390001198006850E8030F20F480700890FFE740
:1043A00008991198026842E803100028F0D1FFE74D
:1043B000FFE7FFE7FFE71198006850E8050F20F0DE
:1043C00001000790FFE707991198026842E805107D
:1043D0000028F0D1FFE7FFE7FFE7FFE7119800684B
:1043E00050E8050F20F040000690FFE7069911986D
:1043F000026842E805100028F0D1FFE7FFE71199B5
:10440000202081F84200119900200863FFE7FFE7B0
:104410001198006850E8030F20F010000590FFE7A6
:1044200005991198026842E803100028F0D1FFE7CF
:10443000FFE71198C06BFDF74BFCFFE711990220D5
:1044400048631198818DC28D891A89B2FFF75EFE8B
:1044500017E0BDF826001199898D884210D1FFE739
:104460001198C06BC069B0F5807F08D1FFE7119942
:10447000022048631198818DFFF748FEFFE7FFE7B0
:10448000FFE779E01199888DC98D401AADF81200C7
:104490001198C08D00284ED0FFE7BDF8120000280B
:1044A00049D0FFE7FFE7FFE71198006850E8030FE6
:1044B00020F490700390FFE703991198026842E896
:1044C00003100028F0D1FFE7FFE7FFE7FFE71198AF
:1044D000006850E8050F20F001000290FFE7029904
:1044E0001198026842E805100028F0D1FFE7FFE7C5
:1044F0001199202081F84200119900200863FFE7FC
:10450000FFE71198006850E8030F20F010000190B9
:10451000FFE701991198026842E803100028F0D1E2
:10452000FFE7FFE71199022048631198BDF81210C8
:10453000FFF7ECFDFFE71FE09DF8400000060028B4
:104540000AD5FFE79DF83C000006002804D5FFE7E8
:10455000119801F0ABF90FE09DF8400040060028EB
:104560000AD5FFE79DF83C004006002804D5FFE788
:10457000119801F035F8FFE712B080BD80B582B028
:104580000090009820B9FFE701208DF8070040E077
:104590000098806908B1FFE700E0FFE7009890F815
:1045A000410040B9FFE70099002081F840000098E1
:1045B00000F034F8FFE70099242081F841000098CA
:1045C0000168C86820F40050C860009801F0D0F875
:1045D00000980168086920F490400861009801681B
:1045E000486920F02A00486100980168C86840F4D2
:1045F0000050C860009900204864009A202182F889
:104600004110009A82F84210009948638DF8070023
:10461000FFE79DF8070002B080BD000080B58CB0B8
:104620000B9000200A9009900890079006900B9834
:10463000006841F20001C4F2010188423FD1FFE766
:10464000FFE70020059043F64400C4F20200016831
:1046500041F010010160006800F01000059005981D
:10466000FFE7FFE70020049043F63000C4F20200A9
:10467000016841F001010160006800F00100049050
:104680000498FFE74FF4C0600690022007900020D6
:104690000290089003200190099007200A900020C2
:1046A000C4F2020006A9FDF755FE0199029A2520E1
:1046B0000390FEF7F3F80398FEF7E6F8FFE70CB077
:1046C00080BD000081B0009001B0704780B58AB015
:1046D00008900791ADF81A200593002002900898E1
:1046E00090F84100202840F08180FFE7079820B132
:1046F000FFE7BDF81A0020B9FFE701208DF8270079
:1047000078E00899002048640899212081F8410048
:10471000FEF72CF80290BDF81A0008998884BDF8BD
:104720001A000899C88408988068B0F5805F09D19C
:10473000FFE70898006928B9FFE700200490079870
:10474000039004E00798049000200390FFE7FFE740
:104750000898C08C78B3FFE70898029B05996A46D1
:1047600011608021002201F0EBF840B1FFE70899C9
:10477000202081F8410003208DF827003AE00498BA
:1047800058B9FFE7039800886FF35F20089909681C
:10479000486003980230039008E004980078089974
:1047A00009684860049801300490FFE70899C88CB4
:1047B0000138C884CCE70898029B05996A461160C5
:1047C0004021002201F0BCF840B1FFE70899202009
:1047D00081F8410003208DF827000BE00899202084
:1047E00081F8410000208DF8270003E002208DF8B9
:1047F0002700FFE79DF827000AB080BD81B0009038
:1048000001B07047FFE7FEE780B586B00021009158
:10481000059104910391029140F2D000C2F2000090
:10482000019042F20002C4F2010202604FF48032B1
:104830004260816001220261017680F820104FF011
:104840008053C3624FF060638362C1600523C3611C
:1048500080F830204161FDF731F818B1FFE7FCF72F
:10486000C7FEFFE70020029001200390049040F271
:10487000D000C2F2000002A9FCF7BEFE18B1FFE7AB
:10488000FCF7B6FEFFE7012002900220039040F201
:10489000D000C2F2000002A9FCF7AEFE18B1FFE79B
:1048A000FCF7A6FEFFE7042002900320039040F2ED
:1048B000D000C2F2000002A9FCF79EFE18B1FFE78B
:1048C000FCF796FEFFE7052002900420039040F2DB
:1048D000D000C2F2000002A9FCF78EFE18B1FFE77B
:1048E000FCF786FEFFE70A2002900520039040F2C5
:1048F000D000C2F2000002A9FCF77EFE18B1FFE76B
:10490000FCF776FEFFE706B080BD000080B582B000
:10491000FFE70020019043F63000C4F20200016876
:1049200041F480010160006800F48000019001986A
:10493000FFE73820009000221146FDF7AFFF0098F6
:10494000FDF7A2FF02B080BD80B590B000200F90AF
:104950000E900D900C900B90FFE700200A9043F60C
:104960003000C4F20200016841F08001016000687B
:1049700000F080000A900A98FFE7FFE70020099006
:1049800043F63000C4F20200016841F00101016009
:10499000006800F0010009900998FFE7FFE7002098
:1049A000089043F63000C4F20200016841F00201B1
:1049B0000160006800F0020008900898FFE7FFE738
:1049C0000020079043F63000C4F20200016841F075
:1049D00004010160006800F0040007900798FFE7F9
:1049E000FFE70020069043F63000C4F202000168A1
:1049F00041F010010160006800F010000690069878
:104A0000FFE740F20040C4F2020002902821019129
:104A100001220392FDF792FE019A029803990B92EC
:104A200011220C920D91002104910E910BA9059178
:104A3000FDF790FC039A049805991E230B930C90A4
:104A40000D920E9041F20000C4F20200FDF782FCCC
:104A500010B080BD80B598B00021019117911691DA
:104A60001591149113911291119110910F910E9132
:104A70000D910C910B910A91099108910791069162
:104A800005910491039140F27C10C2F20000029063
:104A900040F20042C4F201020260416020228260C2
:104AA00041F26702C2600161012242618161FEF749
:104AB00075FE18B1FFE7FCF79BFDFFE74FF4805050
:104AC000149040F27C10C2F2000014A9FEF7DEFE42
:104AD00018B1FFE7FCF78CFDFFE740F27C10C2F253
:104AE0000000FFF7CFF918B1FFE7FCF781FDFFE702
:104AF000202012900020139040F27C10C2F200009F
:104B000012A9FEF787FC18B1FFE7FCF771FDFFE77C
:104B100060200B9000220C920D920E920F92109238
:104B2000119240F27C10C2F200000BA9FFF708F9C5
:104B300018B1FFE7FCF75CFDFFE740F27C10C2F222
:104B400000000BA90422FFF7FBF818B1FFE7FCF700
:104B50004FFDFFE740F27C10C2F200000BA90822D3
:104B6000FFF7EEF818B1FFE7FCF742FDFFE74FF45F
:104B7000006003904FF48060049000200590542161
:104B8000069107904FF4005108910A9040F27C1072
:104B9000C2F2000003A9FEF7E3FB18B1FFE7FCF740
:104BA00027FDFFE740F27C10C2F20000FFF742F859
:104BB00018B080BD80B582B040F2C410C2F20000CF
:104BC000019041F20001C4F2010101604FF4E121C2
:104BD000416000218160C16001610C2242618161FC
:104BE000C161FFF7CBFC18B1FFE7FCF701FDFFE760
:104BF00002B080BDFFE7FEE7FFE7FEE788B0079061
:104C000006910592079800F0070004900498C0F1FF
:104C10000700052803D3FFE70420019004E004986F
:104C2000C0F107000190FFE7019803900498043059
:104C3000062803D8FFE70020009003E0049803381B
:104C40000090FFE70098029006980399012202FA6B
:104C500001F101390840029B984005999A40013AB8
:104C60001140084308B070477047000070470000CB
:104C700080B586B08DED050ACDED040A8DED031AE1
:104C80009DED050ADFED340ACDED010A9FED331AE3
:104C90008DED021A01F0A6F8DDED010A9DED021A74
:104CA0008DED050A9DED040A01F09CF8DDED010A89
:104CB0009DED021A8DED040A9DED030A01F092F8B4
:104CC0008DED030A9DED050AB7EE003A30EE030ABA
:104CD000B6EE002A20EE020A9FED211A20EE010A0C
:104CE000BCEEC00A40F2A801C2F2000181ED000A48
:104CF0009DED040A30EE030A20EE020A20EE010ABE
:104D0000BCEEC00A40F2AC02C2F2000282ED000A20
:104D10009DED030A30EE030A20EE020A20EE010A9E
:104D2000BCEEC00A40F2B000C2F2000080ED000A02
:104D30000B6840F27C11C2F20001D1F800C0CCF83F
:104D4000343012680B689A6300680968C86301F020
:104D500075F906B080BD00BF333373BF3333733F83
:104D60000038834580B582B0009000980138B0F1DA
:104D7000807F03D3FFE70120019019E000980138FC
:104D80004EF21401CEF2000108604FF0FF300F2107
:104D900000F00EFF4EF21801CEF200010020086074
:104DA0004EF21002CEF20002072111600190FFE7DF
:104DB000019802B080BD000080B5FDF7DDFC80BD2C
:104DC00080B594B008A83021FBF7DCFA00200790EA
:104DD0000690059004900390FFE70020029043F6B0
:104DE0004000C4F20200016841F080510160006897
:104DF00000F0805002900298FFE7FFE7002001904A
:104E000047F20000C4F20000016841F480410160F3
:104E1000006800F4804001900198FFE702200890AC
:104E200001210B9110210C910E9000210F9108216E
:104E30001091A821119112900420139008A8FDF759
:104E40001FFF18B1FFE7FCF7D3FBFFE70F2003902C
:104E500002200490002005904FF4A05006904FF4DB
:104E60008050079003A80521FDF73AFD18B1FFE730
:104E7000FCF7BEFBFFE714B080BD00004EF6885182
:104E8000CEF20001086840F470000860704700002E
:104E900080B540F27C10C2F20000FEF7BDFD80BD7F
:104EA00083B002900191029800680090029800215E
:104EB000C4F20101884225D0FFE70298B0F1804F8B
:104EC00020D0FFE7029840F20041C4F2000188427E
:104ED00018D0FFE7029840F60001C4F200018842B2
:104EE00010D0FFE7029840F60041C4F2000188426A
:104EF00008D0FFE7029840F20041C4F20101884265
:104F00000AD1FFE7009820F07000009001984168F6
:104F1000009808430090FFE702980021C4F20101C5
:104F2000884255D0FFE70298B0F1804F50D0FFE79C
:104F3000029840F20041C4F20001884248D0FFE7E5
:104F4000029840F60001C4F20001884240D0FFE719
:104F5000029840F60041C4F20001884238D0FFE7D1
:104F6000029840F20041C4F20101884230D0FFE7CC
:104F7000029844F20001C4F20101884228D0FFE700
:104F8000029844F20041C4F20101884220D0FFE7B8
:104F9000029844F60001C4F20101884218D0FFE7EC
:104FA000029841F60001C4F20001884210D0FFE7E8
:104FB000029841F60041C4F20001884208D0FFE7A0
:104FC000029842F20001C4F2000188420AD1FFE7D0
:104FD000009820F4407000900198C1680098084340
:104FE0000090FFE7009820F080000199496908438C
:104FF0000090019880680299C8620198006802993F
:10500000886202980021C4F20101884208D0FFE7BB
:10501000029840F20041C4F20101884205D1FFE745
:105020000198006902990863FFE70299086840F057
:105030000400086002990120486100980299086004
:1050400003B0704784B0039002910192029800F07F
:105050001F01012088400090009A0399086A90433C
:1050600008620198029901F01F0100FA01F2039908
:10507000086A1043086204B07047000084B00390CF
:1050800002910192029800F00F01042088400090E4
:10509000009A0399086A904308620198029901F006
:1050A0000F0100FA01F20399086A1043086204B084
:1050B0007047000085B00490039102920193049818
:1050C00080680090009820F47F4000900398029937
:1050D000019A41EA02210143009808430090009898
:1050E0000499886005B0704783B0029001910298DE
:1050F00080680090009820F070000090019800995E
:10510000084340F00700009000980299886003B0BF
:105110007047000085B0049003910498006A0190E4
:105120000499086A20F00100086204984068009021
:10513000049880690290029820F070000290029812
:1051400020F003000290039801680298084302903F
:10515000019820F0020001900398816801980843AB
:10516000019004980021C4F20101884208D0FFE7B1
:10517000049840F20041C4F2010188420ED1FFE7D9
:10518000019820F0080001900398C1680198084335
:105190000190019820F004000190FFE7049800219D
:1051A000C4F20101884208D0FFE7049840F20041B0
:1051B000C4F20101884213D1FFE7009820F4807007
:1051C0000090009820F400700090039841690098C6
:1051D0000843009003988169009808430090FFE716
:1051E000009804994860029804998861039840687F
:1051F0000499486301980499086205B0704700005B
:1052000085B0049003910498006A01900499086A9B
:1052100020F01000086204984068009004988069AB
:105220000290029820F4E0400290029820F440702E
:10523000029003980168029840EA012002900198C8
:1052400020F02000019003988168019840EA011045
:10525000019004980021C4F20101884208D0FFE7C0
:10526000049840F20041C4F2010188420FD1FFE7E7
:10527000019820F0800001900398C168019840EAED
:1052800001100190019820F040000190FFE7049880
:105290000021C4F20101884208D0FFE7049840F2DF
:1052A0000041C4F20101884215D1FFE7009820F4C3
:1052B00080600090009820F400600090039841699D
:1052C000009840EA8100009003988169009840EAC4
:1052D00081000090FFE700980499486002980499C3
:1052E000886103984068049988630198049908626A
:1052F00005B0704785B0049003910498006A01904E
:105300000499086A20F4807008620498406800904C
:105310000498C0690290029820F0700002900298F0
:1053200020F003000290039801680298084302905D
:10533000019820F40070019003988168019840EA78
:105340000120019004980021C4F20101884208D094
:10535000FFE7049840F20041C4F2010188420FD1F6
:10536000FFE7019820F4006001900398C16801985C
:1053700040EA01200190019820F480600190FFE74D
:1053800004980021C4F20101884208D0FFE7049884
:1053900040F20041C4F20101884215D1FFE70098B4
:1053A00020F480500090009820F400500090039862
:1053B0004169009840EA01100090039881690098C3
:1053C00040EA01100090FFE70098049948600298B5
:1053D0000499C861039840680499C86301980499C6
:1053E000086205B07047000085B0049003910498EE
:1053F000006A01900499086A20F4805008620498B9
:10540000406800900498C0690290029820F4E0403F
:105410000290029820F4407002900398016802986C
:1054200040EA01200290019820F400500190039876
:105430008168019840EA0130019004980021C4F28B
:105440000101884208D0FFE7049840F20041C4F20D
:10545000010188420BD1FFE7009820F480400090C2
:1054600003984169009840EA81100090FFE7009896
:105470000499486002980499C861039840680499A7
:10548000086401980499086205B0704785B00490DB
:10549000039102920498006A00900499086A20F02F
:1054A00001000862049880690190019820F0F000E2
:1054B00001900299019840EA01100190009820F0B3
:1054C0000A000090039900980843009001980499FD
:1054D000886100980499086205B0704785B004900F
:1054E000039102920498006A00900499086A20F0DF
:1054F00010000862049880690190019820F47040BF
:1055000001900299019840EA01300190009820F042
:10551000A00000900399009840EA011000900198C3
:105520000499886100980499086205B070470000EA
:1055300080B582B001900198806B009000990020A6
:10554000C8850098FEF7E8FD02B080BD84B00390E6
:10555000FFE7FFE70398006850E8030F20F490701E
:105560000290FFE702990398026842E803100028BE
:10557000F0D1FFE7FFE7FFE7FFE70398006850E897
:10558000050F20F001000190FFE7019903980268E0
:1055900042E805100028F0D1FFE7FFE70398006B11
:1055A000012814D1FFE7FFE7FFE70398006850E800
:1055B000030F20F010000090FFE7009903980268A5
:1055C00042E803100028F0D1FFE7FFE7FFE7039967
:1055D000202081F8420003990020086304B070473E
:1055E00080B582B0019001980168C86820F0400041
:1055F000C8600199202081F841000198FFF7FEF86A
:10560000002002B080BD000080B586B0049000206C
:1056100003900290049890F84200222840F0A08065
:10562000FFE704988068B0F5805F13D1FFE7049826
:10563000006978B9FFE70498806A029004980068CE
:1056400040686FF35F20029908800499886A0230ED
:10565000886223E00498806A039004988068B0F51B
:10566000805F08D0FFE70498806850B9FFE704988E
:10567000006930B9FFE70498006840680399087032
:1056800007E004980068406800F07F000399087004
:10569000FFE70499886A01308862FFE70499C88DA2
:1056A0000138C8850004002856D1FFE70498016836
:1056B000C86820F02000C86004980168C86820F419
:1056C0008070C86004980168486920F00100486152
:1056D0000499202081F8420004990020486304982E
:1056E000006B012830D1FFE7049900200863FFE731
:1056F000FFE70498006850E8030F20F010000190C5
:10570000FFE701990498026842E803100028F0D1ED
:10571000FFE7FFE7049800680068C00600280ED580
:10572000FFE7FFE700200090049800680068009001
:1057300004980068406800900098FFE7FFE704982D
:10574000818DFEF7E3FC03E00498FEF7BBFFFFE763
:1057500000208DF8170007E000208DF8170003E007
:1057600002208DF81700FFE79DF8170006B080BDF6
:1057700080B586B0059005980068006920F4405017
:10578000059A1168D26810430861059988680B6909
:105790004A69C96918431043084304900598006892
:1057A000C06849F20C618843049908430599096867
:1057B000C86005980068406920F44070059A116837
:1057C0009269104348610598006841F20001C4F2F3
:1057D0000101884209D0FFE70598006841F20041C5
:1057E000C4F20101884204D1FFE7FDF7C3F9039039
:1057F00003E0FDF7ADF90390FFE70598C069B0F548
:10580000004F29D1FFE703981921A0FB0101059A58
:105810001368029353685A00DB0FFAF73BFD0299B5
:10582000864648F21F53C5F2EB13AEFB0320420934
:1058300010014FF0640C02FB1CEC322202EBCC0294
:10584000A2FB0332F82303EA521300EB4300C2F336
:1058500042121044886026E003981921A0FB010140
:10586000059A1368019353689A009B0FFAF712FD8B
:105870000199844648F21F52C5F2EB12ACFB02308C
:105880004309642003FB10CC322000EB0C10A0FB7A
:105890000202F02000EA521000EB0310C2F34312A0
:1058A00010448860FFE706B080BD000083B001901F
:1058B000019890F8410021283AD1FFE701988068CB
:1058C000B0F5805F13D1FFE70198006978B9FFE771
:1058D0000198006A0090009800886FF35F2001999A
:1058E000096848600199086A0230086208E0019A74
:1058F000106A411C11620078019909684860FFE74D
:105900000199C88C0138C884000468B9FFE7019880
:105910000168C86820F08000C86001980168C86804
:1059200040F04000C860FFE700208DF80B0003E066
:1059300002208DF80B00FFE79DF80B0003B07047C5
:1059400080B586B0DDF820C0049003918DF80B205F
:105950000193FFE704980068006803990840401A23
:10596000B0FA80F040099DF80B1088424DD1FFE756
:1059700008980130002847D0FFE7FCF7F7FE0199AF
:10598000401A0899884203D8FFE7089820B9FFE732
:1059900003208DF817003CE004980068C0684007B9
:1059A000002830D5FFE7039880282CD0FFE7039824
:1059B000402828D0FFE704980068006800F008013C
:1059C0000120B0EBD10F1DD1FFE7FFE700200090D1
:1059D000049800680068009004980068406800908F
:1059E0000098FFE70498FFF7B1FD04990820486488
:1059F000FFE70499002081F84000FFE701208DF8BF
:105A0000170006E0FFE7FFE7A4E700208DF8170086
:105A1000FFE79DF8170006B080BD000080B540F29A
:105A2000C410C2F20000FEF77BFB80BDFFE7FEE77B
:105A300040F27811C2F200010020087040F23441B7
:105A4000C2F20001087040F29201C2F20001088027
:105A50007047000082B0019040F29201C2F2000152
:105A600008880130088080B2042801DCFFE744E0A8
:105A700040F29201C2F20001002008808DF803007C
:105A8000FFE79DF8030003281BDCFFE701989DF862
:105A9000031050F8210040F27811C2F200010A7898
:105AA00040F23C41C2F2000101EB02119DF80320DB
:105AB00041F82200FFE79DF8030001308DF8030054
:105AC000DFE740F27810C2F200000078013000F009
:105AD00007008DF802009DF8020040F23441C2F246
